:2000000000400020C10C010001C9011001C9011001C9011001C9011001C9011001C9011090
:1C00200001C9011001C9011001C9011001C9011001C9011001C901103FC9011089
:20003C0080B54FF4FC720FF278011A480CF03AFA012119484174002202210270C17601BDCE
:20005C002DE9F0410FF2502214493820136854689568D6681769D2F814C0D2F818E0D2F8F9
:20007C001C800B604C608D60CE600F61C1F814C0C1F818E0C1F81C8020322031401EE5D1DC
:20009C0050689368D46812680A6048608B60CC60BDE8F081480400215903002100C00021D1
:2000BC00410500217D0500212D06002170B51D46004C204787B2000010B5014800470000FD
:2000DC00D509000070B5614C6148254650358047022809D14034E1885E4A914204D1E97C5E
:2000FC00890601D4911DE18070BD70B557495A4A084650300378002B10D08379012B0DD181
:20011C00037C5B09DB0709D0097D544DC1746C7F20202043687790476C7770BDFF21C17420
:20013C00904770BD10B54E48484C804702280ED121464031CA88474B9A4208D1CA7C5209CE
:20015C00D20704D0227D920601D49A1DCA8010BD70B53E4843494030C07C4009C00707D032
:20017C003E4D41482C8B2043288388472C8370BD884770BD10B53B48344CAC388047214609
:20019C0053310A789309DB0705D04034A2730A7803231A430A7010BD2C4940310871182876
:2001BC0012D004DC0A280BD00B2804D10AE025280CD02A280CD02D4980004018C0687047DE
:2001DC002B4870472B4870472B4870472B4870472B48704770B504461C484E252D5CAE09AB
:2001FC00F60716D0067D3007000F052803D00120054202D00DE00220FAE7E80905D07006D1
:20021C0003D54868800F012803D05B085B0052085200062B03D01020022B11D011E0FB20F7
:20023C00024002232046FFF741FF002807DAC100611A2039497E1422114200D1002070BD93
:20025C00024303432046FFF731FF70BD4401002137CB000004140000EBC80000A800002142
:20027C00F5B4000053AD00002020000080DF00001D050021F9040021CD040021930400210F
:20029C006D04002110B5034CFFF716FF20680028FAD110BD0011044068610000F825F965B0
:2002BC00F9754500450045002600260057A3520052004C00401F401F401F3F000000000053
:2002DC00304000400140034007400F404F40CF40CF41CF43CF47CF4FCF3FCF2FCF1FCF0F6C
:2002FC00000000000000000000000F00080000003F00000040003F000000040068000E0093
:20031C00DC00060043001A00050000000000020000000000000000000400C00000000400B3
:20033C00C000000007000000000000000000000000000000000000003040004001400340A6
:20035C0007400F404F40CF40CF7FCF6FCF5FCF4FCF3FCF2FCF1FCF0F00000000000000009D
:20037C0050C00091007070C00091007082312100319110B10070018101B100A1823132910D
:20039C0010B101911110418141227740F106007051C0019130181039833108D01831416FD1
:2003BC003100319110B18314141683680070251050C00091F4C340C12014036F3110410497
:2003DC005082F0229840512622C082312100319110B163393110410482C08231210031919B
:2003FC0010B163393110A2C082312100319110B150101531051405920070676452C03110A6
:20041C0031066131C1026A6412C13110213971065131E1026A64007051C0019101CCE2C0CC
:20043C006A64676411C1C2C06A6450B054B0007140804022D6440022C94060B08180111EC9
:20045C00C944007054A064B0F0800022C9404012B09032B070C1DF6811C122C16A6470C1C0
:20047C00E46851C00191E2C0823160820200329110B130C2EE68538253395339B16460C347
:20049C00F4688012B09032B00070676401C122C16A6401C1C2C06A645382B164C012B09074
:2004BC0032B00070676472C281C06A6422C111C16A6402C011C16A6462C031C36A6462C3D2
:2004DC0011C16A6402C311C16A6453825339B164E2C36F6411221C4142C281C86A6452C24E
:2004FC0011C16A6472C2E1CE6A6402C281C86A6402C201C86A64B0C030690070676442C211
:20051C0001C86A6452C211C06A6472C2E1C06A6402C001C16A6462C001C36A6422C101C127
:20053C006A6462C301C16A6402C301C16A645382B16400708180111E5C4150B054B000712B
:20055C00408040225D4154A064B0F1800122514500700022514160B04E61000000000000AA
:20057C000000000000000000067305720B720E7250B00071818060B050A09280F0EFF1928C
:20059C0002936A6741228C458080F1C11004301601110114016CB561B661B761B861B9618D
:2005BC00BA61BB61BD61BF61C161C36126632D63F0C002043231412A121432160111211412
:2005DC00016CDA61C561E061C761CB61B561B561B561F461C561FA61C761CB61B561B56104
:2005FC00B561F461C561FA61C761CB61B561B561B561E761C561ED61C761CB61B561B56121
:20061C00B561CF61CF61CF61CF61CF61CF61C064CF61F964CF610665CF613265CF6174676A
:20063C00CF611166CF61C0644E65F964CF61066511663265CF618280E0DFF2926A67B0B044
:20065C00D661B1B00673057230B06C61D0CF6A6784C203C0C0C37C64207851788278E378B7
:20067C001579B6780062C0CF6A6784C203C0C0C37C64307861789278F3781579C678006250
:20069C00B0CF6A6784C203C0C0C37C6440787178A27803791579D678109221923292439281
:2006BC005492659256911FC0FF914039F00601101031101400927067CF61E3B054A0F08076
:2006DC0050221A4640800022BE461262E3A000C86091598150B0918041228E46A0CF6A6734
:2006FC0012828231823942398B641282F2062F101F312F141682D622334640C1346200C5AF
:20071C0020140D6F6D39DE10F4C34E0482C082312E006D39A2C082312D001A828A39FA0606
:20073C002082803180390BC00B18BC10AC18038239149B141082F0060110103110145181C2
:20075C0010140C14C622C94631D0C1266462021011C0013010C00118021882312100C126C2
:20077C00919103B013B063B053B041800122BE46B481C491D581B51C774E95186591F0803E
:20079C00102269428C623D9110B13E9110B1E08000228146E6228142E0B0951865910F926B
:2007BC005981F914F0805022114210228C464D6390CF6A6763B052A03082F2C0200402107E
:2007DC0011C0013010C00118021882312100C1269191919113B003B063B053B064B054B055
:2007FC00007141800122BE4663B064B0F08050221142B181C191D1819118619131B0A462D0
:20081C002967E0A059810582591480C0007163B0BA6A6962E3A0018262818231823D80EF61
:20083C00F19202936A6703A0007037824739873930828039F006021011C0013010C0011849
:20085C00021882312100C126819102B012B030824039F006021011C0013010C001180218E9
:20087C0082312100C126919103B013B063B053B0007153A062B052B041800122BE46A4816E
:20089C00C491D581B51CFE4E95186591F0801022F0428C62B481C491D4814518751C084FEB
:2008BC00F0801022F0428C623D9110B13E9110B1E08000221247E6221243E0B065910F92DC
:2008DC005981F914F0805022114210228C4630632967E0A0598105825914F0C0007162B038
:2008FC00226BF062A2808B64CF6112824239F2068B6050B00071CF6170CF6A674082418096
:20091C000122BE46A481C491D58195186591F18011228C46336B41800122BE46A481C491AB
:20093C00D581C51C1C4B95186591F08010223F438C6260CF6A67408241800122BE46B48169
:20095C00C491D58195186591F18011228C46506B41800122BE46B481C491D581C51CB44A55
:20097C0095186591F08010225C438C62E092D08200226B47C0B20070A080F022874330B033
:20099C0002C1623101C0A080001E8043F022814380F86031603981632010101A136F236E5A
:2009BC0011161216826B00702DE9F84FDFF81885DFF8181588F80000002008600921DFF891
:2009DC00100501700D2141804FF408718180DFF80405DFF8041501608A7EDFF80005027042
:2009FC00FF2ACB7E437008BFFF2B0D7F85704E7FC6708F7F0771C97F417115D1FF2D08BFE8
:200A1C00FF2E11D1FF2F08BFFF290DD1DFF8D0140A7802704A7842708A788270CA78C27025
:200A3C000A79027149794171DFF8B81402780A70FF2542784A7082788A70C278CA7002791E
:200A5C000A714079DFF8A02448710021DFF89C04057045708570C570057145711180DFF872
:200A7C009004DFF89014466BDFF88C247078087031781170B078DFF884140870716908791F
:200A9C00DFF87C14421E0A70F078DFF878140870B069DFF87414086008B912F025FDF06998
:200ABC00DFF86844206008B912F01EFD2068DFF8607401688847216851F8042F3846904774
:200ADC00DFF85004DFF850143862DFF850047862306A086008B912F007FD706ADFF8401427
:200AFC00086008B912F000FDDFF838B4DFF838649BF8040013F03AF8306008B900F045B971
:200B1C009BF80500DFF8247413F030F8386008B9306837E19BF80600DFF8144413F026F895
:200B3C00206020B9306813F029F838682AE19BF80700DFF8009413F019F8C9F8000038B90E
:200B5C00306813F01BF8386813F018F8206819E1DFF8A4130A789BF80000DFF8DCA3921CEF
:200B7C00504380B213F002F8CAF8080058B9306813F004F8386813F001F8206812F0FEFF02
:200B9C00D9F80000FEE0DC480078002800F00281BBF80210DFF8A4B3484380B212F0E6FFBC
:200BBC00CBF8040078B9306812F0E8FF386812F0E5FF206812F0E2FFD9F8000012F0DEFFFF
:200BDC00DAF80800DEE0CC48007812F0CFFFDC49086080B9306812F0D1FF386812F0CEFF66
:200BFC00D9F8000012F0CAFFDAF8080012F0C6FFDBF80400C6E0C04800781C21484312F0D5
:200C1C00B5FFD04A1060B0B9306812F0B7FF386812F0B4FF206812F0B1FFD9F8000012F05F
:200C3C00ADFFDAF8080012F0A9FFDBF8040012F0A5FFC348A5E0B0480078400112F096FF13
:200C5C00C1490860D8B9306812F098FF386812F095FF206812F092FFD9F8000012F08EFF93
:200C7C00DAF8080012F08AFFDBF8040012F086FFB348006812F082FFB249086882E09E48FC
:200C9C000078000112F072FFB0490860F0B9306812F074FF386812F071FF206812F06EFF2C
:200CBC00D9F8000012F06AFFDAF8080012F066FFDBF8040012F062FFA148006812F05EFFB1
:200CDC00A049086812F05AFF9F485AE08A480078000112F04BFF9E49086018BB306812F0D0
:200CFC004DFF386812F04AFF206812F047FFD9F8000012F043FFDAF8080012F03FFFDBF8CF
:200D1C00040012F03BFF8E48006812F037FF8D49086812F033FF8C48006812F02FFF8B4947
:200D3C0008682FE0744800783021484312F01EFF884A106070BB306812F020FF386812F021
:200D5C001DFF206812F01AFFD9F8000012F016FFDAF8080012F012FFDBF8040012F00EFFFD
:200D7C007748006812F00AFF7649086812F006FF7548006812F002FF7449086812F0FEFE9C
:200D9C007348006812F0FAFE002012F0ADFB4FF4804192E0316801200871306805733168FE
:200DBC004D73306885733168CD7330680574002031684D743268D072A0223168487103214F
:200DDC003068C28001720720316848720020326890722821306841820121C17600203168BE
:200DFC004877326882F85E00012031680877326882F85D00396808713868057339684D7369
:200E1C00386885733968CD7338680574002039684D743A68D072396848713A6890724FF47D
:200E3C00207039680022C88008818A7401213A68D17421680D732268557321688D732268FD
:200E5C00D57321680D740021226855742368D9720121226811710021236859712168C88065
:200E7C000881002088722168887405202268D0743948016888472A490A6805461068804713
:200E9C0027490A6852F8043F0020984718481D4BC16818780A88314902430A802846304985
:200EBC000A6890470C212F4800F05EF80F4800F05FF800F061F84FF4005198F80000BDE833
:200EDC00F44F0AF07DBA00BF6E4F0020044F0020604E0020084F0020B63F00502C4E00204F
:200EFC00E81200503C4E00200C4F0020344E0020B85401006D4F00207B4F00206B4F002018
:200F1C00724F00206C4F0020F04E0020F44E00207C4B0020893B0100F84E0020993B010052
:200F3C00FC4E00206C1D0020104F0020F4290020184F0020F8290020CC290020684E002013
:200F5C00004F00206C230020F0290020884E00208C4E0020904E002008180020544F00202D
:200F7C000C180020F84D0020DFF800F0E5710110DFF800F01D6E0110DFF800F04D71011085
:200F9C00B0B5174C241D20680004070C23D01248006800688047114991F90720824205DDF8
:200FBC0010F1800FB8BF6FF07F00C8718D88BD4210D80A68D4F8D40F801A801C1F2888BF16
:200FDC001F207F1B4008C7404FF6FF70EF19B84238BF071C8F80B0BDEC010010E02900205B
:040FFC003010094068
:20100000B41200001810000015AB0110FDB301106DC00110FDAE011099B5011000000000F7
:08102000000000002D0000009B
:20102800B01200003C100000B1C00110A9BF011067C0011069B80110000000000000000035
:041048003000000074
:20104C00B012000060100000BDC00110CDB30110D9BD01106DB3011000000000000000005B
:04106C00310000004F
:20107000000000008C1D002004000000000000000000000020000000E8C901103000000081
:2010900028100000941D00200400000000000000000000000C000000D8CA0110180000005C
:2010B0004C1000009C1D002004000000000000000000000024000000F0CA011018000000E0
:2010D00000000000A41D00200400000000000000000000001000000018CA01102C000000EC
:2010F00000100000B41D0020040000000000000000000000200000006CCA01102400000050
:20111000FFFFFFFFBC1D00200400000000000000000000002800000090CA0110240000000F
:20113000FFFFFFFFC41D00200400000000000000000000001400000008CB0110180000008E
:20115000FFFFFFFFCC1D002004000000000000000000000058000000B4C90110340000005C
:20117000FFFFFFFFD41D00200400000000000000000000001000000020CB0110180000002A
:20119000FFFFFFFFDC1D00200400000000000000000000001C000000B4CA01102400000057
:2011B000FFFFFFFFE41D00200400000000000000000000003800000044CA0110280000007F
:2011D000FFFFFFFFEC1D00200400000000000000000000005400000078C901103C000000F4
:0811F000010000009C54010005
:0411F80001000000F2
:0411FC0000000E00E1
:0412000000000F00DB
:0412040032000000B4
:0412080001000000E1
:04120C005C1C002046
:0412100000020000D8
:0412140000000000D6
:0412180001C90110F7
:04121C0000000000CE
:0412200000000000CA
:0412240008000000BE
:0412280000002200A0
:04122C00C41A0020C0
:0412300000000000BA
:0412340000000000B6
:0412380008000000AA
:04123C00001C002072
:0412400000000000AA
:0412440000000000A6
:04124800080000009A
:04124C00000000009E
:04125000000000009A
:041254000000000096
:041258000000000092
:04125C00010000008D
:041260002C1B002023
:041264000600000080
:041268000100000081
:04126C00A81900209D
:04127000000000007A
:041274000000000076
:041278000002000070
:04127C00000000006E
:02128000290043
:02128200010069
:02128400250043
:02128600300036
:02128800310033
:02128A002D0035
:02128C0001005F
:01128E00015E
:081290000300000038540100C6
:0812980000000000000000004E
:0412A0000000010049
:0412A4000000030043
:0412A80013C401105A
:0412AC0031390100D3
:0412B000B812000070
:0412B400B81200006C
:0412B8000000000032
:0412BC002C1D0020C5
:0412C000953A01005A
:0412C4002000000006
:0412C800A45301002A
:0412CC003452010097
:0412D00029C101101F
:0412D400DF0801002E
:0412D800AF0B010057
:0412DC00A1C7011095
:0412E000A3C701108F
:0412E4000000000006
:0412E800CB530100E3
:0412EC007450010039
:0412F0008C5001001D
:0412F4005C50010049
:0212F8000200F2
:0212FA000900E9
:0212FC000100EF
:0212FE000000EE
:0113000001EB
:04130400113A010099
:04130800BD1D010006
:04130C00D12E0100DD
:0413100005210100B2
:041314006B21010048
:04131800210B0100A4
:04131C0049E30000A1
:04132000613C01002B
:04132400BDF7000011
:0413280015C70110D4
:04132C0025C70110C0
:201330002DE9F04F0C4685B0834614F8010BDFF870278DF8000018280BF1FD010BF1E708C8
:201350000BF166090BF20D1A0BF5B0760BF59C750BF5C67700F29183DFE810F019006F0025
:201370005F0191008F038F03FA00690311012301FE000D0133018F038F037C018F036101D7
:2013900055017503D602D60227028F03740214F8010B8BF88600022221460BF1880013F05B
:2013B000FDF8014602220BF18A0013F0F7F8014602220BF18C0013F0F1F8014602220BF1FF
:2013D0008E0013F0EBF804469BF8860040008BF886000BF1860102224888400048800BF162
:2013F00086008188490081800BF1860108890001088121460BF1840013F0D0F8B9F81E10D5
:20141000BBF80800091A89B247F6FF7291422ADA0BF18601C8888A88401C520050430A8965
:20143000904203D33B208AF80B0039E2012089F81C000020ABF81E001EE0052221460BF1CA
:20145000610013F0ABF8014602220BF1920013F0A5F80BF1860047F6FF728189BBF80800E7
:20147000091A89B2914280F218820BF18600012181720021ABF81E10012028700CE398F85E
:201490001600C1070AD41A2198F80D0088F80E10012808BF0D213FD00D21CDE1002089F860
:2014B000000089F806000822012088F8110021460BF1B00013F072F8014602220BF1B8001A
:2014D00013F06CF80BF1A80601460822304613F065F804460821304613F05CF80BF19C06C6
:2014F00004222146304613F059F80421304613F051F80BF1A00013F049F80BF1980013F027
:2015100041F8DFF8A005018841F08001018098F80D00012806D10421584605B0BDE8F04F51
:2015300010F0D8BA99F81000012804BF99F811100F290BD158460EF0CBFA042158460DF095
:20155000D7FB0F2089F81A00FD2175E1042173E1012088F80F009FE2002089F8000089F89F
:20157000060088F800000B21012088F80D00002088F8010060E1012088F810008CE20020DA
:2015900002F10906235C365C33432354561C365C33400B54401C0828F2DB58460DF042FE31
:2015B00070E2002002F10905235C2D5C2B432354551C2D5C2B400B54401C0828F2DB02207C
:2015D00048E299F8060008B93D2167E19AF800000128D3D014F8011B8AF80310022221462D
:2015F0000BF5897012F0DAFF014602220BF58A7012F0D4FF01208AF800009AF8020000286E
:201610001BD10C2118E198F81600C10601D41221D1E058460EF0F2FE34E221783EE1207890
:2016300030706078707099F8100001280CD199F811100F2902D0162902D02DE268732BE2D7
:20165000387B40F0010016E205B0BDE8F04F002011F050BF98F81600810707D410F0110FAC
:2016700008BF0F2000F009821A2252E02078617800EB01202882E178A07800EB01206882ED
:201690006179207900EB0120A882E179A07900EB0120E882207A2876A17A607A00EB01206F
:2016B0006883217BE07A00EB0120A883A17B607B00EB0120E883217CE07B00EB01202884E4
:2016D000A17C607C00EB01206884217DE07C00EB0120A884A17D607D00EB0120E8840BF564
:2016F000AA700490688B0390287E0290BBF808000190E88A0090AB8A6A8A298A58460CF0AA
:201710006DFD68B198F81600410701D40F2152E01E22584605B0BDE8F04F0F2110F0F6B9BB
:20173000688A0BF186018880A88AC880E88A088102208BF8860000204880BBF83400C01DD0
:20175000A9F81E008888BBF83210884201BF0BF18600C188BBF83400814206D10BF186005D
:201770000189BBF8360081421DD099F81000012804BF99F811100F2907D099F8150020B171
:201790000F2189F81A10FE2156E0FC2158460DF0AFFAE88A0090AB8A6A8A298A9BF8060031
:2017B00012F0ECFE78E1102146E098F8170010F0090F03D116218AF80C1060E16078217863
:2017D00000F00700014021702078797B0140F97211D0481E01420CD0490704D5B87B10B175
:2017F0000421F97205E0F97A022001421AD14008FBD1F87A08B9B97AF972F87A042803D14A
:2018100058460EF09AFEB083F87A12F0B3FE3871B28BB97B01230FF0B1FA0146308B884278
:2018300002D207E0F872E4E7B28BB97B387901230FF0A4FA78801721584605B0BDE8F04F5E
:201850000DF056BA60782178814207D100F007000840207033D0421E10420FD01E22182183
:20187000584610F053F99BF80610002300221E200AF090FC387B40F04000FCE0F87247F616
:20189000FF72A078E17800EB012038813989BBF80800091A89B2914206DB28218AF80B101C
:2018B00001208AF80A00F7E00120B871F87A042803D158460EF041FEB083F87A0BE099F8DC
:2018D0001100162806D1BA7A9BF80610134600200AF060FCB87A3871B28BB97B3879012305
:2018F0000FF04CFA0146308B884205D3B28BB97B387901230FF042FA78800121387B40F071
:20191000400038732970C7E02078617800EB01207082E178A07800EB0120F08261792079BB
:2019300000EB01203082E179A07900EB0120B082B18AF089884288BF0846B97A042905D1DF
:2019500040F691229042B8BF4FF42960F28BF0839042B87A14BF01240024042803D15846CB
:201970000EF0EBFD04E0B089F18A884288BF0846B28BB083904214BF012100210C4330891A
:20199000718A328B884288BF0846904214BF012100210C433083B28BB97B387901230FF0F1
:2019B000EDF90146308B884205D3B28BB97B387901230FF0E3F978807189308A728B814200
:2019D00088BF0146718391429BF8063014BF0120002004438A4234490A6802EB4311728B85
:2019F0008041121DC00F0A7610B1584610F0B2FA9DF80000142810D144B1F08B0090738BDD
:201A1000B28B318B9BF8060012F0B0FD584605B0BDE8F04F15210BF04BBE1CB1387840F057
:201A300008003870397841F02001397034E020780E280ED00F2809D0122804D014280CD044
:201A5000162812D028E00020287225E00120287322E0032088F815001EE0387840F0020039
:201A7000387040F01000387016E0387B40F00200387340F0100038730EE08AF80C0058463B
:201A90000EF05AF940B905B0BDE8F04F074800784FF4804109F09ABC05B0BDE8F08F00BFA1
:201AB00088290020524F0020F02900206E4F00202DE9F04FC14C04F10C012046ADF1340DC5
:201AD0000EF05CFBBF4DBE4E2A684FF4806106F1880090472A684FF4806106F59360904702
:201AF00004F134070021384612F03CFDB6490A22012304F1780027610EF07AFF00200146AA
:201B10000DF040FDA0600FF009FBDFF86C9310201F220623494606F0F3FD01270020ADF8A6
:201B30001A0080468DF82D7039468DF82E800DF12D02ADF820805020ADF81C004FF4487043
:201B5000ADF81E004FF47A70ADF8220040F2053002F090FF40F2063002210DF11A0202F03F
:201B700089FF04F159024FF442701F2102F082FF04F1240240F20730072102F07BFF4FF47A
:201B9000447039460DF12E0202F074FF40F21130022107AA02F06EFF40F2123002210DF134
:201BB0001E0202F067FF40F21330022108AA02F061FF4FF4457002210DF1220202F05AFF79
:201BD00004F14000CF49009042461923102006F097FD494610200622A02306F091FD4946DD
:201BF00010200722A02306F08BFD494610200822A02306F085FD494610200922A02306F074
:201C10007FFD8DF82F708DF83070B946CDF8148005A88DF831804FF4816204238DF8329020
:201C3000C94F00901020394606F06AFD0DF12F004FF4806200904B463946102006F060FD6B
:201C50000CA80090394640F202424B46102006F057FD0DF13100394640F203424B460090EA
:201C7000102006F04DFD0DF13200394640F206424B460090102006F043FDC94910204FF0B3
:201C9000FF3206F03DFDC74910204FF0FF3206F037FDDFF814A3C54D10201323C44A009055
:201CB0005146019506F02CFDC24F3878800012F003F90146716069B14FF6FF7010F0AEF8FD
:201CD000BD49102032460823009008320191514606F016FD04F1200031460860C54904F128
:201CF0002C02102006F00CFD207810F0FBFCC2490246102006F004FD207810F0F3FCBF49DF
:201D10000246102006F0FCFCBD49102006F0F8FCBC491020042206F0F3FCBB4EB1A04FF64E
:201D3000FF713060404610F081FBA368B74D4BB13046067936B105212970AB604146E96010
:201D500010F018F8CA4E06F1180006F10C010AF049FC0246C949B26011F0B2FFDFF820A341
:201D700010464FF4E0215246521E10F013FDB0684FF4E021524610F00DFDDFF808A3B06809
:201D90004FF0C0515246521E10F004FDB0684FF0C051524610F0FEFCBB49C822434606F172
:201DB00024000EF025FEC548C5497060102006F0A7FCC44E73783078F3B907E0B00A002008
:201DD00008020020401C0020F93A010004F11C01316210F087FCCDF80080024606F1540316
:201DF00006F144000190B849029306F11C030393B378102006F084FC4FF6FF7BBA46E068ED
:201E1000B24A00214FF0FF3312F0A8FB5FEA0008F5D0002004900BA904AA06A810F084F928
:201E3000002840F0DA80BDF8181020780127102940F0CE809DF82C10884240F0C980049ED6
:201E500031888B4500F082803378913B30D01F3B40F0BE807178162913D03279A068297859
:201E70007E2A0BD07F2A1DD13289C3A30092002210F0AEFD16E0C046BD840110327AC2A359
:201E9000F4E710F02FFC03463846BA4900907288102006F035FC28B938460CF0F1F8002716
:201EB000A66195E0317906F1080012F053FB8FE070780E3828D0801E40D02E3840F08880BC
:201ED000B0780C2840F08480F378A1682878ABB9401CC2B2B0A308461146002210F078FD8B
:201EF000F079012814BFB1A0B2A00090A1682878B2A3801CC2B20846114666E0401CB3A38F
:201F1000F8E7C046A1D40000B08842F2030181425ED1B1680E78002E5AD1491C09A80A6875
:201F30004968026009AE41603078B34909AA00F0FD003070102006F0E3FB49E008200021CC
:201F500005F0A2FB44E0C046E9470000708840083ED3A669002E3BD0607806F10803401CB6
:201F70006070A449009372883379102006F0C8FB5FFA80F9B9F1160F20D02078B9F1040F8C
:201F90001CD0A66910F0AEFB03460020794900907288102006F0B4FB48460CF071F817E019
:201FB000F92D0100E130010011260100145401003C140020694F0020205401006078009012
:201FD0002978A06886A3491CC9B2002210F000FD049810B10FB111F036FF5FEAD870C0F08C
:201FF00082807BE0424C45205065726970686572616C00C0F13201005188011031810110E4
:2020100085CD000005370100DC1B0020881C00202069064612F09AFA864208BF002702D053
:2020300087680FF015FF381CB94657D007887F1E4ED0FF1E4FD18078010927D240094AD32C
:202050006F786E680E2011F08BFC002843D13079B8420FD0FF2F3ED006EBC7060C36336868
:20207000002B08BF706806D071683846884732E0F4190020B0680FF07DFE2CE0C9260100BD
:202090000E0005800E0000105D3901006E786F680D2011F065FCF0B93879B04207D0FF2E4C
:2020B00009D0761CF0B210F00BF8FF2802D1002010F006F8687008F067F80CE00D3E010081
:2020D000C5AB0010200E0020230F0100010000C0807803F029FD48460FF0BAFE206912F04D
:2020F00031FA002894D05FEA5800FFF488AE444811F0F8FE4148444989698847C0B200285B
:202110003FF47DAE4148D0F80490B9F1000F3FF476AE9AF800000026B0427FF770AEB0006E
:2021300000EB090739F8000083451DD0BB78DBB134480821C268314B934204D0491E00F1A3
:202150001000F7D110E08046B878410805D33888012142460BF024FAB878800804D33888BE
:20217000022142460BF01CFA9AF80000761CF6B2D2E7C046833A01004D54552053697A6599
:202190003A20256400C046C046432056696F6C617465643A20256400504859205570646127
:2021B000746520436F6D706C6574650032204D62707300C031204D62707300C043757272FA
:2021D000656E74205048593A20257300504859204368616E6765206661696C75726500C086
:2021F0005273702073656E642072657472793A20256400C0DDFE001095B40010A0060020CD
:20221000280B002010020020401C0020080200202DE9F04FD04C04F118012046ADF1440DAF
:202230000DF0ACFFD54D00264FF6FF700123667032462082294604F1A4000EF0D9FB0223D7
:20225000324604F1C80029460EF0D2FB0423324604F1EC0029460EF0CBFB4FF0040A04F10A
:20227000440810224046314684F802A00BF0DFFD04F154091022484631460BF0D8FD04F190
:202290001C073E6004F10A052E70E671267207206072CDF80080DFF818830222102003468F
:2022B000414606F02DFA102003224146CDF80090034606F025FA102052464146009713469C
:2022D00006F01EFA4FF0080B4FF0030905F12A000C9005F179000D9005F11E000E9005F1D3
:2022F0005A000F902435109517E06078A28FE18FB4F84050B4F8423006280ED1ADF81A2021
:20231000ADF81C10ADF81E50C048ADF8203011F0EBFD012006A90BF0FFF8A069BA4A31469D
:202330004FF0FF3312F01AF9071CF6D002960DF122000DF12E0102AA0FF0F6FE002840F042
:20235000CB81BDF822102078102940F0C1819DF82E10884240F0BC81029D29884FF6FF72E7
:202370008A4200F0AA812B78A23B00F08D812E3B40F0AE81A978B046002900F04981891E7F
:2023900000F01881491E012940F2E880891E00F0A880491E7BD0491E5CD0083900F064815F
:2023B000891E40F0678194F83A30A888052BADF80C0047D001208DF81600944811F094FD06
:2023D00094F83A0001281ED004281CD003280DD002280BD00298C188ADF80E100189ADF816
:2023F00010104189ADF81210818927E0A08FE58FADF80E00B4F84030ADF81050B4F8421096
:20241000ADF812301AE0A08FE9888842D8BF081CADF80E002989E08F8842D8BF081CADF8A8
:2024300010006989B4F840008842D8BF081CADF81200A989B4F84200884200DC0846ADF8A9
:20245000140001E08DF81660AF49102003AA06F057F90FE1AD4811F047FD6B78002B40F0F9
:202470000981E88860822889A0826889E082674811F04AFB002840F0FD80656A002D00F094
:20249000F9802B68608AA18AE28A9847F2E0AA88B549102006F034F90C98414606220BF01D
:2024B000C6FC6682A682E682A8792073574811F01BFD964811F018FD4FF001084FF6FF7076
:2024D0002379208253B9A879082812BF84F801A005206070404611F047FBCBE084F80190ED
:2024F000C8E06B787BBB291D0C980A680260898881800623637068892082E8896082288AA7
:20251000A082688AE082E878E07294F83A00012818BF02280BD19A4910201F2206F0F0F885
:202530004FF47A7180B2414338480FF047FA688900909249CDF804A0EA7810202D1D2B46D5
:2025500006F0DEF899E06878312840F08A80E67084F801A091E0C046200E00206B78002B6D
:202570007FD1A878E3896178032815D0E078257933B9012814BF2671E67008E0793B01001E
:20259000054304D07F4819460FF018FA61780729DED10620607070E0062907D0E578002D4A
:2025B00008BF84F8019068D00220F3E70720F1E7D33201006B78002B53D1EB78617893B944
:2025D00002291DD007291BD0062902D12079012816D1032914D06B4811F096FA80B901205F
:2025F00011F0C2FA0CE010F07DF80246A079624900900D9843460190102006F081F86870DB
:202610006D78002D2DD135E007000080E80E00206B7833BB5C4857490090022210200346A6
:2026300006F06EF859484A46524900901020034606F066F8ED1C0E9829680160A98801230F
:2026500081802078637010F04DF8024601230F9D6079494900901020019506F051F8C0B22F
:2026700058B184F801B008E0AA8841491020052306F046F8B8F1010F2AD1256A45B32D6814
:2026900035B36078A84723E06879132820D12889012808D1607B022805D11C4811F024FC58
:2026B0000FF074FD14E036491020052206F028F881B216480FF082F90AE06888C00B07D330
:2026D000334852462B4900901346102006F018F8029808B111F0B7FB2579E078790830D3C4
:2026F00055EA00032DD0204600788DB9E179257A8DF82410109A8DF8255013680DF126056D
:202710002B609288AA8005E0051601100C0F00208DF82490617A8DF82C10A17A8DF82D10DC
:202730000FF0E0FF1149024609AB102005F0E8FF38B1256A84F801B01DB12D680DB15846E5
:20275000A847B80803D3134930460AF0E5FEF808FFF4E3AD607B401E3FF4C7AD401E7FF401
:20277000DCAD0FF013FDD8E5A1FD000059440110C11701108DA30000094501109D9F0000F4
:20279000F5840110C40E0020640E0020740E00203C0E00205A0E00202DE9F84F01200FF00A
:2027B00027FC01280ED1DFF8F87439680020487138680EF005FB04F0EFFA040003D181202D
:2027D00011F0BCFE68E201206071DFF8D854DFF8D8044178491C41703968A07981F8A0009A
:2027F00040200BF0ADF92060287901281CBF002010F080FEE8682168DFF8B05400F5B0604C
:20281000C860286801680A79032A1CBF002010F071FE2868DFF898840168DFF898B401F16C
:202830000809062299F80000C0F3801084F82E0109F1020104F5947010F0A4FF042209F113
:202850000E0104F1240010F09DFFD8F80000A67900F10C03042209F10E0103EB461010F042
:2028700091FFD8F80000A37900EB4310032209F11201103010F086FF04F12C0699F81500CA
:20289000B070022209F1160104F1300010F07AFF022209F1180104F1320010F073FF022241
:2028B00009F11A0104F1340010F06CFF30896084022209F11C0104F1360010F063FFB078D2
:2028D000F18872894000B0704900B08840001201B080F180728189B2638C5B1C480043433D
:2028F00092B2934200D231B99BF80000802108F06DFD3B21FEE004F12E01204610F0B8FBE6
:202910000520A081204610F0A1FD052209F11E0104F1610010F036FF99F8230040093070F5
:2029300011F008FE60823A68E34F518A401A04F59771888104F1610199F82300DFF87C939A
:2029500000F01F00F07320460EF046FB29680A68002010711C25A1793868694341F62102AB
:2029700042520022A17969430144001D4A80A1796943425099F80200410609D5D0490888E6
:2029900041F20A4290420CBFCE48CF48C4F89C012046D4F89C1188473968A37901F10E0218
:2029B0006B43D054A1793868694308440021C173C648017881B1B08870B9002171730120EE
:2029D000208160812046D4F89C1188473968A37901F10E026B43D0543868A27900F10E016B
:2029F0006A43885C707394F8960108B910F082FDA1793868DFF8D8A26943084494F89611BA
:202A10004A1E02740023A17938686943084400214174A279396801F112006A4301F1140C9E
:202A30008352A279D8F8000000EB42136A434CF80230A2796A431144A64A8A61DAF8141075
:202A50000B78DA074CBF4FF0100C4FF0000C99074CBF202100215A074CBF402200221B0732
:202A700000F10803A07941EA0C014CBF4FF0800E4FF0000E0A4340014EEA020242F00F02C7
:202A90001A54D8F80000A17900EB41100B224272D8F80010A07901EB401104228A728E4A81
:202AB0001378D8F80000A179012B00EB411002D10121C17203E0DAF828104A78C272D8F84E
:202AD0000000A17900EB41101F220276D8F80010A07901EB401100224A76A07909F060F855
:202AF000A279D8F8001052018850A2795301C85820B90721204610F039FACDE077480168A2
:202B100001EB021011F012FD744AA0791368D8F8001003EB00130A1D40011350081DA27959
:202B300052018058F063A07940010958716404219BF8000008F04AFC644BB2881978901C5B
:202B500011B10AB9F088801C618A94F806B041434FF4C87205FB0BFBB1FBF2F1491CA061A3
:202B7000616140F6C41C23683A68CDF800B002F1080ED3F80CB00CFB00B0411A0098A1F5FB
:202B9000A8614EF8001002F10800A17969434058986002F10C01A07968430C32095C01F01D
:202BB000EF011154A0793968684301F10C020C31125C02F07F020A54A0793968684301F178
:202BD0000C020C31125C02F0F00242F002020A54A179386869430844417B01F0F00141F033
:202BF000010141733868A27900F108016A438858216808616369D8F80000A17996F802E0B5
:202C10005B0000F1140249010CFB0E3303F5F6635350A17900EB4110C27C02F0F00242F012
:202C30000402C274D8F80010A079DAF8303001EB4012F0880CFB00F61868301AA0F5167085
:202C5000D061A27901EB4210C17E01F0F00141F00401C176A17938684D4321684019486078
:202C700099F80100810614D504F59771488F1B2804BF888F1B2808D1C88FB0F5A47F04BF4F
:202C9000B4F86E11B1F5A47F03D0142120460CF02FF8134907200870BDE8F14F01F06AB9AB
:202CB000104F0020B44D0020684E0020F44B0020F02900206E4F00206C2300208829002099
:202CD000504F0020CDF80000E9000100784E0020B85401005C4D0020734F00208C4E0020DE
:202CF0006F4F00202DE9F843040014D1002010F001FC10E020460DF01FF8012808D065E0DF
:202D10008A0740F1548101F0FD0101700020B07120460CF0DDFE04F16605687D002855D09C
:202D3000697CDFF8A494022904F1EC0704F59E7804F5B07604F5C67035D0042949D00529A6
:202D50005CD0062900F08A800729D3D0092900F0EC800B2900F0C1800C2900F008810D2964
:202D700000F0D0800E2900F0EA800F2900F02881102900F04281112900F05C81122900F083
:202D90000E81142900F08781162900F05A81172900F07581FC2919D0FD2900F09581FE29CE
:202DB00000F09B81A2E7297C012909D199F80300002815D01621204610F0D8F8012006E0B0
:202DD00020460CF080FB2874E88A28830020BDE8F283297C012940F0948199F80200002844
:202DF00000F0E580FC2120460EF074FEA07904F1B80204F1B00111F095FB8CE7297C01293A
:202E10000FD199F8020020B184F89410002038607860B87A012868D1062120460EF05AFE37
:202E300079E704F1E7063078012809D120460EF051FD0128CAD10020B87201202874C5E76C
:202E500070780028C2D004F1C70204F1A00104F1D70011F063FB012030705CE7297C01296E
:202E700040F0538199F8020000283ED0618CE18320460CF02DFE0120287020460EF06AF818
:202E90000120A871397A787C012900F010000FD148B1002088F80500D8F8001098F8060023
:202EB00049080CF029F8A079002111F033FB0EE040B1D8F80020C54804F5A1735208214681
:202ED00010F05EFFA0790122002111F01FFB002038723873F872B8721DE7287C012805D15D
:202EF000F97A012908BFFC2197D060E020460BF033FF0128A3D10020F87284F894000120AF
:202F1000287408E7297C012940F0038199F80200002809D0002184F894100120287020469F
:202F30000EF018F80120A87188E0297C012940F0F48099F80200D0B3618CE183E8E6287C85
:202F5000012840F0EE80387C022804F1FD0204D1A179002011F0D6FADAE6032840F0EA8063
:202F7000A1791A2011F0CEFA00203874D0E6287C012804F20D1140F0E8800B78012B04F581
:202F9000897240F0E8804878012807D15388009300201388CA78A17911F0B0FAB8E6297C5A
:202FB000012940F0E78099F802000028F6D1298B481E288380B200287FF408AF2221FAE652
:202FD000287C012840F0DA8098F80910012902D130780F281BE098F80800012826D1002131
:202FF00088F80810288D000900901A20AA8CEB8CA179520811F07EFA8AE6287C012840F09A
:20301000C18098F80910012910D1307810281CBF002010F06FFA002088F80900288D000900
:203030000090AA8CEB8CA1797078E2E7287F0028E2D1BCE7297C012940F0A88099F8030098
:20305000F5E7297C012940F0A580017B4A061DD4CA0709D501F0FE0101730023A17970786B
:20307000002209F097F853E68A0740F1988001F0FD0101730023A17900221A20F1E7297C0A
:20309000012940F09980027B510690D5017B01F0BF0101733CE6297C012940F08F8001782A
:2030B0008A067FF52DAE01F0DF010A0701700AD501F0F7010170F08B0090738BB28B318B93
:2030D000A07911F053FA21E6A97E20460EF002FD15E7002010F00EFA78E6A87E0F28F8D140
:2030F000FC2120460EF0F6FCB8F812000090B8F81030B8F80E20B8F80C10A07911F03EFA0F
:2031100064E6204609F05CFD5DE620460CF0BEFE59E620460EF0E2F855E620460CF082F8A8
:2031300051E620460BF09EFB2874E88A2883012038744BE6288B401E288380B20028F8D1B8
:20315000A179222011F0DEF938E70120887020460BF00AF837E6288B401E288380B200285D
:20317000E7D15088009022201388CA78A17911F0C5F923E720460DF019F924E6204609F03F
:2031900059F820E6204609F0A5F81CE620460CF03BF918E61621204608F05EFE13E6288B99
:2031B000401E288380B20028C3D1A17900230022222008F0EFFF01E71721ECE714212046F3
:2031D0000AF076FAFFE500BF5C4D002005E100002DE9F84FDFF82844A178FF2904BF00205F
:2031F00010F088F9A07810F0CFFB044604F1680604F5C9753168086804F1900710B1002200
:20321000E28310E0B17B002904BFB07E00280AD13978002904BF2878002804D1217F0129FC
:2032300004BF608CE0832189E08B4118491C618120460FF03DFF01281EBFDFF8C8030178F5
:20325000012904D120890022401CE2836081B07E01280CD1B28B6189208911F047F930B1CC
:2032700021896289481C82422AD0B28B1FE0387801280CD17A886189208911F037F930B1EE
:2032900021896289481C82421AD07A880FE02878012815D16A886189208911F027F9002809
:2032B0001FBF2189481C6289824209D06A88824206D0501E608180B211F014F9401EE083AE
:2032D0002878012801BF69882089401C814207D16A792A71002028701346A17908F05AFFCA
:2032F00004F59A71087920B120890021401CE183608104F12E07B07E012801BFB08B2189D7
:20331000491C884238D1608104F1860120460FF0AFFEB08C6189608400202077E083E08969
:203330004118A181B08B218911F0DCF88046B988308C728C01FB0808F08C8A4204BF3989AE
:20335000884202BFB18CFB88994207D000090090B38CA1795208002011F0CCF8B07F387058
:20337000708CB880B08CF880F08C3881204610F06DF80220B07601E0B7F80480E28BDFF8B5
:203390008892501C00FB08F140F6C41808FB01F000902368D3F80CC06044DFF870C2D86006
:2033B000DCF800E09A489EF800A003884FEA9A1ABAF1030F13D199F80FC05FEACC7E48BF1E
:2033D00000230CD45B1C9BB2012B11BFB4F812C004F59A7CBCF806C00CF2DC5C01E0B4F850
:2033F00012C00CFB01FC4FF4C87EBCFBFEFCDFF824A20CF1010CC4F814C0038084F8202037
:203410004FF01C0BA379A1610BFB03F3DAF80010226801F1080001F1080CC058D3681061EC
:20343000A0790BFB00FE60691B1A4CF80E3001F10800A3790BFB03F3C058906001F10C02C5
:20345000A0790BFB00F00C31125C02F0F00242F002020A54DAF80000A279811C0BFB02F2A6
:2034700000208852287908B910F044F8DAF80000A27900F1100128790BFB02F240088854F6
:20349000A079DAF800100BFB00F00844002141742879042814D1A079DAF800100BFB00F066
:2034B00001F110022B7A125C103142EA83020A54A179DAF800000BFB01F10844202141746F
:2034D000DAF80000A27900F112010BFB02F200238B525149A2790968520101F11403D4F8A3
:2034F00014C09B5801F1140E03EB4C034EF80230B27E022A0AD1A279520101F114033E78C8
:203510009B5808FB063301F11406B35099F80F20D30749D5A2790BFB02F200F1080300F1A3
:2035300008069B58A3F5A863B3500830A27923680BFB02F282589A600098121A1A6101F1F7
:203550001402A079400101F11403125802F5F6621A502879042807D1A079400101F11402B8
:20357000125802F5B0621A5001F11400A27952018058C4F8340101F11C03284AB888166BDD
:20359000A57908FB00F730686D01381AA0F516705851A37901EB431021490D78012D0EBFA2
:2035B0000122916A4A7819E02879A37904280CBF4FF44B604FF4E66001F114025B01D25869
:2035D000101ABA8808FB02F2A2F516729042D2D3082120460FF0CAFC01200FE0C272A17930
:2035F000DAF800000F4A0BFB01F10844216848600720107020460DF030FF0020BDE8F28F9C
:20361000684E0020784F00205C4D0020084F0020142A00206C230020F0290020B85401004A
:20363000734F00206F4F00202DE9FE43BF4C0F460646F80B80F05081B80880F03D81E07A2B
:20365000DFF8F492B90F80F0B680607A002840F096803809C0F09580A07A20B10020A07224
:2036700005200EF043FC00254FF001086570284684F8078007F019FDAD4904F174002A4649
:2036900010F016FC207901281AD16079C0B9DFF8A482D8F8000000284CD048460068006B97
:2036B000804761694346401A000BA0611968E2698018B0EBC11F98BFE0613BD9E56101E0C8
:2036D00084F80480DFF87482A8F115000068000A30D340F60900A08694F8410000F0F000D8
:2036F00040F0010084F84100E58694F8400000F0F00084F84000A56310F0D4FB08F6FF72B3
:2037100011686FF0020321F00201116004F13401C8F8FB3F8A4AC8F8EB1F11688908FCD39C
:20373000C8F8FB3FD8F8FF1F41F00201C8F8FF1F10F0D4FE65610DF0EDFE824805600220AE
:203750000EF0D4FB112007F0A1FE307C10B90E2007F09CFEE5712572A07818B906F138008C
:2037700010F0B4FB784810F087FA78490878F8B10D7004F1D000042110F0B0FB18E0380914
:2037900014D2B80BC0F0C98004F1240010F09AFB061C08D0706830B17568F068B6F91C1006
:2037B00000222023A84727F40057B6E00020607227F00807B1E020B104200EF097FB00204F
:2037D000E072B168088840F602054FF0000885420AD0B0F5C15F07D00A8B4FF61F60104074
:2037F00040F43470088306E00A8A4FF61F60104040F4347008826069E0B1D9F8540001687E
:2038100004208847B0B1D9F80000006B80476169814226BF401A401E401A000BF060708A68
:20383000F168401840F6C411F06081422CBFB0F5FA7FF16094F8410010F00F0F0BD1708C8C
:20385000ED1D854207D1B56930466FF4807142464FF00073A8473E4904F17400424610F026
:2038700027FB607958B10220ADF8000068460FF0EFF884F80580BDF80800A4F870000120EE
:203890006070E078401CE07004F1200084F8068010F018FB002808BF47F0020702D01920E0
:2038B00010F004FB7569414630464FF080630A46A84727F0005730E004F12C05284610F0AB
:2038D00001FB06F0D7FD284610F0FCFA27F0020708B147F0020720E010F0E4FA014604F17B
:2038F000280010F0EFFA0646B569A80810D27EB125EA0500B061084610F0F0FD706850B143
:203910002A46F068B6F91C1075680023A84702E0084610F0E3FD27F4804727B104F1D00076
:20393000394610F0DBFABDE8FE83C046601100201D2E0100EC2900208C01001015000440EF
:2039500010100440000004607DA50000E82900207D9C0000BB482DE9F84F0025BA4CB84997
:20397000056094F8E200002800F06581012800F02F81B64E02283CD0032840F05C8151F8E2
:20399000250CD4F8B8100029A0F5C060C4F8D400B8BF49420028B8BF4042814226DA4FF0BF
:2039B0008057D7F8A4014568B4F8BC0030214FF47F42082300903046A847D7F8A401456801
:2039D000B4F8C00004214FF4F802122300903046A847D7F8A401B4F8D070456820214FF44E
:2039F00040620A2330460097A847012584F8D8501CE151F8258C10F051F92F4600B901278B
:203A10003946934F38680028FCD0B146012609F10409D9F82CA03E6009B110F045F9CAF38C
:203A30000720C4F8BC0010F039F9AA4600B9B2463B68002BFCD0D9F800B0BAF1000F3E6091
:203A500001D010F031F9CBF38440C4F8C00010F025F9AA4600B9B2463B68002BFCD0D9F833
:203A70001C90BAF1000F3E6001D010F01DF9C9F38120C4F8D000B8F5C061C4F8B81000F020
:203A90009C8094F8D80068B9C4F8D410D4F8C000C4F8C800D4F8BC70C4F8C470D4F8D03011
:203AB000C4F8CC30D4F8D410D4F8BC30002954BF02206FF0010004F1C802176801EB4101AC
:203AD0004018411000EB917107EBA1001060D4F8C810C4F8C43000291CDD1E293CDDD4F89B
:203AF000CC0030B93429B4BF15391E21C4F8C81025E02A29BABFD4F8C8000B381E20C4F86E
:203B1000C800D4F8C4003F28B4BF401C3F20C4F8C4001FE0D4F8CC00032812D011F10B0F68
:203B3000C6BFD4F8C8000B30301CC4F8C800D4F8C4000028C4BF401E051CC4F8C45003259F
:203B500008E011F1150FC6BFD4F8C8001530301CC4F8C800C4F8CC504FF08057D7F8A401B7
:203B7000B4F8C43030214FF47F424568374800930823A847D7F8A40104214FF40032112325
:203B9000456832480096A847B4F8C860D7F8A40104214FF4F802122345682C480096A847E4
:203BB000D7F8A40120214FF440620A23B4F8CC60456826480096A84701E084F8D85040F2FF
:203BD000FF50404502D8801C40452FD2082030E051F8251C1F4F4BF2F5204843060A386848
:203BF000C0F3814001280CD11B480068006880470DF072FC10F05EF83111C010484306EBF2
:203C1000E03694F8E50030B91448006820F07F408019460801E084F8E5501148310C06601C
:203C3000012741600F4D8760287808B90B2000E0052084F8E40004F09BFCBDE8F88FC046BA
:203C50002D400C402C500C40EC16002000A00C4000800C40B43F0050EC0100101020094040
:203C70003C600C40DA5301002DE9F04F0D46E80789B00BD50FF058FF28B100218160AE4847
:203C9000006800B1804785F0010052E1A80710D500200690002104900023029000900591B1
:203CB0000393019101223C2010F014FC85F002003FE11E246807DFF88482A14F40F19B80DC
:203CD0000020079082469F498878FF2804BF00200FF010FC386890F8A0000FF055FE0646F2
:203CF0003868C07A96F82EB1022818BF032806F5947906D108F10D0010F0E8FB08B908F1BF
:203D1000070A4946584610F0DDFB88B33868807A002818BF012804D1414648460EF02BFC71
:203D300004E04A46594640460BF080F9FF283DD06043834608EB0B0406224946E01D0FF011
:203D500021FD18F80B0040F0020BE01D079006223868817E01F0010186F82E1104F10109D3
:203D7000386800F1140106F594700FF00BFD1DE0494658460FF0B3FDC0B14A465946404688
:203D90000BF054F9FF2811D04443444404F10D0010F09CFB40B904F10D0010F097FB002866
:203DB00004BF607F012801D14BF0020B06F12C005B4601780691418909090591728C07992A
:203DD00004920122C088029140080390CDF804A0CDF800900020B17910F07CFBD6F89C017A
:203DF00059498842B0790CBF0021012109F084FA85F004009DE0280610D5002006900021B9
:203E1000049000230290009005910393019101223B2010F05FFB85F080008AE0E8043CD5C7
:203E300008F1070108F10D0010F048FB38684179012923D1017A012918BF04291ED1C17ADD
:203E5000022918BF032919D1817E00F1140240460BF0ECF8FF2811D04443444404F10D00B6
:203E700010F034FB50B9E11D04F10D0010F026FB38680622E11D14300FF084FC3349344858
:203E90004A6800784FF480510DF000F810B18E2010F010FB85F480504BE0A80505D50FF06B
:203EB000FDFE2C4901200860FEE7690504D507F08CFA85F480603CE0680405D5812010F0F4
:203ED000F9FA85F4804034E0A80431D5224C206810B100200FF00EFB4FF0FF3020600BF018
:203EF00063FA1E4C216851F8202F684690471C48C16A026B2468009101920021029100F1F4
:203F100034014A6809781368806A03938DF81010ADF812006B46D4F80080124A12491348C3
:203F3000C0471349086004F0BBF885F4005000E0002009B0BDE8F08F204F0020F420002096
:203F5000104F0020684E0020CDF80000784E00206E4F0020FC002043044F0020F04E002044
:203F7000881A00202C290020B81C002088490020EC4E00202DE9F04FB64D686885B00190CD
:203F900020B905B0BDE8F04F10F090BA0178DFF8C882B24EDFF8C892DFF8C8A201291CBF44
:203FB0000229042946F2A81741F64C5B05D0402918BF802900F09A8043E10FF093FE002820
:203FD000FAD00198007805F07DFB0090446814B900200FF08FFA9AF80100002860D002F0FB
:203FF000D5FA0FF0D1FC02900168009801914F680AF06EFC022827D000990A78012ADBD1C3
:20401000994B19680A7A19F80230337018B910F049FA5844A0602069C17E01F0EF01C17631
:204030002069C17E41F08001C1762069C17E01F0F00141F00201C1768C48B96841182069D3
:20405000C16101210098A0E001980178802913D10822874832700178012903D09AF80100B1
:20407000012803DD78690121C17213E0D8F828107A690878D0720DE07D49072030700A7855
:204090007869012A02D10123C37203E0D8F828104A78C2720298817901988AF80210CBE08B
:2040B0000098002888D00199009A0078914205D101281CBF00200FF01DFA15E0012840F0FB
:2040D000C080694801680A7A19F80200307010F0E9F93918A06810F0E1F918B910F0E2F97E
:2040F0005844A0600120A8700098A5E09AF8010000287DD002F04AFA0FF046FC044620686D
:20411000029047689AF802000FF03EFC03900FF0EFFD10F0070F3DD0A87805F0D3FA01906D
:2041300041680198009102990AF0D2FB022831D001990A78012A2AD14B4B19680A7A19F821
:204150000230337028B910F0ADF983440098C0F808B000990869C17E01F0EF01C17600982B
:204170000069C17E41F08001C17600980069C17E01F0F00141F00201C176009AB9683B48D3
:2041900041181069C16101210198A97054E000200FF0B0F90398A04228D00298017880291A
:2041B00013D10822324832700178012903D09AF80100012803DD78690121C17213E0D8F8BA
:2041D00028107A690878D0720DE02949072030700A787869012A02D10123C37203E0D8F85F
:2041F00028104A78C272A0798AF80200029823E00FF07EFD10F0070F29D0A87805F062FA4D
:2042100004462078D4F80480012820D116490A68107A19F80010317010F044F93918D8F8C7
:20423000080010F03BF920B910F03CF95844C8F808000120A870204605B0BDE8F04F06F092
:20425000F9BD05B0BDE8F04F00200FF053B905B0BDE8F08FCC290020B85401006F4F0020FB
:20427000289A0110684E0020104F0020F0D8FFFF734F00202DE9FE4F0F46994C0168E16215
:2042900041688068E0609748A16080479648E16A0160A168DFF870B24160E168DFF8648263
:2042B00081609249002FA246C16069D03D68E8788DF8080028798DF8090002A810F0EAF874
:2042D000A86808B18A490160E86808B189490160894C2878207068786070A878BE68A0708A
:2042F0003178E1707368636072696261B168A160F168E160316921612E697B68A6621868A6
:20431000A0616869E062A8692063287F84F834002A6AA263786886681EB900200FF0EAF84F
:2043300000E026627868C06818B900200FF0E2F800E060627868406818B900200FF0DAF847
:2043500000E0E0612869A062F86881680E6806B96B4E6A494FF001094E60C66881F8019080
:204370002EB900200FF0C6F8F868454601E045462E6000685C46FE68A0617068E06106E014
:2043900000200FF0B7F84FF001095C46454628685E494668621C04F114035020B04710B132
:2043B000286880688047DAF808008047594F0026834669467E7056483E7004222061304670
:2043D0000DF0FCFE0098B0F5801F0CD020B90EF0A7FA05F031FB08E00CF0E0FF0FF006FBC2
:2043F0000420788001E00EF09BFA4B4FB0462868C7F808808069A6608047786047484680D3
:2044100080F8009014200FF0B7FBFF211422A0620FF070FDE01CFF2102220FF06BFD142000
:204430000FF0AAFB3E4908600868142231460FF061FD3046FCF7BEFA48460DF00DFE394827
:204450000188FF2906D1022101807822001D31460FF050FD032010F019F8042010F012F844
:20447000052010F00BF8062010F004F807200BF06FF92D4E0820307006F140000FF0F6FFEA
:204490000BF002FC363605200A2132460EF019FF38B14046C0F10901401C06F8011B0A28F7
:2044B000F8DB2F68214909200DF10A0201AB7D68087010204146A847A06AE2690A270A3076
:2044D0009DF80A1000F8011BDAF80C107F1EF7D1921E5846E261884702F0F6FFBDE8FE8F3D
:2044F0000018002041490010F8440020B4450100FD270100A5360100881A0020441D002040
:204510007FF90000F81D00208C1B0020652E010065370100F41D0020C02900203C1A002036
:20453000082A00202C1900206C150020212A00202DE9F04F0546A64CA878216AADF11C0DA4
:20455000801F00F03E81C01E00F02981401E78D0401E56D0C01E4AD0401E40F03581207A85
:20457000617A00283FD1607800283BD0A8880FF079FF071C00F02881A87A40080AD3787972
:2045900040B1E968890A05D2B91D01AA07F00EFD0A2825D0207B022802D1A87A00091FD300
:2045B0006078AE887979C0B1607CB0B90120607405F10802304603F011FF002840F00481EA
:2045D000206A002800F000814368002B00F0FC80002130460A469847F6E00521304603E04B
:2045F000032100E00521A8880FF038FFECE0002900F0EA804B68002B00F0E6806A78022193
:20461000CBE00FF099FA002800F0DE80276A0FB1386868B9286900280CBFE06901206989E5
:204630000FF018FF002800F0CF8068890121DBE7286900903C6869892A7B6B7BE81CA047EB
:20465000C2E068784FF00008002840F09580A8794008C0F09180606A002840F08D8001A812
:2046700041460E220FF046FCA8880FF0FBFE061C00F0AA806869002859D081464146062236
:2046900009F111000EF0B0FFC24620B3484606220EF0AAFFD8B999F8100009F1110B474645
:2046B00005907F1C5846FFB28BF800700EF04EF90A280BDA474B059A0101A1EB4001C9183B
:2046D0008879824202D1002FEBD100E01FB947464FF0010A6F61BAF1000F09D109F1110148
:2046F00001A806220FF04EF899F810008DF80A00BAF1010F1BD06F69CFB1387C07F11101A8
:2047100006228DF80A0001A80FF03CF806F10C00B11D06220FF036F8B01D07F111010622D1
:204730000FF030F8387C40F00200707107E07079B11D06228DF80A0001A80FF023F8A97941
:204750009DF81120C1F3800010438DF81100080905D39DF8110040F008008DF8110001A860
:20477000294602F001FC28B92078022106F02EFE40462AE04FF015080FF0EAFA206A18B3E9
:2047900043680BB3A8886A7801219847B8F1000F1AD0206A032142464368A8881BE7E87878
:2047B000291D002207F002FC0A280DDA410001EB800005F10C0225300421C0B205F0DEFD06
:2047D00002E0A8880BF0E4FA012007B0BDE8F08F6C1500205E1600207CB5A34D14460246EA
:2047F0000026A2F58062192A1BD8DFE812F031012A012201190111010C010401FD00F3005D
:20481000E700DF00D700C500B9001A001A00970081007A0065005C00520047003A003000E3
:204830002500282880F29A80022940F0978021880FF00CFE064614E1012940F0118121787D
:20485000284601750121C1740FF0A8F809E1012940F00681002C00F003812846123002460B
:2048700014E0102940F0FC80002C00F0F98028465C30102221460EF085FFF2E0012940F079
:20489000EF80002C00F0EC802A46921D21781046E4E0262940F0E480002C00F0E180284671
:2048B00026226C30E6E7012940F0DA80002C00F0D7802846401D9CE0602900D144B9012948
:2048D00040F0CE80002C00F0CB8028460D3090E005F19200214660220EF054FF012068730A
:2048F000BFE0012940F0BC8020780FF0ABFDB8E0012940F0B5802178022900F3B1802846B7
:2049100000F10C0211702178022918BF301C02D11021C17201200FF091FDA2E0072940F059
:204930009F80611C684606220EF00EFE20786946324607F03BFB04460A2C0FDA0FF07AFD20
:2049500038B9204604F052FF0EF05EF90BF09CF987E0284601212C30015582E0022680E033
:2049700001297DD12A462178907B0028917378D12078012875D1E9E72846027B01296FD1FA
:20499000022A04D02178072901DB102904DD022A66D12178102963D1C17262E001295FD110
:2049B00021780A295CDA2846093057E0012957D12178022954DA284608304FE000294FD1A5
:2049D0000FF038FD10B90EF0A0FFBDE7284601210F3043E0042943D12168244888423FD385
:2049F00028461C3001603CE0012939D12B4603F10A00217832E0012932D1217802292FDA28
:204A10002846C01D2AE010292AD128464C3030E7012925D12178022922DA2846001D1DE094
:204A300001291DD1217804291ADC2846C01C02462DE7012914D12178022911DA2846821C22
:204A500025E702290CD1218828461630018008E0012905D12178022902DC0548017000E02C
:204A7000182630467CBDC0466C1500203F420F006D1500202DE9FC41A0F20137144688461B
:204A9000022F40F232819B4E9C493F1F0F2F04D9143F4CD0BF1E1CD011E0DFE817F0CF00E3
:204AB000C9000D01FA00C100B9002601AF00A700100010009D008F007F0074006600282829
:204AD00080F21381B8F1020F40F00F818849238807E1B8F1010F40F00881F078012800F0EF
:204AF0000481324620781179107189B9002800F0FC805078012800F0B580042800F0B280CC
:204B1000062800F0AF80052800F0AC80BDE8FC812078002840F0E9805078032800F0AF8062
:204B3000072800F0AC80052840F0DF80A7E0B8F1010F40F0DA802078012840F0D68006F156
:204B5000EC000EF0E1FF002840F0CF803446002004F13A0108F0E0FC002840F0C68004F1A3
:204B7000C8000FF0C1F9BDE8FC81B8F1020F40F0BC8020880A28C0F2B880B0F5486F00F349
:204B9000B4808E1C17E0B8F1020F40F0AE802088B0F5FA7F80F2A9800E460CE0B8F1020FBD
:204BB00040F0A38020880628C0F29F80B0F5486F00F39B803E363080BDE8FC81B8F1020F81
:204BD00040F0938020880628C0F28F80B0F5486F00F38B803C36EEE7B8F1010F40F085805C
:204BF0002078062880F28180454E0EE0B8F1010F7BD12078042878DA0A3606E0B8F1010FF1
:204C100073D12078082870DA09363070BDE8FC81B8F1010F69D12078042866DA0836F4E71D
:204C3000B8F1010F61D1207804285EDCF61DECE7B8F1020F59D120880E36BCE7B8F1010F69
:204C500053D13079012850D032462078D178D07069B9002849D05078012803D0042818BF6B
:204C7000052842D101200EF07FFFBDE8FC81207800283AD15078022818BF052835D11078D6
:204C90000DF030FD1C490246102003F039FDBDE8FC8106F1830500211F22284609F0C7F8AB
:204CB00021464246284607F003FC44463078B4710DF018FD002311E006F1640500211F2252
:204CD000284609F0B4F821464246284607F0F0FB4446307874710DF005FD01230094094952
:204CF00001950246102003F00BFDBDE8FC81C046BD840110200E002099450110600E002056
:204D10005A0E0020094501102DE9F04F9E4C20780E46F10BADF11C0DC9036ED1B0085ED2BB
:204D3000606AA16A720807D2F00828BF86F0040680F02581002023E1858861B904F118006E
:204D5000924A00904FF6FF71022301200FF06EFB0146A16221B304A8009000270197022336
:204D70000293FF220392228B28460DF1120301F005FB58B99DF813009DF81220A16A12EB31
:204D9000002204D0498928460CF0A2F8A16A228B08463B464FF6FF710FF044FB0146A16273
:204DB000206A00291CBF012186F001061FD168B14368616A5BB18888002201219847206A6E
:204DD000676A4368B888032100229847616A88880EF0EEFD0EF072FB86F00106CFE0002067
:204DF000014602F0C1F830B1012186F00206207806F0ECFAC3E00221F7E707F003FE5FEAD7
:204E1000000800F0BA80054628784FF0010AB03812D0401E03D01F3800F0A580A7E028798C
:204E3000002840F0A480B8F80200B8F80610B8F808200CF04DF89DE02879401E41D0083888
:204E500003D0743800F0828087E068781A2879D0688881460EF076FF801E18D0401E7CD1A4
:204E7000288901280AD16889032807D1E9688A78484604210BF0EAFA024600E01822206AA8
:204E900000286AD04368002B67D0042116E02989688852460129814609D16989032906D17E
:204EB000E9688F781FB910210BF0D0FA0246206A002852D04368002B4FD005214846984718
:204ED0004BE02B7A688805F10807082B814639D10EF038FF801E12D0401E33D1287B0A280D
:204EF00018BF122205D16889042100220BF0AEFA0246206A30B3436823B3042120E078888B
:204F1000102100220BF0A2FA237D834693B148460FF0A8FA70B11E490B784BB94179831D52
:204F3000524601F00101084619460EF036FB01E05046E074206A28B143681BB105215A468F
:204F50007888984768880EF033FD06E06A880EF0F9FE014610460BF0FDFB297905F1080047
:204F70000FF0F8FA03E04046FFF7E2FA8246BAF1000F02D028460EF0EBF886F40046B0B230
:204F900007B0BDE8F08FC0466C150020745101005A4F00202DE9FC41884C894A2678894F80
:204FB000894D8A490D2E30464FF4A0534CD8DFE816F003010E000E000E000E00FB00FB002E
:204FD0006800FB00A700A700D800D800DF008049176041F204464C887E4FB4421CBFB1F8A9
:204FF0001AE0B6450BD0B1F83280B0451CBF41F20A46B44203D0B64518BFB04502D12E8012
:20501000176076E0022C744E2C8035D94FF48067E41B1AD0241F012C1DD94FF47F77E41B58
:205030001BD04FF44067E41B0FD0A41E012C0CD9241F0AD0641E012C0DD940F2F937E41BC6
:20505000012C19D9241F08D0AEE0022814BF2B80624E16604DE0624EFBE762480468257A36
:20507000012D05D141F20240488048834886F0E74B804B834B86ECE700200EF03BFA83203C
:2050900096E059488178FF291ED01C2041435748176040F204460068841C645A2C80A41B57
:2050B000012C534D10D94FF47F76A41B15D00A3C012C14D940F6F636A41B032C84BF641FD8
:2050D000012C0ED9A41E012C76D940F2FD36A41B07D0641E012C02D905E041F20143801CF1
:2050F0004352156005E000200EF004FA85200FF025FABDE8FC413F480078012106F066B9BA
:205110004A882A8040F20443D21A55D040F6FC73D21A15D0083A4FD04FF47F73D21A22D18E
:20513000354C364A2568364800680023CDE9002355F8086F334B0222B047334908803BE073
:20515000092810D131490A68508960B1304908780AF0EAFC002100200FF060F90020207035
:205170002AE04888288000200EF0C4F985201FE04A882A80022A0DD940F20440121A1BD003
:2051900040F6FC70121A05D0083A15D04FF47F70121AE8D1887B801CC0B2B528A8BF662043
:2051B00088730020488007E000200EF0A3F98420BDE8F6410FF0C2B9BDE8F3816F4F00206A
:2051D000204F00206F3E0100504F00206C290020204A0020A9270000959E000039B8000090
:2051F000755B0110104F0020684E00206C2300207D6100006E4F0020F04E0020020000801F
:20521000EC4E00202D130100424F0020F8290020714F002010B50B7884074CBF43F00203FB
:2052300003F0FD0304064CBF43F0800303F07F0304074CBF43F0080303F0F70384064CBF55
:2052500043F0200303F0DF0310F0AA0F0B7004D0107840F00C00107010BD18B9117801F0AF
:20527000F301117010BDF8B50F4600263878022814461D4667D1786801784278069801EB48
:20529000022189B2002818BFB1F5285F01D00B20F2BD4FF42850091A0AD0491E1ED0491E55
:2052B0004BD0491E22D0491E28D0C53941D04AE0F8680EF021FE069B079980B2C21A8A423A
:2052D000ACBF0846C01A80B2C118162904DA28800246F868C1180DE00D2636E0F8680088BC
:2052F000022129802070000A60702EE0062028800622F96820460EF045FA26E0F868B0B199
:2053100008212980018821700188090A61704188A1704188090AE170818821718188090A66
:205330006171C188A171C088000AE0710DE029800BE04A480178CA0705D401202880F8682E
:205350000178217001E02E8001263046F2BD2DE9F8460E46814630780024022817469A46B6
:2053700078D17068017842783C4D01EB022189B24FF42850091A08D0491E30D0491E55D04D
:20539000491E3FD0C63960D064E0F0680EF0B4FD089980B2884206D308460AEB0001162914
:2053B00003DB0D2457E0072455E0F3685246394618440EF0E7F908985044ADF82000002171
:2053D0000898F368C0F1160218440EF093FD686800281CBF0268002A3DD0002123E00898D7
:2053F00088BBBAF1020FDCD139787878F26801EB00211180686800281CBF0268002A2AD0F7
:20541000012110E00898F0B9BAF1060FC9D1F068062239460EF0B6F9686800281CBF0268DE
:20543000002A18D003214846904714E0089850B9BAF1010FB5D13878002813BF0128F168B7
:205450000870802407E00B2405E02878C10758BF032400D501242046BDE8F286741D002051
:205470002DE9F04F8246DAF800600C465FEA0208ADF11C0D14BF00214FF0FF3106F14800BF
:2054900083460EF0EDFA002818BF0B2040F00681002565708448F460B8F1010F057004D051
:2054B00065700220F4600CF001FF2078012840F2AB80801E012868D9801E012833D9801EFE
:2054D000012800F2DF800EF0EDFC06904FF0805000F5EE77D0F8DC01A378466A00932178C0
:2054F0002846062908BF0120019001200290A068228AE1686368B047814606980EF0EEFFC4
:20551000B9F1000F40F0C080B8F1000F02D00EF009F902E050460DF027FB002800F0A480F5
:205530003868806A2AE00EF0BDFC06904FF0805000F5EE77D0F8DC01012306680093A1683E
:20555000A27860682478AC46042C08BF9C466346B047814606980EF0C1FFB9F1000F40F046
:205570009380B8F1000F02D00EF0DCF802E050460DF0FAFA002877D0386840688047494933
:20559000C1F8B0510D6081467EE00EF08BFC06904FF0805000F5EE76D0F8DC01E38A87692A
:2055B0000093E0680190208B0290A0780390207D04900121059122782846022A08BF081C7F
:2055D000E1786268A368B847814606980EF086FFB9F1000F58D1B8F1000F02D00EF0A2F8A2
:2055F00002E050460DF0C0FA00283DD03068006A80475FEA000947D13068C569A168E28AC9
:205610002369E078A847BEE70EF04CFC06904FF0805000F5EE76D0F8DC01E38AC7680093EA
:20563000E0680190208B0290A0780390207D2946049001200590257805B901460846626889
:20565000A368E178B847814606980EF047FFB9F1000F19D1B8F1000F02D00EF063F802E0C6
:2056700050460DF081FA08B9142017E03068406980475FEA000907D1306802692169E07809
:20569000904780E74FF0FF39B8F1010F02D002200CF02CFC58460EF019FC484607B0BDE8D9
:2056B000F08FC04650450240202A00202DE9F04FDFF80CB29BF80000002885B004D0401E08
:2056D000032804D9801F012840F2F780EFE07D4DDFF8F4812868DFF8F49103687C4E03F147
:2056F0000807062207F1080103A80EF04BF80622B91C01A80EF046F83878C0F380118DF81B
:2057100000101E24C10900F00F02032A39D16879C0F38000814233D12969062203A80DF0E8
:2057300007FD00282CD09DF8000001A90EF0CAFE002825D0314601A80CF01DFF0746FF2F5C
:205750001ED0D9F80000807A6743002818BF02280BD0012818BF032812D1701CF25DC1190F
:2057700040460EF057FE10280AD0F41901AAE11D404609F088FD062201A9E01D0EF002F8AD
:2057900090E000F00F00052840F097806879C0F380008142F4D12969062203A80DF0C8FC54
:2057B0000028EDD09DF800003F7801A90EF08AFE7F0940F2024A88B3314601A80CF0DBFE42
:2057D0008346BBF1FF0F6DD0D9F80000807A002804FB0BF118BF012800910CD0022818BF9D
:2057F00003285FD10846711C325C014440460EF011FE102856D050460EF008FE009806EB7C
:20581000000A01AA0AF10701404609F03CFD062201A90AF107000DF0B5FF1CE09BF80000F4
:2058300002283FD19DF8001001AA304609F0FEFB8346BBF1FF0F35D004FB0BF03118487FD4
:20585000012805D070BB01F10D000EF03FFE48B350460EF0DBFD04FB0BF4D9F80010305D02
:2058700088760622701C0119D9F8000014300DF089FF184918488A78510604D5F90758BFA8
:2058900041F20A4101D541F204414180418341861248134A018013481349086001211078DF
:2058B00005F094FD29680A680020107105E000200DF020FE86200EF041FE05B0BDE8F08FD2
:2058D0006F4F0020F44B0020CC470020104F0020F420002088290020204A0020504F00207B
:2058F0006E4F0020A9270000204F00202DE9FE4F05467E48002400680094C0090ED37C485A
:20591000007858B97C497B4851F8112C104040F0817041F8110C20200BF096FA012D40F0F0
:20593000E080DFF80092D9F8DC00012840F0D6800220C9F8DC000DF05BFB01200BF084FA86
:205950005FEA000805D00120C9F8DC000DF060FBC9E00EF0BFFAA34602906848684DC0F803
:2059700000B0A86A016801208847012804D1584609F01AF8012000906248634FC0F800B0E0
:20599000386811200EF0A8F900B1012410200EF0A3F908B144F002040F200EF09DF908B178
:2059B00044F004040B200EF097F920B12868574E016B308888470A200EF08EF920B12868D9
:2059D000534E016B308888475248012606602868816944F0200088474F4806600EF076F9F5
:2059F00000F001010191400814D2286A81684B4888478246BAF1040FF7D0BAF1010F04D12B
:205A1000286A42684548032190474549086820F003000860584600F099F92B683868986BE3
:205A30008047019801280CD0BAF1010F04D1286A42683A48314690473949086840F0030030
:205A500008603048066028684169204688470B200EF042F920B128682C4BC16A18888847AB
:205A70000A200EF039F920B12868294BC16A18888847284806600322C9F8DC20264BC3F869
:205A900000B02868416B204688470128F9D1386804200BF0D9F90446184806603868134846
:205AB00000688009FBD30098012802D1304608F07BFF0EF0F9F808200BF0C6F907460298E3
:205AD000C9F8DC600EF09EFCFBF760FA0DF0A0FA57EA040018BF4FF0FF3804E06FF004085D
:205AF00001E06FF001084046BDE8FE8F14100940D4170020FFFFFCFC150009400C40094034
:205B1000B8010010000222432C200940F24F0100EE4F010028200860800104430040034035
:205B300024220840EC1600202DE9F0410246854D854C2978A068521EADF1280D00F0838094
:205B5000521E7DD0921E5FD0521E4BD0521E04D0521E42D0521E3ED03BE004F178000EF044
:205B7000C1F97549102002F0CBFD7449C6B201AB1020721E02F0C4FD58B900962978A0680F
:205B9000002251A3C91CC9B20CF022FF0DF106000EE006AE40F21530314603F0BBFE297881
:205BB000A06800224CA3C91CC9B20CF011FF30462D78A4680AF05AFB6D1C03460022E9B24B
:205BD00020460CF005FF4FF6FF7000210CF02EFC76E00A462FE043A302E0C91C43A3C9B291
:205BF00000226BE0142008F04BFAA0682978002244A30CF0EDFE00204FF6FF710CF016FC3B
:205C10002A78501CC1B215E004F178000EF06CF9142008F035FA2978A06800223CA3C91C44
:205C3000C9B20CF0D5FE00204FF6FF710CF0FEFB2A781146A068921CD2B20EF017F83FE0E1
:205C5000002237A338E04FF4417008A903F062FE9DF821608DF8056000278DF808709DF86F
:205C700022308DF807709DF824108DF806309DF820008DF80A109DF825208DF804009DF8F6
:205C900023608DF80B2001AB2D498DF809601A680A6058684860D4F808802E7808A80AF0B9
:205CB000E5FA361D0346F1B23A4640460CF090FEA06829781DA33A46C91CC9B20CF088FE5B
:205CD0000AB0BDE8F081C0464E756D20436F6E6E733A20256400C046436F6E6E6563746575
:205CF0006400C0464572726F7200C046436F6E6E6563746564204164766572746973696E4E
:205D10006700C04654696D6564204F757400C046446973636F6E6E656374656400C046C01C
:205D30004164766572746973696E6700496E697469616C697A656400F17F0110097F011043
:205D5000A7130020881C0020B00A00202DE9F84FDFF8F4B10746ABF13500DFF8E091006814
:205D7000800880F0D98071480068006880477A490831D1F8008000254FEA28725FEA985103
:205D900002F101020AD2C0F13E0110F10A0F4FEAE101D8BF08218A42B8BF0A1C644BD3F859
:205DB0007C11C1F304611629A8BF20391B68C3F30443162BA8BF203B9A468918162905DA0C
:205DD00011F10A0FB8BF6FF0090100E01521594B594E01F01F0242F4F8521A80326812F08F
:205DF000030F18BF0125D20828BF45F002050FB145F004054A4692F90730C31A052B04DA4C
:205E10009379AB4208BF918866D0DFF834E10F28A0F10F0C25DB0CEB0013A3F1F00C4FEAC1
:205E30002C26072E88BF07263446062C88BF06245EF82470042303EB84037446E358DB1BC9
:205E500003F0FF04EF0824BFC3F307273C44AF0824BFC3F307473C446F0828BF04EB13641C
:205E700001E0002426465EF826E0EF080EF0FF0324BFCEF307273B44AF0824BFCEF3074754
:205E90003B446F0828BF03EB1E63A4B2ACEB0626AAEB01017443002904F1800403EB142378
:205EB000D8BF0121342408F0FF074C43A1B27943B1FBF3F14FF6FF738B4238BF191C80283D
:205ED00089B2918005DA10F1800FB8BF6FF07F0000E07F20D07195711A4800681F2910605A
:205EF0004FF0000008D340F2FF128A4206D24908401C8A42FBD301E01F219180134F0F396E
:205F1000090940EAC10047EA0001CBF8FB1F0026CBF8FF6FBDE8F88F0D490E4F4A46082077
:205F30000F60921D1070BDE8F88FC046EC0100103C1100506E62084024220840E029002018
:205F50009C130050082009403500094000E7A48030100940FDFDA400AC3F00502DE9F84F79
:205F70000024774D774EDFF8E0B1DFF8E0A1DFF8E081DFF8E091D9F800104A7A0123182023
:205F9000A34060431A420AEB000709D0087A38F810203A8000201BF80420BA73F87302E0CD
:205FB00040F6010038800020788007F118007860387B00F0EF0040F080003873097A012948
:205FD0000ED141F28830B860387B00F0F00040F005003873787B00F0F00040F0020019E05E
:205FF000002C0CBF0221002100F0F000084338733CB90EF057FA00F5C870CAF80800022023
:2060100004E00020022CB860F9D10120797B01F0F00108437873641C3E61022C7D61AADD7D
:20603000D9F80000017A01290EBFCAF834A00020CAF834000CF0F0FB3060474880690078FA
:20605000C1074CBF1021002182074CBF2022002243074CBF4023002300074CBF8020002066
:2060700011431943014341F00F01317100207071D9F80010887A00F003007071CA7A9200AB
:2060900002F00402104370718A7ED20002F0080242F0100210437071087A012818BF0428C8
:2060B00006D10020B071F071B06001F1140216E0487FB07101F15D025078F071487F20B14F
:2060D0000B7FC3EB4313C8181E30B060507828B11278C2EB42128B1803F15F001F4AF06009
:2060F000726101F10C0030611D4BF07E727900F0E00040F08600F0761A48F061187828B165
:20611000307900F0FE0042F040023071164B987843064CBF42F0200202F0DF0272710020D4
:206130002880A870E87028716871E8802881A872E872E8600868C0F804A0BDE8F18F00BF48
:20615000B44D0020F44B0020409A0110204A0020109A0110104F0020B8540100D0470020BC
:20617000784E002000204E00882900207E488078FF2800D170472DE9F84F0DF005FC0546D7
:2061900005F217100178012908BF417800F0A28005F17400817B022903D105F174020020AB
:2061B000907305F59276F18911B1307B05F00EF968896E4F288105F58D78B87AFB793A7B36
:2061D000F97A7C7BB8F800C000EB030E96448E4474441FFA84FEB8F80440641CA8F8044082
:2061F000F444B8F80240A8F800C00419A8F802404FF01C0C3468FCB1DFF8749195F806A047
:20621000D9F8009009F10E0B0CFB0AFA09F10E091BF80AA034F81AB0F34424F81AB095F881
:2062300006A00CFB0AFA19F80A9004EB4904B4F84AE08644A4F84AE0002B08BF002904D160
:20625000002A04BF797B002923D02A89E889821800202874AA81287F012804BF698CE98398
:20627000787868B10121297705F174018878002804BF887B002803D1087F08B9698CE98345
:20629000307D80B3022804BFF87A002827D1002128E0E98338B100202874287F012807D1AD
:2062B000698CE98304E0B8F80600401CA8F80600A8892989814206D08842D1D2081A41F293
:2062D000AB029042CCDA287C08B1052901D0082100E03E212846BDE8F44F0CF047BE787A7C
:2062F00008B1022131752348FA7B01682868D30708D53A69C26001F11400A9794901002223
:20631000425011E001F11402A97949015258184932610A68A97902F108030CFB01F299585B
:20633000C1600020E8832877134841690A7890074CBFB87B812085F874002846FCF7D2FCE5
:2063500001280ED00121284607F0AAFD28460CF083FCFCF73DFF012803D0BDE8F14FFDF70B
:2063700009BEBDE8F18F00BF684E00205C4D00206C230020F0290020B85401002DE9F04187
:206390000C4684B00746207A0026C10690461D460BD540460EF032F8030000F0F0800A223D
:2063B000214638469847060050D1207802281AD160680178427801EB022189B24FF420503D
:2063D000091A012910D9891E41D0491E16D0FD3905D0491E00F08B80491E74D0491E7BD0A8
:2063F000491E00F0A180B8E00B98002831D1E0680A9A017811800278416891E00B9800285B
:2064100027D10A9801210180E0680178297000216089401C80B20DF0EDFF0A99098868B107
:2064300002780A9B921C51181980418969704189090AA97002784168E81C72E00A98091DA3
:20645000018004220021681C0DF054FD98E00B9800286BD1E06807880A98042101802F7055
:20647000380A68700DF1020138460DF0C3FF04001FD0E768BDF802204FF6FF786B464146A7
:206490000DF0D0FF40B9237862683F4802210DF0ADFF08B9ADF80080387802280BD17968F2
:2064B0000222281D0DF06EF90A980188891C018001E0ADF80070BDF80000A870BDF8000036
:2064D000000AE8705CE00B9800282FD1E068016838460DF0E8FA03E00B9838BBE0680088EC
:2064F0000A9A022111802870000A687048E0E0680DF002FD0B9B80B29842B8BF07263FDBDE
:20651000834208BF002006D00C99C9188142B2BF0C98C01A80B20A9908800246E068C118EB
:2065300028460DF02FF92BE00B9808B10B2627E00A9AE0680721118002782A7041786970CE
:206550004188A9704188090AE97001792971C1886971C088000AA87112E040460DF042FFBC
:2065700006000CD00D980C990A9B029001912A460B98009021463846B047064600E00E2637
:20659000304604B0BDE8F0816C5101002DE9FE4F7D4C617811B900200CF0ACFF0DF082FFD9
:2065B0008146002709F6C4190026784DDFF8E0810EE030460DF0E8F9417939B1296882796C
:2065D000CA5549467F1C00F0E7F8FFB2761CF6B298F800008642ECDB009761788F4205D073
:2065F00000200CF087FF82200DF0A8FF6078012840F0A380002601E0761CF6B298F800007E
:20661000864280F2948030460DF0BEF9074678790028F1D02868B979027891421CBF0020C1
:206630000CF068FFB87980E0286810F809000DF0ABF900684268DAF808109068814204BF9A
:20665000B84609F1010900F088808BE0296891F800B04FF0010910E0626811F8093002F5BF
:20667000B17208FB03F708FB0BFED75B32F80E20974238BF9B4609F10109C0B28145EBDBA1
:206690004FF6FF7007F072FF074658460DF07CF940F6C4190068416800967808029109FBA0
:2066B00000FA0026019715E058460DF06DF901680A78802A04BF7B69C3F814A00978402987
:2066D00007D1344A8079136803EB40110AF5A062CA61761C0098864253DA2868805D834521
:2066F000F7D0636808FB00F2991803F5B173C9899A5A4B08934203D2009B891A8B42E8DA26
:206710000DF042F900684768029A0198B968936800EBD0704010A1F6C41109FB00300DF0B1
:20673000BDFE0028C0D02868805DBDE8FE8F00200CF0E0FE82200DF001FF6178286808F03D
:2067500042FC286800780DF01FF90168009ED1F804A04FF000084FF00109B14508F10107D3
:20677000FFF662AF4046C0B200281EBF3846C1B200294FF4D0787FF469AF286890F800B00E
:206790007EE75846D1E700BF684E0020004F00207B4F0020F02900202DE9F24F054682B033
