:2000000000400020810C010001C9011001C9011001C9011001C9011001C9011001C90110D0
:1C00200001C9011001C9011001C9011001C9011001C9011001C901103FC9011089
:20003C0080B54FF4FC720FF278011A480CF052FA012119484174002202210270C17601BDB6
:20005C002DE9F0410FF2502214493820136854689568D6681769D2F814C0D2F818E0D2F8F9
:20007C001C800B604C608D60CE600F61C1F814C0C1F818E0C1F81C8020322031401EE5D1DC
:20009C0050689368D46812680A6048608B60CC60BDE8F081480400215903002100C00021D1
:2000BC00410500217D0500212D06002170B51D46004C204787B2000010B5014800470000FD
:2000DC00D509000070B5614C6148254650358047022809D14034E1885E4A914204D1E97C5E
:2000FC00890601D4911DE18070BD70B557495A4A084650300378002B10D08379012B0DD181
:20011C00037C5B09DB0709D0097D544DC1746C7F20202043687790476C7770BDFF21C17420
:20013C00904770BD10B54E48484C804702280ED121464031CA88474B9A4208D1CA7C5209CE
:20015C00D20704D0227D920601D49A1DCA8010BD70B53E4843494030C07C4009C00707D032
:20017C003E4D41482C8B2043288388472C8370BD884770BD10B53B48344CAC388047214609
:20019C0053310A789309DB0705D04034A2730A7803231A430A7010BD2C4940310871182876
:2001BC0012D004DC0A280BD00B2804D10AE025280CD02A280CD02D4980004018C0687047DE
:2001DC002B4870472B4870472B4870472B4870472B48704770B504461C484E252D5CAE09AB
:2001FC00F60716D0067D3007000F052803D00120054202D00DE00220FAE7E80905D07006D1
:20021C0003D54868800F012803D05B085B0052085200062B03D01020022B11D011E0FB20F7
:20023C00024002232046FFF741FF002807DAC100611A2039497E1422114200D1002070BD93
:20025C00024303432046FFF731FF70BD4401002137CB000004140000EBC80000A800002142
:20027C00F5B4000053AD00002020000080DF00001D050021F9040021CD040021930400210F
:20029C006D04002110B5034CFFF716FF20680028FAD110BD0011044068610000F825F965B0
:2002BC00F9754500450045002600260057A3520052004C00401F401F401F3F000000000053
:2002DC00304000400140034007400F404F40CF40CF41CF43CF47CF4FCF3FCF2FCF1FCF0F6C
:2002FC00000000000000000000000F00080000003F00000040003F000000040068000E0093
:20031C00DC00060043001A00050000000000020000000000000000000400C00000000400B3
:20033C00C000000007000000000000000000000000000000000000003040004001400340A6
:20035C0007400F404F40CF40CF7FCF6FCF5FCF4FCF3FCF2FCF1FCF0F00000000000000009D
:20037C0050C00091007070C00091007082312100319110B10070018101B100A1823132910D
:20039C0010B101911110418141227740F106007051C0019130181039833108D01831416FD1
:2003BC003100319110B18314141683680070251050C00091F4C340C12014036F3110410497
:2003DC005082F0229840512622C082312100319110B163393110410482C08231210031919B
:2003FC0010B163393110A2C082312100319110B150101531051405920070676452C03110A6
:20041C0031066131C1026A6412C13110213971065131E1026A64007051C0019101CCE2C0CC
:20043C006A64676411C1C2C06A6450B054B0007140804022D6440022C94060B08180111EC9
:20045C00C944007054A064B0F0800022C9404012B09032B070C1DF6811C122C16A6470C1C0
:20047C00E46851C00191E2C0823160820200329110B130C2EE68538253395339B16460C347
:20049C00F4688012B09032B00070676401C122C16A6401C1C2C06A645382B164C012B09074
:2004BC0032B00070676472C281C06A6422C111C16A6402C011C16A6462C031C36A6462C3D2
:2004DC0011C16A6402C311C16A6453825339B164E2C36F6411221C4142C281C86A6452C24E
:2004FC0011C16A6472C2E1CE6A6402C281C86A6402C201C86A64B0C030690070676442C211
:20051C0001C86A6452C211C06A6472C2E1C06A6402C001C16A6462C001C36A6422C101C127
:20053C006A6462C301C16A6402C301C16A645382B16400708180111E5C4150B054B000712B
:20055C00408040225D4154A064B0F1800122514500700022514160B04E61000000000000AA
:20057C000000000000000000067305720B720E7250B00071818060B050A09280F0EFF1928C
:20059C0002936A6741228C458080F1C11004301601110114016CB561B661B761B861B9618D
:2005BC00BA61BB61BD61BF61C161C36126632D63F0C002043231412A121432160111211412
:2005DC00016CDA61C561E061C761CB61B561B561B561F461C561FA61C761CB61B561B56104
:2005FC00B561F461C561FA61C761CB61B561B561B561E761C561ED61C761CB61B561B56121
:20061C00B561CF61CF61CF61CF61CF61CF61C064CF61F964CF610665CF613265CF6174676A
:20063C00CF611166CF61C0644E65F964CF61066511663265CF618280E0DFF2926A67B0B044
:20065C00D661B1B00673057230B06C61D0CF6A6784C203C0C0C37C64207851788278E378B7
:20067C001579B6780062C0CF6A6784C203C0C0C37C64307861789278F3781579C678006250
:20069C00B0CF6A6784C203C0C0C37C6440787178A27803791579D678109221923292439281
:2006BC005492659256911FC0FF914039F00601101031101400927067CF61E3B054A0F08076
:2006DC0050221A4640800022BE461262E3A000C86091598150B0918041228E46A0CF6A6734
:2006FC0012828231823942398B641282F2062F101F312F141682D622334640C1346200C5AF
:20071C0020140D6F6D39DE10F4C34E0482C082312E006D39A2C082312D001A828A39FA0606
:20073C002082803180390BC00B18BC10AC18038239149B141082F0060110103110145181C2
:20075C0010140C14C622C94631D0C1266462021011C0013010C00118021882312100C126C2
:20077C00919103B013B063B053B041800122BE46B481C491D581B51C774E95186591F0803E
:20079C00102269428C623D9110B13E9110B1E08000228146E6228142E0B0951865910F926B
:2007BC005981F914F0805022114210228C464D6390CF6A6763B052A03082F2C0200402107E
:2007DC0011C0013010C00118021882312100C1269191919113B003B063B053B064B054B055
:2007FC00007141800122BE4663B064B0F08050221142B181C191D1819118619131B0A462D0
:20081C002967E0A059810582591480C0007163B0BA6A6962E3A0018262818231823D80EF61
:20083C00F19202936A6703A0007037824739873930828039F006021011C0013010C0011849
:20085C00021882312100C126819102B012B030824039F006021011C0013010C001180218E9
:20087C0082312100C126919103B013B063B053B0007153A062B052B041800122BE46A4816E
:20089C00C491D581B51CFE4E95186591F0801022F0428C62B481C491D4814518751C084FEB
:2008BC00F0801022F0428C623D9110B13E9110B1E08000221247E6221243E0B065910F92DC
:2008DC005981F914F0805022114210228C4630632967E0A0598105825914F0C0007162B038
:2008FC00226BF062A2808B64CF6112824239F2068B6050B00071CF6170CF6A674082418096
:20091C000122BE46A481C491D58195186591F18011228C46336B41800122BE46A481C491AB
:20093C00D581C51C1C4B95186591F08010223F438C6260CF6A67408241800122BE46B48169
:20095C00C491D58195186591F18011228C46506B41800122BE46B481C491D581C51CB44A55
:20097C0095186591F08010225C438C62E092D08200226B47C0B20070A080F022874330B033
:20099C0002C1623101C0A080001E8043F022814380F86031603981632010101A136F236E5A
:2009BC0011161216826B00702DE9F84FDFF81885DFF8181588F80000002008600921DFF891
:2009DC00100501700D2141804FF408718180DFF80405DFF8041501608A7EDFF80005027042
:2009FC00FF2ACB7E437008BFFF2B0D7F85704E7FC6708F7F0771C97F417115D1FF2D08BFE8
:200A1C00FF2E11D1FF2F08BFFF290DD1DFF8D0140A7802704A7842708A788270CA78C27025
:200A3C000A79027149794171DFF8B81402780A70FF2542784A7082788A70C278CA7002791E
:200A5C000A714079DFF8A02448710021DFF89C04057045708570C570057145711180DFF872
:200A7C009004DFF89014466BDFF88C247078087031781170B078DFF884140870716908791F
:200A9C00DFF87C14421E0A70F078DFF878140870B069DFF87414086008B912F0A7FCF06917
:200ABC00DFF86844206008B912F0A0FC2068DFF8607401688847216851F8042F38469047F3
:200ADC00DFF85004DFF850143862DFF850047862306A086008B912F089FC706ADFF84014A6
:200AFC00086008B912F082FCDFF838B4DFF838649BF8040012F0BCFF306008B900F045B968
:200B1C009BF80500DFF8247412F0B2FF386008B9306837E19BF80600DFF8144412F0A8FF85
:200B3C00206020B9306812F0ABFF38682AE19BF80700DFF8009412F09BFFC9F8000038B9FE
:200B5C00306812F09DFF386812F09AFF206819E1DFF8A4130A789BF80000DFF8DCA3921CDF
:200B7C00504380B212F084FFCAF8080058B9306812F086FF386812F083FF206812F080FFE8
:200B9C00D9F80000FEE0DC480078002800F00281BBF80210DFF8A4B3484380B212F068FF3A
:200BBC00CBF8040078B9306812F06AFF386812F067FF206812F064FFD9F8000012F060FFF7
:200BDC00DAF80800DEE0CC48007812F051FFDC49086080B9306812F053FF386812F050FFE0
:200BFC00D9F8000012F04CFFDAF8080012F048FFDBF80400C6E0C04800781C21484312F0D1
:200C1C0037FFD04A1060B0B9306812F039FF386812F036FF206812F033FFD9F8000012F057
:200C3C002FFFDAF8080012F02BFFDBF8040012F027FFC348A5E0B0480078400112F018FF0B
:200C5C00C1490860D8B9306812F01AFF386812F017FF206812F014FFD9F8000012F010FF8B
:200C7C00DAF8080012F00CFFDBF8040012F008FFB348006812F004FFB249086882E09E4876
:200C9C000078000112F0F4FEB0490860F0B9306812F0F6FE386812F0F3FE206812F0F0FE28
:200CBC00D9F8000012F0ECFEDAF8080012F0E8FEDBF8040012F0E4FEA148006812F0E0FEAD
:200CDC00A049086812F0DCFE9F485AE08A480078000112F0CDFE9E49086018BB306812F0CE
:200CFC00CFFE386812F0CCFE206812F0C9FED9F8000012F0C5FEDAF8080012F0C1FEDBF84A
:200D1C00040012F0BDFE8E48006812F0B9FE8D49086812F0B5FE8C48006812F0B1FE8B4943
:200D3C0008682FE0744800783021484312F0A0FE884A106070BB306812F0A2FE386812F01F
:200D5C009FFE206812F09CFED9F8000012F098FEDAF8080012F094FEDBF8040012F090FE78
:200D7C007748006812F08CFE7649086812F088FE7548006812F084FE7449086812F080FE97
:200D9C007348006812F07CFE002012F02FFB4FF4804192E0316801200871306805733168FA
:200DBC004D73306885733168CD7330680574002031684D743268D072A0223168487103214F
:200DDC003068C28001720720316848720020326890722821306841820121C17600203168BE
:200DFC004877326882F85E00012031680877326882F85D00396808713868057339684D7369
:200E1C00386885733968CD7338680574002039684D743A68D072396848713A6890724FF47D
:200E3C00207039680022C88008818A7401213A68D17421680D732268557321688D732268FD
:200E5C00D57321680D740021226855742368D9720121226811710021236859712168C88065
:200E7C000881002088722168887405202268D0743948016888472A490A6805461068804713
:200E9C0027490A6852F8043F0020984718481D4BC16818780A88314902430A802846304985
:200EBC000A6890470C212F4800F05EF80F4800F05FF800F061F84FF4005198F80000BDE833
:200EDC00F44F0AF03BBA00BF6E4F0020044F0020604E0020084F0020B63F00502C4E002091
:200EFC00E81200503C4E00200C4F0020344E0020CC5301006D4F00207B4F00206B4F002005
:200F1C00724F00206C4F0020F04E0020F44E00207C4B00208D3A0100F84E00209D3A01004C
:200F3C00FC4E002030180020104F0020E8210020184F0020EC210020BC210020684E002094
:200F5C00004F0020E0210020E4210020884E00208C4E0020904E0020EC120020544F0020F1
:200F7C00F0120020F84D0020DFF800F0E5710110DFF800F01D6E0110DFF800F04D710110A7
:200F9C00B0B5174C241D20680004070C23D01248006800688047114991F90720824205DDF8
:200FBC0010F1800FB8BF6FF07F00C8718D88BD4210D80A68D4F8D40F801A801C1F2888BF16
:200FDC001F207F1B4008C7404FF6FF70EF19B84238BF071C8F80B0BDEC010010D021002073
:040FFC003010094068
:20100000B41200001810000015AB0110FDB301106DC00110FDAE011099B5011000000000F7
:08102000000000002D0000009B
:20102800B01200003C100000B1C00110A9BF011067C0011069B80110000000000000000035
:041048003000000074
:20104C00B012000060100000BDC00110CDB30110D9BD01106DB3011000000000000000005B
:04106C00310000004F
:20107000000000005018002004000000000000000000000020000000E8C9011030000000C2
:2010900028100000581800200400000000000000000000000C000000D8CA0110180000009D
:2010B0004C1000006018002004000000000000000000000024000000F0CA01101800000021
:2010D00000000000681800200400000000000000000000001000000018CA01102C0000002D
:2010F0000010000078180020040000000000000000000000200000006CCA01102400000091
:20111000FFFFFFFF801800200400000000000000000000002800000090CA01102400000050
:20113000FFFFFFFF881800200400000000000000000000001400000008CB011018000000CF
:20115000FFFFFFFF9018002004000000000000000000000058000000B4C90110340000009D
:20117000FFFFFFFF981800200400000000000000000000001000000020CB0110180000006B
:20119000FFFFFFFFA01800200400000000000000000000001C000000B4CA01102400000098
:2011B000FFFFFFFFA81800200400000000000000000000003800000044CA011028000000C0
:2011D000FFFFFFFFB01800200400000000000000000000005400000078C901103C00000035
:0811F00001000000B0530100F2
:0411F80001000000F2
:0411FC0000000E00E1
:0412000000000F00DB
:0412040032000000B4
:0412080001000000E1
:04120C002017002087
:0412100000020000D8
:0412140000000000D6
:0412180001C90110F7
:04121C0000000000CE
:0412200000000000CA
:0412240008000000BE
:0412280000002200A0
:04122C00A4150020E5
:0412300000000000BA
:0412340000000000B6
:0412380008000000AA
:04123C00E016002098
:0412400000000000AA
:0412440000000000A6
:04124800080000009A
:04124C00000000009E
:04125000000000009A
:041254000000000096
:041258000000000092
:04125C00010000008D
:041260000C16002048
:041264000600000080
:041268000100000081
:04126C008C140020BE
:04127000000000007A
:041274000000000076
:041278000002000070
:04127C00000000006E
:02128000290043
:02128200010069
:02128400250043
:02128600300036
:02128800310033
:02128A002D0035
:02128C0001005F
:01128E00015E
:08129000030000004C530100B3
:0812980000000000000000004E
:0412A0000000010049
:0412A4000000030043
:0412A80013C401105A
:0412AC0035380100D0
:0412B000B812000070
:0412B400B81200006C
:0412B8000000000032
:0412BC00F017002007
:0412C0009939010057
:0412C4002000000006
:0412C800B852010017
:0412CC003451010098
:0412D00029C101101F
:0412D4002B0B0100DF
:0412D8006714010096
:0412DC00A1C7011095
:0412E000A3C701108F
:0412E4000000000006
:0412E800DF520100D0
:0412EC00744F01003A
:0412F0008C4F01001E
:0412F4005C4F01004A
:0212F8000200F2
:0212FA000900E9
:0212FC000100EF
:0212FE000000EE
:0113000001EB
:041304001539010096
:041308003D1D010086
:04130C002D2E010081
:041310008520010033
:04131400EB200100C9
:041318009D0A010029
:04131C0079E3000071
:04132000653B010028
:04132400E1F70000ED
:0413280015C70110D4
:04132C0025C70110C0
:201330002DE9F04F0C4685B0834614F8010BDFF870278DF8000018280BF1FD010BF1E708C8
:201350000BF166090BF20D1A0BF5B0760BF59C750BF5C67700F29183DFE810F019006F0025
:201370005F0191008F038F03FA00690311012301FE000D0133018F038F037C018F036101D7
:2013900055017503D602D60227028F03740214F8010B8BF88600022221460BF1880013F05B
:2013B0007DF8014602220BF18A0013F077F8014602220BF18C0013F071F8014602220BF17F
:2013D0008E0013F06BF804469BF8860040008BF886000BF1860102224888400048800BF1E2
:2013F00086008188490081800BF1860108890001088121460BF1840013F050F8B9F81E1055
:20141000BBF80800091A89B247F6FF7291422ADA0BF18601C8888A88401C520050430A8965
:20143000904203D33B208AF80B0039E2012089F81C000020ABF81E001EE0052221460BF1CA
:20145000610013F02BF8014602220BF1920013F025F80BF1860047F6FF728189BBF80800E7
:20147000091A89B2914280F218820BF18600012181720021ABF81E10012028700CE398F85E
:201490001600C1070AD41A2198F80D0088F80E10012808BF0D213FD00D21CDE1002089F860
:2014B000000089F806000822012088F8110021460BF1B00012F0F2FF014602220BF1B80094
:2014D00012F0ECFF0BF1A80601460822304612F0E5FF04460821304612F0DCFF0BF19C0634
:2014F00004222146304612F0D9FF0421304612F0D1FF0BF1A00012F0C9FF0BF1980012F096
:20151000C1FFDFF8A005018841F08001018098F80D00012806D10421584605B0BDE8F04FCA
:2015300010F098BA99F81000012804BF99F811100F290BD158460EF0AFFA042158460DF0F1
:20155000B9FB0F2089F81A00FD2175E1042173E1012088F80F009FE2002089F8000089F8BD
:20157000060088F800000B21012088F80D00002088F8010060E1012088F810008CE20020DA
:2015900002F10906235C365C33432354561C365C33400B54401C0828F2DB58460DF024FE4F
:2015B00070E2002002F10905235C2D5C2B432354551C2D5C2B400B54401C0828F2DB02207C
:2015D00048E299F8060008B93D2167E19AF800000128D3D014F8011B8AF80310022221462D
:2015F0000BF5897012F05AFF014602220BF58A7012F054FF01208AF800009AF8020000286E
:201610001BD10C2118E198F81600C10601D41221D1E058460EF0D6FE34E221783EE12078AC
:2016300030706078707099F8100001280CD199F811100F2902D0162902D02DE268732BE2D7
:20165000387B40F0010016E205B0BDE8F04F002011F0D2BE98F81600810707D410F0110F2B
:2016700008BF0F2000F009821A2252E02078617800EB01202882E178A07800EB01206882ED
:201690006179207900EB0120A882E179A07900EB0120E882207A2876A17A607A00EB01206F
:2016B0006883217BE07A00EB0120A883A17B607B00EB0120E883217CE07B00EB01202884E4
:2016D000A17C607C00EB01206884217DE07C00EB0120A884A17D607D00EB0120E8840BF564
:2016F000AA700490688B0390287E0290BBF808000190E88A0090AB8A6A8A298A58460CF0AA
:2017100085FD68B198F81600410701D40F2152E01E22584605B0BDE8F04F0F2110F0B6B9E3
:20173000688A0BF186018880A88AC880E88A088102208BF8860000204880BBF83400C01DD0
:20175000A9F81E008888BBF83210884201BF0BF18600C188BBF83400814206D10BF186005D
:201770000189BBF8360081421DD099F81000012804BF99F811100F2907D099F8150020B171
:201790000F2189F81A10FE2156E0FC2158460DF091FAE88A0090AB8A6A8A298A9BF806004F
:2017B00012F06CFE78E1102146E098F8170010F0090F03D116218AF80C1060E160782178E3
:2017D00000F00700014021702078797B0140F97211D0481E01420CD0490704D5B87B10B175
:2017F0000421F97205E0F97A022001421AD14008FBD1F87A08B9B97AF972F87A042803D14A
:2018100058460EF07EFEB083F87A12F033FE3871B28BB97B01230FF091FA0146308B884234
:2018300002D207E0F872E4E7B28BB97B387901230FF084FA78801721584605B0BDE8F04F7E
:201850000DF038BA60782178814207D100F007000840207033D0421E10420FD01E221821A1
:20187000584610F013F99BF80610002300221E200AF0A8FC387B40F04000FCE0F87247F63E
:20189000FF72A078E17800EB012038813989BBF80800091A89B2914206DB28218AF80B101C
:2018B00001208AF80A00F7E00120B871F87A042803D158460EF025FEB083F87A0BE099F8F8
:2018D0001100162806D1BA7A9BF80610134600200AF078FCB87A3871B28BB97B38790123ED
:2018F0000FF02CFA0146308B884205D3B28BB97B387901230FF022FA78800121387B40F0B1
:20191000400038732970C7E02078617800EB01207082E178A07800EB0120F08261792079BB
:2019300000EB01203082E179A07900EB0120B082B18AF089884288BF0846B97A042905D1DF
:2019500040F691229042B8BF4FF42960F28BF0839042B87A14BF01240024042803D15846CB
:201970000EF0CFFD04E0B089F18A884288BF0846B28BB083904214BF012100210C43308936
:20199000718A328B884288BF0846904214BF012100210C433083B28BB97B387901230FF0F1
:2019B000CDF90146308B884205D3B28BB97B387901230FF0C3F978807189308A728B814240
:2019D00088BF0146718391429BF8063014BF0120002004438A4234490A6802EB4311728B85
:2019F0008041121DC00F0A7610B1584610F072FA9DF80000142810D144B1F08B0090738B1D
:201A1000B28B318B9BF8060012F030FD584605B0BDE8F04F15210BF063BE1CB1387840F0BF
:201A300008003870397841F02001397034E020780E280ED00F2809D0122804D014280CD044
:201A5000162812D028E00020287225E00120287322E0032088F815001EE0387840F0020039
:201A7000387040F01000387016E0387B40F00200387340F0100038730EE08AF80C0058463B
:201A90000EF03EF940B905B0BDE8F04F074800784FF4804109F058BC05B0BDE8F08F00BFFF
:201AB00078210020524F0020E42100206E4F00202DE9F04FB94C04F10C012046ADF1340DF9
:201AD0000EF040FB04F134050021284612F0CAFCB3490A22012304F1740025610EF046FFBA
:201AF000002001460DF060FDA0600FF09FF8D94E10201F220623314606F0AAFD5027002013
:201B10000125ADF81C704FF44873ADF81A0082468DF82D500DF12D02ADF81E3029468DF8C3
:201B30002EA04FF47A77ADF820A040F20530ADF8227002F047FF40F2063002210DF11A02B3
:201B500002F040FF04F155024FF442701F2102F039FF04F1240240F20730072102F032FFCA
:201B70004FF444700DF12E02294602F02BFF40F21130022107AA02F025FF40F212300221B1
:201B90000DF11E0202F01EFF40F21330022108AA02F018FF4FF4457002210DF1220202F086
:201BB00011FF04F1400052461523CB490090102006F04EFD314610200622A02306F048FD1E
:201BD000314610200722A02306F042FD314610200822A02306F03CFD314610200922A023D5
:201BF00006F036FDCDF814A0AB468DF831A005A88DF82FB0C94D8DF830B04FF481628DF8B5
:201C100032B0042300902946102006F021FD0DF12F004FF4806200905B462946102006F050
:201C300017FD0CA840F2024200905B462946102006F00EFD0DF1310040F2034200905B46AE
:201C50002946102006F004FD0DF1320040F2064200905B462946102006F0FAFCC54910203A
:201C70004FF0FF3206F0F4FCC34910204FF0FF3206F0EEFCC14EC24F10201323C14A009051
:201C90003146019706F0E4FCBF480078800012F093F8BE4D0146A96069B14FF6FF7010F09A
:201CB0007DF8C949102005F13402009008230191314606F0CDFC04F12000C449686004F1CF
:201CD0002C02102006F0C4FC207810F0CBFCC0490246102006F0BCFC207810F0C3FCBD49F5
:201CF0000246102006F0B4FCBB49102006F0B0FCBA491020042206F0ABFCB94DAEA04FF651
:201D1000FF712860504610F051FBA768DFF8D48257B12E7946B1404687600521017051465C
:201D3000C16028460FF0E6FFC94E06F1180006F10C010AF06FFC0246C649B26011F042FFE6
:201D5000C54D10464FF4E0212A46521E10F0E2FCB0684FF4E0212A4610F0DCFCBF4FB0683F
:201D70004FF0C0513A46521E10F0D4FCB0684FF0C0513A4610F0CEFCC549C822534606F109
:201D900024000EF0F3FDC348C3497060102006F05FFCC24E30787778D7B903E00802002075
:201DB000FD39010004F11C01316210F05BFC06F15407CDF800A0024606F14400019006F11E
:201DD0001C050297C1490395B378102006F040FC4546E068BE4A51464FF0FF3312F03EFBEC
:201DF0005FEA0008F5D0CDF810A006A80BA904AA10F05AF9002840F0DA80BDF818102078BE
:201E10005F46102940F0CE809DF82C10884240F0C980049E31884FF6FF728A4200F0808075
:201E30003378913B2FD01F3B40F0BC807178162912D03279A06829787E2A08D07F2A1CD1E2
:201E50003289A4A30092524610F082FD15E0327AA4A3F7E7BD84011010F004FCCDF800B03A
:201E7000BD4972880346102006F0F2FB28B938460CF01EF95746A66194E0317906F10800C3
:201E900012F0E8FA8EE070780E3827D0801E3FD02E3840F08780B0780C2840F08380F37877
:201EB000A1682878ABB9401CC2B292A308461146524610F04DFDF079012814BF92A094A0AE
:201ED0000090A168287894A3801CC2B20846114665E0401C94A3F8E7D1D40000B08842F205
:201EF000030181425ED1B1680E78002E5AD1491C09A80A684968026009AE4160307895496B
:201F100009AA00F0FD003070102006F0A1FB49E00820514605F060FB44E0C04639470000CD
:201F3000708840083ED3A669002E3BD0607806F10803401C607086490093728833791020BA
:201F500006F086FB5FFA80F9B9F1160F20D02078B9F1040F1CD0A66910F084FBCDF800A035
:201F70007D4972880346102006F072FB48460CF09FF817E0552D01003D30010091250100F5
:201F9000285301006C0E0020694F002030120020607800902978A06868A3491CC9B252464D
:201FB00010F0D6FC049810B10FB111F0CEFE5FEAD870C0F0808079E0424C45205065726938
:201FD00070686572616C00C034530100113201005188011031810110B5CD0000093601007A
:201FF000BC1600204C1700202069064612F02EFA864208BF574602D087680FF0E9FE381C36
:20201000B94653D007887F1E4AD0FF1E4BD18078010925D2400946D36F786E680E2011F0C8
:2020300021FC00283FD13079B8420DD0FF2F3AD006EBC7060C363368002B08BF706804D04A
:202050007168384688472EE0B0680FF053FE2AE0D8140020492601000E0005800E0000109D
:202070006E786F680D2011F0FDFBE0B93879B04207D0FF2E09D0761CF0B20FF0E1FFFF281A
:2020900002D150460FF0DCFF687008F0A5F80AE061380100113D0100C5AB00107805002090
:2020B000807803F0E9FC48460FF092FE206912F0C9F9002898D05FEA5800FFF48AAE27480B
:2020D00011F090FE09F06EFB83E6C046E30E0100010000C04D54552053697A653A20256449
:2020F00000C046C046432056696F6C617465643A202564005048592055706461746520436F
:202110006F6D706C6574650032204D62707300C031204D62707300C043757272656E74206F
:202130005048593A20257300504859204368616E6765206661696C75726500C05273702038
:2021500073656E642072657472793A20256400C0DDFE001095B40010873901007C02002029
:202170002DE9F04FD04C04F118012046ADF1440D0DF0E8FFD54D00264FF6FF7001236670A1
:2021900032462082294604F1A4000EF0EFFB0223324604F1C80029460EF0E8FB04233246DC
:2021B00004F1EC0029460EF0E1FB4FF0040A04F1440810224046314684F802A00BF04FFEC2
:2021D00004F154091022484631460BF048FE04F11C073E6004F10A052E70E67126720720B7
:2021F0006072CDF80080DFF81883022210200346414606F02DFA102003224146CDF80090D4
:20221000034606F025FA1020524641460097134606F01EFA4FF0080B4FF0030905F12A0046
:202230000C9005F179000D9005F11E000E9005F15A000F902435109517E06078A28FE18FD7
:20225000B4F84050B4F8423006280ED1ADF81A20ADF81C10ADF81E50C048ADF8203011F046
:20227000C3FD012006A90BF06FF9A069BA4A31464FF0FF3312F0F2F8071CF6D002960DF1FB
:2022900022000DF12E0102AA0FF00EFF002840F0CB81BDF822102078102940F0C1819DF8C4
:2022B0002E10884240F0BC81029D29884FF6FF728A4200F0AA812B78A23B00F08D812E3BC5
:2022D00040F0AE81A978B046002900F04981891E00F01881491E012940F2E880891E00F0A3
:2022F000A880491E7BD0491E5CD0083900F06481891E40F0678194F83A30A888052BADF891
:202310000C0047D001208DF81600944811F06CFD94F83A0001281ED004281CD003280DD08B
:2023300002280BD00298C188ADF80E100189ADF810104189ADF81210818927E0A08FE58F4E
:20235000ADF80E00B4F84030ADF81050B4F84210ADF812301AE0A08FE9888842D8BF081C95
:20237000ADF80E002989E08F8842D8BF081CADF810006989B4F840008842D8BF081CADF837
:202390001200A989B4F84200884200DC0846ADF8140001E08DF81660AF49102003AA06F0A7
:2023B00057F90FE1AD4811F01FFD6B78002B40F00981E88860822889A0826889E0826748CC
:2023D00011F024FB002840F0FD80656A002D00F0F9802B68608AA18AE28A9847F2E0AA889C
:2023F000B549102006F034F90C98414606220BF036FD6682A682E682A8792073574811F02F
:20241000F3FC964811F0F0FC4FF001084FF6FF702379208253B9A879082812BF84F801A06D
:2024300005206070404611F021FBCBE084F80190C8E06B787BBB291D0C980A6802608988AC
:2024500081800623637068892082E8896082288AA082688AE082E878E07294F83A000128C0
:2024700018BF02280BD19A4910201F2206F0F0F84FF47A7180B2414338480FF05FFA688990
:2024900000909249CDF804A0EA7810202D1D2B4606F0DEF899E06878312840F08A80E670FD
:2024B00084F801A091E0C046780500206B78002B7FD1A878E3896178032815D0E078257912
:2024D00033B9012814BF2671E67008E07D3A0100054304D07F4819460FF030FA6178072903
:2024F000DED10620607070E0062907D0E578002D08BF84F8019068D00220F3E70720F1E740
:20251000F33101006B78002B53D1EB78617893B902291DD007291BD0062902D120790128D5
:2025300016D1032914D06B4811F070FA80B9012011F09CFA0CE010F095F80246A079624900
:2025500000900D9843460190102006F081F868706D78002D2DD135E0070000804006002093
:202570006B7833BB5C485749009002221020034606F06EF859484A465249009010200346D8
:2025900006F066F8ED1C0E9829680160A988012381802078637010F065F8024601230F9D00
:2025B0006079494900901020019506F051F8C0B258B184F801B008E0AA8841491020052367
:2025D00006F046F8B8F1010F2AD1256A45B32D6835B36078A84723E06879132820D1288977
:2025F000012808D1607B022805D11C4811F0FCFB0FF08CFD14E036491020052206F028F82A
:2026100081B216480FF09AF90AE06888C00B07D3334852462B4900901346102006F018F862
:20263000029808B111F091FB2579E078790830D355EA00032DD0204600788DB9E179257AD4
:202650008DF82410109A8DF8255013680DF126052B609288AA8005E00516011064060020FF
:202670008DF82490617A8DF82C10A17A8DF82D100FF0F8FF1149024609AB102005F0E8FF40
:2026900038B1256A84F801B01DB12D680DB15846A847B80803D3134930460AF055FFF80821
:2026B000FFF4E3AD607B401E3FF4C7AD401E7FF4DCAD0FF02BFDD8E569FD00005944011055
:2026D000C1170110DDA3000009450110ED9E0000F58401101C060020BC050020CC050020F9
:2026F00094050020B20500202DE9F84F01200FF03FFC01280ED1DFF8F874396800204871BD
:2027100038680EF03DFB04F0EFFA040003D1812011F094FE68E201206071DFF8D854DFF8D4
:20273000D8044178491C41703968A07981F8A00040200BF01DFA2060287901281CBF002054
:2027500010F05AFEE8682168DFF8B05400F5B060C860286801680A79032A1CBF002010F08C
:202770004BFE2868DFF898840168DFF898B401F10809062299F80000C0F3801084F82E0147
:2027900009F1020104F5947010F07EFF042209F10E0104F1240010F077FFD8F80000A67905
:2027B00000F10C03042209F10E0103EB461010F06BFFD8F80000A37900EB4310032209F1E3
:2027D0001201103010F060FF04F12C0699F81500B070022209F1160104F1300010F054FF9D
:2027F000022209F1180104F1320010F04DFF022209F11A0104F1340010F046FF30896084DB
:20281000022209F11C0104F1360010F03DFFB078F18872894000B0704900B0884000120136
:20283000B080F180728189B2638C5B1C4800434392B2934200D231B99BF80000802108F084
:2028500083FD3B21FEE004F12E01204610F0BEFB0520A081204610F07BFD052209F11E0107
:2028700004F1610010F010FF99F823004009307011F0E0FD60823A68E34F518A401A04F584
:202890009771888104F1610199F82300DFF87C9300F01F00F07320460EF07EFB29680A68D4
:2028B000002010711C25A1793868694341F6210242520022A17969430144001D4A80A179A4
:2028D0006943425099F80200410609D5D049088841F20A4290420CBFCE48CF48C4F89C01A7
:2028F0002046D4F89C1188473968A37901F10E026B43D054A1793868694308440021C17382
:20291000C648017881B1B08870B9002171730120208160812046D4F89C1188473968A3797A
:2029300001F10E026B43D0543868A27900F10E016A43885C707394F8960108B910F05CFD47
:20295000A1793868DFF8D8A26943084494F896114A1E02740023A17938686943084400215D
:202970004174A279396801F112006A4301F1140C8352A279D8F8000000EB42136A434CF822
:202990000230A2796A431144A64A8A61DAF814100B78DA074CBF4FF0100C4FF0000C990752
:2029B0004CBF202100215A074CBF402200221B0700F10803A07941EA0C014CBF4FF0800E63
:2029D0004FF0000E0A4340014EEA020242F00F021A54D8F80000A17900EB41100B22427218
:2029F000D8F80010A07901EB401104228A728E4A1378D8F80000A179012B00EB411002D1E7
:202A10000121C17203E0DAF828104A78C272D8F80000A17900EB41101F220276D8F80010AF
:202A3000A07901EB401100224A76A07909F0D0F8A279D8F8001052018850A2795301C858BF
:202A500020B90721204610F03FFACDE07748016801EB021011F0EAFC744AA0791368D8F8EA
:202A7000001003EB00130A1D40011350081DA27952018058F063A0794001095871640421F7
:202A90009BF8000008F060FC644BB2881978901C11B10AB9F088801C618A94F806B04143CF
:202AB0004FF4C87205FB0BFBB1FBF2F1491CA061616140F6C41C23683A68CDF800B002F121
:202AD000080ED3F80CB00CFB00B0411A0098A1F5A8614EF8001002F10800A1796943405851
:202AF000986002F10C01A07968430C32095C01F0EF011154A0793968684301F10C020C317F
:202B1000125C02F07F020A54A0793968684301F10C020C31125C02F0F00242F002020A54DE
:202B3000A179386869430844417B01F0F00141F0010141733868A27900F108016A4388580C
:202B5000216808616369D8F80000A17996F802E05B0000F1140249010CFB0E3303F5F66308
:202B70005350A17900EB4110C27C02F0F00242F00402C274D8F80010A079DAF8303001EBA5
:202B90004012F0880CFB00F61868301AA0F51670D061A27901EB4210C17E01F0F00141F09D
:202BB0000401C176A17938684D4321684019486099F80100810614D504F59771488F1B28D8
:202BD00004BF888F1B2808D1C88FB0F5A47F04BFB4F86E11B1F5A47F03D0142120460CF0AF
:202BF00069F8134907200870BDE8F14F01F06AB9104F0020B44D0020684E0020F44B00209B
:202C1000E42100206E4F0020E021002078210020504F002097F80000B1000100784E0020E2
:202C3000CC5301005C4D0020734F00208C4E00206F4F00202DE9F843040014D1002010F087
:202C5000DBFB10E020460DF05BF8012808D065E08A0740F1548101F0FD0101700020B0716A
:202C700020460CF019FF04F16605687D002855D0697CDFF8A494022904F1EC0704F59E7822
:202C900004F5B07604F5C67035D0042949D005295CD0062900F08A800729D3D0092900F013
:202CB000EC800B2900F0C1800C2900F008810D2900F0D0800E2900F0EA800F2900F02881AD
:202CD000102900F04281112900F05C81122900F00E81142900F08781162900F05A811729B8
:202CF00000F07581FC2919D0FD2900F09581FE2900F09B81A2E7297C012909D199F80300AB
:202D1000002815D01621204610F0DEF8012006E020460CF0EAFB2874E88A28830020BDE857
:202D3000F283297C012940F0948199F80200002800F0E580FC2120460EF08CFEA07904F1D1
:202D5000B80204F1B00111F06DFB8CE7297C01290FD199F8020020B184F89410002038603C
:202D70007860B87A012868D1062120460EF072FE79E704F1E7063078012809D120460EF08B
:202D900069FD0128CAD10020B87201202874C5E770780028C2D004F1C70204F1A00104F15B
:202DB000D70011F03BFB012030705CE7297C012940F0538199F8020000283ED0618CE18304
:202DD00020460CF069FE0120287020460EF0A2F80120A871397A787C012900F010000FD178
:202DF00048B1002088F80500D8F8001098F8060049080CF063F8A079002111F00BFB0EE0D8
:202E100040B1D8F80020C54804F5A1735208214610F038FFA0790122002111F0F7FA002040
:202E300038723873F872B8721DE7287C012805D1F97A012908BFFC2197D060E020460BF069
:202E50006DFF0128A3D10020F87284F894000120287408E7297C012940F0038199F80200FD
:202E7000002809D0002184F894100120287020460EF050F80120A87188E0297C012940F0FA
:202E9000F48099F80200D0B3618CE183E8E6287C012840F0EE80387C022804F1FD0204D167
:202EB000A179002011F0AEFADAE6032840F0EA80A1791A2011F0A6FA00203874D0E6287C7F
:202ED000012804F20D1140F0E8800B78012B04F5897240F0E8804878012807D153880093A3
:202EF00000201388CA78A17911F088FAB8E6297C012940F0E78099F802000028F6D1298BEE
:202F1000481E288380B200287FF408AF2221FAE6287C012840F0DA8098F80910012902D1EC
:202F300030780F281BE098F80800012826D1002188F80810288D000900901A20AA8CEB8C01
:202F5000A179520811F056FA8AE6287C012840F0C18098F80910012910D1307810281CBF7F
:202F7000002010F049FA002088F80900288D00090090AA8CEB8CA1797078E2E7287F0028A0
:202F9000E2D1BCE7297C012940F0A88099F80300F5E7297C012940F0A580017B4A061DD453
:202FB000CA0709D501F0FE0101730023A1797078002209F007F953E68A0740F1988001F0AA
:202FD000FD0101730023A17900221A20F1E7297C012940F09980027B510690D5017B01F040
:202FF000BF0101733CE6297C012940F08F8001788A067FF52DAE01F0DF010A0701700AD5D3
:2030100001F0F7010170F08B0090738BB28B318BA07911F02BFA21E6A97E20460EF01AFD5C
:2030300015E7002010F0E8F978E6A87E0F28F8D1FC2120460EF00EFDB8F812000090B8F871
:203050001030B8F80E20B8F80C10A07911F016FA64E6204609F0CCFD5DE620460CF0FAFE3D
:2030700059E620460EF0FAF855E620460CF0BCF851E620460BF00EFC2874E88A28830120DE
:2030900038744BE6288B401E288380B20028F8D1A179222011F0B6F938E7012088702046BA
:2030B0000BF07AF837E6288B401E288380B20028E7D15088009022201388CA78A17911F006
:2030D0009DF923E720460DF055F924E6204609F0C9F820E6204609F015F91CE620460CF08E
:2030F000A5F918E61621204608F0CEFE13E6288B401E288380B20028C3D1A17900230022C1
:20311000222009F05FF801E71721ECE7142120460AF0E6FAFFE500BF5C4D002035E1000023
:203130002DE9F84FDFF82844A178FF2904BF002010F062F9A07810F0A9FB044604F16806F7
:2031500004F5C9753168086804F1900710B10022E28310E0B17B002904BFB07E00280AD112
:203170003978002904BF2878002804D1217F012904BF608CE0832189E08B4118491C618174
:2031900020460FF043FF01281EBFDFF8C8030178012904D120890022401CE2836081B07EBD
:2031B00001280CD1B28B6189208911F01FF930B121896289481C82422AD0B28B1FE038788C
:2031D00001280CD17A886189208911F00FF930B121896289481C82421AD07A880FE0287822
:2031F000012815D16A886189208911F0FFF800281FBF2189481C6289824209D06A888242E1
:2032100006D0501E608180B211F0ECF8401EE0832878012801BF69882089401C814207D187
:203230006A792A71002028701346A17908F0CAFF04F59A71087920B120890021401CE18334
:20325000608104F12E07B07E012801BFB08B2189491C884238D1608104F1860120460FF05D
:20327000B5FEB08C6189608400202077E083E0894118A181B08B218911F0B4F88046B988EA
:20329000308C728C01FB0808F08C8A4204BF3989884202BFB18CFB88994207D000090090F5
:2032B000B38CA1795208002011F0A4F8B07F3870708CB880B08CF880F08C3881204610F034
:2032D00047F80220B07601E0B7F80480E28BDFF88892501C00FB08F140F6C41808FB01F07F
:2032F00000902368D3F80CC06044DFF870C2D860DCF800E09A489EF800A003884FEA9A1AE3
:20331000BAF1030F13D199F80FC05FEACC7E48BF00230CD45B1C9BB2012B11BFB4F812C0C1
:2033300004F59A7CBCF806C00CF2DC5C01E0B4F812C00CFB01FC4FF4C87EBCFBFEFCDFF84A
:2033500024A20CF1010CC4F814C0038084F820204FF01C0BA379A1610BFB03F3DAF800105C
:20337000226801F1080001F1080CC058D3681061A0790BFB00FE60691B1A4CF80E3001F160
:203390000800A3790BFB03F3C058906001F10C02A0790BFB00F00C31125C02F0F00242F025
:2033B00002020A54DAF80000A279811C0BFB02F200208852287908B910F01EF8DAF80000D3
:2033D000A27900F1100128790BFB02F240088854A079DAF800100BFB00F0084400214174EE
:2033F0002879042814D1A079DAF800100BFB00F001F110022B7A125C103142EA83020A54B3
:20341000A179DAF800000BFB01F1084420214174DAF80000A27900F112010BFB02F2002368
:203430008B525149A2790968520101F11403D4F814C09B5801F1140E03EB4C034EF80230C1
:20345000B27E022A0AD1A279520101F114033E789B5808FB063301F11406B35099F80F20FA
:20347000D30749D5A2790BFB02F200F1080300F108069B58A3F5A863B3500830A2792368BD
:203490000BFB02F282589A600098121A1A6101F11402A079400101F11403125802F5F662EB
:2034B0001A502879042807D1A079400101F11402125802F5B0621A5001F11400A27952013A
:2034D0008058C4F8340101F11C03284AB888166BA57908FB00F730686D01381AA0F5167044
:2034F0005851A37901EB431021490D78012D0EBF0122916A4A7819E02879A37904280CBF41
:203510004FF44B604FF4E66001F114025B01D258101ABA8808FB02F2A2F516729042D2D39D
:20353000082120460FF0D0FC01200FE0C272A179DAF800000F4A0BFB01F108442168486023
:203550000720107020460DF048FF0020BDE8F28F684E0020784F00205C4D0020084F0020C7
:2035700008220020E0210020E4210020CC530100734F00206F4F00202DE9FE43BF4C0F4614
:203590000646F80B80F05081B80880F03D81E07ADFF8F492B90F80F0B680607A002840F046
:2035B00096803809C0F09580A07A20B10020A07205200EF05BFC00254FF001086570284698
:2035D00084F8078007F02FFDAD4904F174002A4610F0EEFB207901281AD16079C0B9DFF827
:2035F000A482D8F8000000284CD048460068006B804761694346401A000BA0611968E269D4
:203610008018B0EBC11F98BFE0613BD9E56101E084F80480DFF87482A8F115000068000AC7
:2036300030D340F60900A08694F8410000F0F00040F0010084F84100E58694F8400000F050
:20365000F00084F84000A56310F0ACFB08F6FF7211686FF0020321F00201116004F1340104
:20367000C8F8FB3F8A4AC8F8EB1F11688908FCD3C8F8FB3FD8F8FF1F41F00201C8F8FF1FCF
:2036900010F0ACFE65610DF005FF8248056002200EF0ECFB112007F0B7FE307C10B90E20F3
:2036B00007F0B2FEE5712572A07818B906F1380010F08CFB784810F061FA78490878F8B1C2
:2036D0000D7004F1D000042110F088FB18E0380914D2B80BC0F0C98004F1240010F072FB8F
:2036F000061C08D0706830B17568F068B6F91C1000222023A84727F40057B6E000206072A9
:2037100027F00807B1E020B104200EF0AFFB0020E072B168088840F602054FF000088542DF
:203730000AD0B0F5C15F07D00A8B4FF61F60104040F43470088306E00A8A4FF61F60104069
:2037500040F4347008826069E0B1D9F85400016804208847B0B1D9F80000006B80476169EE
:20377000814226BF401A401E401A000BF060708AF168401840F6C411F06081422CBFB0F5CB
:20379000FA7FF16094F8410010F00F0F0BD1708CED1D854207D1B56930466FF48071424673
:2037B0004FF00073A8473E4904F17400424610F0FFFA607958B10220ADF8000068460FF091
:2037D00007F984F80580BDF80800A4F8700001206070E078401CE07004F1200084F8068003
:2037F00010F0F0FA002808BF47F0020702D0192010F0DCFA7569414630464FF080630A4672
:20381000A84727F0005730E004F12C05284610F0D9FA06F057FE284610F0D4FA27F002071D
:2038300008B147F0020720E010F0BCFA014604F1280010F0C7FA0646B569A80810D27EB179
:2038500025EA0500B061084610F0C8FD706850B12A46F068B6F91C1075680023A84702E0D3
:20387000084610F0BBFD27F4804727B104F1D000394610F0B3FABDE8FE83C046900B0020A0
:20389000792D0100DC2100208C010010150004401010044000000460CDA50000D82100200B
:2038B000CD9B0000BB482DE9F84F0025BA4CB849056094F8E200002800F06581012800F01A
:2038D0002F81B64E02283CD0032840F05C8151F8250CD4F8B8100029A0F5C060C4F8D4003A
:2038F000B8BF49420028B8BF4042814226DA4FF08057D7F8A4014568B4F8BC0030214FF49F
:203910007F42082300903046A847D7F8A4014568B4F8C00004214FF4F8021223009030468C
:20393000A847D7F8A401B4F8D070456820214FF440620A2330460097A847012584F8D85062
:203950001CE151F8258C10F02BF92F4600B901273946934F38680028FCD0B146012609F1D9
:203970000409D9F82CA03E6009B110F01FF9CAF30720C4F8BC0010F013F9AA4600B9B24614
:203990003B68002BFCD0D9F800B0BAF1000F3E6001D010F00BF9CBF38440C4F8C00010F0D1
:2039B000FFF8AA4600B9B2463B68002BFCD0D9F81C90BAF1000F3E6001D010F0F7F8C9F374
:2039D0008120C4F8D000B8F5C061C4F8B81000F09C8094F8D80068B9C4F8D410D4F8C0009B
:2039F000C4F8C800D4F8BC70C4F8C470D4F8D030C4F8CC30D4F8D410D4F8BC30002954BF23
:203A100002206FF0010004F1C802176801EB41014018411000EB917107EBA1001060D4F843
:203A3000C810C4F8C43000291CDD1E293CDDD4F8CC0030B93429B4BF15391E21C4F8C810FA
:203A500025E02A29BABFD4F8C8000B381E20C4F8C800D4F8C4003F28B4BF401C3F20C4F80B
:203A7000C4001FE0D4F8CC00032812D011F10B0FC6BFD4F8C8000B30301CC4F8C800D4F8C2
:203A9000C4000028C4BF401E051CC4F8C450032508E011F1150FC6BFD4F8C8001530301C78
:203AB000C4F8C800C4F8CC504FF08057D7F8A401B4F8C43030214FF47F424568374800935C
:203AD0000823A847D7F8A40104214FF400321123456832480096A847B4F8C860D7F8A40186
:203AF00004214FF4F802122345682C480096A847D7F8A40120214FF440620A23B4F8CC60DA
:203B1000456826480096A84701E084F8D85040F2FF50404502D8801C40452FD2082030E036
:203B300051F8251C1F4F4BF2F5204843060A3868C0F3814001280CD11B480068006880477C
:203B50000DF08AFC10F038F83111C010484306EBE03694F8E50030B91448006820F07F4011
:203B70008019460801E084F8E5501148310C0660012741600F4D8760287808B90B2000E048
:203B9000052084F8E40004F09BFCBDE8F88FC0462D400C402C500C401C11002000A00C4019
:203BB00000800C40B43F0050EC010010102009403C600C40EE5201002DE9F04F0D46E807B0
:203BD00089B00BD50FF032FF28B100218160AE48006800B1804785F0010052E1A80710D59E
:203BF000002006900021049000230290009005910393019101223C2010F0ECFB85F002006A
:203C10003FE11E246807DFF88482A14F40F19B800020079082469F498878FF2804BF002039
:203C30000FF0EAFB386890F8A0000FF02FFE06463868C07A96F82EB1022818BF032806F5E2
:203C5000947906D108F10D0010F0C0FB08B908F1070A4946584610F0B5FB88B33868807A32
:203C7000002818BF012804D1414648460EF043FC04E04A46594640460BF0BAF9FF283DD06A
:203C90006043834608EB0B0406224946E01D0FF0FBFC18F80B0040F0020BE01D07900622E8
:203CB0003868817E01F0010186F82E1104F10109386800F1140106F594700FF0E5FC1DE024
:203CD000494658460FF08DFDC0B14A46594640460BF08EF9FF2811D04443444404F10D005D
:203CF00010F074FB40B904F10D0010F06FFB002804BF607F012801D14BF0020B06F12C00B0
:203D10005B4601780691418909090591728C079904920122C088029140080390CDF804A0FA
:203D3000CDF800900020B17910F054FBD6F89C0159498842B0790CBF0021012109F0F4FA90
:203D500085F004009DE0280610D500200690002104900023029000900591039301910122B9
:203D70003B2010F037FB85F080008AE0E8043CD508F1070108F10D0010F020FB38684179CE
:203D9000012923D1017A012918BF04291ED1C17A022918BF032919D1817E00F1140240467E
:203DB0000BF026F9FF2811D04443444404F10D0010F00CFB50B9E11D04F10D0010F0FEFAB8
:203DD00038680622E11D14300FF05EFC334934484A6800784FF480510DF038F810B18E209E
:203DF00010F0E8FA85F480504BE0A80505D50FF0D7FE2C4901200860FEE7690504D507F0E1
:203E1000A2FA85F480603CE0680405D5812010F0D1FA85F4804034E0A80431D5224C2068DA
:203E300010B100200FF0E8FA4FF0FF3020600BF0CDFA1E4C216851F8202F684690471C488C
:203E5000C16A026B2468009101920021029100F134014A6809781368806A03938DF810105D
:203E7000ADF812006B46D4F80080124A12491348C0471349086004F0BBF885F4005000E051
:203E9000002009B0BDE8F08F204F0020E8180020104F0020684E002097F80000784E00209C
:203EB0006E4F0020FC002043044F0020F04E0020681500201C2100207C1700208849002047
:203ED000EC4E00202DE9F04FB64D686885B0019020B905B0BDE8F04F10F068BA0178DFF8A6
:203EF000C882B24EDFF8C892DFF8C8A201291CBF0229042946F2A81741F64C5B05D0402986
:203F100018BF802900F09A8043E10FF06DFE0028FAD00198007805F07DFB0090446814B900
:203F300000200FF069FA9AF80100002860D002F0D5FA0FF0ABFC02900168009801914F68C1
:203F50000AF0DEFC022827D000990A78012ADBD1994B19680A7A19F80230337018B910F0CA
:203F700021FA5844A0602069C17E01F0EF01C1762069C17E41F08001C1762069C17E01F030
:203F9000F00141F00201C1768C48B96841182069C16101210098A0E001980178802913D1E3
:203FB0000822874832700178012903D09AF80100012803DD78690121C17213E0D8F8281013
:203FD0007A690878D0720DE07D49072030700A787869012A02D10123C37203E0D8F828100D
:203FF0004A78C2720298817901988AF80210CBE00098002888D00199009A0078914205D1E2
:2040100001281CBF00200FF0F7F915E0012840F0C080694801680A7A19F80200307010F09E
:20403000C1F93918A06810F0B9F918B910F0BAF95844A0600120A8700098A5E09AF80100A2
:2040500000287DD002F04AFA0FF020FC04462068029047689AF802000FF018FC03900FF03E
:20407000C9FD10F0070F3DD0A87805F0D3FA019041680198009102990AF042FC022831D003
:2040900001990A78012A2AD14B4B19680A7A19F80230337028B910F085F983440098C0F8D7
:2040B00008B000990869C17E01F0EF01C17600980069C17E41F08001C17600980069C17E6E
:2040D00001F0F00141F00201C176009AB9683B4841181069C16101210198A97054E0002029
:2040F0000FF08AF90398A04228D002980178802913D10822324832700178012903D09AF8CB
:204110000100012803DD78690121C17213E0D8F828107A690878D0720DE029490720307089
:204130000A787869012A02D10123C37203E0D8F828104A78C272A0798AF80200029823E09A
:204150000FF058FD10F0070F29D0A87805F062FA04462078D4F80480012820D116490A685E
:20417000107A19F80010317010F01CF93918D8F8080010F013F920B910F014F95844C8F857
:2041900008000120A870204605B0BDE8F04F06F079BE05B0BDE8F04F00200FF02DB905B04F
:2041B000BDE8F08FBC210020CC5301006F4F0020289A0110684E0020104F0020F0D8FFFFE2
:2041D000734F00202DE9FE4F0F46994C0168E16241688068E0609748A16080479648E16A03
:2041F0000160A168DFF870B24160E168DFF8648281609249002FA246C16069D03D68E87873
:204210008DF8080028798DF8090002A810F0C2F8A86808B18A490160E86808B18949016035
:20423000894C2878207068786070A878BE68A0703178E1707368636072696261B168A16013
:20425000F168E160316921612E697B68A6621868A0616869E062A8692063287F84F8340097
:204270002A6AA263786886681EB900200FF0C4F800E026627868C06818B900200FF0BCF801
:2042900000E060627868406818B900200FF0B4F800E0E0612869A062F86881680E6806B916
:2042B0006B4E6A494FF001094E60C66881F801902EB900200FF0A0F8F868454601E045465E
:2042D0002E6000685C46FE68A0617068E06106E000200FF091F84FF001095C464546286822
:2042F0005E494668621C04F114035020B04710B1286880688047DAF808008047594F0026F9
:20431000834669467E7056483E700422206130460DF014FF0098B0F5801F0CD020B90EF01F
:20433000BFFA05F031FB08E00CF0F8FF0FF0E0FA0420788001E00EF0B3FA4B4FB046286817
:20435000C7F808808069A660804778604748468080F8009014200FF091FBFF211422A06204
:204370000FF048FDE01CFF2102220FF043FD14200FF084FB3E4908600868142231460FF0AD
:2043900039FD3046FCF716FB48460DF025FE39480188FF2906D1022101807822001D3146D4
:2043B0000FF028FD03200FF0F1FF04200FF0EAFF05200FF0E3FF06200FF0DCFF07200BF083
:2043D000D9F92D4E0820307006F140000FF0CEFF0BF03EFC363605200A2132460EF001FF4E
:2043F00038B14046C0F10901401C06F8011B0A28F8DB2F68214909200DF10A0201AB7D6843
:20441000087010204146A847A06AE2690A270A309DF80A1000F8011BDAF80C107F1EF7D198
:20443000921E5846E261884702F0F6FFBDE8FE8FE412002041490010F8440020B4440100EE
:204450007D270100A9350100681500200818002067FD0000BC1800206C160020C12D010002
:2044700069360100B8180020B021002074050020FC210020101400209C0F0020152200206F
:204490002DE9F04F0546A64CA878216AADF11C0D801F00F03E81C01E00F02981401E78D09C
:2044B000401E56D0C01E4AD0401E40F03581207A617A00283FD1607800283BD0A8880FF045
:2044D00051FF071C00F02881A87A40080AD3787940B1E968890A05D2B91D01AA07F07EFDE9
:2044F0000A2825D0207B022802D1A87A00091FD36078AE887979C0B1607CB0B90120607425
:2045100005F10802304603F011FF002840F00481206A002800F000814368002B00F0FC80D0
:20453000002130460A469847F6E00521304603E0032100E00521A8880FF010FFECE00029F3
:2045500000F0EA804B68002B00F0E6806A780221CBE00FF073FA002800F0DE80276A0FB1DA
:20457000386868B9286900280CBFE069012069890FF0F0FE002800F0CF8068890121DBE761
:20459000286900903C6869892A7B6B7BE81CA047C2E068784FF00008002840F09580A87987
:2045B0004008C0F09180606A002840F08D8001A841460E220FF01EFCA8880FF0D3FE061C18
:2045D00000F0AA806869002859D081464146062209F111000EF08AFFC24620B348460622F6
:2045F0000EF084FFD8B999F8100009F1110B474605907F1C5846FFB28BF800700EF066F986
:204610000A280BDA474B059A0101A1EB4001C9188879824202D1002FEBD100E01FB94746CA
:204630004FF0010A6F61BAF1000F09D109F1110101A806220FF028F899F810008DF80A0090
:20465000BAF1010F1BD06F69CFB1387C07F1110106228DF80A0001A80FF016F806F10C001E
:20467000B11D06220FF010F8B01D07F1110106220FF00AF8387C40F00200707107E0707996
:20469000B11D06228DF80A0001A80EF0FDFFA9799DF81120C1F3800010438DF811000809CC
:2046B00005D39DF8110040F008008DF8110001A8294602F001FC28B92078022106F044FEC3
:2046D00040462AE04FF015080FF0C4FA206A18B343680BB3A8886A7801219847B8F1000F98
:2046F0001AD0206A032142464368A8881BE7E878291D002207F072FC0A280DDA410001EB3A
:20471000800005F10C0225300421C0B205F05EFE02E0A8880BF020FB012007B0BDE8F08FA4
:204730009C0F00208E1000207CB5A34D144602460026A2F58062192A1BD8DFE812F031014D
:204750002A012201190111010C010401FD00F300E700DF00D700C500B9001A001A009700E7
:2047700081007A0065005C00520047003A0030002500282880F29A80022940F0978021884E
:204790000FF0E4FD064614E1012940F011812178284601750121C1740FF082F809E101299B
:2047B00040F00681002C00F0038128461230024614E0102940F0FC80002C00F0F9802846BE
:2047D0005C30102221460EF05FFFF2E0012940F0EF80002C00F0EC802A46921D2178104617
:2047F000E4E0262940F0E480002C00F0E180284626226C30E6E7012940F0DA80002C00F096
:20481000D7802846401D9CE0602900D144B9012940F0CE80002C00F0CB8028460D3090E069
:2048300005F19200214660220EF02EFF01206873BFE0012940F0BC8020780FF083FDB8E0EC
:20485000012940F0B5802178022900F3B180284600F10C0211702178022918BF301C02D129
:204870001021C17201200FF069FDA2E0072940F09F80611C684606220EF0E8FD20786946C0
:20489000324607F0ABFB04460A2C0FDA0FF052FD38B9204604F052FF0EF076F90BF0D8F967
:2048B00087E0284601212C30015582E0022680E001297DD12A462178907B0028917378D154
:2048D0002078012875D1E9E72846027B01296FD1022A04D02178072901DB102904DD022AB1
:2048F00066D12178102963D1C17262E001295FD121780A295CDA2846093057E0012957D16A
:204910002178022954DA284608304FE000294FD10FF010FD10B90EF07AFFBDE728460121F7
:204930000F3043E0042943D12168244888423FD328461C3001603CE0012939D12B4603F123
:204950000A00217832E0012932D1217802292FDA2846C01D2AE010292AD128464C3030E70E
:20497000012925D12178022922DA2846001D1DE001291DD1217804291ADC2846C01C024659
:204990002DE7012914D12178022911DA2846821C25E702290CD1218828461630018008E04F
:2049B000012905D12178022902DC0548017000E0182630467CBDC0469C0F00203F420F0059
:2049D0009D0F00202DE9FC41A0F2013714468846022F40F232819B4E9C493F1F0F2F04D959
:2049F000143F4CD0BF1E1CD011E0DFE817F0CF00C9000D01FA00C100B9002601AF00A70019
:204A1000100010009D008F007F0074006600282880F21381B8F1020F40F00F818849238895
:204A300007E1B8F1010F40F00881F078012800F00481324620781179107189B9002800F091
:204A5000FC805078012800F0B580042800F0B280062800F0AF80052800F0AC80BDE8FC81AE
:204A70002078002840F0E9805078032800F0AF80072800F0AC80052840F0DF80A7E0B8F184
:204A9000010F40F0DA802078012840F0D68006F1EC000EF0BBFF002840F0CF803446002049
:204AB00004F13A0108F050FD002840F0C68004F1C8000FF099F9BDE8FC81B8F1020F40F079
:204AD000BC8020880A28C0F2B880B0F5486F00F3B4808E1C17E0B8F1020F40F0AE802088E2
:204AF000B0F5FA7F80F2A9800E460CE0B8F1020F40F0A38020880628C0F29F80B0F5486F9D
:204B100000F39B803E363080BDE8FC81B8F1020F40F0938020880628C0F28F80B0F5486F41
:204B300000F38B803C36EEE7B8F1010F40F085802078062880F28180454E0EE0B8F1010FBF
:204B50007BD12078042878DA0A3606E0B8F1010F73D12078082870DA09363070BDE8FC81AD
:204B7000B8F1010F69D12078042866DA0836F4E7B8F1010F61D1207804285EDCF61DECE746
:204B9000B8F1020F59D120880E36BCE7B8F1010F53D13079012850D032462078D178D0702A
:204BB00069B9002849D05078012803D0042818BF052842D101200EF059FFBDE8FC8120784A
:204BD00000283AD15078022818BF052835D110780DF048FD1C490246102003F039FDBDE821
:204BF000FC8106F1830500211F22284609F037F921464246284607F073FC44463078B47196
:204C10000DF030FD002311E006F1640500211F22284609F024F921464246284607F060FC50
:204C30004446307874710DF01DFD01230094094901950246102003F00BFDBDE8FC81C046FB
:204C5000BD8401107805002099450110B8050020B2050020094501102DE9F04F9E4C20787C
:204C70000E46F10BADF11C0DC9036ED1B0085ED2606AA16A720807D2F00828BF86F0040693
:204C900080F02581002023E1858861B904F11800924A00904FF6FF71022301200FF046FBEF
:204CB0000146A16221B304A800900027019702230293FF220392228B28460DF1120301F03C
:204CD00005FB58B99DF813009DF81220A16A12EB002204D0498928460CF0DAF8A16A228B80
:204CF00008463B464FF6FF710FF01CFB0146A162206A00291CBF012186F001061FD168B18A
:204D10004368616A5BB18888002201219847206A676A4368B888032100229847616A888888
:204D30000EF0C8FD0EF04CFB86F00106CFE00020014602F0C1F830B1012186F00206207804
:204D500006F002FBC3E00221F7E707F073FE5FEA000800F0BA80054628784FF0010AB038AC
:204D700012D0401E03D01F3800F0A580A7E02879002840F0A480B8F80200B8F80610B8F8D8
:204D900008200CF085F89DE02879401E41D0083803D0743800F0828087E068781A2879D052
:204DB000688881460EF050FF801E18D0401E7CD1288901280AD16889032807D1E9688A78B2
:204DD000484604210BF026FB024600E01822206A00286AD04368002B67D0042116E02989CC
:204DF000688852460129814609D16989032906D1E9688F781FB910210BF00CFB0246206A26
:204E1000002852D04368002B4FD00521484698474BE02B7A688805F10807082B814639D1E7
:204E30000EF012FF801E12D0401E33D1287B0A2818BF122205D16889042100220BF0EAFAA4
:204E50000246206A30B3436823B3042120E07888102100220BF0DEFA237D834693B1484686
:204E70000FF080FA70B11E490B784BB94179831D524601F00101084619460EF010FB01E01E
:204E90005046E074206A28B143681BB105215A467888984768880EF00DFD06E06A880EF0CB
:204EB000D3FE014610460BF013FC297905F108000FF0D0FA03E04046FFF7E2FA8246BAF153
:204ED000000F02D028460EF0F1F886F40046B0B207B0BDE8F08FC0469C0F002074500100F9
:204EF0005A4F00202DE9FC41884C894A2678894F894D8A490D2E30464FF4A0534CD8DFE8EE
:204F100016F003010E000E000E000E00FB00FB006800FB00A700A700D800D800DF00804940
:204F3000176041F204464C887E4FB4421CBFB1F81AE0B6450BD0B1F83280B0451CBF41F224
:204F50000A46B44203D0B64518BFB04502D12E80176076E0022C744E2C8035D94FF480673F
:204F7000E41B1AD0241F012C1DD94FF47F77E41B1BD04FF44067E41B0FD0A41E012C0CD913
:204F9000241F0AD0641E012C0DD940F2F937E41B012C19D9241F08D0AEE0022814BF2B807E
:204FB000624E16604DE0624EFBE762480468257A012D05D141F20240488048834886F0E796
:204FD0004B804B834B86ECE700200EF015FA832096E059488178FF291ED01C20414357482F
:204FF000176040F204460068841C645A2C80A41B012C534D10D94FF47F76A41B15D00A3CA5
:20501000012C14D940F6F636A41B032C84BF641F012C0ED9A41E012C76D940F2FD36A41BDA
:2050300007D0641E012C02D905E041F20143801C4352156005E000200EF0DEF985200FF07F
:20505000FDF9BDE8FC413F480078012106F07CB94A882A8040F20443D21A55D040F6FC7371
:20507000D21A15D0083A4FD04FF47F73D21A22D1354C364A2568364800680023CDE900236A
:2050900055F8086F334B0222B047334908803BE0092810D131490A68508960B130490878A3
:2050B0000AF026FD002100200FF038F9002020702AE04888288000200EF09EF985201FE0C7
:2050D0004A882A80022A0DD940F20440121A1BD040F6FC70121A05D0083A15D04FF47F70A9
:2050F000121AE8D1887B801CC0B2B528A8BF662088730020488007E000200EF07DF98420DE
:20511000BDE8F6410FF09AB9BDE8F3816F4F0020204F0020733D0100504F00205C210020BE
:20513000204A0020F9260000E59D000069B80000755B0110104F0020684E0020E0210020BC
:20515000CD6000006E4F0020F04E002002000080EC4E0020AD120100424F0020EC2100205D
:20517000714F002010B50B7884074CBF43F0020303F0FD0304064CBF43F0800303F07F03F6
:2051900004074CBF43F0080303F0F70384064CBF43F0200303F0DF0310F0AA0F0B7004D0F6
:2051B000107840F00C00107010BD18B9117801F0F301117010BDF8B50F460026387802283F
:2051D00014461D4667D1786801784278069801EB022189B2002818BFB1F5285F01D00B20A7
:2051F000F2BD4FF42850091A0AD0491E1ED0491E4BD0491E22D0491E28D0C53941D04AE070
:20521000F8680EF0F9FD069B079980B2C21A8A42ACBF0846C01A80B2C118162904DA2880AC
:205230000246F868C1180DE00D2636E0F8680088022129802070000A60702EE006202880AD
:205250000622F96820460EF01FFA26E0F868B0B108212980018821700188090A617041884F
:20527000A1704188090AE170818821718188090A6171C188A171C088000AE0710DE02980C3
:205290000BE04A480178CA0705D401202880F8680178217001E02E8001263046F2BD2DE93A
:2052B000F8460E46814630780024022817469A4678D17068017842783C4D01EB022189B22B
:2052D0004FF42850091A08D0491E30D0491E55D0491E3FD0C63960D064E0F0680EF08CFD4D
:2052F000089980B2884206D308460AEB0001162903DB0D2457E0072455E0F368524639468D
:2053100018440EF0C1F908985044ADF8200000210898F368C0F1160218440EF06BFD6868F9
:2053300000281CBF0268002A3DD0002123E0089888BBBAF1020FDCD139787878F26801EB62
:2053500000211180686800281CBF0268002A2AD0012110E00898F0B9BAF1060FC9D1F0681D
:20537000062239460EF090F9686800281CBF0268002A18D003214846904714E0089850B97A
:20539000BAF1010FB5D13878002813BF0128F1680870802407E00B2405E02878C10758BFFA
:2053B000032400D501242046BDE8F286381800202DE9F04F8246DAF800600C465FEA0208D5
:2053D000ADF11C0D14BF00214FF0FF3106F1480083460EF0C7FA002818BF0B2040F00681EB
:2053F000002565708448F460B8F1010F057004D065700220F4600CF019FF2078012840F22F
:20541000AB80801E012868D9801E012833D9801E012800F2DF800EF0C5FC06904FF08050FA
:2054300000F5EE77D0F8DC01A378466A009321782846062908BF0120019001200290A06895
:20545000228AE1686368B047814606980EF0C6FFB9F1000F40F0C080B8F1000F02D00EF0AC
:20547000E3F802E050460DF03FFB002800F0A4803868806A2AE00EF095FC06904FF080508E
:2054900000F5EE77D0F8DC01012306680093A168A27860682478AC46042C08BF9C466346DD
:2054B000B047814606980EF099FFB9F1000F40F09380B8F1000F02D00EF0B6F802E0504640
:2054D0000DF012FB002877D03868406880474949C1F8B0510D6081467EE00EF063FC069063
:2054F0004FF0805000F5EE76D0F8DC01E38A87690093E0680190208B0290A0780390207D41
:2055100004900121059122782846022A08BF081CE1786268A368B847814606980EF05EFF23
:20553000B9F1000F58D1B8F1000F02D00EF07CF802E050460DF0D8FA00283DD03068006AFF
:2055500080475FEA000947D13068C569A168E28A2369E078A847BEE70EF024FC06904FF064
:20557000805000F5EE76D0F8DC01E38AC7680093E0680190208B0290A0780390207D294651
:20559000049001200590257805B9014608466268A368E178B847814606980EF01FFFB9F169
:2055B000000F19D1B8F1000F02D00EF03DF802E050460DF099FA08B9142017E030684069F0
:2055D00080475FEA000907D1306802692169E078904780E74FF0FF39B8F1010F02D0022083
:2055F0000CF044FC58460EF0F1FB484607B0BDE8F08FC04650450240142200202DE9F04FE6
:20561000DFF80CB29BF80000002885B004D0401E032804D9801F012840F2F780EFE07D4DB1
:20563000DFF8F4812868DFF8F49103687C4E03F10807062207F1080103A80EF025F80622D3
:20565000B91C01A80EF020F83878C0F380118DF800101E24C10900F00F02032A39D16879F8
:20567000C0F38000814233D12969062203A80DF00DFD00282CD09DF8000001A90EF0A2FEB3
:20569000002825D0314601A80CF035FF0746FF2F1ED0D9F80000807A6743002818BF022886
:2056B0000BD0012818BF032812D1701CF25DC11940460EF02FFE10280AD0F41901AAE11DC3
:2056D000404609F0C2FD062201A9E01D0DF0DCFF90E000F00F00052840F097806879C0F35E
:2056F00080008142F4D12969062203A80DF0CEFC0028EDD09DF800003F7801A90EF062FE2D
:205710007F0940F2024A88B3314601A80CF0F3FE8346BBF1FF0F6DD0D9F80000807A002878
:2057300004FB0BF118BF012800910CD0022818BF03285FD10846711C325C014440460EF063
:20575000E9FD102856D050460EF0E0FD009806EB000A01AA0AF10701404609F076FD062229
:2057700001A90AF107000DF08FFF1CE09BF8000002283FD19DF8001001AA304609F038FC26
:205790008346BBF1FF0F35D004FB0BF03118487F012805D070BB01F10D000EF017FE48B331
:2057B00050460EF0B3FD04FB0BF4D9F80010305D88760622701C0119D9F8000014300DF04B
:2057D00063FF184918488A78510604D5F90758BF41F20A4101D541F2044141804183418635
:2057F0001248134A01801348134908600121107805F0AAFD29680A680020107105E0002053
:205810000DF0FAFD86200EF019FE05B0BDE8F08F6F4F0020F44B0020CC470020104F002001
:20583000E818002078210020204A0020504F00206E4F0020F9260000204F00202DE9FE4F48
:2058500005467E48002400680094C0090ED37C48007858B97C497B4851F8112C104040F082
:20587000817041F8110C20200BF0CEFA012D40F0E080DFF80092D9F8DC00012840F0D6804B
:205890000220C9F8DC000DF061FB01200BF0BCFA5FEA000805D00120C9F8DC000DF066FBCC
:2058B000C9E00EF097FAA34602906848684DC0F800B0A86A016801208847012804D1584651
:2058D00009F08AF8012000906248634FC0F800B0386811200EF082F900B1012410200EF07A
:2058F0007DF908B144F002040F200EF077F908B144F004040B200EF071F920B12868574E04
:20591000016B308888470A200EF068F920B12868534E016B3088884752480126066028684F
:20593000816944F0200088474F4806600EF050F900F001010191400814D2286A81684B4846
:2059500088478246BAF1040FF7D0BAF1010F04D1286A42684548032190474549086820F0B9
:2059700003000860584600F099F92B683868986B8047019801280CD0BAF1010F04D1286ACF
:2059900042683A48314690473949086840F0030008603048066028684169204688470B2078
:2059B0000EF01CF920B128682C4BC16A188888470A200EF013F920B12868294BC16A18887E
:2059D0008847284806600322C9F8DC20264BC3F800B02868416B204688470128F9D1386850
:2059F00004200BF011FA0446184806603868134800688009FBD30098012802D1304608F0A1
:205A1000EBFF0EF0D3F808200BF0FEF907460298C9F8DC600EF076FCFBF7B8FA0DF0A6FA14
:205A300057EA040018BF4FF0FF3804E06FF0040801E06FF001084046BDE8FE8F1410094007
:205A500004120020FFFFFCFC150009400C400940B8010010000222432C200940F24E010011
:205A7000EE4E0100282008608001044300400340242208401C1100202DE9F0410246854DA2
:205A9000854C2978A068521EADF1280D00F08380521E7DD0921E5FD0521E4BD0521E04D0DB
:205AB000521E42D0521E3ED03BE004F174000EF099F97549102002F0CBFD7449C6B201AB39
:205AD0001020721E02F0C4FD58B900962978A068002251A3C91CC9B20CF03AFF0DF1060044
:205AF0000EE006AE40F21530314603F0BBFE2978A06800224CA3C91CC9B20CF029FF3046A6
:205B10002D78A4680AF096FB6D1C03460022E9B220460CF01DFF4FF6FF7000210CF046FC19
:205B300076E00A462FE043A302E0C91C43A3C9B200226BE0142008F0BBFAA0682978002279
:205B500044A30CF005FF00204FF6FF710CF02EFC2A78501CC1B215E004F174000EF044F939
:205B7000142008F0A5FA2978A06800223CA3C91CC9B20CF0EDFE00204FF6FF710CF016FC76
:205B90002A781146A068921CD2B20DF0F1FF3FE0002237A338E04FF4417008A903F062FEAA
:205BB0009DF821608DF8056000278DF808709DF822308DF807709DF824108DF806309DF8B5
:205BD00020008DF80A109DF825208DF804009DF823608DF80B2001AB2D498DF809601A6839
:205BF0000A6058684860D4F808802E7808A80AF021FB361D0346F1B23A4640460CF0A8FE1C
:205C1000A06829781DA33A46C91CC9B20CF0A0FE0AB0BDE8F081C0464E756D20436F6E6EDD
:205C3000733A20256400C046436F6E6E656374656400C0464572726F7200C046436F6E6EC1
:205C50006563746564204164766572746973696E6700C04654696D6564204F757400C04638
:205C7000446973636F6E6E656374656400C046C04164766572746973696E6700496E697467
:205C900069616C697A656400F17F0110097F0110D70D00204C170020080200202DE9F84FEA
:205CB000DFF8F4B10746ABF13500DFF8E0910068800880F0D98071480068006880477A4926
:205CD0000831D1F8008000254FEA28725FEA985102F101020AD2C0F13E0110F10A0F4FEAF3
:205CF000E101D8BF08218A42B8BF0A1C644BD3F87C11C1F304611629A8BF20391B68C3F331
:205D10000443162BA8BF203B9A468918162905DA11F10A0FB8BF6FF0090100E01521594BD5
:205D3000594E01F01F0242F4F8521A80326812F0030F18BF0125D20828BF45F002050FB118
:205D500045F004054A4692F90730C31A052B04DA9379AB4208BF918866D0DFF834E10F2886
:205D7000A0F10F0C25DB0CEB0013A3F1F00C4FEA2C26072E88BF07263446062C88BF06247C
:205D90005EF82470042303EB84037446E358DB1B03F0FF04EF0824BFC3F307273C44AF0897
:205DB00024BFC3F307473C446F0828BF04EB136401E0002426465EF826E0EF080EF0FF03E4
:205DD00024BFCEF307273B44AF0824BFCEF307473B446F0828BF03EB1E63A4B2ACEB062654
:205DF000AAEB01017443002904F1800403EB1423D8BF0121342408F0FF074C43A1B27943D1
:205E1000B1FBF3F14FF6FF738B4238BF191C802889B2918005DA10F1800FB8BF6FF07F007A
:205E300000E07F20D07195711A4800681F2910604FF0000008D340F2FF128A4206D24908B8
:205E5000401C8A42FBD301E01F219180134F0F39090940EAC10047EA0001CBF8FB1F00262E
:205E7000CBF8FF6FBDE8F88F0D490E4F4A4608200F60921D1070BDE8F88FC046EC0100107D
:205E90003C1100506E62084024220840D02100209C130050082009403500094000E7A480A5
:205EB00030100940FDFDA400AC3F00502DE9F84F0024774D774EDFF8E0B1DFF8E0A1DFF8CF
:205ED000E081DFF8E091D9F800104A7A01231820A34060431A420AEB000709D0087A38F89F
:205EF00010203A8000201BF80420BA73F87302E040F6010038800020788007F118007860E8
:205F1000387B00F0EF0040F080003873097A01290ED141F28830B860387B00F0F00040F032
:205F300005003873787B00F0F00040F0020019E0002C0CBF0221002100F0F0000843387392
:205F50003CB90EF02FFA00F5C870CAF80800022004E00020022CB860F9D10120797B01F0E2
:205F7000F00108437873641C3E61022C7D61AADDD9F80000017A01290EBFCAF834A000203F
:205F9000CAF834000CF008FC3060474880690078C1074CBF1021002182074CBF202200225E
:205FB00043074CBF4023002300074CBF8020002011431943014341F00F013171002070714C
:205FD000D9F80010887A00F003007071CA7A920002F00402104370718A7ED20002F0080222
:205FF00042F0100210437071087A012818BF042806D10020B071F071B06001F1140216E0E4
:20601000487FB07101F15D025078F071487F20B10B7FC3EB4313C8181E30B060507828B109
:206030001278C2EB42128B1803F15F001F4AF060726101F10C0030611D4BF07E727900F003
:20605000E00040F08600F0761A48F061187828B1307900F0FE0042F040023071164B9878FB
:2060700043064CBF42F0200202F0DF02727100202880A870E87028716871E8802881A872DD
:20609000E872E8600868C0F804A0BDE8F18F00BFB44D0020F44B0020409A0110204A0020A9
:2060B000109A0110104F0020CC530100D0470020784E002000204E00782100207E48807874
:2060D000FF2800D170472DE9F84F0DF0DFFB054605F217100178012908BF417800F0A2802F
:2060F00005F17400817B022903D105F174020020907305F59276F18911B1307B05F024F9A1
:2061100068896E4F288105F58D78B87AFB793A7BF97A7C7BB8F800C000EB030E96448E443C
:2061300074441FFA84FEB8F80440641CA8F80440F444B8F80240A8F800C00419A8F802401B
:206150004FF01C0C3468FCB1DFF8749195F806A0D9F8009009F10E0B0CFB0AFA09F10E09E0
:206170001BF80AA034F81AB0F34424F81AB095F806A00CFB0AFA19F80A9004EB4904B4F86E
:206190004AE08644A4F84AE0002B08BF002904D1002A04BF797B002923D02A89E88982188A
:2061B00000202874AA81287F012804BF698CE983787868B10121297705F174018878002896
:2061D00004BF887B002803D1087F08B9698CE983307D80B3022804BFF87A002827D10021C4
:2061F00028E0E98338B100202874287F012807D1698CE98304E0B8F80600401CA8F80600D1
:20621000A8892989814206D08842D1D2081A41F2AB029042CCDA287C08B1052901D0082186
:2062300000E03E212846BDE8F44F0CF04DBE787A08B1022131752348FA7B01682868D3078B
:2062500008D53A69C26001F11400A97949010022425011E001F11402A979490152581849F6
:2062700032610A68A97902F108030CFB01F29958C1600020E8832877134841690A78900795
:206290004CBFB87B812085F874002846FCF7D2FC01280ED00121284607F01AFE28460CF0DF
:2062B0009BFCFCF73DFF012803D0BDE8F14FFDF709BEBDE8F18F00BF684E00205C4D0020E9
:2062D000E0210020E4210020CC5301002DE9F0410C4684B00746207A0026C10690461D466E
:2062F0000BD540460EF00AF8030000F0F0800A22214638469847060050D1207802281AD101
:2063100060680178427801EB022189B24FF42050091A012910D9891E41D0491E16D0FD3904
:2063300005D0491E00F08B80491E74D0491E7BD0491E00F0A180B8E00B98002831D1E06894
:206350000A9A017811800278416891E00B98002827D10A9801210180E06801782970002168
:206370006089401C80B20DF0C5FF0A99098868B102780A9B921C511819804189697041894C
:20639000090AA97002784168E81C72E00A98091D018004220021681C0DF02CFD98E00B98F3
:2063B00000286BD1E06807880A98042101802F70380A68700DF1020138460DF09BFF040077
:2063D0001FD0E768BDF802204FF6FF786B4641460DF0A8FF40B9237862683F4802210DF0FB
:2063F00085FF08B9ADF80080387802280BD179680222281D0DF048F90A980188891C018094
:2064100001E0ADF80070BDF80000A870BDF80000000AE8705CE00B9800282FD1E0680168DA
:2064300038460DF0C2FA03E00B9838BBE06800880A9A022111802870000A687048E0E0688A
:206450000DF0DAFC0B9B80B29842B8BF07263FDB834208BF002006D00C99C9188142B2BFAD
:206470000C98C01A80B20A9908800246E068C11828460DF009F92BE00B9808B10B2627E0BC
:206490000A9AE0680721118002782A70417869704188A9704188090AE97001792971C1882D
:2064B0006971C088000AA87112E040460DF01AFF06000CD00D980C990A9B029001912A4694
:2064D0000B98009021463846B047064600E00E26304604B0BDE8F0816C5001002DE9FE4FDD
:2064F0007D4C617811B900200CF086FF0DF05AFF8146002709F6C4190026784DDFF8E0813C
:206510000EE030460DF0C2F9417939B129688279CA5549467F1C00F0E7F8FFB2761CF6B21C
:2065300098F800008642ECDB009761788F4205D000200CF061FF82200DF080FF607801287B
:2065500040F0A380002601E0761CF6B298F80000864280F2948030460DF098F90746787977
:206570000028F1D02868B979027891421CBF00200CF042FFB87980E0286810F809000DF0AC
:2065900085F900684268DAF808109068814204BFB84609F1010900F088808BE0296891F874
:2065B00000B04FF0010910E0626811F8093002F5B17208FB03F708FB0BFED75B32F80E2029
:2065D000974238BF9B4609F10109C0B28145EBDB4FF6FF7007F0E2FF074658460DF056F935
:2065F00040F6C4190068416800967808029109FB00FA0026019715E058460DF047F90168C9
:206610000A78802A04BF7B69C3F814A00978402907D1344A8079136803EB40110AF5A06234
:20663000CA61761C0098864253DA2868805D8345F7D0636808FB00F2991803F5B173C98925
:206650009A5A4B08934203D2009B891A8B42E8DA0DF01CF900684768029A0198B9689368F2
:2066700000EBD0704010A1F6C41109FB00300DF095FE0028C0D02868805DBDE8FE8F0020E8
:206690000CF0BAFE82200DF0D9FE6178286808F07CFC286800780DF0F9F80168009ED1F821
:2066B00004A04FF000084FF00109B14508F10107FFF662AF4046C0B200281EBF3846C1B2AB
:2066D00000294FF4D0787FF469AF286890F800B07EE75846D1E700BF684E0020004F0020E4
:2066F0007B4F0020E42100202DE9F24F054682B02868D0F804B0DBF808000DF04FFE00284E
:2067100040F0E4802968029809690DF0E7FD05F1820480462078002805F12E0740F6C41917
:206730006BD0298960880DF05DFE82462078022806BF05F59A710E8EBE8806FB0AF609FBE1
:2067500006F00090286801690098411802980DF025FE00284BD000982189A8EB000009FBE2
:2067700001F2B0FBF2F302FB130000B15B1C288982449A44A5F80AA05943E0888619207877
:206790008E1901284BD105F1860128460CF01EFC60896989688400202877E883E889411841
