:200000000040002065AB000001C9011001C9011001C9011001C9011001C9011001C901104E
:1C00200001C9011001C9011001C9011001C9011001C9011001C901103FC9011089
:20003C002DE9F84FDFF81885DFF8181588F80000002008600821DFF8100501700D21418052
:20005C004FF408718180DFF80405DFF8041501608A7EDFF800050270FF2ACB7E437008BF54
:20007C00FF2B0D7F85704E7FC6708F7F0771C97F417115D1FF2D08BFFF2E11D1FF2F08BF59
:20009C00FF290DD1DFF8D0140A7802704A7842708A788270CA78C2700A7902714979417149
:2000BC00DFF8B81402780A70FF2542784A7082788A70C278CA7002790A714079DFF8A02443
:2000DC0048710021DFF89C04057045708570C570057145711180DFF89004DFF89014466B0B
:2000FC00DFF88C247078087031781170B078DFF884140870B1680879DFF87C14421E0A70E9
:20011C00F078DFF878140870F068DFF87414086008B90CF0A3FC3069DFF86844206008B9A8
:20013C000CF09CFC2068DFF8607401688847216851F8042F38469047DFF85004DFF85014E4
:20015C003862DFF8500478627069086008B90CF085FCB069DFF84014086008B90CF07EFC82
:20017C00DFF838B4DFF838649BF804000CF04CFF306008B900F045B99BF80500DFF8247409
:20019C000CF042FF386008B9306837E19BF80600DFF814440CF038FF206020B930680CF015
:2001BC003BFF38682AE19BF80700DFF800940CF02BFFC9F8000038B930680CF02DFF386801
:2001DC000CF02AFF206819E1DFF8A4130A789BF80000DFF8DCA3921C504380B20CF014FFE1
:2001FC00CAF8080058B930680CF016FF38680CF013FF20680CF010FFD9F80000FEE0DC484B
:20021C000078002800F00281BBF80210DFF8A4B3484380B20CF0F8FECBF8040078B930687D
:20023C000CF0FAFE38680CF0F7FE20680CF0F4FED9F800000CF0F0FEDAF80800DEE0CC4840
:20025C0000780CF0E1FEDC49086080B930680CF0E3FE38680CF0E0FED9F800000CF0DCFED3
:20027C00DAF808000CF0D8FEDBF80400C6E0C0480078182148430CF0C7FED04A1060B0B941
:20029C0030680CF0C9FE38680CF0C6FE20680CF0C3FED9F800000CF0BFFEDAF808000CF0E2
:2002BC00BBFEDBF804000CF0B7FEC348A5E0B048007840010CF0A8FEC1490860D8B9306863
:2002DC000CF0AAFE38680CF0A7FE20680CF0A4FED9F800000CF0A0FEDAF808000CF09CFE1C
:2002FC00DBF804000CF098FEB34800680CF094FEB249086882E09E48007800010CF084FEDE
:20031C00B0490860F0B930680CF086FE38680CF083FE20680CF080FED9F800000CF07CFE39
:20033C00DAF808000CF078FEDBF804000CF074FEA14800680CF070FEA04908680CF06CFE96
:20035C009F485AE08A48007800010CF05DFE9E49086018BB30680CF05FFE38680CF05CFEB5
:20037C0020680CF059FED9F800000CF055FEDAF808000CF051FEDBF804000CF04DFE8E484D
:20039C0000680CF049FE8D4908680CF045FE8C4800680CF041FE8B4908682FE07448007813
:2003BC00302148430CF030FE884A106070BB30680CF032FE38680CF02FFE20680CF02CFE73
:2003DC00D9F800000CF028FEDAF808000CF024FEDBF804000CF020FE774800680CF01CFEE8
:2003FC00764908680CF018FE754800680CF014FE744908680CF010FE734800680CF00CFE0D
:20041C0000200CF02BFB4FF4804192E03168012008713068057331684D7330688573316843
:20043C00CD7330680574002031684D743268D072A0223168487103213068C280017207204D
:20045C00316848720020326890722821306841820121C176002031684877326882F85E008A
:20047C00012031680877326882F85D00396808713868057339684D73386885733968CD73AA
:20049C0038680574002039684D743A68D072396848713A6890724FF4207039680022C880E5
:2004BC0008818A7401213A68D17421680D732268557321688D732268D57321680D740021AF
:2004DC00226855742368D9720121226811710021236859712168C880088100208872216836
:2004FC00887405202268D0743948016888472A490A6805461068804727490A6852F8043F5A
:20051C000020984718481D4BC16818780A88314902430A80284630490A6890470C212F4890
:20053C0000F05EF80F4800F05FF800F061F84FF4005198F80000BDE8F44F06F0B9BF00BF39
:20055C006E4F0020044F0020604E0020084F0020B63F00502C4E0020E81200503C4E002017
:20057C000C4F0020344E0020E0E900006D4F00207B4F00206B4F0020724F00206C4F00201D
:20059C00F04E0020F44E00207C4B002025D00000F84E002035D00000FC4E00203C22002050
:2005BC00104F0020144F0020184F00201C4F0020A0280020684E0020004F0020804E0020F0
:2005DC00844E0020884E00208C4E0020904E00207C1C0020544F0020801C0020F84D002083
:2005FC00DFF800F0E5710110DFF800F01D6E0110DFF800F04D7101102DE9F04FD04C04F152
:20061C0018012046ADF1440D09F090FFD54D00264FF6FF700123667032462082294604F154
:20063C00A4000AF0BFF90223324604F1C80029460AF0B8F90423324604F1EC0029460AF0EB
:20065C00B1F94FF0040A04F1440810224046314684F802A008F059FD04F154091022484699
:20067C00314608F052FD04F11C073E6004F10A052E70E671267207206072CDF80080DFF844
:20069C001883022210200346414604F0F3FD102003224146CDF80090034604F0EBFD102015
:2006BC00524641460097134604F0E4FD4FF0080B4FF0030905F12A000C9005F179000D90D5
:2006DC0005F11E000E9005F15A000F902435109517E06078A28FE18FB4F84050B4F8423095
:2006FC0006280ED1ADF81A20ADF81C10ADF81E50C048ADF820300CF022FE012006A908F02D
:20071C00BFF9A069BA4A31464FF0FF3300F038FA071CF6D002960DF122000DF12E0102AA74
:20073C000BF0B3F9002840F0CB81BDF822102078102940F0C1819DF82E10884240F0BC811E
:20075C00029D29884FF6FF728A4200F0AA812B78A23B00F08D812E3B40F0AE81A978B04633
:20077C00002900F04981891E00F01881491E012940F2E880891E00F0A880491E7BD0491E47
:20079C005CD0083900F06481891E40F0678194F83A30A888052BADF80C0047D001208DF878
:2007BC00160094480CF0CBFD94F83A0001281ED004281CD003280DD002280BD00298C18882
:2007DC00ADF80E100189ADF810104189ADF81210818927E0A08FE58FADF80E00B4F84030D7
:2007FC00ADF81050B4F84210ADF812301AE0A08FE9888842D8BF081CADF80E002989E08F00
:20081C008842D8BF081CADF810006989B4F840008842D8BF081CADF81200A989B4F8420048
:20083C00884200DC0846ADF8140001E08DF81660AF49102003AA04F01DFD0FE1AD480CF04F
:20085C007EFD6B78002B40F00981E88860822889A0826889E08267480CF0A6FB002840F01D
:20087C00FD80656A002D00F0F9802B68608AA18AE28A9847F2E0AA88B549102004F0FAFC6B
:20089C000C984146062208F040FC6682A682E682A879207357480CF052FD96480CF04FFD79
:2008BC004FF001084FF6FF702379208253B9A879082812BF84F801A00520607040460CF020
:2008DC009BFBCBE084F80190C8E06B787BBB291D0C980A6802608988818006236370688930
:2008FC002082E8896082288AA082688AE082E878E07294F83A00012818BF02280BD19A495E
:20091C0010201F2204F0B6FC4FF47A7180B2414338480AF051FE688900909249CDF804A032
:20093C00EA7810202D1D2B4604F0A4FC99E06878312840F08A80E67084F801A091E0C046E4
:20095C00700A00206B78002B7FD1A878E3896178032815D0E078257933B9012814BF267199
:20097C00E67008E015D00000054304D07F4819460AF022FE61780729DED10620607070E0DE
:20099C00062907D0E578002D08BF84F8019068D00220F3E70720F1E709C900006B78002BC4
:2009BC0053D1EB78617893B902291DD007291BD0062902D12079012816D1032914D06B48CE
:2009DC000CF0F2FA80B901200CF016FB0CE00BF0C9FA0246A079624900900D9843460190A7
:2009FC00102004F047FC68706D78002D2DD135E007000080380B00206B7833BB5C48574978
:200A1C00009002221020034604F034FC59484A46524900901020034604F02CFCED1C0E98C9
:200A3C0029680160A98801238180207863700BF099FA024601230F9D607949490090102016
:200A5C00019504F017FCC0B258B184F801B008E0AA8841491020052304F00CFCB8F1010F84
:200A7C002AD1256A45B32D6835B36078A84723E06879132820D12889012808D1607B0228CC
:200A9C0005D11C480CF05BFC0BF04AF814E036491020052204F0EEFB81B216480AF08CFDB5
:200ABC000AE06888C00B07D3334852462B4900901346102004F0DEFB029808B10CF0ECFBF8
:200ADC002579E078790830D355EA00032DD0204600788DB9E179257A8DF82410109A8DF83C
:200AFC00255013680DF126052B609288AA8005E0051601105C0B00208DF82490617A8DF8C1
:200B1C002C10A17A8DF82D100BF02CFA1149024609AB102004F0AEFB38B1256A84F801B0B7
:200B3C001DB12D680DB15846A847B80803D31349304607F0A5FFF808FFF4E3AD607B401E2C
:200B5C003FF4C7AD401E7FF4DCAD0AF0E9FFD8E5A9A4000059440110C1170110C5660000CA
:200B7C0009450110956A0000F5840110140B0020B40A0020C40A00208C0A0020AA0A0020DC
:200B9C00DFF800F0F99B01102DE9FF47C94C0F460646F80B80F06481B80880F05181E07A07
:200BBC00DFF81C93B90F80F0CA80607A002840F0AA803809C0F0A980A07A20B10020A0727E
:200BDC0005200AF079FE00254FF00108BA49657004F174002A4684F807800CF090FB207922
:200BFC0001281AD16079C0B9DFF8D0A2DAF8000000284DD048460068006B80475246616989
:200C1C001368401A010BA161E0694018B0EBC31F98BFE0613CD9E56101E084F80480DFF80C
:200C3C00A492A9F115000068000A31D340F60900A08694F8410000F0F00040F0010084F87E
:200C5C004100E58694F8400000F0F00084F84000A5630CF04EFB4B4603F6FF7211686FF044
:200C7C00020C21F00201116004F13401C3F8FBCF954AC3F8EB1F11688908FCD3C3F8FBCF14
:200C9C00D3F8FF1F41F00201C3F8FF1F00F028F98E4A10688E4920F00200656140F400708E
:200CBC001060032341F8043C41F230038B604046086050238B6008604FF4CA638B60086041
:200CDC0041F80C0C022015600AF0F6FD112006F04FFC307C10B90E2006F04AFCE5712572E5
:200CFC00A07818B906F138000CF019FB79480CF003FA79490878F8B10D7004F1D0000421A4
:200D1C000CF017FB18E0380914D2B80BC0F0C98004F124000CF0FFFA061C08D0706830B10D
:200D3C007568F068B6F91C1000222023A84727F40057B6E00020607227F00807B1E020B1B1
:200D5C0004200AF0B9FD0020E072B168088840F602054FF0000885420AD0B0F5C15F07D0C7
:200D7C000A8B4FF61F60104040F43470088306E00A8A4FF61F60104040F434700882606992
:200D9C00E0B1D9F85400016804208847B0B1D9F80000006B80476169814226BF401A401E97
:200DBC00401A000BF060F068718A401840F6C411F06081422CBFB0F5FA7FF16094F8410072
:200DDC0010F00F0F0BD1708CED1D854207D1B56930466FF4807142464FF00073A8473F49BF
:200DFC0004F1740042460CF08AFA607958B10220ADF8000068460BF0F7F884F80580BDF86F
:200E1C000800A4F8700001206070E078401CE07004F1200084F806800CF07DFA002808BF34
:200E3C0047F0020702D019200CF067FA7569414630464FF080630A46A84727F0005730E034
:200E5C0004F12C0528460CF066FA05F0A9FC28460CF061FA27F0020708B147F0020720E00E
:200E7C000CF047FA014604F128000CF054FA0646B569A80810D27EB125EA0500B0610846CD
:200E9C0000F02EF8706850B12A46F068B6F91C1075680023A84702E0084600F021F827F461
:200EBC00804727B104F1D00039460CF042FA0090BDE8FF87E8100020F1C40000B828002073
:200EDC008C0100101500044010100440000004600C410440B5680000B4280020AD6400007D
:200EFC00DFF800F061C001102DE9F04707467D68D7F8089090460E460CF0FBF98246A86A03
:200F1C00002864D105F584700CF0EDF90024EC772E6250466C62FFF7E3FF0CF0EAF92F4ED9
:200F3C003378824623B902200AF0BAFE012030705046FFF7D5FF2A49086840F480700860E2
:200F5C00384641460AF0F6FFA862C0B93846414609F064FBA878D0B9A96805F1D0000BF026
:200F7C00D9FFE8B1AC621020E8774946284608F041F90CF0BEF98246307840B323E0D9F82E
:200F9C000010886B40F020008863A87810B12046BDE8F087A96805F1D0000BF0BBFF10B93F
:200FBC00686ABDE8F0873846414609F037FB1020AC624946E877284608F01CF90CF099F9C2
:200FDC008246307818B102200AF076FC34705046FFF786FF4FF0FF30BDE8F087D9280020CE
:040FFC003010004071
:20100000B41200001810000015AB0110FDB301106DC00110FDAE011099B5011000000000F7
:08102000000000002D0000009B
:20102800B01200003C100000B1C00110A9BF011067C0011069B80110000000000000000035
:041048003000000074
:20104C00B012000060100000BDC00110CDB30110D9BD01106DB3011000000000000000005B
:04106C00310000004F
:20107000000000004422002004000000000000000000000020000000E8C9011030000000C4
:20109000281000004C2200200400000000000000000000000C000000D8CA0110180000009F
:2010B0004C1000005422002004000000000000000000000024000000F0CA01101800000023
:2010D000000000005C2200200400000000000000000000001000000018CA01102C0000002F
:2010F000001000006C220020040000000000000000000000200000006CCA01102400000093
:20111000FFFFFFFF742200200400000000000000000000002800000090CA01102400000052
:20113000FFFFFFFF7C2200200400000000000000000000001400000008CB011018000000D1
:20115000FFFFFFFF8422002004000000000000000000000058000000B4C90110340000009F
:20117000FFFFFFFF8C2200200400000000000000000000001000000020CB0110180000006D
:20119000FFFFFFFF942200200400000000000000000000001C000000B4CA0110240000009A
:2011B000FFFFFFFF9C2200200400000000000000000000003800000044CA011028000000C2
:2011D000FFFFFFFFA42200200400000000000000000000005400000078C901103C00000037
:0811F00001000000B4E9000059
:0411F80001000000F2
:0411FC0000000E00E1
:0412000000000F00DB
:0412040032000000B4
:0412080001000000E1
:04120C006421002039
:0412100000020000D8
:0412140000000000D6
:0412180001C90110F7
:04121C0000000000CE
:0412200000000000CA
:0412240008000000BE
:0412280000002200A0
:04122C00A81F0020D7
:0412300000000000BA
:0412340000000000B6
:0412380008000000AA
:04123C002421002049
:0412400000000000AA
:0412440000000000A6
:04124800080000009A
:04124C00000000009E
:04125000000000009A
:041254000000000096
:041258000000000092
:04125C00010000008D
:0412600074200020D6
:041264000600000080
:041268000100000081
:04126C00141F00202B
:04127000000000007A
:041274000000000076
:041278000002000070
:04127C00000000006E
:02128000290043
:02128200010069
:02128400250043
:02128600300036
:02128800310033
:02128A002D0035
:02128C0001005F
:01128E00015E
:081290000300000034E9000036
:0812980000000000000000004E
:0412A0000000010049
:0412A4000000030043
:0412A80013C401105A
:0412AC002BCE000045
:0412B000B812000070
:0412B400B81200006C
:0412B8000000000032
:0412BC00EC21002001
:0412C00043CF000018
:0412C4002000000006
:0412C800A8E8000092
:0412CC0074E70000C3
:0412D00029C101101F
:0412D40053CB0000F8
:0412D80057CE0000ED
:0412DC00A1C7011095
:0412E000A3C701108F
:0412E4000000000006
:0412E80087E9000092
:0412EC0090E5000089
:0412F000A8E500006D
:0412F40078E5000099
:0212F8000200F2
:0212FA000900E9
:0212FC000100EF
:0212FE000000EE
:0113000001EB
:04130400D1CE000046
:0413080095B7000095
:04130C00A5C5000073
:0413100041BA0000DE
:04131400D9BA000042
:0413180051AA0000D6
:04131C00E593000055
:04132000FBD00000FE
:041324009DA0000088
:0413280015C70110D4
:04132C0025C70110C0
:201330002DE9F04FD04D291D2846ADF1340D09F003F905F114000BF0CAFE1F220A23CF4950
:20135000A860102003F09CFF002401208DF829008046ADF8164008208DF82A800DF1290283
:20137000ADF818004146ADF81A003220ADF81C004FF4FA70ADF81E0040F2053001F004FA81
:2013900040F2063002210DF1160201F0FDF940F207300D2105F12C0201F0F6F94FF4427025
:2013B000122105F1390201F0EFF94FF4447041460DF12A0201F0E8F940F21130022106AA20
:2013D00001F0E2F940F2123002210DF11A0201F0DBF940F21330022107AA01F0D5F94FF470
:2013F000457002210DF11E0201F0CEF905F14B0022461923CA490090102003F041FFA1465D
:201410004FF0030A8DF82B800DF12B008DF82E80C94C8DF82C904FF480628DF82DA043468E
:2014300000902146102003F02BFF0BA840F20242434600902146102003F022FF0DF12D0040
:2014500040F20342434600902146102003F018FF0DF12E0040F206424346009021461020F5
:2014700003F00EFFB548062101704078062801DA07F040FAB248007880000BF04AFFB14EA0
:20149000B34C01460029F16042D04FF6FF700AF0B1F910200090AC490191AC4906F1640279
:2014B000152303F0EDFED6F88010022009F03EFC30793076327A86F8542077797776F3791D
:2014D00086F82530707AB6F89E2186F85500B179A6F84C20B6F82E3186F8241006F11007FE
:2014F0003B80B6F86E01B0834246B27686F8262086F8562006F59A7373614846306206F176
:2015100058013065504609F011FC67610720A071EA6805F1200005F10C07A061E7612AB19C
:201530008C4904F16C00022309F042FA8A4E77783078AFB904F1200131620AF019FD06F184
:201550005407CDF80090024606F14400019006F11C03029781490393B378102003F090FECC
:201570007F49804A102003F08BFE28780AF000FD7D490246102003F083FE7C49102003F0EC
:201590007FFE1B224FF4A473102000927849019303F076FE04F5257A1626C346686849466D
:2015B0004FF040424FF0FF33FFF7F0FA071CF5D0CDF8109005A80AA904AA0AF06CFA002826
:2015D00034D1BDF8140010282CD128789DF82810884227D104990B78913B02D01F3B1CD0C5
:2015F00020E048780E281DD1888842F20302824218D189680B78ABB9491C08A80A684968F1
:20161000026008AB416018785A4908AA00F0FD001870102003F034FE04E001F108000979F5
:201630000CF04AF9049808B10BF03CFEF80FB5D3A8680CF03DF90028B0D1A8680BF067FAEB
:20165000071CF5D03888012872D16078A37807F10408062833D0022836D00BF001F828B939
:2016700008F042FF30E0C046B00D0020034910200622202303F004FE02E0C046BD84011018
:201690003D4910200722302303F0FAFD3A4910205A46052303F0F4FD8DF82F9040F20D300C
:2016B00059460DF12F0201F06FF88DF82FB040F2053059460DF12F0201F066F804E01BB15C
:2016D000607A217A88422DD00AF0CAFF80B3607A401C90FBF6F17143401A217A60728142E2
:2016F00005D1491C91FBF6F27243891A2172C1004B4601EB001115220AF801300AEB010091
:201710005B464370414613468370C01C06F08CFBA3786BB1E06804210CF0C6F808E0C046ED
:20173000158A0000484659461522434607F034FF38460AF079F87BE7E9300000C01D002082
:20175000694F0020281700201CE90000C7BE00000802002075CF0000700A0020FBAC000009
:2017700029C9000060E9000051880110C5AB001035B9001095B40010BD8401102DE9F04FB6
:20179000BC4C04F10C012046ADF11C0D08F0D4FE04F124000BF09BFC43F698220123B64977
:2017B000206104F1480009F003F900250DF1170040F20D4201238DF81750B04900901020E2
:2017D00003F05EFDAE4910204FF0FF3203F058FDAC4910204FF0FF3203F052FD1020AA4ECD
:2017F0000090AA4AC248132331460190102003F047FDC048007880000BF08BFD0146BE48D6
:20181000416169B14FF6FF7009F0F4FFBA4ABB4910200623009018320191314603F030FDF8
:20183000B748B5498860B7494FF47A722B4604F1900009F0BDF84FF00108DFF8CCB2E068FB
:20185000B24A29464FF0FF33FFF7A0F95FEA000AF5D0284604900DF1160104AA05A80AF089
:201870001AF9A8B9BDF8140010280DD120789DF81610884208D104990878B02804D101F153
:20189000080009790CF018F8049808B10BF00AFD5FEADA70C0F01F8117E120690BF037F9BC
:2018B000071C00F012813888401E00F08980401E74D0801E5CD0001F40F004817868BE7805
:2018D0000078002E42D0012E32D0022E40D100283ED1DBF80C0084F802808047B7484FF4B1
:2018F0007A7109F06FFEAC496089896881460BF031FB40082CD348461B2142462B460BF0C5
:20191000CFFF039020B3AE490988ADF80A804A46ADF8081002AB05702846A3490090102043
:2019300003F0AEFCA0B102A81B210BF0C5FF0FE0E570207160B9DBF80C0084F80280804772
:201950009E484FF47A7109F03DFE01E084F80380A0694168667105208847607A217A884293
:2019700018D0A678B6B1E06804210BF09DFF11E07868A669C28836B1B66826B11146437ACC
:20199000027AB04706E0894886492B460090102003F076FC786809F047FF93E0B97860780D
:2019B000012906D0022940F08D8083480BF0CDFC88E0062840F086807F480BF0C4FC81E071
:2019D0007B48BE780088062E62D06078062874D1E36923B11B6813B17A480BF0B6FC754832
:2019F00080F80080A570FF23E570DBF808006371804775482946182207F08DFB0AF030FED0
:201A100050B3E0690079800826D36549102006224FF4C86303F034FC6149102007224FF493
:201A3000C86303F02DFC5E49102042462B4603F027FC284641460DF119028DF8190040F28B
:201A50000D3000F0A1FE8DF8198040F2053041460DF1190200F098FEA06941680520884759
:201A7000207984F80780042827D108F03DFD257123E0C0460802002075CF0000E93000003E
:201A9000CDC4000071C70000C7BE0000F8150020608129468DF81810A57006AA40F2053092
:201AB000414600F071FE0BF04DF8607A217A884203D0E06804210BF0F7FEA06941686670F9
:201AD00004208847384609F0AFFE20690BF0F0FE00283FF4E2AE60785FEA9A011BD30628AA
:201AF00019D1E078A0B92D4805700AF01FF811E010E90000694F0020C01D0020F8E80000A1
:201B10003FD2000019C400007C210020070000C00BF018F860785FEA5A010ED306280CD1D0
:201B300009F06CFD2A494978814203DD2849487006F0E0FE20480BF006FC5FEADA00FFF4E4
:201B50007EAEA07800283FF47AAE1448007800283FF475AE607A217A884215D01B4F162098
:201B7000491C024691FBF0F03E465043091A2172C80000EB0110C3199A785978305CDB1C69
:201B900007F00AFD607A217A88423FF458AEE06804210BF089FE52E6A81E0020D722002099
:201BB000BD8401100DBB00004500011040E20100800A00202917002050020020980200204C
:201BD0000E1F002074020020380200209C040020C01D0020BB482DE9F84F0025BA4CB8496F
:201BF000056094F8E200002800F06581012800F02F81B64E02283CD0032840F05C8151F880
:201C1000250CD4F8B8100029A0F5C060C4F8D400B8BF49420028B8BF4042814226DA4FF05C
:201C30008057D7F8A4014568B4F8BC0030214FF47F42082300903046A847D7F8A40145689E
:201C5000B4F8C00004214FF4F802122300903046A847D7F8A401B4F8D070456820214FF4EB
:201C700040620A2330460097A847012584F8D8501CE151F8258C0BF057FA2F4600B9012726
:201C90003946934F38680028FCD0B146012609F10409D9F82CA03E6009B10BF04BFACAF328
:201CB0000720C4F8BC000BF03FFAAA4600B9B2463B68002BFCD0D9F800B0BAF1000F3E602D
:201CD00001D00BF037FACBF38440C4F8C0000BF02BFAAA4600B9B2463B68002BFCD0D9F8CD
:201CF0001C90BAF1000F3E6001D00BF023FAC9F38120C4F8D000B8F5C061C4F8B81000F0BC
:201D10009C8094F8D80068B9C4F8D410D4F8C000C4F8C800D4F8BC70C4F8C470D4F8D030AE
:201D3000C4F8CC30D4F8D410D4F8BC30002954BF02206FF0010004F1C802176801EB410149
:201D50004018411000EB917107EBA1001060D4F8C810C4F8C43000291CDD1E293CDDD4F838
:201D7000CC0030B93429B4BF15391E21C4F8C81025E02A29BABFD4F8C8000B381E20C4F80B
:201D9000C800D4F8C4003F28B4BF401C3F20C4F8C4001FE0D4F8CC00032812D011F10B0F06
:201DB000C6BFD4F8C8000B30301CC4F8C800D4F8C4000028C4BF401E051CC4F8C45003253D
:201DD00008E011F1150FC6BFD4F8C8001530301CC4F8C800C4F8CC504FF08057D7F8A40155
:201DF000B4F8C43030214FF47F424568374800930823A847D7F8A40104214FF400321123C3
:201E1000456832480096A847B4F8C860D7F8A40104214FF4F802122345682C480096A84781
:201E3000D7F8A40120214FF440620A23B4F8CC60456826480096A84701E084F8D85040F29C
:201E5000FF50404502D8801C40452FD2082030E051F8251C1F4F4BF2F5204843060A3868E5
:201E7000C0F3814001280CD11B4800680068804709F038F90BF064F93111C010484306EBCE
:201E9000E03694F8E50030B91448006820F07F408019460801E084F8E5501148310C0660BA
:201EB000012741600F4D8760287808B90B2000E0052084F8E40003F053F8BDE8F88FC046A5
:201ED0002D400C402C500C40641B002000A00C4000800C40B43F0050EC0100101020094061
:201EF0003C600C40CAE800002DE9F04FB64D686885B0019020B905B0BDE8F04F0BF0CCBC55
:201F10000178DFF8C882B24EDFF8C892DFF8C8A201291CBF0229042946F2A81741F64C5B73
:201F300005D0402918BF802900F09A8043E10BF01FF90028FAD00198007804F06DF80090A6
:201F5000446814B900200AF08FFD9AF80100002860D001F007FE0AF081FF02900168009864
:201F700001914F6807F0F0FB022827D000990A78012ADBD1994B19680A7A19F80230337044
:201F900018B90BF085FC5844A0602069C17E01F0EF01C1762069C17E41F08001C17620692E
:201FB000C17E01F0F00141F00201C1768C48B96841182069C16101210098A0E00198017840
:201FD000802913D10822874832700178012903D09AF80100012803DD38690121C17213E0CE
:201FF000D8F828103A690878D0720DE07D49072030700A783869012A02D10123C37203E08D
:20201000D8F828104A78C2720298817901988AF80210CBE00098002888D00199009A007882
:20203000914205D101281CBF00200AF01DFD15E0012840F0C080694801680A7A19F8020070
:2020500030700BF025FC3918A0680BF01DFC18B90BF01EFC5844A0600120A8700098A5E06F
:202070009AF8010000287DD001F07CFD0AF0F6FE04462068029047689AF802000AF0EEFE63
:2020900003900BF07BF810F0070F3DD0A87803F0C3FF0190416801980091029907F054FBF2
:2020B000022831D001990A78012A2AD14B4B19680A7A19F80230337028B90BF0E9FB83449B
:2020D0000098C0F808B000990869C17E01F0EF01C17600980069C17E41F08001C1760098C6
:2020F0000069C17E01F0F00141F00201C176009AB9683B4841181069C16101210198A970D5
:2021100054E000200AF0B0FC0398A04228D002980178802913D108223248327001780129B7
:2021300003D09AF80100012803DD38690121C17213E0D8F828103A690878D0720DE029496B
:20215000072030700A783869012A02D10123C37203E0D8F828104A78C272A0798AF80200B0
:20217000029823E00BF00AF810F0070F29D0A87803F052FF04462078D4F80480012820D1F6
:2021900016490A68107A19F8001031700BF080FB3918D8F808000BF077FB20B90BF078FBBF
:2021B0005844C8F808000120A870204605B0BDE8F04F05F055B805B0BDE8F04F00200AF0BE
:2021D00053BC05B0BDE8F08FA0280020E0E900006F4F0020289A0110684E0020104F002050
:2021F000F0D8FFFF734F00202DE9F04F0D46E80789B00BD50AF0EEFE28B100218160A448CA
:20221000006800B1804785F001003EE1A80710D5002006900021049000230290009005915F
:202230000393019101223C200BF02AFB85F002002BE11D246807974E974F40F18A8000206E
:202250000790824695498878FF2804BF00200AF00BFC386890F8A0000AF000FE8046386800
:20227000C07A98F826B1022818BF032808F5907906D106F10D000BF0FFFA08B906F1070AE3
:20229000494658460BF0F4FA88B33868807A002818BF012804D1314648460BF0E5FA04E083
:2022B0004A46594630460BF0DBFAFF2834D06043834606EB0B0406224946E01D0AF0EAFC6E
:2022D00016F80B0040F0020BE01D079006223868817E01F0010188F8261104F101093868F4
:2022F00000F1140108F590700AF0D4FC14E0494658460BF0B1FA78B14A46594630460BF071
:20231000AFFAFF2808D006F10D01444308190BF0B3FA08B14BF0020B08F12C005B46017870
:202330000691418909090591B8F82220079904920122C088029140080390CDF804A0CDF855
:202350000090002098F806100BF09AFA85F004009BE0280610D500200690002104900023F3
:202370000290009005910393019101223B200BF087FA85F0800088E0E8043BD5F11D06F115
:202390000D000BF065FA38684179012923D1017A012918BF04291ED1C17A022918BF03294D
:2023B00019D1817E00F1140230460BF059FAFF2811D04443344404F10D000BF05DFA50B9F5
:2023D000E11D04F10D000BF043FA38680622E11D14300AF05FFC324932484A6800784FF4F4
:2023F000805108F03FFC10B18E2006F01DFD85F480504AE0A80505D50AF096FE2A4901202E
:202410000860FEE7690504D506F00BFC85F480603BE0680405D5812006F006FD85F480408E
:2024300033E0A80430D5214C206810B100200AF01BFB4FF0FF3020600BF006FA1C4C216808
:2024500051F8202F684690471A48016A426A2468009101921849029100F128014A680978E5
:202470001368C06903938DF81010ADF812006B462668124A12491348B0471349086003F0B7
:202490004BF985F4005000E0002009B0BDE8F08F204F0020AC450020104F0020684E00204D
:2024B000784E00206E4F0020FC002043044F0020F04E002014200020D5CF00002C4D002088
:2024D0006845002088490020EC4E00202DE9FE4F0F46994C0168E16241688068A06097481B
:2024F000616080479648E16A01606168DFF870B24160A168DFF8648281609249002FA246BE
:20251000C16063D03D68E8788DF8080028798DF8090002A80BF094F9A86808B18A49016067
:20253000E86808B189490160894C2878207068786070A878BE68A07031787368E170B26855
:2025500063602E69A2607968E6610868E06068692062A8696062287F84F828002A6AE262EE
:20257000786886681EB900200AF07EFA00E066617868C06818B900200AF076FA00E0A06129
:202590007868406818B900200AF06EFA00E020612869E061F86881680E6806B96E4E6D492D
:2025B0004FF001094E60C66881F801902EB900200AF05AFAF868454601E045462E6000683A
:2025D0005C46FE68A0617068E06106E000200AF04BFA4FF001095C46454628686149466826
:2025F000621C04F114035020B04710B1286880688047DAF8040080475C4F002683466946F4
:202610007E7059483E7004222061304609F0A6FA0098B0F5801F0CD020B909F085FD03F0B8
:2026300023FE08E008F0C2FC0AF040FC0420788001E009F079FD4E4FB0462868C7F80880BF
:202650008069A660804778604A48468080F8009014200AF0DFFCFF211422A0620AF07BFEA8
:20267000E01CFF2103220AF076FE14200AF0D2FC414908600868142231460AF06CFE3046B6
:20269000FDF7D4FC484608F059FE3C480188FF2906D1022101807822001D31460AF05BFE58
:2026B00003200BF0C9F804200BF0C2F805200BF0BBF806200BF0B4F8072007F0B9FC304E61
:2026D0000820307006F124000BF0A6F807F0BCFD06F1360705200A213A460AF00DF938B1D1
:2026F0004046C0F10901401C07F8011B0A28F8DB3078102104F0E2FE2F68224909200DF137
:202710000A0201AB7D68087010204146A847A06AE2690A270A309DF80A1000F8011BDAF899
:2027300008107F1EF7D1921E5846E261884702F0C5F8BDE8FE8FC046781C00204149001077
:20275000F8440020D0D8000089C0000015CC000014200020142200207FBF0000B42200205D
:20277000D420002039C5000075CC0000AC220020942800206C0A0020D0280020441D0020FD
:20279000DC180020E42800202DE9FC41A0F2013714468846022F40F232819B4E9C493F1F62
:2027B0000F2F04D9143F4CD0BF1E1CD011E0DFE817F0CF00C9000D01FA00C100B9002601B6
:2027D000AF00A700100010009D008F007F0074006600282880F21381B8F1020F40F00F811E
:2027F0008849238807E1B8F1010F40F00881F078012800F00481324620781179107189B990
:20281000002800F0FC805078012800F0B580042800F0B280062800F0AF80052800F0AC801A
:20283000BDE8FC812078002840F0E9805078032800F0AF80072800F0AC80052840F0DF80F4
:20285000A7E0B8F1010F40F0DA802078012840F0D68006F1EC000AF0ADFB002840F0CF802B
:202870003446002004F13A0106F010F9002840F0C68004F1C8000AF068FDBDE8FC81B8F1FA
:20289000020F40F0BC8020880A28C0F2B880B0F5486F00F3B4808E1C17E0B8F1020F40F0D9
:2028B000AE802088B0F5FA7F80F2A9800E460CE0B8F1020F40F0A38020880628C0F29F8085
:2028D000B0F5486F00F39B803E363080BDE8FC81B8F1020F40F0938020880628C0F28F80A4
:2028F000B0F5486F00F38B803C36EEE7B8F1010F40F085802078062880F28180454E0EE07F
:20291000B8F1010F7BD12078042878DA0A3606E0B8F1010F73D12078082870DA0936307078
:20293000BDE8FC81B8F1010F69D12078042866DA0836F4E7B8F1010F61D1207804285EDC6C
:20295000F61DECE7B8F1020F59D120880E36BCE7B8F1010F53D13079012850D0324620782F
:20297000D178D07069B9002849D05078012803D0042818BF052842D101200AF043FBBDE856
:20299000FC81207800283AD15078022818BF052835D1107809F0ECFA1C490246102002F0AD
:2029B0006FFCBDE8FC8106F1830500211F22284606F0B1FB21464246284605F035FA44467E
:2029D0003078B47109F0D4FA002311E006F1640500211F22284606F09EFB21464246284623
:2029F00005F022FA44463078747109F0C1FA01230094094901950246102002F041FCBDE8FF
:202A1000FC81C046BD840110700A002099450110B00A0020AA0A0020094501102DE9F04FE6
:202A30008246DAF800600C465FEA0208ADF11C0D14BF00214FF0FF3106F1480083460AF0BB
:202A50006FFA002818BF0B2040F00681002565708448F460B8F1010F057004D06570022009
:202A7000F46009F023F92078012840F2AB80801E012868D9801E012833D9801E012800F22B
:202A9000DF800AF03CFC06904FF0805000F5EE77D0F8DC01A378466A00932178284606295D
:202AB00008BF0120019001200290A068228AE1686368B04781460698FEF718FAB9F1000FF6
:202AD00040F0C080B8F1000F02D00AF0B3F802E0504609F0FBFB002800F0A4803868806A1A
:202AF0002AE00AF00CFC06904FF0805000F5EE77D0F8DC01012306680093A168A278606806
:202B10002478AC46042C08BF9C466346B04781460698FEF7EBF9B9F1000F40F09380B8F1BB
:202B3000000F02D00AF086F802E0504609F0CEFB002877D03868406880474949C1F8B05128
:202B50000D6081467EE00AF0DAFB06904FF0805000F5EE76D0F8DC01E38A87690093E06829
:202B70000190208B0290A0780390207D04900121059122782846022A08BF081CE1786268A1
:202B9000A368B84781460698FEF7B0F9B9F1000F58D1B8F1000F02D00AF04CF802E05046F6
:202BB00009F094FB00283DD03068006A80475FEA000947D13068C569A168E28A2369E078F6
:202BD000A847BEE70AF09BFB06904FF0805000F5EE76D0F8DC01E38AC7680093E068019016
:202BF000208B0290A0780390207D2946049001200590257805B9014608466268A368E17869
:202C1000B84781460698FEF771F9B9F1000F19D1B8F1000F02D00AF00DF802E0504609F044
:202C300055FB08B9142017E03068406980475FEA000907D1306802692169E078904780E7F3
:202C50004FF0FF39B8F1010F02D0022008F03AFE58460AF06AFB484607B0BDE8F08FC046A4
:202C700050450240E32800202DE9FE4F05467E48002400680094C0090ED37C48007858B9B7
:202C90007C497B4851F8112C104040F0817041F8110C202007F0C4FF012D40F0E080DFF8C0
:202CB0000092D9F8DC00012840F0D6800220C9F8DC0009F015FD012007F0B2FF5FEA000832
:202CD00005D00120C9F8DC0009F01AFDC9E00AF032FBA34602906848684DC0F800B0A86A17
:202CF000016801208847012804D1584606F062FD012000906248634FC0F800B03868112034
:202D10000AF030FA00B1012410200AF02BFA08B144F002040F200AF025FA08B144F004042A
:202D30000B200AF01FFA20B12868574E016B308888470A200AF016FA20B12868534E016BAA
:202D5000308888475248012606602868816944F0200088474F4806600AF0FEF900F0010138
:202D70000191400814D2286A81684B4888478246BAF1040FF7D0BAF1010F04D1286A42688D
:202D90004548032190474549086820F003000860584600F0D7FC2B683868986B804701982B
:202DB00001280CD0BAF1010F04D1286A42683A48314690473949086840F00300086030485D
:202DD000066028684169204688470B200AF0CAF920B128682C4BC16A188888470A200AF090
:202DF000C1F920B12868294BC16A18888847284806600322C9F8DC20264BC3F800B0286876
:202E1000416B204688470128F9D13868042007F007FF044618480660386813480068800911
:202E3000FBD30098012802D1304606F0C3FC0AF081F9082007F0F4FE07460298C9F8DC608C
:202E50000AF0E6FC06F056FE09F05AFC57EA040018BF4FF0FF3804E06FF0040801E06FF0CC
:202E700001084046BDE8FE8F141009404C1C0020FFFFFCFC150009400C400940B8010010DA
:202E9000000222432C2009400EE500000AE5000028200860800104430040034024220840BB
:202EB000641B002010B50B7884074CBF43F0020303F0FD0304064CBF43F0800303F07F031A
:202ED00004074CBF43F0080303F0F70384064CBF43F0200303F0DF0310F0AA0F0B7004D0D9
:202EF000107840F00C00107010BD18B9117801F0F301117010BDF8B50F4600263878022822
:202F100014461D4661D1786801784278069801EB022189B2002818BFB1F5285F01D00B208F
:202F3000F2BD4FF42850091A08D0491E1CD0491E2AD0491E20D0491E2CD046E0F8680AF02E
:202F50000CFA069B079980B2C21A8A42ACBF0846C01A80B2C118162904DA28800246F86835
:202F7000C1180DE00D2632E0F8680088022129802070000A60702AE0062028800622F968B7
:202F9000204609F087FE22E001202880F868017821701CE0F868B0B108212980018821705F
:202FB0000188090A61704188A1704188090AE170818821718188090A6171C188A171C08861
:202FD000000AE07103E0298001E02E8001263046F2BD2DE9F8460E468146307800240228BA
:202FF00017469A4671D1706801784278394D01EB022189B24FF42850091A06D0491E2ED04E
:20301000491E53D0491E3DD05FE0F0680AF0A5F9089980B2884206D308460AEB000116297A
:2030300003DB0D2452E0072450E0F36852463946184409F02FFE08985044ADF820000021D6
:203050000898F368C0F1160218440AF084F9286800281CBF0268002A38D0002123E00898D6
:2030700088BBBAF1020FDCD139787878F26801EB00211180286800281CBF0268002A25D0DF
:20309000012110E00898F0B9BAF1060FC9D1F0680622394609F0FEFD286800281CBF02687B
:2030B000002A13D00321484690470FE0089850B9BAF1010FB5D13878002813BF0128F16865
:2030D0000870802402E00B2400E001242046BDE8F2860000C42800207CB5894D1446024676
:2030F0000026A2F58062182A1AD8DFE812F0FE00F800F100E900E200DC00D500D0001900D8
:20311000C500BE00B700AE00A3001900190080006F00680054004C00420039002C00240020
:20313000282880F28580022940F0828021880AF06BFB0646E1E0012940F0DE80002C00F071
:20315000DB801135A6E0102940F0D680002C00F0D380284650301022214609F09BFDCCE046
:20317000012940F0C980002C00F0C68029468D1D90E0262940F0C080002C00F0BD8005F1A3
:2031900060002622E8E7012940F0B680002C00F0B3806D1D7EE0602900D13CB9012940F038
:2031B000AB80002C00F0A8800D3573E005F186002146602209F06EFD012068739DE001298F
:2031D00040F09A8020780AF01BFB96E0012940F093802078022800F38F800C3528702078D5
:2031F000022814BF301C01200AF006FB85E0072940F08280611C6846062209F05FFC207854
:203210006946324604F030FC04460A2C10DA0AF0EFFA38B9204602F093FF09F0A7F807F0A0
:2032300013F86AE02A46012002F12C05285564E0022662E001295FD1A87B21780028A973EF
:203250005BD12078012858D1E9E7012954D12478072C51DB102C4FDC0B3537E001294BD12A
:2032700024780A2C48DA093530E0012944D12478022C41DA083529E000293DD10AF0B8FAAF
:2032900010B909F0BFFDC8E701240F351EE0012932D10A35247819E001292DD12478022C97
:2032B0002ADAED1D12E0102926D12B4603F1400051E7012920D12478022C1DDA2D1D05E0E6
:2032D000012919D12478042C16DCED1C2C7014E0012911D12478022C0EDAAD1CF6E70229E4
:2032F0000AD120881435288007E0012904D12478022CD8BF6D1CE9DD182630467CBDC046C1
:20331000DC1800202DE9F04F94460E1C04461F46ADF1440D4DD07448357801684FF0010B58
:203330000BFA05F0014244D0BCF1000F666040D0BCF80000B0F5C15F2FD1DCF81400DCF865
:2033500018606A4BDCF81C50DFF8A4910E904FF0030E0DF134080F9618681095C0F3036AD2
:2033700058F8046FB6B10021331F05200A4653F8045FA94506D0401E01F1040102F101026E
:20339000F5D107E0052A05DA705820F4702040EA0A407050BEF1010EE2D1C4F808C009F0D4
:2033B000AEFF82465E48801C007820B15046FDF79DFD002094E002F065FC4E49086840F0BB
:2033D000020008600AA809F0EDFD4B4E4FF005080AAA4A49CDF8308006F1D00007F072FF0E
:2033F0000AA809F0C7FD00254FF0FF0919210AAB8DF83050424ACDF82C9006F1740007F07F
:2034100015FD0AA809F0CEFD0AAA3E49CDF8308006F5827007F056FF0AA809F0ABFD8DF853
:2034300030B0394ACDF82C9006F190001A210AAB07F0FCFC35492A4606F1AC00134607F051
:203450004BFA334809F05EFE324A2B46042106F1480008F0FFFE4FF6FF70A6F8700086F8C1
:2034700005B086F873503571B571F571357275727561B572B378F572581CB0705046FDF7D9
:2034900035FD1FB903AF384609F0DEFC386820607868E060387C84F811B02074788A608266
:2034B0001D4EA6616661F86800B1A061B86800B160612946782204F1200005F02CFE04F1ED
:2034D0003800294608F0C2FD684609F0E2FE1349029404F170002A466B4607F0FDF920462C
:2034F00011B0BDE8F08FC046D4210840541300500200F84400200940E8100020EDCC000065
:20351000F1C40000299000005DA3000005D00000B568000021A700007BB00000D3D20000A3
:20353000E8100020F0B57348734A0078734C744B74490D2883B03CD8DFE800F0DB07070770
:2035500007D3D358D39292B0B0B7146041F204456D494C88AC421FBF4E8BAE424E8EAE426D
:2035700003D11D806948106072E0022C684D1C804FF4A05635D94FF48067E41B1AD0241F3B
:20359000012C1DD94FF47F77E41B1BD04FF44067E41B0FD0A41E012C0CD9241F0AD0641E9A
:2035B000012C0DD940F2F937E41B012C19D9241F08D096E0022814BF1E80564D156047E0FD
:2035D000554DFBE7554803681C7A012C05D141F20240488048834886F0E74E804E834E8696
:2035F000ECE7002009F040FA83207EE04C488178FF2952D0182041434A48146040F2044580
:203610000068841C645A1C80641B012C464B70D94FF47F75641B0FD04FF44065641B032C87
:2036300084BF641F012C0BD9A41E012C61D940F2FD35641B06D103E0801C41F20144445233
:20365000136005E0002009F00FFA85200AF0CCF803B0BDE8F04035480078012103F02EBFFE
:2036700040F204424888188090421CBF41F2084290423ED041F60402904211D12C4C2D4A70
:2036900025682D4800680023CDE9002355F8086F2A4B0222B0472A490880F7BD4888188049
:2036B000002009F0E1F985201FE04888188002280DD940F20442801A1BD040F6FC72801AB0
:2036D00005D0083815D04FF47F72801AE8D1887B801CC0B2B528A8BF66208873002048809B
:2036F000F7BD002009F0C0F98420BDE8FE400AF07BB8F7BD6F4F0020204F0020CDD20000C0
:20371000504F0020CC4C0020204A002059550110615A0110B1540110755B0110104F002017
:20373000684E0020804E0020313901106E4F0020F04E002002000080EC4E00203DAF000037
:20375000424F00202DE9F84FDFF8F4B10746ABF13500DFF8E0910068800880F0D9807148F7
:203770000068006880477A490831D1F8008000254FEA28725FEA985102F101020AD2C0F1B0
:203790003E0110F10A0F4FEAE101D8BF08218A42B8BF0A1C644BD3F87C11C1F3046116291D
:2037B000A8BF20391B68C3F30443162BA8BF203B9A468918162905DA11F10A0FB8BF6FF026
:2037D000090100E01521594B594E01F01F0242F4F8521A80326812F0030F18BF0125D208BD
:2037F00028BF45F002050FB145F004054A4692F90730C31A052B04DA9379AB4208BF918882
:2038100066D0DFF834E10F28A0F10F0C25DB0CEB0013A3F1F00C4FEA2C26072E88BF0726C5
:203830003446062C88BF06245EF82470042303EB84037446E358DB1B03F0FF04EF0824BF1A
:20385000C3F307273C44AF0824BFC3F307473C446F0828BF04EB136401E0002426465EF84B
:2038700026E0EF080EF0FF0324BFCEF307273B44AF0824BFCEF307473B446F0828BF03EB76
:203890001E63A4B2ACEB0626AAEB01017443002904F1800403EB1423D8BF0121342408F060
:2038B000FF074C43A1B27943B1FBF3F14FF6FF738B4238BF191C802889B2918005DA10F140
:2038D000800FB8BF6FF07F0000E07F20D07195711A4800681F2910604FF0000008D340F260
:2038F000FF128A4206D24908401C8A42FBD301E01F219180134F0F39090940EAC10047EAB2
:203910000001CBF8FB1F0026CBF8FF6FBDE8F88F0D490E4F4A4608200F60921D1070BDE888
:20393000F88FC046EC0100103C1100506E62084024220840BC2800209C1300500820094036
:203950003500094000E7A48030100940FDFDA400AC3F00502DE9F0410C4684B00746207AB8
:203970000026C10690461D460BD5404609F038FF030000F0F0800A22214638469847060022
:2039900050D1207802281AD160680178427801EB022189B24FF42050091A012910D9891E74
:2039B00041D0491E16D0FD3905D0491E00F08B80491E74D0491E7BD0491E00F0A180B8E0BF
:2039D0000B98002831D1E0680A9A017811800278416891E00B98002827D10A980121018078
:2039F000E0680178297000216089401C80B209F0F3FE0A99098868B102780A9B921C511858
:203A10001980418969704189090AA97002784168E81C72E00A98091D018004220021681CD7
:203A300009F099FC98E00B9800286BD1E06807880A98042101802F70380A68700DF1020190
:203A5000384609F0C9FE04001FD0E768BDF802204FF6FF786B46414609F0BAFE40B92378C6
:203A700062683F48022109F0AFFE08B9ADF80080387802280BD179680222281D09F00AF93A
:203A90000A980188891C018001E0ADF80070BDF80000A870BDF80000000AE8705CE00B980C
:203AB00000282FD1E0680168384609F053FA03E00B9838BBE06800880A9A02211180287020
:203AD000000A687048E0E06809F047FC0B9B80B29842B8BF07263FDB834208BF002006D056
:203AF0000C99C9188142B2BF0C98C01A80B20A9908800246E068C118284609F0CBF82BE083
:203B10000B9808B10B2627E00A9AE0680721118002782A70417869704188A9704188090AF8
:203B3000E97001792971C1886971C088000AA87112E0404609F044FE06000CD00D980C999B
:203B50000A9B029001912A460B98009021463846B047064600E00E26304604B0BDE8F0816D
:203B700086E600002DE9FE4F7D4C617811B9002008F07AFF09F08CFE8146002709F6C4191C
:203B90000026784DDFF8E0810EE0304609F066F9417939B129688279CA5549467F1C09F0C4
:203BB0000BFEFFB2761CF6B298F800008642ECDB009761788F4205D0002008F055FF8220BE
:203BD00009F012FE6078012840F0A380002601E0761CF6B298F80000864280F294803046E3
:203BF00009F03CF9074678790028F1D02868B979027891421CBF002008F036FFB87980E098
:203C1000286810F8090009F029F900684268DAF808109068814204BFB84609F1010900F06C
:203C300088808BE0296891F800B04FF0010910E0626811F8093002F5AD7208FB03F708FBDC
:203C50000BFED75B32F80E20974238BF9B4609F10109C0B28145EBDB4FF6FF7009F0A8FDBC
:203C70000746584609F0FAF840F6C4190068416800967808029109FB00FA0026019715E0E0
:203C9000584609F0EBF801680A78802A04BF3B69C3F814A00978402907D1344A807913687B
:203CB00003EB40110AF5A062CA61761C0098864253DA2868805D8345F7D0636808FB00F2AE
:203CD000991803F5AD73C9899A5A4B08934203D2009B891A8B42E8DA09F0C0F80068476833
:203CF000029A0198B968936800EBD0704010A1F6C41109FB003009F0C7FD0028C0D0286843
:203D1000805DBDE8FE8F002008F0AEFE822009F06BFD6178286809F047FD2868007809F016
:203D30009DF80168009ED1F804A04FF000084FF00109B14508F10107FFF662AF4046C0B2E5
:203D500000281EBF3846C1B200294FF4C0787FF469AF286890F800B07EE75846D1E700BFEC
:203D7000684E0020004F00207B4F0020844E0020F8B57E4F04463868C16E0025002940F001
:203D9000F180102009F046F939680028C86600F0E7808E6E1022214608F07CFF39680878C3
:203DB000002840F08E80CA6ED6F8980012F80CCF00F001030CF0010C634518BF0023400823
:203DD00043EA4000C6F89800C0F34003D2F800C0CCF3400C634506BF430803F001030023B3
:203DF00020F0020040EA4300C6F89800C0F38003D2F800C0CCF3800C634506BF830803F0E8
:203E10000103002320F0040040EA8300C6F89800C0F3C003D2F800C0CCF3C00C634506BF5C
:203E3000C30803F00103002320F0080040EAC300C6F89800C0F30023D2F800C0CCF3002CE7
:203E5000634506BF030A03F00103002320F4807040EA0320C6F89800C0F34023D2F800C077
:203E7000CCF3402C634506BF430A03F00103002320F4007040EA4320C6F89800C0F3802376
:203E9000D2F800C0CCF3802C634506BF830A03F00103002320F4806040EA8320C6F89800F2
:203EB000C0F3C0231268C2F3C022934206BFC20A02F00102002220F4006040EAC220C6F890
:203ED00098008A6E92F89500030718D5C86E4368C3F3C00098B1C87840F00800C870D6F80E
:203EF000981023480140C6F898103868C06EC16821F48071C16049084900C16003E092F8B2
:203F1000330001282AD0607800281CBF7178002908D13968CA78130708D5002804BF7078C8
:203F3000002803D03A68052111711CE06068C0F3800040B996F8950010F0040002D1012021
:203F5000087110E00AD00878002819BF307821783178207809F024FC054604E0182502E0A5
:203F7000132500E011252846F2BD00BF304F0020FEFEFFFF2DE9F0411C4615468C4208BFD5
:203F9000854282BF00230022E5E0002C08BF002D0AD100290EBF00286FF000006FF0000127
:203FB00000F0E1F8BDE8F0815FF000085FF0000E002C08BF8D429CBF2C1C0025070C47EA90
:203FD00001470E0CB44208BFBD429EBF5FEA044444EA15445FEA0545070A47EA01670E0AE9
:203FF000B44208BFBD429EBF5FEA042444EA15645FEA0525470847EAC1774E08B44208BF42
:20401000BD4200F29380870847EA81778E08B44208BFBD427CD8C70847EA4177CE08B442AA
:2040300008BFBD4266D8070947EA01770E09B44208BFBD4250D8470947EAC1674E09B442C2
:2040500008BFBD423AD8870947EA81678E09B44208BFBD4224D8C70947EA4167CE09B4420A
:2040700008BFBD420DD8E60146EA5566EF01B14208BFB84201D3C01BB14158EB08085EEBD2
:204090000E0EA60146EA95664FEA8517B14208BFB84201D3C01BB14158EB08084EEB0E0E50
:2040B000660146EAD5666F01B14208BFB84201D3C01BB14158EB08084EEB0E0E260146EA5A
:2040D00015762F01B14208BFB84201D3C01BB14158EB08085EEB0E0EE60046EA5576EF0038
:2040F000B14208BFB84201D3C01BB14158EB08084EEB0E0EA60046EA9576AF00B14208BF69
:20411000B84201D3C01BB14158EB08084EEB0E0E660046EAD5766F00B14208BFB84201D374
:20413000C01BB14158EB08085EEB0E0EA14208BFA84201D3401BA14158EB08085EEB0E0E8D
:20415000A34208BFAA423EBF2D0A45EA0465240A89D3734642461E4617460B46024631464F
:204170003846BDE8F08170472DE9F0410446764DA178A869ADF1180D891F00F0DE80C91EC6
:2041900000F0C980491E5FD0491E48D0C91E3CD0481E40F0D580287A697AB8B968780028E5
:2041B00031D0A08809F0F8FA071C00F0C980A07A40080FD3787968B1E168890A0AD2B91DA3
:2041D00001AA03F051FC0A2804D10321A08809F0DFFAB5E0287B022802D1A07A0009F4D3A0
:2041F000A088797904F1080200F082FFA869002800F0A6804368002B00F0A28000210A467D
:20421000A08898479CE00521E0E7002800F098804368002B00F0948062780221F0E708F048
:20423000E1FE002800F08C80A86950B1076847B1206900906189227B637BE01C3C46A0470F
:204250007EE060890121C2E767784FF00008002F52D1A17949084FD3EF69002F4CD101A8EA
:2042700041460E2209F077F8A08809F095FA071C66D0606940B97879B91D06228DF80A00C6
:2042900001A808F007FD19E06669307C062206F111018DF80A0001A808F0FCFC07F10C0098
:2042B000B91D062208F0F6FCB81D062206F1110108F0F0FC307C40F002007871A1799DF8A6
:2042D0001120C1F3800010438DF81100080905D39DF8110040F008008DF8110001A8214613
:2042F00000F022F928B92878022103F0E7F8404627E0A8694FF0150810B3436803B3A088E7
:20431000627801219847B8F1000F19D0A86943680321424674E7E078211D002203F0A4FB04
:204330000A280DDA410001EB800004F10C0225300421C0B202F0BEF902E0A08806F0ACF86B
:20435000012006B0BDE8F081DC1800202DE9F04F6C4CE2680746880FADF1140DC0F0CF8053
:204370005068406808B18047E2685168664E886808B9CD6875B13568002DFCD00022326040
:2043900010B18047E0684168C86800B180475F4807F030FE4FF00008C6F800805C4846F8B9
:2043B0001C0C5C4808F0AEFE40F60A09A4F834902379A4F83680BD6894F84000C34604F1F7
:2043D000340A00F0F00084F84000012BC4F838B094F84100A5F8028000F0F00040F0010026
:2043F00084F8410001D17B7CABB1B8680088A9F10801814208D0B0F5C15F05D0298B4FF652
:204410000F400840288304E0298A4FF60F400840288287F811804048016883680193C36882
:20443000406B00911022694620F0784040F0805003903A48029303F0F7FC494600E01D4625
:204450006B6813B118888142F9D1C5F804A0687B00F0F000687304F1200008F062FF806833
:204470000088A9F10701814220D0491C81421DD03B8CEBB197F82C0097F82D30C7F824B09D
:2044900000F0F00087F82C0003F0F00040F0010087F82D0007F12002A2639AF80D00A7F864
:2044B000228000F0F0008AF80D0001E0C4F8148030680028FCD0C6F80080B968A37A0A8A0E
:2044D0004FF6FF301040088283B91548006801680120884701280FD0687B00F0F00040F029
:2044F000010068730F4808F00DFE05E006F036FE0028FBD006F050FEB86846F81C0C05B0F5
:20451000BDE8F08FE81000201C1004400100070601010E04A50B00004C1300501800002125
:20453000E0010010319C00002DE9F04F714CDFF8C0A1E56988468146ADF1140D002D4AD179
:20455000B9F1000F00F09280B8F1000F00F08E8007F000FE06460A2E23DAD8F81470267476
:20457000002F39D0700010216A4600EB86002330C0B208F0C1F990B950460778FF2110220A
:20459000684608F0D1FA50B93FB999F80600494600F0010009F0F8F801E00120A074E56935
:2045B00019E004F1E60B0A2700265846FF21062208F0BAFA68B97F1E0BF10E0B06F1010652
:2045D000F3D1607C002804BF0A2020744ED094F83660267400E0267C0A2E47DA002D35D19A
:2045F00070000E214A4600EB86002030C0B202F061F8207C06F0D8F86846FF21102208F0A4
:20461000AAFE207C10216A467030C0B202F052F8217C0E220801A0EB410000194946E630B7
:2046300008F038FBD8F814206AB15046007840B9107C02F11101002300F0010009F0A0F8E3
:2046500001E00120A074C4F81C804CE0AA68002A3ED12A69002A2FD16A690ABBEA683AB9CB
:20467000A07B08B107F06AFB08F037F901203BE07000102100EB86002430C0B202F01AF8BA
:20469000E769217CFA68480000EB8100103225300421C0B202F00EF8E1690020C86022E04D
:2046B0007000102100EB86002330C0B202F002F8E1690020486116E070001C2100EB860000
:2046D0002230C0B201F0F6FFE169002008610AE070001C2100EB86002130C0B201F0EAFFA8
:2046F000E16900208860002005B0BDE8F08FC0465A4F0020DC1800206648017801B97047E4
:204710002DE9F043491E032985B004D9891F012940F2BC80B4E0604CDFF880912168DFF8D3
:20473000808108685F4E00F10805062205F1080102A808F0AFFA0622A91C684608F0AAFAA4
:204750002878C1091D2700F00F02032AC0F3801537D16079C0F3800081421ED121690622AD
:2047700002A808F02DF800280AD06946284609F07FF8002804D03146684609F075F8FF2825
:2047900079D04743D8F80000807AF519002818BF02280AD0012818BF03286CD1F25D691C1F
:2047B000484608F0E9FF102865D06B46EA1D2946484608F0DDFF06226946E81D08F06AFA4D
:2047D00059E000F00F00052860D16079C0F38000814250D12169062202A807F0F1FF0028D8
:2047F00049D06946284609F043F8002843D03146684609F039F8FF283DD04743D8F8000027
:20481000807AF519002818BF01280AD0022818BF032830D1F25D691C484608F0ADFF102813
:2048300029D040F2024008F09FFF6B46EA1D2946484608F09DFF06226946E81D08F02AFA24
:20485000D8F80010F05D88760622D8F80000691C143008F01FFA1448144A41F20441418058
:2048700041834186124801801249134808600121107802F023FE21680A680020107105E066
:20489000002008F0F1F8862008F0AEFF05B0BDE8F08300BF6F4F0020F44B0020CC470020C0
:2048B000104F0020AC450020204A00206E4F0020504F0020204F0020595501102DE9FE4F81
:2048D000674D664C674F2868626A066904F1200339460120B04710B1286880688047DFF85B
:2048F0009881DFF8849107F02DFD5FEA000B03D003F060FC4FF0FF3B002637E00098216934
:2049100010F8062CA0F10C07032A02D171B388472CE0A06A9DF805C00A213246401E10F83D
:20493000013F9C4506D0491E02F10102F7D14FF0FF0A01E05FFA82FA2868BAF1FF0F00F113
:20495000080011D0387906F001FFB979012904D0022904BF0099887001E00099087000997D
:20497000504607F04DFF01E0006880472868C3690DF105016A4601A898470028BED0D9F8BF
:20499000000030F8167027B9761CF6B20A2EF8DB23E00A2E21DAD8F804008047D9F8001082
:2049B0007700002231F807A0CA53D8F8081088472E4850F8262026705146304690470646E0
:2049D000FF202070D8F804008047D9F800107A5A16437E52D8F80810884707F0B3FC0746F5
:2049F000BB451AD007B9224FE069B84238BF071CD8F80400804782462868016A206A884778
:204A1000626A286817491B4B521C6262C6683846B047D8F8081050468847A76829686069D9
:204A300014318FB9D9F800000A270026835B33B10969606988472968D9F8000014317F1EA1
:204A500006F10206F2D103E0096988472968143109684FF0FF30884745E7C046D420002096
:204A7000B4220020D9B90000D028002024E700008EC2F528F4200020781C00202DE9F84FC9
:204A9000994692468B46064608F039FC604C0090B4F93210B4F930000AAF401A40F6F8714B
:204AB0000140082980F29E80B4F9300004F59C75401C6FF31F3020860820B4F93080EB7F5B
:204AD00033F07F0304D0401E05F12005F7D1002506F1700008F00DFCC5F808B085F81EA0CF
:204AF000C5F80490A5F81C804A48EE6097E80C00202100271940104005F1100383E8030029
:204B100004F12000EF770368002B5ED1294606F0F3FE00285FD0A6F89480E87F40F08000CF
:204B3000E87796F89600012804BF86F896706771207A40B1607830B10120607227726771F2
:204B5000E078401CE0700098FCF7D0F9606A00285BD16078002834D1A079012855D008F06B
:204B7000CEFB8146E07940BBA86806F0D3FD2B4A2949E36812680860B0B1DD680868401BE6
:204B9000B0FBF2F0012898BF012104D9DB680868C01AB0FBF2F1AC34204608F0A6FB204699
:204BB00008F0A5FB48462EE04846FCF79FF904F1D000042108F0C3FB27E0194901200870F6
:204BD000F0E7192008F09FFB1FE004F12000294606F092FE48B9B4F9300000F6FF706FF375
:204BF0001F3020866FF001080CE0A6F89480E87F40F08000E87796F89600012804BF86F8A6
:204C1000967067710098FCF771F94046BDE8F88FE8100020F1EFFF9FB8280020CC28002055
:204C3000B428002060480178042900D870472DE9F84F891F2ED0491E012900F2AA805B4C34
:204C5000A078FF2826D008F009F9804608F16C06706808F085FD82469AF80400032819D11F
:204C7000DAF80850287810F0030904D17068BDE8F24F08F071BD6F78AD1CB9F1030F0ED04B
:204C90004FB1307838B908F20F123D215170012088F80F0185E0464801780129FAD098F890
:204CB000940008F59A7B60B33F1F2B46FAB24946404608F04DFD58B908F20F113D20487019
:204CD000012088F80F01BDE8F24F3A4808F03CBD39480168884700904FF4C07098F8062048
:204CF000616842438818002180F83911DBF800109BF80600490804F097FE304900980A68FA
:204D100090470020B9F1030FCAF808002DD02C4840690078810707D5C0074CBF03200020FB
:204D3000FFB2C019285C00E0812030722549BBF83E000A78904211D3317A802918BF8129C6
:204D50000FBF7F21204A1078091A49B200914B46A078FAB2294608F0F3FC11E0A0784B46EF
:204D7000FAB2294608F0E8FC0AE00F480178082903D02946404608F0DBFC284605F03AFD10
:204D9000706808F0E9FC51464046BDE8F44F08F0CBBC002007F068FEBDE8F24F862008F0C9
:204DB00023BDBDE8F18F00BF6F4F0020684E0020794F0020AC4500207C1C0020801C0020FE
:204DD000E0E900006B4F0020704F00202DE9F04F8346ADF1140D0393BBF1000F02920E98D9
:204DF00001910F9C049000F0AC80081C00F0A980101C00F0A680181C00F0A380049800282C
:204E100000F09F80002C00F0A180206A002800F09880524D676A281D0068002F00F091802F
:204E3000A16A08F07DFC40B2002808BF6FF0020700F0838084F82C002078618800EB800016
:204E50000918143188B2216A88474349086030B92846406808F060FC4FF0FF376DE08A466F
:204E7000628823786088DAF8001026789F1800EB0109781800F1040806EB460002EB43078E
:204E900086187F18C01876188018401800F11005204605F045FD2078C01C8010C9F800000F
:204EB0002078C01C8010C8F8000020780837C01C8010386020780C36C01C801030602078D5
:204ED000C01C801028602278594609F1040002F0ABFF2278019908F1040002F0A5FF22789A
:204EF0000299381D02F0A0FF0095484641463A46334608F00DFC47B222780398331D1946A0
:204F100002F092FF22780498291D02F08DFF21786288DAF8000001EB81015218002104F0C2
:204F3000FAF8616ADAF8000088470C48406808F0F3FBF8B2992808BF002784F82C70384632
:204F500006E01CB16FF0010084F82C006FF0010005B0BDE8F08FC046884F00202C220020E2
:204F70002DE9F843614C5A4D5A4EDFF870815E4F94F8E4100846401E0B2864D8DFE800F00D
:204F90007B2C43062343062343067664042907D001220A2945F8212C14BF0220032004E07F
:204FB000202045F8210C0120024684F8E200002045F8390C0827C5F8FF7FC5F8F37F45F8F8
:204FD000392CBDE8F883052914BF09200620002784F8E400376075E094F8E170383D012006
:204FF000002FC5F81B0004BF0620002102D00021F160032084F8E400032045F8010C3160CB
:20501000306880085ED294F8E4103348012703290ED000684568002160220523009140460C
:20503000A84794F8E400062814BF0A200720CFE700684568002160220523022000904046E1
:20505000A8470420C4E7FEE72548264F0026012506600E203D6002F091FA022006F032FC7B
:2050700084F8E45084F8E360BDE8F883002038600C25786024E04FF08059D9F8A0010168D9
:20509000202088472C3D0F2045F8010C41F61D56C5F80360D9F8A401466800214FF4C0728B
:2050B0000723022540460095B047D9F8A401C66800214FF4C07207234046B04701203860E3
:2050D00084F8E45004F1780008F011F9BDE8F88339400C4038600C40A401001000A00C4037
:2050F0002C500C4004800C4034600C40641B00202DE9F04F88468246ADF1AC0D299208F094
:205110004BFB5C4CE67894F80BB0A57A94F80C90071C00F0AB8068460021A42208F01BF9C6
:205130002801279A55498DF8046005F0030300F4807605F00405ADF800A0B9F1020F01EA20
:20515000020143EA01024C4B8DF8A0B046EA020100F4C06603EA010246EA020045EA0005FD
:205170004FF00000279508BF01208DF8370008F0CBFA412809DB207B00280CBF00200820A0
:205190009DF8991008438DF89900607B002804BF00208DF8380017D001208DF8380004F1FB
:2051B000860120220DF1390007F074FD0DF1590004F1A601202207F06DFD0DF1790004F175
:2051D000C601202207F066FDA07940B18DF8260004F1500110220DF1270007F05BFD6679DC
:2051F0003EB104F16000B91D0622054607F0E8FA68B92079002804BF00208DF8050015D005
:205210008DF8050004F140010DF106000BE08DF805600DF1060005F11601102207F03AFD74
:205230000DF11600A91D102207F034FDE07930B1B8F1000F03D0279941F002012791002198
:2052500000B10121A7789DF89900002F41EA00018DF899100CBF002004209DF899100843FD
:2052700029998DF89900684608F04AFA2BB0BDE8F08FC046DC180020FBF9FFFFFCFEFFFF51
:205290000FB42DE9F04106AF8046ADF1280D07F0B7FF3E1D26F00306361D30F0010001D139
:2052B00007F058FDCDF81A601420ADF816000025CDF80E50FF248DF818407B68CDF81E3026
:2052D00008F01AFA064607F09BFF30F0010015D007F010FC4D492A468446082031F80C7F20
:2052F0004FB14B681B689E4204D0401E02F10102F4D100E0D4B2604607F037FD404606F0E8
:20531000ADFA0146FF2905D0204603220DF11A0304F0BEFB08F0F0F906F098FCA84604469C
:20533000CDF8008007F06CFF30F0010063D00098A04260D041F2883001A906F057FC009D3D
:20535000002852D108F0D4F90199012746186068019B41464FF00052FBF718FC00282BD068
:205370000DF122000DF1230102AA04F04BFDB0B99DF8220003A906F051FC38B9029A07F060
:2053900021FF00281CBF029D474615D10299684606F004FE60684FF0005108F085FA01981F
:2053B000B0F1FF3FD3D00028D1D008F0A1F9301A02D00199814216D207F0D8FA009E07F041
:2053D00099FB083401463EB1324652F80C0C40B9206842F80C0C2660084607F0C6FC3846FF
:2053F00003E00246F1E70190B1E720B92DB1284607F058FF01E007F0ADFCDDF81A00006826
:205410000AB0BDE8F04104B07047C046D81C00202DE9F04F8146ADF11C0D00F033FC06F06F
:20543000D3FD0026012804D107F098FB022808BF012651490868C0F38150012806D151F8EF
:205450000C0C0127010E07FA01F006434B48007807F010F84A4D2C46286038B1FF2204F118
:20547000400107467F1E01F8012BFBD1D9F800104FF0000801F0FF02FE2A1CD0CC4601F0CF
:20549000FF0342460127FF2B0ED0984203D907FA03F31E4201D002206AE001F0FF0143EADA
:2054B0000808611881F840205CF8041F521C01F0FF03FE2BE7D1092002F01AF9C4F8049043
:2054D00004F12400012106F0C1FD23683BB3002794354FF0040BBA460120B840064218D1CC
:2054F00018EA000F04BF07F0FF0141F4C04104D0E01990F8400059F82010224801F002FD2B
:20551000F8B24FF0FF3107F05BFA2368C5F800A001E0C5F800B07F1C2D1D9F42DCD304A8BF
:2055300007F028FD184D194A2878102104AB059004F1080005F07AFC684607F033FD0027FE
:205550006A46686803971249029004F1600005F0B9FE104951F80D0C012620F4F85040F4C1
:20557000005041F80D0C0C4DC1F8FF6F38462E6007B0BDE8F08FC046B43F0050E22800209F
:205590000C260020007FC76748E90000EDC90000DDAA00000D300940080009402DE9F84366
:2055B0005A4DA5F12C0404F1200007F0BAFE16460F46009007F0A3FE06F001088146B7F163
:2055D000FF3F0CD1606A20B9B4F93200401C07B202E0606AB0F91C70002084F8730038469B
:2055F00006F0CEFD0327002800F08A80616A814258D0009B98422ED03BB100990A6890429C
:2056100009D0096800290091F7D1832F41D04846FBF76CFC3DE004F1AC0007F06AFE00984E
:205630000168B20802D20A6802600846002202600091009818B94846FBF758FC28E0C17FA7
:2056500041F00401C177684607F0ACFA0146284606F052F9EDE704F1AC0007F04AFEB0081F
:205670003ABF206A0068002020624846FBF73EFC0099C87F40F00400C877684607F092FA4F
:205690000146284606F038F9009808B1B008EFD28327A079012836D004F1D000022107F083
:2056B0004EFE30E0B10803D3216A009100272762C27F012101FA08F11143C17707F03BFE10
:2056D0000446B8F1000F14BF1148124806F092FC4846FBF70BFCB00801D3009820B92046C4
:2056F00008F096F883270EE0C17F41F00401C177684607F057FA0146284606F0FDF8ECE765
:205710004846FBF7F3FB3846BDE8F88314110020010002040100010470B5414C414B256850
:20573000186855F8183F00224FF0FF3198473E483E4A416B3E4C88683E4D417911700026A5
:2057500007F0D2FF3C4807F0CBFF07F0C5FF3B48026800215171A02301680722CB804A7245
:205770000321026811720021036859770268D176036883F85C10012102681177036883F8AF
:205790005D100021006880F85E100EE06068F6B24FF4C071714308444279012A04D130461A
:2057B00007F05CFB07F094FF761C2978F0B28842ECD307F089FF2248224A0178117005F05F
:2057D0009FFD07F07DFF2049204A002008700021117001201E4A10701E4A11701E4A1070C3
:2057F0004FF4A4701D4A11701D4A11701D4A11701D4A11801B211D4A1180FB211C4A10804C
:2058100040F648001B4A11801B4A10801B4A11801B4A108007F050FF1A490020087070BDB6
:20583000F04E0020EC4E0020E0E90000714F0020684E00207B4F0020CC470020104F002085
:205850006D4F00207A4F0020734F0020744F0020754F0020764F0020774F0020784F002018
:20587000794F0020DC280020524F0020444F0020464F0020484F00204A4F00204C4F0020B8
:205890004E4F00206F4F00202DE9FF4104466668A7680D4607F033FD3178012903D1FBF7CD
:2058B00025FB00208FE001213170FBF71FFB287870706878B07068687060A868B060E868CA
:2058D000F06028693061287D3075687D7075A87DB075A869B061287F3077687F7077A87F83
:2058F000B0774FF00008C6F82080C6F83080454675627563B562B56386F82C50102386F84A
:205910003C3086F82D5086F83D50786801F0F0FE204601F0F9FF204602F020FB60B93868CB
:2059300006F0AEFE786801F029FE07F0E8FC3570FBF7DCFA2C4645E0684607F01BFB00948F
:20595000387B224A0190B9686B4606F1800005F06DFA684607F026FB00941D4938696A46D1
:20597000029006F19C0005F0ADFCB07830B906F1D000294606F06AFB16483061707830B9F2
:2059900006F1EC00294606F061FB1348F060684607F07FFC01958DF800501049029406F533
:2059B00084700A226B4604F097FFB969FA6906F1400007F0ACFA0A4A06F16C0004212346DE
:2059D00006F048FC20460090BDE8FF81B96500009DB500009BD2000093D200005982000045
:2059F000A5D00000F0B5514C20780D46E90BADF11C0DC90372D1A80860D2E069216A6A0803
:205A10000ED2E80828BF85F0040580F08C80680904D303F0B9FB85F0100584E0002083E065
:205A3000868861B904F11600414A00904FF6FF710223012007F03CFE0146216221B304A892
:205A500000900027019702230293FF220392E28A30460DF11203FDF77DFF58B99DF8130059
:205A70009DF81220216A12EB002204D04989304605F01AF9216AE28A08463B464FF6FF7106
:205A900007F0A6FE01462162A069002918BF85F001051AD168B143685BB1E06980880121DF
:205AB00000229847A069E7694368B88803210022984706F0CBFF85F0010534E000200146B6
:205AD000FEF732FD18B185F00205012102E0022185F00205207801F0F1FC24E002F020FB23
:205AF000071C1ED038780126B03811D0401E02D01F3808D011E0387978B97888F9883A896F
:205B100005F0D2F80AE03846FEF72EFB064604E0397907F1080007F0CFFE16B1384606F04F
:205B30005FFE85F40045A8B207B0F0BDDC1800207CE600002DE9F84F51484F4CDFF83C81E1
:205B500000264FF4877500F1040A814604F1B00BE0694FF0FF3107F0E3FD0028F8D007F0E4
:205B7000A3FD074607F09CFDA1886288E388A6801143E68043EA01022389268143EA020187
:205B9000618007F089FD3846FBF7B0F96388180A24BF23F080036380580928D3206907F039
:205BB00087FEB0B9216907F0D1FA98B9084607F06FFD071C0DD0B8684068A061B9684868FF
:205BD000498802F039FDB86805F02EFE384605F02BFE2169084607F06BFE20B9E06907F08E
:205BF0009BFD638803E0638823F01003638098082DD306F055FDD8F800200346B9F8000069
:205C100023809BB1DC461F461AF80010401CD8F800200CF8011B7F1E80B290FBF5F101FB34
:205C300005F1A0EB0100EFD1A9F80000D9B258469047E769638806F033FD002804BF23F012
:205C50000203638003D0384607F066FD6388D808FFF47EAF23F004032069638007F028FE13
:205C700000287FF475AF608840F010006080E06907F052FD6CE7C046AC0600207C210020D6
:205C9000501A00202DE9FF474C4D95F8E70000287DD141480124414F006885F8E7403E7B88
:205CB00085F8E6607B68C5F81031C0F3801085F8E80001A807F0EDFA002605F10C00029641
:205CD00001AB8DF8046036490396324604F004FE344905F1300001AB324604F0FDFD324969
:205CF00005F1540001AB8146324604F0F5FDB96820468847DFF8C0802C4808F104037A7BA3
:205D100000781868C0F3815A22B1BAF1030F04D185F8E140BAF1030F1ED0BAF1020F1BD098
:205D3000BAF1010F2CD14FF08059D9F8A401204F456831464FF040521C2303200090384639
:205D5000A847D9F8A40131464FF400720923456800943846A84713E0022005F0A7FFBAF16D
:205D7000030F0CBF4FF47A7142F2107111480068B1FBF0F1484607F0B8FA484607F0B7FA98
:205D900040460068C00802D2304605F08FFF00200090BDE8FF87C04614100940BCE800007E
:205DB00003B80000358C000079880000E228002000A00C40CC280020B03F0050641B00204E
:205DD0002DE9FE430AAFADF808303B8815460E46002B18BF0B2040F08680726851781778BF
:205DF000DFF80891002407EB012742F64D21B94264D01B39B94261D01A31B9424AD042F6F8
:205E10000218B84516D0891CB94268D1BDF80800012851D1297831F001004BD1F0680170EC
:205E3000287800280CBF02200320494609684968884754E00093BDF8083031462A4603F06C
:205E500021FF041C4ED16978287800EB012C71894F46A7F1180086794769002E3FD07B682C
:205E700013B15A89914204D0761E07F10C07F6D135E0002F33D0BCF1010F0CBF0223032344
:205E9000806902AA066800920195797A387A4246B04724E0BDF8080001280DD1287830F01B
:205EB000010107D1494609684968224600B101221046BDE7802415E00D2413E0708905F066
:205ED00065FE60B14946096802AB0E6800930195027A417A234610463A46B04704460CB976
:205EF00006F030FE2046BDE8FE83C046200200202DE9F84F5FEA00091C46924600917DD0D3
:205F1000081C7BD0BAF1000F78D0002C7BD0206A002873D03F4D616A281D006800296DD02A
:205F3000A16A07F0FDFB40B2002808BF6FF002055FD084F82C002078618800EB400009186C
:205F50000C3188B2216A88473149AB46086030B9DBF8040007F0E0FB4FF0FF3549E0884691
:205F7000668865882178D8F800008F192D183F1806EB41063618204604F0D2FC2078C01C67
:205F90008010286020783F1DC01C8010386020780836C01C8010306022784946281D01F0B0
:205FB00043FF28463A463346014607F06DFB45B2227800983B1D194601F036FF227850464C
:205FD000311D01F031FF21786288D8F8000001EB41015218002103F09EF8616AD8F8000012
:205FF0008847DBF8040007F097FBE8B2992808BF002584F82C502846BDE8F88F1CB16FF05D
:20601000010084F82C006FF00100BDE8F88FC046884F00202C2200202DE9F0410746FF2F0E
:206030001ED107F0ABF810F0070F16D0042005F001FB08B104200AE0012005F0FBFA08B12B
:20605000012004E0022005F0F5FA20B10220BDE8F04105F00BBB06F007FD0020BDE8F08171
:2060700005F004FB8046012FD8F80450334E04D0022F29D0042F3DD0EFE7022005F0DAFA82
:2060900080B1022005F0F2FA074601207C6805F0D1FA28B1A0683118A86807F0F5FB88B150
:2060B0003846DBE7042005F0C5FA28B1042005F0DDFA0746012026E0012005F0BBFA08B9EF
:2060D0004FF000084046C9E7042005F0B3FA28B1042005F0CBFA0746022014E0012005F03D
:2060F000A9FA28B1012005F0C1FA074602200AE00220E2E7012005F09DFA88B1012005F003
:20611000B5FA074604207C6805F094FA0028C7D0A0683118A86807F0B7FB0028C0D1D1E7AE
:20613000022005F087FA30B1022005F09FFA074604207C68E8E70420BFE700BF589EFFFF85
:206150002DE9F047464E0546307CADF1500DA84209D13078012105F01DFC3078022105F000
:2061700019FC06F073FC6C0004EB85040E210FAA04F1200004F120075FFA80F9F8B206F026
:20619000BBFB002867D10FA8FF21062206F0CCFC002860D104A81C2207F0DDF86846FF213F
:2061B000102207F0D8F80DF12C0A04F123001021C0B25246804606F09FFB90B929480778C0
:2061D000FF211022504606F0AFFC50B93FB99DF842000FA900F0010007F0D6FA01E00120DC
:2061F000B0740FA8FF210E2207F0B5F848460E210FAA00F05FFA04AF06461C2104F12100AF
:206210003A46C0B200F056FA1C2106433A4604F12200C0B200F04EFA102106433A464046F5
:2062300000F048FA102106433A4604F12400C0B200F040FA2534042106433A46E0B200F0A4
:2062500039FA703510216A4640EA0604E8B200F031FA204300E0002014B0BDE8F087C04643
:20627000DC1800205A4F00202DE9FE4305F036FADFF80C81814608F1020000880027011FC0
:206290008CB26FF00301401880B204285ADBFF254FF6FF7620466946042205F05FFCBDF844
:2062B00000309E4237D0002B35D0D80BC2032FD19D422DD0381FDDB280B2042815DBB0F52A
:2062D000805F12DA00F18852126801A90A60BDF804108D4207D0BDF80610401A001F80B2A5
:2062F0000428ECDA01E0012300E00023BDF802001BBB211A001D8BB282B207F1885118460F
:2063100005F02CFCBDF80200C119091D8FB214E0BDF8020011E0BDF8020003466FF30E0349
:2063300063B9011D8C4208DA002006F09DFB484606F07EFB0020BDE8FE83241A241FA4B29B
:20635000042CA7DA04F032FE3FB10C484FF088513A4606F067FF06F0A9FD484606F068FB9D
:206370004246507800281CBF0020011C03D1C7F58054391DA0B25180BDE8FE8304E0010095
:20639000AC2200202DE9FC410746BE6833687D68986B20F4FA609863AC6B44B13168886BB5
:2063B00040F4FA6088634FF0FF30BDE8FC81AA6329630024EC776C630CE09DF80000296BC0
:2063D00008706B6B286BAA6B401C2863581C6863501EA863A86B90B93168886B40F4FA60A2
:2063F00088636A6B6878296B0128A1EB0201296303D1EB68384698476A6B144646E005F146
:206410004000694604F012FE0028D6D506F077FF204F8046387820B9022005F047FC012001
:2064300038704046FAF762FD1B49086840F4007008603168886B40F4FA6088636878D8B978
:20645000696805F1EC0006F06BFD90B1AC6306F056FF0646387818B1022005F033FA3C70CB
:206470003046FAF743FD1027696B286BEF77401A2863686BBDE8FC8195F82D0030B1686B19
:2064900020B1AC6305F19C0006F05BFF2046BDE8FC81C046D828002030100040F8B506F059
:2064B00069FB3F4E3D4F0446A00822D3796A01B33D46002068628A69086906F1080320409E
:2064D000104340F0020088610A6918689043186001F1100090E80C0030681A1C9043306049
:2064F00005F12C0005F008FA022105F1D00006F026FF786AA10814D200F110020CCA002104
:2065100022400B4008BF002A0BD0016985690C40B8622C434FF48041846107F1D00006F01E
:206530000EFF786A002837D107F12004204606F0F8FE051C30D0F868E968884226D1A8681B
:2065500005F0E8F817490860E0B906F1080128690A6810430860326805F1100393E8030016
:20657000081C1043306000233361A86846F80C0C06F1100000680028FAD0204606F012FB1D
:206590007D62F8BD086803F0E7F9F8BD07F1D0004FF4805106F0D3FEF8BDC046E8100020E9
:2065B0000C100440B82800202DE9F8438146D9F808703868066CD9F8045046646A6CAB6C3C
:2065D000A86B16F4F06F0146A2EB03082AD1F00911D270095DD301B395F83C40641EA142AE
:2065F00098BF0C1C4846214605F093FCA86B001BA8630DD04DE081B1484605F08AFC95F888
:206610002D10A86311B9002843D101E00020A86305F19C0006F095FE3BE04846414605F0D0
:20663000B9FE36E0F20A19D24FF00008444602E0A86B401EA86340B34846012105F069FC6A
:206650003868446814F00F04C0F80480F0D0286B401E2863686B401E686316E03868446811
:206670000022202904F00F044260CCBF20270F1C4846394605F04DFCC7F12007B845C8BF4B
:20669000B8464846414605F085FEEC77484603F02FF9B0090BD3A96A49B10F46484605F0D7
:2066B0004FFCA86218B94846391D03F0BDFFBDE8F88370472DE9FE4F3B4D4FF0000A93462D
:2066D0000290884685F801A003F092FD071C1BD0B8F1000F08BF544614D0ABF1010946466D
:2066F0005446384601A9012205F038FA9DF8041019F8010F884205D17F1C761E04F10104EB
:20671000BFB2EED1A0454CD06F8808F103004FF6FC7440F6FC7104EA0006B819814204DA87
:2067300006F088FCFFF7A0FD6F88E41C46F40040ADF80040BB19ADF80200694601229CB24B
:20675000204602F0E7F9BDF80200694601226FF3DF30ADF80200204602F0DCF9B0105946C4
:20677000C2B2384602F0D6F902986946012240F40040ADF80000204602F0CCF9BDF80000FF
:20679000694601226FF3DF30ADF80000204602F0C1F9687820B968888019001D688000E0C8
