:2000000000400020B5CE000001C9011001C9011001C9011001C9011001C9011001C90110DB
:1C00200001C9011001C9011001C9011001C9011001C9011001C901103FC9011089
:20003C002DE9F84FDFF81885DFF8181588F80000002008600821DFF8100501700D21418052
:20005C004FF408718180DFF80405DFF8041501608A7EDFF800050270FF2ACB7E437008BF54
:20007C00FF2B0D7F85704E7FC6708F7F0771C97F417115D1FF2D08BFFF2E11D1FF2F08BF59
:20009C00FF290DD1DFF8D0140A7802704A7842708A788270CA78C2700A7902714979417149
:2000BC00DFF8B81402780A70FF2542784A7082788A70C278CA7002790A714079DFF8A02443
:2000DC0048710021DFF89C04057045708570C570057145711180DFF89004DFF89014466B0B
:2000FC00DFF88C247078087031781170B078DFF884140870B1680879DFF87C14421E0A70E9
:20011C00F078DFF878140870F068DFF87414086008B90EF079FC3069DFF86844206008B9D0
:20013C000EF072FC2068DFF8607401688847216851F8042F38469047DFF85004DFF850140C
:20015C003862DFF8500478627069086008B90EF05BFCB069DFF84014086008B90EF054FCD2
:20017C00DFF838B4DFF838649BF804000FF00EFA306008B900F045B99BF80500DFF8247449
:20019C000FF004FA386008B9306837E19BF80600DFF814440FF0FAF9206020B930680FF093
:2001BC00FDF938682AE19BF80700DFF800940FF0EDF9C9F8000038B930680FF0EFF93868C7
:2001DC000FF0ECF9206819E1DFF8A4130A789BF80000DFF8DCA3921C504380B20FF0D6F963
:2001FC00CAF8080058B930680FF0D8F938680FF0D5F920680FF0D2F9D9F80000FEE0DC480E
:20021C000078002800F00281BBF80210DFF8A4B3484380B20FF0BAF9CBF8040078B93068BD
:20023C000FF0BCF938680FF0B9F920680FF0B6F9D9F800000FF0B2F9DAF80800DEE0CC4840
:20025C0000780FF0A3F9DC49086080B930680FF0A5F938680FF0A2F9D9F800000FF09EF9D3
:20027C00DAF808000FF09AF9DBF80400C6E0C0480078182148430FF089F9D04A1060B0B9C1
:20029C0030680FF08BF938680FF088F920680FF085F9D9F800000FF081F9DAF808000FF0DF
:2002BC007DF9DBF804000FF079F9C348A5E0B048007840010FF06AF9C1490860D8B9306826
:2002DC000FF06CF938680FF069F920680FF066F9D9F800000FF062F9DAF808000FF05EF95C
:2002FC00DBF804000FF05AF9B34800680FF056F9B249086882E09E48007800010FF046F99E
:20031C00B0490860F0B930680FF048F938680FF045F920680FF042F9D9F800000FF03EF939
:20033C00DAF808000FF03AF9DBF804000FF036F9A14800680FF032F9A04908680FF02EF996
:20035C009F485AE08A48007800010FF01FF99E49086018BB30680FF021F938680FF01EF975
:20037C0020680FF01BF9D9F800000FF017F9DAF808000FF013F9DBF804000FF00FF98E484D
:20039C0000680FF00BF98D4908680FF007F98C4800680FF003F98B4908682FE074480078D3
:2003BC00302148430FF0F2F8884A106070BB30680FF0F4F838680FF0F1F820680FF0EEF877
:2003DC00D9F800000FF0EAF8DAF808000FF0E6F8DBF804000FF0E2F8774800680FF0DEF8EC
:2003FC00764908680FF0DAF8754800680FF0D6F8744908680FF0D2F8734800680FF0CEF811
:20041C0000200EF001FB4FF4804192E03168012008713068057331684D733068857331686B
:20043C00CD7330680574002031684D743268D072A0223168487103213068C280017207204D
:20045C00316848720020326890722821306841820121C176002031684877326882F85E008A
:20047C00012031680877326882F85D00396808713868057339684D73386885733968CD73AA
:20049C0038680574002039684D743A68D072396848713A6890724FF4207039680022C880E5
:2004BC0008818A7401213A68D17421680D732268557321688D732268D57321680D740021AF
:2004DC00226855742368D9720121226811710021236859712168C880088100208872216836
:2004FC00887405202268D0743948016888472A490A6805461068804727490A6852F8043F5A
:20051C000020984718481D4BC16818780A88314902430A80284630490A6890470C212F4890
:20053C0000F05EF80F4800F05FF800F061F84FF4005198F80000BDE8F44F07F0AFB900BF48
:20055C006E4F0020044F0020604E0020084F0020B63F00502C4E0020E81200503C4E002017
:20057C000C4F0020344E0020A40C01006D4F00207B4F00206B4F0020724F00206C4F002035
:20059C00F04E0020F44E00207C4B0020A9F50000F84E0020B9F50000FC4E0020980E0020B6
:2005BC00104F0020144F0020184F00201C4F0020601F0020684E0020004F0020804E002039
:2005DC00844E0020884E00208C4E0020904E0020B00C0020544F0020B40C0020F84D00203B
:2005FC00DFF800F0E5710110DFF800F01D6E0110DFF800F04D71011000B5ADF1140D0292B0
:20061C008DF80E10ADF80C0000208DF80F004FE29DF80E00102805D10299AC48102208F01B
:20063C008FFF85E218208DF80F0081E29DF80E00102805D10299AF48102208F081FF77E234
:20065C0018208DF80F0073E29DF80E00042804D10298B049006808606AE218208DF80F003E
:20067C0066E29DF80E00012844D1AD48007801283CD0AC4800788DF810000298A94900788E
:20069C0008709DF81000B0B1A648007898B9AF480078022804D0AD480078052840F0488208
:2006BC00AB48017850200CF0B3FBAA490246102008F0DCFA3CE29DF81000002840F038828A
:2006DC0098480078002800F03382A0480078012808D09E480078042804D09C480078052891
:2006FC0040F0268201200EF01DFE21E212208DF80F001DE218208DF80F0019E29DF80E009A
:20071C0001284CD187480078012844D0844800788DF8100002988249007808709DF8100020
:20073C00D0B17F480078B8B988480078032808D086480078072804D084480078052840F037
:20075C00F7818348017850200CF062FB81490246102008F08BFAEBE19DF81000002840F070
:20077C00E7816F480078002800F0E2817748007801280CD075480078042808D073480078A3
:20079C00062804D071480078052840F0D18101200EF0C8FDCCE112208DF80F00C8E1182023
:2007BC008DF80F00C4E19DF80E00022804D10298B84900880880BBE118208DF80F00B7E197
:2007DC009DF80E001F2821DCB54800211F2209F04FFF02999DF80E20B14808F0B1FE9DF8DD
:2007FC000E00B04908705A48017850200CF010FB0246AC480078AC490090A94801230190ED
:20081C00102008F033FA8DF80F0091E118208DF80F008DE19DF80E001F2821DCA348002134
:20083C001F2209F025FF02999DF80E209F4808F087FE9DF80E00C0490870454801785020E2
:20085C000CF0E6FA0246BC48007897490090974800230190102008F009FA8DF80F0067E1D2
:20087C0018208DF80F0063E19DF80E00012808D102980078042804DC0298B0490078087006
:20089C0056E118208DF80F0052E19DF80E00012808D102980078032804DC0298A849007841
:2008BC00087045E118208DF80F0041E19DF80E00062806D10298A34902680A60808888807E
:2008DC0036E118208DF80F0032E1C046101F00209DF80E00012808D102980078072804DCEB
:2008FC00029899490078087022E118208DF80F001EE1C046201F00209DF80E0001280BD195
:20091C0002980078032807DC02989049007808700EE1C046F41E002018208DF80F0007E15D
:20093C00CD0C0020CC0C00209DF80E00012808D102980078062804DA02988549007808708F
:20095C00F6E018208DF80F00F2E0C046F01E0020E81E00209945011002980088ADF81000E7
:20097C009DF80E0002280DD1BDF81000062809DBBDF81000B0F5486F04DCBDF81000754955
:20099C000880D5E018208DF80F00D1E002980088ADF810009DF80E0002280DD1BDF810003A
:2009BC00062809DBBDF81000B0F5486F04DCBDF8100069490880BBE018208DF80F00B7E00B
:2009DC0002980088ADF810009DF80E00022809D1BDF81000B0F5FA7F04DABDF810005F494F
:2009FC000880A5E018208DF80F00A1E002980088ADF810009DF80E0002280DD1BDF810003A
:200A1C000A2809DBBDF81000B0F5486F04DCBDF81000534908808BE018208DF80F0087E01C
:200A3C00029800788DF810009DF80E00012819D19DF81000012815D14A480EF03FF968B9A0
:200A5C004349002007F014FA8DF80F009DF80F0000286DD144480EF03DFC69E016208DF864
:200A7C000F0065E018208DF80F0061E0BDF80C00282811DA9DF80E0002280DD102983B4934
:200A9C00BDF80C200388102008F0F0F88DF80F004EE0C046CE0C002002208DF80F0047E01F
:200ABC00700C0020D00C0020094501108F0C0020BDF80C00A0F201301A28D7D801A151F808
:200ADC00200087462D0600004906000065060000890A00007F060000C3070000DD0700005A
:200AFC003108000085080000A7080000C9080000ED08000015090000890A0000890A00005B
:200B1C004509000075090000A9090000DD090000090A0000890A0000890A0000890A000089
:200B3C00890A00003D0A0000890A0000190700009DF80F0005B000BDD10C0020F81E0020C3
:200B5C00F91E0020270F0020FA1E0020FB1E0020640E0020660E0020680E00206A0E002027
:200B7C006C0E0020FC1D0020D81D0020BD84011010B5ADF1280D019100900198C00B2DD301
:200B9C000EF077FE0690A8480EF04FFD02900298E0B10298006A800818D20298006A05902A
:200BBC000299059A086A90430862069800F08EF90298406868B1029802994468059A0298A6
:200BDC00B1F92410C0680023A04702E0069800F07DF9019820F48040019041E101988008C2
:200BFC0010D304F07FFF019820F002000190A0480EF01BFD002800F03381019840F00200B3
:200C1C0001902DE10198800FC0F0B4809948007828B104200DF082F8964900200870009831
:200C3C008068008840F60201814205D0009880680088B0F5C15F09D1009880681030018867
:200C5C0021F47C7141F43471018008E0009880681830018821F47C7141F4347101808648B7
:200C7C000068002843D08548006801680420884700283CD080480068039081480068006B91
:200C9C00804704900098C068079003980499884203D203990498401A02E003990498401AA9
:200CBC000099C8600098C168090BC16000980099428AC8688018C86000980799C06888424A
:200CDC0006D20098C1680798401800994008C8600098C06840F6C411814204D30098C0683A
:200CFC00B0F5FA7F03D2009840F6C411C1606548007810F00F0F10D10098408C40F6090159
:200D1C0081420AD1009880690790079C00986FF4807100224FF00073A0475B485B4900224E
:200D3C000EF0ADFD5A48007868B10220ADF81C0007A80DF049FCBDF8240056494011088097
:200D5C005349002008705449012008705349002008700AF027F9009840690690069C0098AE
:200D7C00002100224FF08063A047019820F00050019075E00198000958D34948007818B18D
:200D9C0047490020087049E04648006870300EF06CFD06A809F00EFE8DF81C009DF81C00E4
:200DBC0018B1414806990EF0A3F93B49002008703E49012008703E480EF028FA05F074F849
:200DDC003C48007820B93748006838300EF05FFD02200CF0A3FF112007F032FA0098007C51
:200DFC0010B90E2007F02CFA33480078012805D131490020087005200CF090FF2B4900207B
:200E1C0008702E49002008702D48007830B12C49002008702B4804210EF03FFD019820F0D9
:200E3C00080001901CE0C046C81E00200198800B16D325480EF0F9FB0290029860B10298B2
:200E5C00406848B10298029944680298B1F92410C06800222023A047019820F4005001907A
:200E7C00019818B1019917480EF017FD0AB010BDCC1E0020FA1C0020E01C0020E001001015
:200E9C008C010010091F0020581E0020AD6E0000F11C00203C1C0020F41C0020F51C00209A
:200EBC00F81C0020DC1C0020241D0020F61C002001600000F01C0020F91C0020F71C002042
:200EDC00F31C0020401C0020C41E0020DFF800F061C0011003B42DE9F04F09AF3D4DB878D2
:200EFC004FF000089A461646ADF10C0D85F8018083460AF04DFC071C19D04446AEB136481F
:200F1C00000B5FFA80F94846394601AA01230CF055FC1AF804009DF80410884205D1641CD0
:200F3C007F1CE4B2BFB2A642EDDCA6424BD0F61C4FF6FC7707EA06046E8840F6FC71301998
:200F5C00814204DA0EF03AFB05F0AEFA6E88FF1C44F40040ADF800703319ADF802006946C4
:200F7C0001229FB2384609F003F8BDF80200694601226FF3DF30ADF80200384608F0F8FF61
:200F9C00A0105146C2B2304608F0F2FF4BF4004B69460122ADF800B0384608F0E9FFBDF857
:200FBC000000694601226FF3DF30ADF80000384608F0DEFF6878002818BF804603D1688871
:200FDC000019001D6880404603B0BDE8F04F02B07047C0463C0F002000E001004FF0FF3190
:040FFC0001607047D9
:20100000B41200001810000015AB0110FDB301106DC00110FDAE011099B5011000000000F7
:08102000000000002D0000009B
:20102800B01200003C100000B1C00110A9BF011067C0011069B80110000000000000000035
:041048003000000074
:20104C00B012000060100000BDC00110CDB30110D9BD01106DB3011000000000000000005B
:04106C00310000004F
:2010700000000000B80E002004000000000000000000000020000000E8C901103000000064
:2010900028100000C00E00200400000000000000000000000C000000D8CA0110180000003F
:2010B0004C100000C80E002004000000000000000000000024000000F0CA011018000000C3
:2010D00000000000D00E00200400000000000000000000001000000018CA01102C000000CF
:2010F00000100000E00E0020040000000000000000000000200000006CCA01102400000033
:20111000FFFFFFFFE80E00200400000000000000000000002800000090CA011024000000F2
:20113000FFFFFFFFF00E00200400000000000000000000001400000008CB01101800000071
:20115000FFFFFFFFF80E002004000000000000000000000058000000B4C90110340000003F
:20117000FFFFFFFF000F00200400000000000000000000001000000020CB0110180000000C
:20119000FFFFFFFF080F00200400000000000000000000001C000000B4CA01102400000039
:2011B000FFFFFFFF100F00200400000000000000000000003800000044CA01102800000061
:2011D000FFFFFFFF180F00200400000000000000000000005400000078C901103C000000D6
:0811F00001000000540C010095
:0411F80001000000F2
:0411FC0000000E00E1
:0412000000000F00DB
:0412040032000000B4
:0412080001000000E1
:04120C00E80C0020CA
:0412100000020000D8
:0412140000000000D6
:0412180001C90110F7
:04121C0000000000CE
:0412200000000000CA
:0412240008000000BE
:0412280000002200A0
:04122C00E80A0020AC
:0412300000000000BA
:0412340000000000B6
:0412380008000000AA
:04123C00300C002052
:0412400000000000AA
:0412440000000000A6
:04124800080000009A
:04124C00000000009E
:04125000000000009A
:041254000000000096
:041258000000000092
:04125C00010000008D
:04126000800B0020DF
:041264000600000080
:041268000100000081
:04126C00500A002004
:04127000000000007A
:041274000000000076
:041278000002000070
:04127C00000000006E
:02128000290043
:02128200010069
:02128400250043
:02128600300036
:02128800310033
:02128A002D0035
:02128C0001005F
:01128E00015E
:0812900003000000C80B01007F
:0812980000000000000000004E
:0412A0000000010049
:0412A4000000030043
:0412A80013C401105A
:0412AC0039F1000014
:0412B000B812000070
:0412B400B81200006C
:0412B8000000000032
:0412BC00580E0020A8
:0412C00097F400009F
:0412C4002000000006
:0412C800300B0100E6
:0412CC00200A0100F3
:0412D00029C101101F
:0412D40047E30000EC
:0412D80077E50000B6
:0412DC00A1C7011095
:0412E000A3C701108F
:0412E4000000000006
:0412E8006F0A010088
:0412EC00C408010031
:0412F000DC08010015
:0412F400AC08010041
:0212F8000200F2
:0212FA000900E9
:0212FC000100EF
:0212FE000000EE
:0113000001EB
:04130400A5F300004D
:0413080091DB000075
:04130C00B9E700003D
:0413100009DE0000F2
:041314003DDE0000BA
:0413180049CC0000BC
:04131C00DDAE000042
:041320007FF6000054
:04132400B5BE000052
:0413280015C70110D4
:04132C0025C70110C0
:2013300000B5ADF1240D029000208DF80C0045E202980490049840788DF814009DF81400EB
:2013500058BBA648A649022210230090102007F093FCA84803221023A1490090102007F007
:201370008BFC0498A849C01C02680A6080888880A64801210170A648017850200BF04EFDEB
:201390000246A4480078A5490090A34801230190102007F071FC8DF814009DF8140010B1DC
:2013B0009A480821017001208DF80C0030E20298049004984078002830D10498C07890B11D
:2013D0009348017850200BF029FD02469448007892490090A94800230190102007F04CFCFD
:2013F000049948701AE089480078022816D087480078072812D085480078062803D1A548A9
:20141000007801280AD181480078032806D0A9480DF05AFC10B901200DF08AFF04984078F6
:20143000002800F0F58179480821017001208DF80C00EDE1029804900498407800283CD17C
:2014500002988078032812D170480078062803D16E480721017033E0A948007818B16B4863
:20147000022101702CE069480321017028E0AC48008858B1A248007810B98648007880B147
:20149000A74801888B480BF0FFFA0AE09C480078012803D19A490020087002E07D49002077
:2014B00008705A480078072803D158480621017006E056480421017002E05448082101701D
:2014D00001208DF80C00A3E10298049004984078002842D10498B449001D02680A60808877
:2014F00088800498B149408908804848062101700498AF49C08908800498AE49008A0880BB
:201510000498AD49408A08800498B649C0780870B5480078012803D0B348007802280ED19F
:20153000B24910201F2207F0A7FBADF81400BDF814004FF47A714143AD480BF0A5FA049837
:201550004089AC490090042001900498049BC2781B1D102007F090FB0DE00498407831287F
:2015700006D167490020087028480421017002E026480821017001208DF80C0048E10298D7
:2015900004900498AC498288102007F075FB86480021062209F072F88549002008808549B7
:2015B000002008808449002008800498A349807908708F480DF094FEA1480DF091FE012009
:2015D0008DF80C0079494FF6FF7008803148007840B10E48032101701AE1C046101F00204F
:2015F000DBEB000004988079082805D107480521017004E0201F002004480421017001204E
:201610000DF096FE04E1C046981F0020F01E0020E81E0020D00C0020700C0020094501101C
:20163000D10C00200298049085480DF059FE04984078002840F0EC8004985D49C088088024
:2016500004985C490089088004985B494089088067480DF039FB002840F0DA8079480068DC
:20167000002800F0D580774852490068524A036809884F48128800889847C9E08F0C002097
:20169000029804900498704982880523102007F0F3FABDE0CD0C0020029804900498808809
:2016B000ADF8140050480078052805D100208DF81E0072E0B41D002001208DF81E004C48F0
:2016D0000DF00EFE48480078012803D046480078042839D15D4804990088C988884202DDED
:2016F0005A48008801E00498C088ADF816005848049900880989884204DD5548008803E026
:20171000CC0C002004980089ADF818005148049900884989884205DD4E48008804E0C0469B
:20173000CE0C002004984089ADF81A004A48049900888989884202DD4748008801E0049875
:201750008089ADF81C0028E027480078032803D025480078022810D13C480088ADF816000B
:201770003B480088ADF818003A480088ADF81A0039480088ADF81C000FE00498C088ADF886
:20179000160004980089ADF8180004984089ADF81A0004988089ADF81C003049102005AA5F
:2017B00007F06AFA34E0C0462D0F0020D20C0020D40C0020D60C0020D80C002002988078B2
:2017D000052819DC05283FF47FAE00283FF4B0AD801E3FF4ECAD401E3FF42CAE401E3FF42C
:2017F00029AE15E0DA0C0020640E0020F5840110D81D002089710000801F3FF4C0AE401E3E
:201810003FF410AF08383FF43BAF801E3FF444AF9DF80C0001280CD11148006848B11048EC
:201830000068006828B10E48006801680D480078884709B000BDC04619C30000DB0C0020CD
:20185000FC1D0020E40C0020C1170110660E0020680E00206A0E00206C0E002005160110BE
:20187000E00C0020F01E0020BB482DE9F84F0025BA4CB849056094F8E200002800F06581C1
:20189000012800F02F81B64E02283CD0032840F05C8151F8250CD4F8B8100029A0F5C06011
:2018B000C4F8D400B8BF49420028B8BF4042814226DA4FF08057D7F8A4014568B4F8BC0003
:2018D00030214FF47F42082300903046A847D7F8A4014568B4F8C00004214FF4F80212235F
:2018F00000903046A847D7F8A401B4F8D070456820214FF440620A2330460097A847012561
:2019100084F8D8501CE151F8258C0DF0DBFE2F4600B901273946934F38680028FCD0B14604
:20193000012609F10409D9F82CA03E6009B10DF0CFFECAF30720C4F8BC000DF0C3FEAA46A0
:2019500000B9B2463B68002BFCD0D9F800B0BAF1000F3E6001D00DF0BBFECBF38440C4F88E
:20197000C0000DF0AFFEAA4600B9B2463B68002BFCD0D9F81C90BAF1000F3E6001D00DF00F
:20199000A7FEC9F38120C4F8D000B8F5C061C4F8B81000F09C8094F8D80068B9C4F8D41026
:2019B000D4F8C000C4F8C800D4F8BC70C4F8C470D4F8D030C4F8CC30D4F8D410D4F8BC3033
:2019D000002954BF02206FF0010004F1C802176801EB41014018411000EB917107EBA100A4
:2019F0001060D4F8C810C4F8C43000291CDD1E293CDDD4F8CC0030B93429B4BF15391E21B3
:201A1000C4F8C81025E02A29BABFD4F8C8000B381E20C4F8C800D4F8C4003F28B4BF401CF2
:201A30003F20C4F8C4001FE0D4F8CC00032812D011F10B0FC6BFD4F8C8000B30301CC4F89B
:201A5000C800D4F8C4000028C4BF401E051CC4F8C450032508E011F1150FC6BFD4F8C800D5
:201A70001530301CC4F8C800C4F8CC504FF08057D7F8A401B4F8C43030214FF47F4245683D
:201A9000374800930823A847D7F8A40104214FF400321123456832480096A847B4F8C86048
:201AB000D7F8A40104214FF4F802122345682C480096A847D7F8A40120214FF440620A239E
:201AD000B4F8CC60456826480096A84701E084F8D85040F2FF50404502D8801C40452FD2F7
:201AF000082030E051F8251C1F4F4BF2F5204843060A3868C0F3814001280CD11B480068D4
:201B1000006880470BF018FD0DF0E8FD3111C010484306EBE03694F8E50030B914480068D2
:201B300020F07F408019460801E084F8E5501148310C0660012741600F4D8760287808B9E4
:201B50000B2000E0052084F8E40003F0C1FABDE8F88FC0462D400C402C500C4090070020CD
:201B700000A00C4000800C40B43F0050EC010010102009403C600C40190B01002DE9F04F82
:201B9000B64D686885B0019020B905B0BDE8F04F0EF02CB90178DFF8C882B24EDFF8C8927C
:201BB000DFF8C8A201291CBF0229042946F2A81741F64C5B05D0402918BF802900F09A80DA
:201BD00043E10DF0CDFD0028FAD00198007804F09BFD0090446814B900200CF01BFF9AF8AA
:201BF0000100002860D001F0BDFA0DF083FB02900168009801914F6809F0CAFB022827D09E
:201C100000990A78012ADBD1994B19680A7A19F80230337018B90EF0E5F85844A060206922
:201C3000C17E01F0EF01C1762069C17E41F08001C1762069C17E01F0F00141F00201C17677
:201C50008C48B96841182069C16101210098A0E001980178802913D108228748327001788E
:201C7000012903D09AF80100012803DD38690121C17213E0D8F828103A690878D0720DE078
:201C90007D49072030700A783869012A02D10123C37203E0D8F828104A78C27202988179B8
:201CB00001988AF80210CBE00098002888D00199009A0078914205D101281CBF00200CF0AF
:201CD000A9FE15E0012840F0C080694801680A7A19F8020030700EF085F83918A0680EF09C
:201CF0007DF818B90EF07EF85844A0600120A8700098A5E09AF8010000287DD001F032FA03
:201D10000DF0F8FA04462068029047689AF802000DF0F0FA03900DF029FD10F0070F3DD05D
:201D3000A87804F0F1FC0190416801980091029909F02EFB022831D001990A78012A2AD104
:201D50004B4B19680A7A19F80230337028B90EF049F883440098C0F808B000990869C17EBA
:201D700001F0EF01C17600980069C17E41F08001C17600980069C17E01F0F00141F00201BC
:201D9000C176009AB9683B4841181069C16101210198A97054E000200CF03CFE0398A042EF
:201DB00028D002980178802913D10822324832700178012903D09AF80100012803DD386982
:201DD0000121C17213E0D8F828103A690878D0720DE02949072030700A783869012A02D1F7
:201DF0000123C37203E0D8F828104A78C272A0798AF80200029823E00DF0B8FC10F0070F98
:201E100029D0A87804F080FC04462078D4F80480012820D116490A68107A19F800103170C0
:201E30000DF0E0FF3918D8F808000DF0D7FF20B90DF0D8FF5844C8F808000120A87020460A
:201E500005B0BDE8F04F05F049BF05B0BDE8F04F00200CF0DFBD05B0BDE8F08F601F002013
:201E7000A40C01006F4F0020289A0110684E0020104F0020F0D8FFFF734F00202DE9F04F9E
:201E90000C46E00789B00BD50DF066FB28B100218160A448006800B1804784F001003EE147
:201EB000A00710D5002006900021049000230290009005910393019101223C200DF08AFF13
:201ED00084F002002BE11D256007974E974F40F18A8000200790834695498878FF2804BF79
:201EF00000200CF097FD386890F8A0000DF002FA80463868C07A98F82691022818BF03284E
:201F100008F5907A06D106F10D000DF05FFF08B906F1070B514648460DF054FF88B338685A
:201F3000807A002818BF012804D1314650460DF045FF04E05246494630460DF03BFFFF286D
:201F500034D005FB00F906EB090506225146E81D0DF03EF816F8090040F00209E81D079090
:201F700006223868817E01F0010188F8261105F1010A386800F1140108F590700DF028F81F
:201F900014E0514648460DF011FF78B15246494630460DF00FFFFF2808D006F10D014543AE
:201FB00048190DF013FF08B149F0020908F12C004B4601780691418909090591B8F822207A
:201FD000079904920122C088029140080390CDF804B0CDF800A0002098F806100DF0FAFE49
:201FF00084F004009BE0200610D50020069000210490002302900090059103930191012242
:202010003B200DF0E7FE84F0800088E0E0043BD5F11D06F10D000DF0C5FE386841790129CD
:2020300023D1017A012918BF04291ED1C17A022918BF032919D1817E00F1140230460DF038
:20205000B9FEFF2811D04543354405F10D000DF0BDFE50B9E91D05F10D000DF0A3FE3868A5
:202070000622E91D14300CF0B3FF324932484A6800784FF480510AF0BBFD10B18E2008F0E4
:202090003FFA84F480504AE0A00505D50DF01AFB2A4901200860FEE7610504D507F021FCC0
:2020B00084F480603BE0600405D5812008F028FA84F4804033E0A00430D5214D286810B1F1
:2020D00000200CF0A7FC4FF0FF3028600DF066FE1C4D296851F8202F684690471A48016AF6
:2020F000426A2D68009101921849029100F128014A6809781368C06903938DF81010ADF8A6
:2021100012006B462E68124A12491348B0471349086003F02BFA84F4005000E0002009B0F0
:20213000BDE8F08F204F0020AC450020104F0020684E0020784E00206E4F0020FC00204354
:20215000044F0020F04E0020200B002059F500002C4D00206845002088490020EC4E002054
:202170000EB50091ADF8040000208DF80600A8E07948009900780870EAE000987749102281
:2021900007F0E4F9E4E000987549102207F0DEF9DEE07448009900680860D9E07249009852
:2021B0000A68026089888180D2E07048009900780870CDE06E48009900780870C8E06D48ED
:2021D000009900880880C3E06B4900980A786B4907F0BCF9BCE06A4900980A78694907F063
:2021F000B5F9B5E06848009900780870B0E06748009900780870ABE0654900980A680260E6
:2022100089888180A4E063480099007808709FE061480099007808709AE0604800990088F0
:20223000088095E05E4800990078088090E05D480099008808808BE05B48009900880880DD
:2022500086E05A4800990088088081E058480099008808807CE0574900980A68026089889A
:20227000818075E0544800990088088070E053480099008808806BE0514800990088088092
:2022900066E0504800990078087061E04E480099007808705CE04D4800990078087057E0D6
:2022B000BDF80400282808DA4949BDF80420102006F0E2FC009908804AE002208DF80600BC
:2022D00046E0BDF80400A0F540701D28E8D802A151F820008746C046812100008B21000098
:2022F00097210000A3210000AD210000BB210000CF210000D9210000E7210000F5210000A0
:20231000FF2100000922000017220000212200002B220000B1220000352200003F2200000E
:2023300049220000532200005D22000067220000752200007F22000089220000B1220000EF
:202350009D220000C521000093220000A72200009DF806000EBDC046F11E0020101F002060
:20237000201F0020F41E0020981F0020CC0C0020CD0C0020CE0C0020D00C0020700C002062
:20239000D10C00208F0C0020F81E0020F91E0020270F0020FA1E0020FB1E0020D20C002043
:2023B000640E0020660E0020680E00206A0E00206C0E00202D0F0020D40C0020D60C0020C1
:2023D000D80C0020DA0C0020F01E0020DB0C0020F58401100EB500208DF808006448007890
:2023F00080000DF071F8614908606048006808B91320BAE05E48007880000DF065F85D4999
:2024100008605C48006828B9584800680DF048F91320AAE05648007880000DF055F85649D5
:2024300008605548006848B9504800680DF038F9504800680DF034F9132096E04B49096818
:202450004FF6FF7008F0ACFB4A4909684FF6FF7008F0A6FB484909684FF6FF7008F0A0FB7F
:20247000102000904649474A44481D230190102006F002FC8DF8080043480168022006F052
:202490007BFF43484149007808704348414900780870434841490088088043484149086006
:2024B00042490120087043484149007808704348414900780870434841490088088042492E
:2024D00000200860414901200870314840490078087031483F490078087040483E490088C7
:2024F000088040483E4908603F490020087031483E490078087031483D49007808703E4848
:202510003C49008808803D49002008603C49002008703C49012008703B49012008703C482C
:202530003A49008808803C483A4908603B49002008703C483A49007808703C483A490078F7
:2025500008703C483A49008808803B49002008603A49012008703A49032006F00DFF0F49B4
:2025700007200CF013F89DF808000EBD941E0020694F00209C1E0020A41E0020A40B01009F
:20259000ADE0000008020020240200207C1A0020390F00207D1A00203A0F0020741A002042
:2025B000D2020020781A0020D80200207E1A0020881A0020680F0020891A0020690F0020FF
:2025D000801A002012030020841A00208A1A0020941A0020951A00208C1A002042030020B2
:2025F000901A002048030020961A0020A01A0020A11A0020981A0020720300209C1A0020D4
:20261000A21A0020AC1A0020AD1A0020A41A002092030020A81A002098030020AE1A0020E9
:20263000B81A0020250E0020B91A0020260E0020B01A0020C2030020B41A0020BA1A00204D
:20265000BC1A00202DE9F04F8246DAF800600C465FEA0208ADF11C0D14BF00214FF0FF3156
:2026700006F1480083460CF0FCFE002818BF0B2040F00D8100258848F460B8F1010F0570ED
:2026900007D0657002200BF01BFC06200BF018FC01E0012060702078012840F2AB80801E87
:2026B000012868D9801E012833D9801E012800F2DF800DF0E4F806904FF0805000F5EE77DD
:2026D000D0F8DC01A378466A009321782846062908BF0120019001200290A068228AE16888
:2026F0006368B04781460698FEF7F6FBB9F1000F40F0C080B8F1000F02D00CF02DFC02E003
:2027100050460BF0E2FC002800F0A4803868806A2AE00DF0B4F806904FF0805000F5EE77C2
:20273000D0F8DC01012306680093A168A27860682478AC46042C08BF9C466346B047814606
:202750000698FEF7C9FBB9F1000F40F09380B8F1000F02D00CF000FC02E050460BF0B5FC70
:20277000002877D03868406880474A49C1F8B0510D6081467EE00DF082F806904FF08050D0
:2027900000F5EE76D0F8DC01E38A87690093E0680190208B0290A0780390207D0490012127
:2027B000059122782846022A08BF081CE1786268A368B84781460698FEF78EFBB9F1000F8B
:2027D00058D1B8F1000F02D00CF0C6FB02E050460BF07BFC00283DD03068006A80475FEA48
:2027F000000947D13068C569A168E28A2369E078A847BEE70DF043F806904FF0805000F523
:20281000EE76D0F8DC01E38AC7680093E0680190208B0290A0780390207D294604900120EE
:202830000590257805B9014608466268A368E178B84781460698FEF74FFBB9F1000F19D18F
:20285000B8F1000F02D00CF087FB02E050460BF03CFC08B914201AE03068406980475FEA75
:20287000000907D1306802692169E078904780E74FF0FF39B8F1010F05D002200BF054FAD4
:2028900006200BF051FA58460DF007F8484607B0BDE8F08F50450240D51F00202DE9FE4F6B
:2028B00005467F48002400680094C0090ED37D48007858B97D497C4851F8112C104040F04E
:2028D000817041F8110C20200AF052FB012D40F0E280DFF80892D9F8DC00012840F0D8808B
:2028F0000220C9F8DC000CF045F801200AF040FB5FEA000805D00120C9F8DC000CF04AF858
:20291000CBE00CF0CCFFA34602906948694DC0F800B0A86A016801208847012804D15846E4
:2029300008F06CFD012000906348644FC0F800B0386811200CF0E4FE00B1012410200CF0FE
:20295000DFFE08B144F002040F200CF0D9FE08B144F004040B200CF0D3FE20B12868584EA1
:20297000016B308888470A200CF0CAFE20B12868544E016B308888475348012606602868B8
:20299000816944F020008847504806600CF0B2FE00F001010191400814D2286A81684C48AF
:2029B00088478246BAF1040FF7D0BAF1010F04D1286A42684648032190474649086820F087
:2029D00003000860584600F0D7FC2B683868986B8047019801280CD0BAF1010F04D1286A5E
:2029F00042683B48314690473A49086840F0030008603148066028684169204688470B2045
:202A10000CF07EFE20B128682D4BC16A188888470A200CF075FE20B128682A4BC16A188881
:202A30008847294806600322C9F8DC20274BC3F800B02868416B204688470128F9D138681D
:202A500004200AF095FA0446194806603868144800688009FBD30098012802D1304608F0EB
:202A7000CDFC0CF035FE08200AF082FA07460298C9F8DC600DF08EF91748008808F060FA0F
:202A90000BF088FF57EA040018BF4FF0FF3804E06FF0040801E06FF001084046BDE8FE8FC2
:202AB0001410094078080020FFFFFCFC150009400C400940B8010010000222432C2009404B
:202AD000420801003E08010028200860800104430040034024220840140B010090070020F4
:202AF00010B50B7884074CBF43F0020303F0FD0304064CBF43F0800303F07F0304074CBF67
:202B100043F0080303F0F70384064CBF43F0200303F0DF0310F0AA0F0B7004D0107840F0FA
:202B30000C00107010BD18B9117801F0F301117010BD2DE9F8430D461646287802281F4670
:202B50004FF0000862D1686801784078089C01EB002189B220001CBFB1F5285F0B205AD180
:202B70004FF42850091A08D0491E1ED0491E2CD0491E22D0491E2ED048E0DDF82490E86818
:202B90000CF099FE214680B2421A4A45ACBF4C46041BA4B26018162804DA3C802246E86894
:202BB00001440EE04FF00D0834E0E8680088022139803070000A70702CE00620388006221A
:202BD000E96830460CF004FA24E001203880E868017831701EE0E868B0B1082139800188C3
:202BF00031700188090A71704188B1704188090AF170818831718188090A7171C188B1716C
:202C1000C088000AF07105E0398003E0A7F800804FF001084046BDE8F2832DE9F0470F46C7
:202C300082B039780024022970D1804678680A9E0178DFF8E0A09146427801EB022189B218
:202C50004FF42850091A1D4606D0491E29D0491E4ED0491E39D059E0F8680CF02CFE80B207
:202C7000B04204D3A819162803DB0D244FE007244DE0FB682A46494698190CF0A9F9AD196F
:202C9000F868ADB2C5F11602002140190CF00FFEDAF8000000281CBF0268002A37D0002183
:202CB00023E08EBB022DE0D199F8000099F80110FA6800EB01201080DAF8000000281CBFD2
:202CD0000268002A23D001210FE0EEB9062DCCD1F868062249460CF07BF9DAF80000002854
:202CF0001CBF0268002A12D00321404690470EE056B9012DB9D199F80000002813BF012889
:202D1000F9680870802402E00B2400E001242046BDE8F687B01F00207CB5894D14460246F0
:202D30000026A2F58062182A1AD8DFE812F0FF00F900F200EA00E300DD00D600D100190093
:202D5000C600BF00B800AF00A4001900190080006F00680054004C00420039002C002400DF
:202D7000282880F28680022940F0838021880DF00DF80646E2E0012940F0DF80002C00F08F
:202D9000DC801135A7E0102940F0D780002C00F0D48028465030102221460CF019F9CDE088
:202DB000012940F0CA80002C00F0C78029468D1D91E0262940F0C180002C00F0BE8005F162
:202DD00060002622E8E7012940F0B780002C00F0B4806D1D7FE0602900D13CB9012940F0F9
:202DF000AC80002C00F0A9800D3574E005F18600214660220CF0ECF8012068739EE00129D3
:202E100040F09B8020780CF0BDFF97E0012940F094802078022800F390800C3528702078EC
:202E3000022814BF301C01200CF0A8FF86E0072940F08380611C684606220BF0A7FF207820
:202E50006946324605F06CFF04460A2C11DA0CF091FF40B9204603F0EBFC50200CF00EF839
:202E700009F000F96AE02A46012002F12C05285564E0022662E001295FD1A87B21780028E8
:202E9000A9735BD12078012858D1E9E7012954D12478072C51DB102C4FDC0B3537E00129EE
:202EB0004BD124780A2C48DA093530E0012944D12478022C41DA083529E000293DD10CF007
:202ED00059FF10B90CF00FF9C7E701240F351EE0012932D10A35247819E001292DD12478E3
:202EF000022C2ADAED1D12E0102926D12B4603F1400050E7012920D12478022C1DDA2D1D62
:202F100005E0012919D12478042C16DCED1C2C7014E0012911D12478022C0EDAAD1CF6E7ED
:202F300002290AD120881435288007E0012904D12478022CD8BF6D1CE9DD182630467CBD5F
:202F5000D8030020F0B57348734A0078734C744B74490D2883B03CD8DFE800F0DB07070773
:202F700007D3D358D39292B0B0B7146041F204456D494C88AC421FBF4E8BAE424E8EAE4253
:202F900003D11D806948106072E0022C684D1C804FF4A05635D94FF48067E41B1AD0241F21
:202FB000012C1DD94FF47F77E41B1BD04FF44067E41B0FD0A41E012C0CD9241F0AD0641E80
:202FD000012C0DD940F2F937E41B012C19D9241F08D096E0022814BF1E80564D156047E0E3
:202FF000554DFBE7554803681C7A012C05D141F20240488048834886F0E74E804E834E867C
:20301000ECE700200BF006FD83207EE04C488178FF2952D0182041434A48146040F204459A
:203030000068841C645A1C80641B012C464B70D94FF47F75641B0FD04FF44065641B032C6D
:2030500084BF641F012C0BD9A41E012C61D940F2FD35641B06D103E0801C41F20144445219
:20307000136005E000200BF0D5FC85200CF07EFE03B0BDE8F04035480078012104F014BC7C
:2030900040F204424888188090421CBF41F2084290423ED041F60402904211D12C4C2D4A56
:2030B00025682D4800680023CDE9002355F8086F2A4B0222B0472A490880F7BD488818802F
:2030D00000200BF0A7FC85201FE04888188002280DD940F20442801A1BD040F6FC72801ACB
:2030F00005D0083815D04FF47F72801AE8D1887B801CC0B2B528A8BF662088730020488081
:20311000F7BD00200BF086FC8420BDE8FE400CF02DBEF7BD6F4F0020204F00206BF800005C
:20313000504F0020CC4C0020204A002059550110615A0110B1540110755B0110104F0020FD
:20315000684E0020804E0020313901106E4F0020F04E002002000080EC4E0020CDD200006A
:20317000424F00202DE9FE4FDFF8FC8198F8011011B900200BF04EFC0CF034FE054600246A
:2031900005F6C4150027794EDFF8E4910EE038460CF0B0F8417939B1316882790A552946FB
:2031B000641C0CF0DFFDE4B27F1CFFB299F800008742ECDB98F80100844205D000200BF05D
:2031D00029FC82200CF0D2FD98F80100012840F0A980002701E07F1CFFB299F8000087428C
:2031F00080F29A8038460CF085F8054668790028F1D03068A979027891421CBF00200BF02A
:2032100009FCA87986E0306810F809000CF072F800684268DAF808109068814204BF3D4606
:2032300009F1010900F08D808FE03068047801210FE0D8F80420435C02F5AD7209FB03F544
:2032500009FB04FE555B32F80E20954238BF1C46491CFFB2B942ECDB4FF6FF700CF07EFD1D
:20327000834620460CF046F840F6C41500684168CDF800A000204FEA5B076F438246029188
:20329000CDF804B016E020460CF034F801680A78802A04BFDBF810305F610978402907D134
:2032B000344A8079136803EB401107F5A062CA610AF1010A0098824554DA306810F80A0067
:2032D0008442F5D0D8F8043009FB00F2991803F5AD73C9899A5A4B08934203D2009B891A0F
:2032F0008B42E5DA0CF006F80068D0F804B0029A0198DBF80810936800EBD0704010A1F627
:20331000C41105FB00300CF069FD0028BBD0306810F80A00BDE8FE8F00200BF07BFB822074
:203330000CF024FD98F8011030680CF013FD306800780BF0DFFF00250168D1F804A04FF0F8
:2033500001096F1CA145FFF65EAFEDB2002D1CBFF8B20028A2464FF4C0797FF466AF3068E3
:20337000047879E72046D5E7684E0020004F00207B4F0020844E00202DE9F84FDFF8F0B149
:203390000746ABF13500DFF8DC910068800880F0D880704800680068804779490831D1F8F0
:2033B000008000254FEA28725FEA985102F101020AD2C0F13E0110F10A0F4FEAE101D8BFC5
:2033D00008218A42B8BF0A1C634BD3F87C11C1F304611629A8BF20391B68C3F30443162B6C
:2033F000A8BF203B9A465118162905DA11F10A0FB8BF6FF0090100E01521584B584E01F049
:203410001F0242F4F8521A80326812F0030F18BF0125D20828BF45F002050FB145F00405BB
:203430004A4692F90730C31A052B04DA9379AB4208BF918865D0DFF830E10F28A0F10F0C66
:2034500025DB0CEB0013A3F1F00C4FEA2C26072E88BF07263446062C88BF06245EF8247087
:20347000042303EB84037446E358DB1B03F0FF04EF0824BFC3F307273C44AF0824BFC3F331
:2034900007473C446F0828BF04EB136401E0002426465EF826E0EF080EF0FF0324BFCEF322
:2034B00007273B44AF0824BFCEF307473B446F0828BF03EB1E63A4B2ACEB0626BAEB01019A
:2034D00004FB06F404F1800403EB1423D8BF0121342408F0FF074C437C43B4FBF3F14FF610
:2034F000FF738B4238BF191C802889B2918005DA10F1800FB8BF6FF07F0000E07F20D071D9
:2035100095711A4800681F2910604FF0000008D340F2FF128A4206D24908401C8A42FBD3CB
:2035300001E01F219180134F0F39090940EAC10047EA0001CBF8FB1F0026CBF8FF6FBDE897
:20355000F88F0D490D4F4A4608200F60921D1070BDE8F88FEC0100103C1100506E620840EE
:2035700024220840A01F00209C130050082009403500094000E7A48030100940FDFDA400AE
:20359000AC3F00502DE9FE4F0E468246307AC10693461C464FF000090CD558460CF0D6FB21
:2035B000030000F0EA800A223146504698475FEA00094DD13078DDF838800D9D0C9F022862
:2035D0001AD170680178407801EB002189B24FF42052891A012910D9891E3AD0491E14D038
:2035F000FD397BD0491E00F08280491E6ED0491E74D0491E00F09780ADE0002D2AD1F06816
:20361000017839800278416889E0002D22D101203880F0680178217000217089401C80B2D9
:203630000CF090FB398860B10278921C51183980418961704189090AA17002784168E01C2F
:203650006EE0091D398004220021601C0CF02FF995E0002D68D1F068058804213980257013
:20367000290A617028460DF102010CF06BFB5FEA000821D0D8F80C50BDF802204FF6FF7666
:203690006B4631460CF05AFB50B998F80030D8F804203C4802210CF04DFB08B9ADF8006033
:2036B000287802280AD169680222201D0BF090FC3888801C388001E0ADF80050BDF80000FD
:2036D000A070BDF80000000AE07058E0002D2BD1F068016850460BF079F802E025BBF0687D
:2036F0000088022139802070000A607047E0F0680CF0E1F880B229468842B8BF4FF0070967
:203710003DDB814208BF002206D008EB01028242B2BF4246451BAAB23A80F06801442046D3
:203730000BF056FC2BE015B14FF00B0927E0F0680721398001782170417861704188A1705A
:203750004188090AE17001792171C1886171C088000AA07113E058460CF0E8FA5FEA0009E1
:203770000BD00F980290CDF8048000953B46224631465046C847814601E04FF00E094846B6
:20379000BDE8FE8F9E0C0100F8B57E4F04463868C16E0025002940F0F18010200BF0FCFE95
:2037B00039680028C86600F0E7808E6E102221460BF00EFC39680878002840F08E80CA6E52
:2037D000D6F8980012F80CCF00F001030CF0010C634518BF0023400843EA4000C6F89800E4
:2037F000C0F34003D2F800C0CCF3400C634506BF430803F00103002320F0020040EA4300DD
:20381000C6F89800C0F38003D2F800C0CCF3800C634506BF830803F00103002320F0040011
:2038300040EA8300C6F89800C0F3C003D2F800C0CCF3C00C634506BFC30803F00103002398
:2038500020F0080040EAC300C6F89800C0F30023D2F800C0CCF3002C634506BF030A03F045
:203870000103002320F4807040EA0320C6F89800C0F34023D2F800C0CCF3402C634506BF32
:20389000430A03F00103002320F4007040EA4320C6F89800C0F38023D2F800C0CCF3802CFF
:2038B000634506BF830A03F00103002320F4806040EA8320C6F89800C0F3C0231268C2F308
:2038D000C022934206BFC20A02F00102002220F4006040EAC220C6F898008A6E92F895008C
:2038F000030718D5C86E4368C3F3C00098B1C87840F00800C870D6F8981023480140C6F891
:2039100098103868C06EC16821F48071C16049084900C16003E092F8330001282AD060787B
:2039300000281CBF7178002908D13968CA78130708D5002804BF7078002803D03A68052119
:2039500011711CE06068C0F3800040B996F8950010F0040002D10120087110E00AD0087807
:20397000002819BF30782178317820780CF0DAF9054604E0182502E0132500E011252846DC
:20399000F2BD00BF304F0020FEFEFFFF00B5ADF12C0D019100900198800FC0F0D08000201A
:2039B00006F032FD674900200860684866490860012005F066FE66480BF02EFC654940F6A2
:2039D0000A0008806449002008806449087820F00F0008706249002008606248614900782D
:2039F00020F00F0040F0010008700098806806900698002141805C48007810B10098407C28
:203A1000D0B100988068008840F60201814205D0009880680088B0F5C15F05D10699088A68
:203A300020F47C70088204E00699088B20F47C7008830098002141740098806802A90AF0B8
:203A500089FF02A80BF058FD0698079002E00798406807900798406830B1079840680088E8
:203A700040F60A018142F2D13A49079841600799487B20F00F0048733C480BF0DCFD80682F
:203A900009900998008840F60301814205D00998008840F60401814203D135490020086081
:203AB00020E00098008CE8B10098203008900898002141800898002141600899087B20F0A1
:203AD0000F00087308980D30017821F00F0141F0010101702249089808602249087820F0C3
:203AF0000F000870174800680028FBD015490020086000988168487C20F0040048741D4815
:203B1000007830B109F0BAFB0028FBD00BF0C3FE11E01948006801680120884701280AD0C9
:203B300007980D30017821F00F0141F00101017012480BF071FB00980349806808600BB0AB
:203B500000BDC0461C1004400010044001010E048D0B0000FC1E0020FE1E0020081F002065
:203B7000001F0020091F0020F21C0020C01E0020E01C0020F91C0020E001001031B000005F
:203B90002DE9F0411C4615468C4208BF854282BF00230022E5E0002C08BF002D0AD1002946
:203BB0000EBF00286FF000006FF0000100F0E1F8BDE8F0815FF000085FF0000E002C08BFBB
:203BD0008D429CBF2C1C0025070C47EA01470E0CB44208BFBD429EBF5FEA044444EA154467
:203BF0005FEA0545070A47EA01670E0AB44208BFBD429EBF5FEA042444EA15645FEA0525BC
:203C1000470847EAC1774E08B44208BFBD4200F29380870847EA81778E08B44208BFBD42BB
:203C30007CD8C70847EA4177CE08B44208BFBD4266D8070947EA01770E09B44208BFBD420C
:203C500050D8470947EAC1674E09B44208BFBD423AD8870947EA81678E09B44208BFBD4262
:203C700024D8C70947EA4167CE09B44208BFBD420DD8E60146EA5566EF01B14208BFB842A1
:203C900001D3C01BB14158EB08085EEB0E0EA60146EA95664FEA8517B14208BFB84201D38C
:203CB000C01BB14158EB08084EEB0E0E660146EAD5666F01B14208BFB84201D3C01BB141E8
:203CD00058EB08084EEB0E0E260146EA15762F01B14208BFB84201D3C01BB14158EB080872
:203CF0005EEB0E0EE60046EA5576EF00B14208BFB84201D3C01BB14158EB08084EEB0E0E82
:203D1000A60046EA9576AF00B14208BFB84201D3C01BB14158EB08084EEB0E0E660046EA70
:203D3000D5766F00B14208BFB84201D3C01BB14158EB08085EEB0E0EA14208BFA84201D344
:203D5000401BA14158EB08085EEB0E0EA34208BFAA423EBF2D0A45EA0465240A89D37346B7
:203D700042461E4617460B46024631463846BDE8F081704700B5ADF12C0D04930392029144
:203D90000190019878B1029868B1039858B1049848B10C9838B10D9828B10D98006A10B1F9
:203DB0000D98406A48B90D9820B10D986FF0010180F82C106FF00100CDE00D98816A674827
:203DD00000680BF0ABFF0D9981F82C000D9890F92C0038B90D986FF0020180F82C106FF016
:203DF0000200B8E00D980D9A016A0D985288007800EB80001218143290B288475849086076
:203E100058B9564800680BF085FF0D984FF0FF3180F82C104FF0FF309DE00D984188504843
:203E30000068401805900D9805990078001D401806900D9806990078001D401807900D98EA
:203E500007990078001D401808900D9808990078001D401809900D9807F004FD0D980078A7
:203E7000C01C411000EB91700599801008600D980078C01C411000EB9170069980100860B6
:203E90000D980078C01C411000EB91700799801008600D980078C01C411000EB917008996D
:203EB000801008600D980078C01C411000EB91700999801008600D9A059801991278001DA5
:203ED00005F044FB0D9A069802991278001D05F03DFB0D9A079803991278001D05F036FB3B
:203EF00009980090089B0699079A05980BF00EFF8DF828000D9A089904981278091D05F0C3
:203F100025FB0D98099902780C98091D05F01EFB0D980D9900784A8800EB80001218104856
:203F30000068002106F0AAFB0D98416A0C48006888470A4800680BF0EDFE9DF82800992854
:203F500002D100208DF828009DF928000D9981F82C009DF928000BB000BDC046F411002047
:203F7000884F00202DE9F0410446764DA178A869ADF1180D891F00F0DE80C91E00F0C980E3
:203F9000491E5FD0491E48D0C91E3CD0481E40F0D480287A697AB8B96878002831D0A088F8
:203FB0000BF0B0FE071C00F0C880A07A40080FD3787968B1E168890A0AD2B91D01AA04F072
:203FD000AFFE0A2804D10321A0880BF097FEB4E0287B022802D1A07A0009F4D3A088797909
:203FF00004F1080201F002FAA869002800F0A5804368002B00F0A18000210A46A088984718
:204010009BE00521E0E7002800F097804368002B00F0938062780221F0E70BF0A5FA00288A
:2040300000F08B80A86950B1076847B1206900906189227B637BE01C3C46A0477DE06089D3
:204050000121C2E767784FF00008002F52D1A17949084FD3EF69002F4CD101A841460E227C
:204070000BF025FCA0880BF04DFE071C65D0606940B97879B91D06228DF80A0001A80AF06B
:20409000A7FF19E06669307C062206F111018DF80A0001A80AF09CFF07F10C00B91D0622F6
:2040B0000AF096FFB81D062206F111010AF090FF307C40F002007871A1799DF81120C1F377
:2040D000800010438DF81100080905D39DF8110040F008008DF8110001A8214600F020F9F1
:2040F00028B92878022103F0DFFB404626E0A8694FF0150808B34368FBB1A0886278012110
:204110009847B8F1000F18D0A86943680321424674E7E078211D002204F002FE0A280CDA89
:20413000410001EB800004F10C0225300421C0B20AF04BFD01E008F0E7F8012006B0BDE85D
:20415000F081C046D803002000B5ADF1140D6448644904F0E5F965480BF0AEF862490860DD
:2041700063491F220A23102004F086FD01208DF812000020ADF8080001208DF81300082008
:20419000ADF80A000820ADF80C003220ADF80E004FF4FA70ADF81000012140F205300DF199
:2041B0001202FCF72FFA40F20630022102AAFCF729FA504A40F207300D21FCF723FA4E4A99
:2041D0004FF442700E21FCF71DFA4FF4447001210DF11302FCF716FA40F2113002210DF1DE
:2041F0000A02FCF70FFA40F21230022103AAFCF709FA40F2133002210DF10E02FCF702FAD8
:204210004FF44570022104AAFCF7FCF93B48002218233B490090102004F02EFD01208DF8F4
:20423000080000208DF8090003208DF80A0001208DF80B0002A84FF4806201233149009058
:20425000102004F019FD0DF1090040F2024201232C490090102004F00FFD0DF10A0040F204
:204270000342012327490090102004F005FD0DF10B0040F20642012322490090102004F0D9
:20429000FBFC06208DF80800012102AA012008F013F8FEF79FF81C481C4908F085F80AF0AE
:2042B000E9FA1B4806F024FA0D480178502008F0B5FD18490246102004F0DEFC1649102076
:2042D00004F0DAFC1B20154900901B224FF4A4734FF4A4700190102004F0CEFC05B000BDFC
:2042F0006C1F0020701F0020741F0020481F0020BD840110180E00200A0E0020EC0A010053
:20431000059F0000292D0000A80E0020340E002007F4000051880110C5AB001035B90010F8
:204330002DE9FF478146704CDFF8C0A1E069884600284CD1B9F1000F00F09480B8F1000F85
:2043500000F09080484609F073FF05460A2D257422DAD8F81470002F37D0680010216A466A
:2043700000EB85002330C0B20AF0C4F990B96846FF2110220AF068FD60B95046007838B981
:2043900099F80600494600F001000BF0B3FC01E00120A074E0691AE004F1E6070A260025BC
:2043B0003846FF2106220AF04FFD68B9761E07F10E0705F10105F3D1607C002804BF0A206E
:2043D00020744FD094F836502574E06900E0257C0A2D47DA002835D168000E214A4600EB0D
:2043F00085002030C0B20AF0F0FB207C08F094FB6846FF2110220BF05AFA207C10216A4692
:204410007030C0B20AF0E1FB217C0E220801A0EB410000194946E6300AF0DAFDD8F814206F
:204430006AB15046007840B9107C02F11101002300F001000BF05AFC01E00120A074C4F882
:204450001C804CE08268002A3ED10269002A2FD142690ABBC2683AB9A07B08B109F0FEFE76
:204470000AF0A4FB01203BE06800102100EB85002430C0B20AF0A9FBE769217CFA68480053
:2044900000EB8100103225300421C0B20AF09DFBE1690020C86022E06800102100EB850043
:2044B0002330C0B20AF091FBE1690020486116E068001C2100EB85002230C0B20AF085FB45
:2044D000E169002008610AE068001C2100EB85002130C0B20AF079FBE16900208860002057
:2044F0000090BDE8FF87C046D80300205A4F002066480178002900D170472DE9F043491E9F
:20451000032985B004D9891F012940F2BC80B4E05F4CDFF880912168DFF87C8108685F4E6C
:2045300000F10805062205F1080102A80AF050FD0622A91C68460AF04BFD2878C1091D27CA
:2045500000F00F02032AC0F3801537D16079C0F3800081421ED12169062202A80AF08AFA35
:2045700000280AD0694628460BF02CFC002804D0314668460BF022FCFF2879D04743D8F8E5
:204590000000807AF519002818BF02280AD0012818BF03286CD1F25D691C48460BF0A2FB9E
:2045B000102865D06B46EA1D294648460BF096FB06226946E81D0AF00BFD59E000F00F0027
:2045D000052860D16079C0F38000814250D12169062202A80AF04EFA002849D06946284681
:2045F0000BF0F0FB002843D0314668460BF0E6FBFF283DD04743D8F80000807AF5190028CB
:2046100018BF01280AD0022818BF032830D1F25D691C48460BF066FB102829D040F2024020
:204630000BF058FB6B46EA1D294648460BF056FB06226946E81D0AF0CBFCD8F80010F05D51
:2046500088760622D8F80000691C14300AF0C0FC1348144A41F204414180418341861248FE
:2046700001801249124808600121107803F01CF921680A680020107105E000200AF0CAF97C
:2046900086200BF073FB05B0BDE8F0836F4F0020F44B0020CC470020104F0020AC4500202E
:2046B000204A00206E4F0020504F0020204F0020595501102DE9F04FADF1140D09F02CFF3E
:2046D000039020B107F0FAFC4FF0FF300390694C04F10C00006800B180475E480025077898
:2046F000DFF874B1029736E00098216910F8062CA0F10C07032A2CD0029E9DF8053056B165
:20471000A06A2946401E10F8012F934205D0761E01F10101F7D1FF2600E0CEB2DBF8000028
:20473000FF2E00F1080011D0387909F09DF9B979012904D0022904BF0099887001E00099F9
:204750000870009930460AF0B5F904E00068804701E001B18847DBF80000C3690DF10501A2
:204770006A4601A898470028BED03C4E029F31683846A842CCBF401B012031F815301BB9C6
:204790006D1C401EEDB2F8D1DFF8D480DFF8D490AF421FDDD8F80000804731686F000022A6
:2047B00031F807A0CA53D9F8001088472E4850F8252025705146284690470546FF202070DE
:2047D000D8F80000804731687A5A15437D52D9F80010884709F0A0FE07460398B8421DD088
:2047F00007B9224FE069B84238BF071C4046006880478046DBF80000016A206A8847626A3D
:20481000DBF800001A49521C6262C56804F120033846A8474846016840468847A168DBF846
:2048300000206069243281B9029F30680025AF420DDD30F815302BB1DBF80000416A606926
:20485000884730686D1CEDB2F1E71168884705B0BDE8F08F77090100500F0020C81F0020B9
:20487000B00C0020B40C0020D00901008EC2F528B1DA0000E00B002090B503AFADF1240DC9
:20489000ADF8163003920291ADF8140000208DF81A003888002801DD0B20C9E002980299AE
:2048B000406849684078097800F0FF0001F0FF0101EB0021ADF81810BDF8180042F64D2129
:2048D000814205D0BDF8180042F6322181421AD10298408906F09AFE0028049000F0A1806C
:2048F0005448006804680DF1160000900398019004990498BDF81820497A007A0023A047FB
:204910008DF81A008DE0BDF8180042F64C2181421DD1BDF81600012815D10398007818B1A2
:204930000398007801280AD14248006841680398007808B9002000E00120884771E0802000
:204950008DF81A006DE00D208DF81A0069E0BDF8180042F6021181423BD1388800900120EE
:204970000190BDF816300299039ABDF8140004F06DFF8DF81A009DF81A00002851D1039807
:2049900003994078097800F0FF0001F0FF0101EB0021ADF81C100298408907F013F90028E6
:2049B00004903ED02348006804680DF116000090039801900499BDF81C300498BDF818200F
:2049D000497A007A012B01D1022300E00323A04727E0BDF8180042F64E21814221D1BDF895
:2049F000160001281AD10398007818B10398007801280FD1039802990078C96808700D48D9
:204A1000006841680398007808B9022000E00320884706E080208DF81A0002E00D208DF8F4
:204A30001A009DF81A0008B909F034FF9DF81A0009B090BD501E00202DE9F04FADF1240D49
:204A5000079001F0A1FC6148007809F09DFC604D0024012808D90A380FD0801E04D0401EA2
:204A70000ED0401E09D006E00AF022FA022804BF01210C1C06D0696805E005211F2401E008
:204A9000032107246960534A1068C0F38150012806D152F80C0C0127020E07FA02F0044381
:204AB0000AF03AFD524AFF230818401E471C28607F1E02F8013BFBD1079A1268002702F0BB
:204AD000FF03FE2B20D0DDF81CC096463B4601260EF0FF02FF2A10D0904205D3914203D816
:204AF00006FA02F2144201D002206CE017430EF0FF02DFF8FCE00EF802305CF804EF5B1C1B
:204B10000EF0FF02FE2AE5D1092003F057FC07980121A86005F1280009F032FB05F1980698
:204B3000A8464FF0010A4FF0040B0025A9460AFA05F0044216D1074204BF05F0FF0141F46F
:204B5000C04104D02A480799405D51F82010224802F03CFEE8B24FF0FF310AF08BF8C6F86E
:204B7000009001E0C6F800B0D8F800006D1C361D8542DCD904A80AF09FFC184C184A20787F
:204B9000102104AB059008F10C0008F077FC68460AF0D2FCCDF80C906A46606811490290E5
:204BB00008F1640008F004FD0F4951F80D0C20F4F85040F4005041F80D0C0C4FC1F8FFAFE1
:204BD0004846C7F800A009B0BDE8F08FD41F00207C060020B43F0050007FC767DC0B01006E
:204BF000A1EC00004DD200000D30094008000940C006002060480178042900D870472DE949
:204C1000F84F891F2FD0491E012900F2AA805B4CA078FF2827D00AF06DFB82460AF16C0675
:204C300070680BF053F80746387903281BD1B868017811F0030904D17068BDE8F24F0BF0FD
:204C500041B8457800F102080AF20F10B9F1030F00900DD045B1307830B900983D21417021
:204C700001210098017084E0454801780129FAD09AF894000AF59A7B58B32D1F4346EAB2E5
:204C9000494650460BF01AF850B900993D204870012000990870BDE8F24F3A480BF00AB8C4
:204CB00039480168884700904FF4C0709AF80620616842438818002180F83911DBF80010BC
:204CD0009BF80600490806F0CFFB304900980A6890470020B9F1030FB8602ED02C484069B1
:204CF0000078810708D5C0074CBF03200020EDB2401918F8000000E0812030722549BBF866
:204D10003E000A78904211D3317A802918BF81290FBF7F21204A1078091A49B200914B4698
:204D3000A078EAB241460AF0C1FF11E0A0784B46EAB241460AF0B6FF0AE00F480178082917
:204D500003D0414650460AF0A9FF404607F036FA70680AF0B7FF39465046BDE8F44F0AF085
:204D700099BF002009F056FEBDE8F24F86200AF0FDBFBDE8F18F00BF6F4F0020684E002084
:204D9000794F0020AC450020B00C0020B40C0020A40C01006B4F0020704F002080B502AFFE
:204DB000ADF1180D029301920091ADF80C0000208DF810000099009849684068097840783E
:204DD00001F0FF0100F0FF0001EB0021ADF80E108AE03888082803D907208DF81000A1E0A0
:204DF0003888B988C0F10800884201D9B88802E03888C0F10800029908804C4A398889188F
:204E1000029A0198128804F0A1FB8BE00098C0680AF0ACFAADF814003988BDF8140088424B
:204E300003DA07208DF810007CE03988BDF81400401AB988884201DDB88803E03988BDF807
:204E50001400401A0299088000993A88C9688918029A0198128804F079FB63E034483988CD
:204E70000078884203DA07208DF810005AE0304839880078401AB988884201DDB88803E0F6
:204E90002B4839880078401A0299088029493A8809688918029A0198128804F057FB41E05D
:204EB0003888072803D907208DF810003AE03888B988C0F10700884201D9B88802E0388802
:204ED000C0F10700029908801B4A39888918029A0198128804F03AFB24E0029800210180E8
:204EF0000A208DF810001DE0BDF80E0042F62321401A072802D92D38D2D0EEE701A151F87C
:204F100020008746E34D00001D4E00001D4E00001D4E00001D4E00001D4E00001D4E0000E2
:204F30006D4E00009DF8100006B080BDA00E0020080E0020040E0020200F002090B503AF92
:204F5000ADF1240D049303920291ADF8180000208DF81C000299029849684068097840786E
:204F700001F0FF0100F0FF0001EB0021ADF81A103888002807DDBDF81A0042F64B21814263
:204F900001D00B209DE0BDF81A0042F64D21814211D0BDF81A0042F6222181420BD0BDF8D2
:204FB0001A0042F63221814205D0BDF81A0042F6332181421BD10298408906F027FB05908A
:204FD00088B1414800680468049800900398019005990598BDF81A20497A007A0123A04761
:204FF0008DF81C0066E004980021018062E0BDF81A0042F64B21814221D13448398800785D
:20501000884203DA07208DF81C0053E02F4839880078401AB988884201DDB88803E02B4855
:2050300039880078401A0499088002993A88C9688918049A0398128804F088FA3AE0BDF861
:205050001A0042F64A21814208D10498042101800298C1680398096801602BE0BDF81A009B
:2050700042F60811814208D10498022101800298C1680398098801801CE0BDF81A0042F680
:205090004E21814208D10498012101800298C0680399007808700DE0BDF81A0042F607115C
:2050B000814207D10498022101800298C1680398098801809DF81C0008B909F0EBFB9DF8AF
:2050D0001C0009B090BDC046501E0020D00D00202DE9F843614C5A4D5A4EDFF870815E4F4B
:2050F00094F8E4100846401E0B2864D8DFE800F07B2C43062343062343067664042907D0A8
:2051100001220A2945F8212C14BF0220032004E0202045F8210C0120024684F8E200002012
:2051300045F8390C0827C5F8FF7FC5F8F37F45F8392CBDE8F883052914BF0920062000270B
:2051500084F8E400376075E094F8E170383D0120002FC5F81B0004BF0620002102D000217C
:20517000F160032084F8E400032045F8010C3160306880085ED294F8E410334801270329AE
:205190000ED00068456800216022052300914046A84794F8E400062814BF0A200720CFE7C3
:2051B00000684568002160220523022000904046A8470420C4E7FEE72548264F00260125F6
:2051D00006600E203D6003F041F8022008F0ACFD84F8E45084F8E360BDE8F8830020386058
:2051F0000C25786024E04FF08059D9F8A0010168202088472C3D0F2045F8010C41F61D5604
:20521000C5F80360D9F8A401466800214FF4C0720723022540460095B047D9F8A401C6689D
:2052300000214FF4C07207234046B0470120386084F8E45004F178000AF01BFBBDE8F8831B
:2052500039400C4038600C40A401001000A00C402C500C4004800C4034600C4090070020C5
:2052700000B5ADF1240D0393029201910090009858B1019848B1029838B1039828B1039889
:20529000006A10B10398406A48B9039820B103986FF0010180F82C106FF001009FE00398F7
:2052B000816A504800680AF039FD039981F82C00039890F92C0038B903986FF0020180F8CC
:2052D0002C106FF002008AE00398039A016A03985288007800EB400012180C3290B2884783
:2052F0004149086058B93F4800680AF013FD03984FF0FF3180F82C104FF0FF306FE003988C
:2053100041883948006840180490039804990078001D40180590039805990078001D4018FF
:205330000690039806F09EFA03980078C01C411000EB917004998010086003980078C01CEE
:20535000411000EB917005998010086003980078C01C411000EB9170069980100860039A0A
:20537000049800991278001D04F0F0F804980499059A069B0AF08AFC8DF81C00039A059990
:2053900001981278091D04F0E1F8039A069902981278091D04F0DAF80398039900784A881A
:2053B00000EB4000121810480068002105F066F90398416A0C48006888470A4800680AF0CE
:2053D000A9FC9DF81C00992802D100208DF81C009DF91C00039981F82C009DF91C0009B0B4
:2053F00000BDC046F4110020884F00202DE9F04190460E460446ADF1A80D0AF083FC071C14
:2054100000F0AB8068460021A4220AF050FAADF80040554C279B534AE57AE0788DF8A05077
:205430001A40A57A8DF80400290105F0030305F00400257B134301F480721A43484B01F47A
:20545000C061022D03EA020341EA030140EA010027904FF0000008BF01208DF837000AF00C
:2054700011FC412809DB207B00280CBF002008209DF8991008438DF89900607B002804BF7F
:2054900000208DF8380017D001208DF8380004F1860120220DF1390009F09AFD0DF159007E
:2054B00004F1A601202209F093FD0DF1790004F1C601202209F08CFDA07940B18DF82600C9
:2054D00004F1500110220DF1270009F081FD607938B104F16000B91D0622054609F0CAFA8B
:2054F00068B92079002804BF00208DF8050016D08DF8050004F140010DF106000CE06079DE
:2055100005F1160110228DF805000DF1060009F05FFD0DF11600A91D102209F059FDE079A5
:2055300020B11EB1279941F002012791002100B10121A7789DF89900002F41EA00018DF8EE
:2055500099100CBF002004209DF8991008438DF89900414668460AF091FB2AB0BDE8F08131
:20557000FBF9FFFFFCFEFFFFD803002070B5414C414B2568186855F8183F00224FF0FF31B6
:2055900098473E483E4A416B3E4C88683E4D4179117000260AF06EFB3C480AF067FB0AF0BF
:2055B00061FB3B48026800215171A02301680722CB804A72032102681172002103685977E6
:2055D0000268D176036883F85C10012102681177036883F85D100021006880F85E100EE0F4
:2055F0006068F6B24FF4C071714308444279012A04D1304609F07EFE0AF030FB761C2978B9
:20561000F0B28842ECD30AF025FB2248224A0178117008F009F80AF019FB2049204A00206B
:2056300008700021117001201E4A10701E4A11701E4A10704FF4A4701D4A11701D4A11703F
:205650001D4A11701D4A11801B211D4A1180FB211C4A108040F648001B4A11801B4A1080AB
:205670001B4A11801B4A10800AF0ECFA1A490020087070BDF04E0020EC4E0020A40C0100BE
:20569000714F0020684E00207B4F0020CC470020104F00206D4F00207A4F0020734F002001
:2056B000744F0020754F0020764F0020774F0020784F0020794F0020D31F0020524F0020A6
:2056D000444F0020464F0020484F00204A4F00204C4F00204E4F00206F4F002000B5ADF139
:2056F000240D0291019001F0D9FA4748474A006800214FF0FF330AF0A1FA0390039800287C
:20571000F3D0002004900DF1160104AA05A807F097F930BBBDF8140010281DD13C489DF818
:2057300016100078884217D104980690069800884FF6FF7181420CD106984088C00B0BD34D
:2057500034483549042204230090102003F094FA02E0049805F0E8F9049810B1049809F06B
:205770005CFE0398400840D32C48007818B92C480078002839D02A48007818B103208DF894
:2057900018000EE0274800788DF81800264800788DF8190025490A680DF11A000260898880
:2057B0008180234800788DF82000224800788DF8210017480178502007F030FB1E490246AF
:2057D00006AB102003F058FA78B11C49082008701B48006848B11A480068006828B1184836
:2057F000006801681548007888470398800803D31449002002F042FB0398C008FFF475AF05
:2058100006F0D0FF71E7C046EC1E002007000080E81E0020F41E0020DBEB0000CC0C00208E
:20583000CD0C0020F81E0020F91E0020270F0020FA1E0020FB1E002059440110F01E00204F
:20585000E00C0020640E002000B5ADF1140D00F09BFD3649086840F002000860684609F06E
:205870006BFE334800780290334932486A4607F09FFE684609F020FE00208DF808002F4807
:20589000007801902F4A2E4819216B4607F0F6FD684609F051FE2C48007802902C492B48CF
:2058B0006A4607F085FE684609F006FE01208DF80800284800780190284A27481A216B460F
:2058D00007F0DCFD264827490022002307F04CF8254809F0A1FC2548254A0421002308F06B
:2058F00067FD24494FF6FF70088023490120087022490020087022490020087021490020F6
:2059100008702149002008702049002008702049002008701F49002008701F49002008600B
:205930001E490520086005B000BDC04600200940220C0100401C0020E5EA0000200C0100DB
:20595000581E0020B1E40000230C0100741C0020B16D0000210C0100741E0020E18B0000C2
:20597000241D002019F3000001600000AC1E0020E5B600003C1C0020F11C0020F21C0020F1
:20599000F51C0020F61C0020F71C0020F81C0020F91C0020FA1C0020E01C0020EC1C00207E
:2059B000F0B5514C20780D46E90BADF11C0DC90372D1A80860D2E069216A6A080ED2E808E8
:2059D00028BF85F0040580F08C80680904D304F061FC85F0100584E0002083E0868861B9A4
:2059F00004F11600414A00904FF6FF71022301200AF020F90146216221B304A80090002762
:205A1000019702230293FF220392E28A30460DF11203FDF7B7FD58B99DF813009DF8122051
:205A3000216A12EB002204D04989304606F094FC216AE28A08463B464FF6FF710AF07EF91E
:205A500001462162A069002918BF85F001051AD168B143685BB1E0698088012100229847B9
:205A7000A069E7694368B88803210022984709F055F985F0010534E000200146FEF750FC2F
:205A900018B185F00205012102E0022185F00205207801F009FF24E005F0A4F9071C1ED0D6
:205AB00038780126B03811D0401E02D01F3808D011E0387978B97888F9883A8906F04CFC82
:205AD0000AE03846FEF74EFA064604E0397907F108000AF0ABF816B1384608F0DBFF85F402
:205AF0000045A8B207B0F0BDD8030020600C010010B5ADF1180D4C4809F09DFD0090009854
:205B1000002800F08F80009806F02CF80098006A019000980021016200984068002831D084
:205B30000198002104AA40F0020082E8030014E000204FF0005104AA82E8030018E0002077
:205B50004FF0804104AA82E8030011E000204FF0805104AA82E803000AE0009890F82700AD
:205B700000F00700401EE3D0401EE8D0801EEDD004AA0CCA0098009944680098B1F92410C5
:205B9000C068A04709F07BFE029028482749B0F90000401C6FF31F300880234800680021D0
:205BB00080F82710204808F027FD0298FBF794F90098C0681D49B0F99400B1F900108842A2
:205BD00030D10098C06890F8960018B90098C068006840B90098C068002180F896100820BD
:205BF00005F060FF1EE0124800680068B0F1FF3F18D000990F48C96800680968B1FBF0F0CC
:205C1000012807D900990B48C96800680968B1FBF0F000E00120039000980399C068703059
:205C300009F06CFA06B010BDCC1E0020D21E0020DC1C0020BC1F002000B5ADF1340D03931B
:205C500002920191009009F0EDFF0490049805F00FFD05900020069009F0C4FD8DF82800B6
:205C70009DF8280018B19DF82800012802D16FF004007FE0059810B96FF004007AE0009858
:205C900010B90020079010E00098B0F1FF3F03D14FF0FF30079008E0009807A905F0C0FF50
:205CB0000990099808B1099864E00120099009F0B5FF0799401808904AE00DF12E000DF1B1
:205CD0002F010AAA06F0A2F909900998002829D19DF82E000BA905F0D1FFC8B9019BBDF8D5
:205CF0002C009DF82F100A9A984788B1029818B1BDF82C0002990880039818B19DF82F0049
:205D1000039908700A980E9908600020099029E00A9906A806F0A6FA059840684FF0005130
:205D300009F078FF012009900798B0F1FF3F0FD0079868B109F072FF0899081A0C900C98A7
:205D500080B107980C99884200D20BE00C9807900598079B406800214FF0005209F06EFFFD
:205D70000028AAD107F092FF05980699083006F0D6FD09980DB000BD90B503AFADF11C0DD2
:205D900002938DF814200191009009F078FD049006F09EFE0390039828B90498FBF79CF8BE
:205DB0006FF0010075E00098703009F064FD3A483949B0F90000401C6FF31F3008800198B1
:205DD000039988609DF81400039981F8260002980399486030480399008888840098039991
:205DF000C86097E818002D490398202222401030194080E806000399002081F82700039821
:205E100000220021183080E80600254803990DF1150204F05DFD002836D003980099808C9F
:205E3000A1F89400009890F89600012806D10099002081F896001B4900200870039991F886
:205E5000270040F0800081F827009DF8150001280ED11548007858B11448007840B1144909
:205E7000012008701049002008700E49002008700498FBF731F89DF8150008B109F0A8FAE4
:205E90000398B0F9240004E00498FBF725F86FF0010007B090BDC046D01E0020F1EFFF9F05
:205EB000C01E0020F11C0020F71C0020F41C0020F81C002008B5002003F0E3FB3B483C495A
:205ED000002209F0E2FC3C480068006B8047394908603B483749394A00680968884205D2B1
:205EF0003748016833480068401A04E03448016830480068401A1168091811602F49086877
:205F1000000B08602F48007850B12F480078012806D02E48294900680968B1EBC02F3CD9BF
:205F300028490120087028490020087028480068000A32D3274940F6090008802648264943
:205F5000007820F00F0040F0010008702349087820F00F00087022490020086009F08FFCF7
:205F700000902049086820F0020008601E496FF00200086017481D4908601B48006880087E
:205F9000FBD319496FF0020008601649086840F0020008600098FAF79FFF0949002008608E
:205FB00007F0E8FA09F0B2FB08BDC046581E0020B1E40000E41C00208C010010E81C00207B
:205FD000E01C0020F21C0020F11C0020EC1C002000000440FC1E0020091F0020081F002005
:205FF000001F00201410044010100440001004400EB5019100900198800820D3FFF778FDCE
:20601000019820F002000190354809F014FB30B10199344841F0020109F045FC5FE0019872
:20603000C00804D2304809F006FB002857D02F4809F021FC2B48042109F035FC4FE00198DA
:20605000C0084CD32A4901200870042007F038FF29480068006B804726490860224809F0A6
:20607000EAFA0290029818B102982449C0680860224800684068224900780860022007F0C2
:206090001FFF112002F09AF91E49012008701B480068007C10B11C48007810B90E2002F04F
:2060B0008DF9164800684068806820B9134800684068C06828B1154900200860154814490F
:2060D000086009F031FA144900200860144813490860144809F0A0F8192009F0D2FB0EBD68
:2060F000CC1E0020401C0020C01E0020241D0020FA1C0020E01C00208C010010DC1C0020A4
:20611000D0210840F51C0020F21C00201C10044000100440510007061810044014100440E1
:20613000020000409D39000000B5ADF11C0D00900020019000208DF810000098001D009080
:20615000FFE7009800F003008DF814009DF8140028B19DF814100098401A001D009008F053
:2061700096FF3A4908600098102803D838480068029002E03748006802900298006803907A
:206190000398000807D3039880F00040039000208DF810001CE09DF8100080B102980199D9
:2061B000026808688018086001990098096888420ED80198029002980068039015E0009855
:2061D0000399884211D901208DF8100002980190039902984018029002980068039003982E
:2061F0000028CDD100200290FFE7029830B300990398401A03900398042811D300990298B5
:20621000401805900398059908600098029940F0004008601049009A0868801A08600AE086
:2062300002980D4902680868801A08600299086840F0004008600298001D029003480068A3
:2062500008F0E8FD029807B000BDC046781F00207C1F0020801F0020B80C002000B5ADF1D5
:206270001C0D0191009001F031FF3D483D4A006800214FF0FF3309F0E1FC02900298002872
:20629000F3D0002003900DF1120103AA04A806F0D7FB88B9BDF81000102808D132489DF820
:2062B00012100078884202D1039808F0A6FD039810B1039809F0B1F80298C00F13D30CE08D
:2062D0002A48006808F0B0F80590059828B1059804F086FF059809F0E3F92448006809F0D4
:2062F00095FC0028ECD0029880080ED32048007806280AD11F48007810B108F0CBFA04E0EC
:206310001D490020087006F053FB0298400801D308F0E0FA0298C008A7D3184800780028C7
:20633000A3D01548007800289FD006F0C7FE0590059848B105980599059A059B00784978D5
:206350009278DB1C02F094F80E480D490078097888428AD002480068042109F05BFC84E753
:206370003C1E0020070000C0D81F0020401E00206E0E0020700E0020760E00206F0E0020BC
:20639000740E0020750E00202DE9FF47484C94F8E700002876D13D4801273D4D006884F8BB
:2063B000E770EE7C84F8E6606B68C4F81031C0F3801084F8E800684609F043FA002604F1D4
:2063D0000C0001966B468DF8006032490296324606F0CAFA304904F130006B46324606F072
:2063F000C3FA2E4904F154006B468146324606F0BBFAA96838468847DFF8B08028482A7DF9
:2064100008F104030078284D1868C0F3815A22B1BAF1030F04D184F8E170BAF1030F17D09B
:20643000BAF1020F14D0BAF1010F0ED0022007F047FD1C480068016804208847012804D091
:2064500028683221B1FBF0F10DE007F047F912E0022007F035FDBAF1030F0CBF4FF47A71A5
:2064700042F210712868B1FBF0F1484609F0FFF9484609F0FEF940460068C00802D230463D
:2064900007F01EFD00200090BDE8FF8714100940040B0100D3BB00006590000081B10000CD
:2064B000D41F0020E0010010BC1F0020B03F0050900700202DE9FE4F07F082FADFF818A171
:2064D00083460AF10200DFF8149100880027011F8CB26FF00301401880B204285FDB48467C
:2064F000FF254FF6FF76000B5FFA80F8404621466A46042307F068F9BDF800309E4237D0EA
:20651000002B35D0D80BC2032FD19D422DD0381FDDB280B2042815DBB0F5805F12DA00F122
:206530008852126801A90A60BDF804108D4207D0BDF80610401A001F80B20428ECDA01E02B
:20655000012300E00023BDF802001BBB211A001D07F1885283B289B2404607F035F9BDF87D
:206570000200C119091D8FB214E0BDF8020011E0BDF8020003466FF30E0363B9011D8C42B1
:2065900008DA002008F046FA584608F0B9FB0020BDE8FE8F241A241FA4B2042CA6DA06F098
:2065B000DBF847B148464FF088513A46001D09F037F908F0E5FE584608F0A2FB5246507826
:2065D00000281CBF0020011C03D1C7F58054391DA0B25180BDE8FE8F3C0F002000E0010010
:2065F00000B5ADF1140D8DF80E20ADF80C100090002001909DF80E100020490800D301204A
:206610008DF80F009DF80E100020890800D301208DF8100003208DF8110009F030F902907C
:20663000BDF90C00B0F1FF3F09D13048006810B12E48006801E02E480068019005E0BDF965
:206650000C00002104F05CFD01900198002845D0019890F82700000A03D204208DF8110068
:206670003CE022480199006888421FD19DF80F10019A0120884092F82710084382F82700E3
:206690009DF80F0008B11B4800E01B4807F0A2FF9DF8100030B116499DF81020009809689C
:2066B00001F024F883208DF8110017E09DF810200098019901F01AF868B1104809F0DBF856
:2066D0000F48007818B90F48022109F0ECF883208DF8110002E004208DF811000298FAF753
:2066F000FBFB9DF8110005B000BDC046C41E0020C01E00200100020401000104241D002008
:20671000F51C0020401C00202DE9F0410746FF2F1ED109F02BF810F0070F16D0042007F0D8
:20673000FBF808B104200AE0012007F0F5F808B1012004E0022007F0EFF820B10220BDE834
:20675000F04107F005B908F065F90020BDE8F08107F0FEF88046012FD8F80450334E04D05B
:20677000022F29D0042F3DD0EFE7022007F0D4F880B1022007F0ECF8074601207C6807F06D
:20679000CBF828B1A0683118A86809F027FB88B13846DBE7042007F0BFF828B1042007F092
