:2000000000400020A5A1000001C9011001C9011001C9011001C9011001C9011001C9011018
:1C00200001C9011001C9011001C9011001C9011001C9011001C901103FC9011089
:20003C002DE9F84FDFF81885DFF8181588F80000002008600821DFF8100501700D21418052
:20005C004FF408718180DFF80405DFF8041501608A7EDFF800050270FF2ACB7E437008BF54
:20007C00FF2B0D7F85704E7FC6708F7F0771C97F417115D1FF2D08BFFF2E11D1FF2F08BF59
:20009C00FF290DD1DFF8D0140A7802704A7842708A788270CA78C2700A7902714979417149
:2000BC00DFF8B81402780A70FF2542784A7082788A70C278CA7002790A714079DFF8A02443
:2000DC0048710021DFF89C04057045708570C570057145711180DFF89004DFF89014466B0B
:2000FC00DFF88C247078087031781170B078DFF884140870B1680879DFF87C14421E0A70E9
:20011C00F078DFF878140870F068DFF87414086008B90BF0BFFD3069DFF86844206008B98C
:20013C000BF0B8FD2068DFF8607401688847216851F8042F38469047DFF85004DFF85014C8
:20015C003862DFF8500478627069086008B90BF0A1FDB069DFF84014086008B90BF09AFD4A
:20017C00DFF838B4DFF838649BF804000CF070F8306008B900F045B99BF80500DFF82474EC
:20019C000CF066F8386008B9306837E19BF80600DFF814440CF05CF8206020B930680CF0DB
:2001BC005FF838682AE19BF80700DFF800940CF04FF8C9F8000038B930680CF051F83868AA
:2001DC000CF04EF8206819E1DFF8A4130A789BF80000DFF8DCA3921C504380B20CF038F8A7
:2001FC00CAF8080058B930680CF03AF838680CF037F820680CF034F8D9F80000FEE0DC48F4
:20021C000078002800F00281BBF80210DFF8A4B3484380B20CF01CF8CBF8040078B930685F
:20023C000CF01EF838680CF01BF820680CF018F8D9F800000CF014F8DAF80800DEE0CC48C8
:20025C0000780CF005F8DC49086080B930680CF007F838680CF004F8D9F800000CF000F85B
:20027C00DAF808000BF0FCFFDBF80400C6E0C0480078182148430BF0EBFFD04A1060B0B9F9
:20029C0030680BF0EDFF38680BF0EAFF20680BF0E7FFD9F800000BF0E3FFDAF808000BF053
:2002BC00DFFFDBF804000BF0DBFFC348A5E0B048007840010BF0CCFFC1490860D8B93068F6
:2002DC000BF0CEFF38680BF0CBFF20680BF0C8FFD9F800000BF0C4FFDAF808000BF0C0FF68
:2002FC00DBF804000BF0BCFFB34800680BF0B8FFB249086882E09E48007800010BF0A8FF72
:20031C00B0490860F0B930680BF0AAFF38680BF0A7FF20680BF0A4FFD9F800000BF0A0FFA9
:20033C00DAF808000BF09CFFDBF804000BF098FFA14800680BF094FFA04908680BF090FF06
:20035C009F485AE08A48007800010BF081FF9E49086018BB30680BF083FF38680BF080FF49
:20037C0020680BF07DFFD9F800000BF079FFDAF808000BF075FFDBF804000BF071FF8E48BD
:20039C0000680BF06DFF8D4908680BF069FF8C4800680BF065FF8B4908682FE074480078A7
:2003BC00302148430BF054FF884A106070BB30680BF056FF38680BF053FF20680BF050FFE3
:2003DC00D9F800000BF04CFFDAF808000BF048FFDBF804000BF044FF774800680BF040FF58
:2003FC00764908680BF03CFF754800680BF038FF744908680BF034FF734800680BF030FF7D
:20041C0000200BF047FC4FF4804192E03168012008713068057331684D7330688573316827
:20043C00CD7330680574002031684D743268D072A0223168487103213068C280017207204D
:20045C00316848720020326890722821306841820121C176002031684877326882F85E008A
:20047C00012031680877326882F85D00396808713868057339684D73386885733968CD73AA
:20049C0038680574002039684D743A68D072396848713A6890724FF4207039680022C880E5
:2004BC0008818A7401213A68D17421680D732268557321688D732268D57321680D740021AF
:2004DC00226855742368D9720121226811710021236859712168C880088100208872216836
:2004FC00887405202268D0743948016888472A490A6805461068804727490A6852F8043F5A
:20051C000020984718481D4BC16818780A88314902430A80284630490A6890470C212F4890
:20053C0000F05EF80F4800F05FF800F061F84FF4005198F80000BDE8F44F06F023BD00BFD1
:20055C006E4F0020044F0020604E0020084F0020B63F00502C4E0020E81200503C4E002017
:20057C000C4F0020344E0020FCD800006D4F00207B4F00206B4F0020724F00206C4F002012
:20059C00F04E0020F44E00207C4B00206DC20000F84E00207DC20000FC4E0020F41900202D
:2005BC00104F0020144F0020184F00201C4F0020BC200020684E0020004F0020804E0020DC
:2005DC00844E0020884E00208C4E0020904E00205C140020544F002060140020F84D0020D3
:2005FC00DFF800F0E5710110DFF800F01D6E0110DFF800F04D7101102DE9F04FD04C04F152
:20061C0018012046ADF1440D09F01EFBD54D00264FF6FF700123667032462082294604F1CA
:20063C00A40009F001FD0223324604F1C800294609F0FAFC0423324604F1EC00294609F063
:20065C00F3FC4FF0040A04F1440810224046314684F802A008F0A6F904F15409102248460B
:20067C00314608F09FF904F11C073E6004F10A052E70E671267207206072CDF80080DFF8FB
:20069C001883022210200346414604F045FE102003224146CDF80090034604F03DFE10206F
:2006BC00524641460097134604F036FE4FF0080B4FF0030905F12A000C9005F179000D9082
:2006DC0005F11E000E9005F15A000F902435109517E06078A28FE18FB4F84050B4F8423095
:2006FC0006280ED1ADF81A20ADF81C10ADF81E50C048ADF820300BF011FF012006A907F03F
:20071C0007FFA069BA4A31464FF0FF3300F038FA071CF6D002960DF122000DF12E0102AA26
:20073C000AF071FB002840F0CB81BDF822102078102940F0C1819DF82E10884240F0BC815F
:20075C00029D29884FF6FF728A4200F0AA812B78A23B00F08D812E3B40F0AE81A978B04633
:20077C00002900F04981891E00F01881491E012940F2E880891E00F0A880491E7BD0491E47
:20079C005CD0083900F06481891E40F0678194F83A30A888052BADF80C0047D001208DF878
:2007BC00160094480BF0BAFE94F83A0001281ED004281CD003280DD002280BD00298C18893
:2007DC00ADF80E100189ADF810104189ADF81210818927E0A08FE58FADF80E00B4F84030D7
:2007FC00ADF81050B4F84210ADF812301AE0A08FE9888842D8BF081CADF80E002989E08F00
:20081C008842D8BF081CADF810006989B4F840008842D8BF081CADF81200A989B4F8420048
:20083C00884200DC0846ADF8140001E08DF81660AF49102003AA04F06FFD0FE1AD480BF0FE
:20085C006DFE6B78002B40F00981E88860822889A0826889E08267480BF0CAFC002840F009
:20087C00FD80656A002D00F0F9802B68608AA18AE28A9847F2E0AA88B549102004F04CFD18
:20089C000C984146062208F08DF86682A682E682A879207357480BF041FE96480BF03EFE52
:2008BC004FF001084FF6FF702379208253B9A879082812BF84F801A00520607040460BF021
:2008DC00BFFCCBE084F80190C8E06B787BBB291D0C980A680260898881800623637068890B
:2008FC002082E8896082288AA082688AE082E878E07294F83A00012818BF02280BD19A495E
:20091C0010201F2204F008FD4FF47A7180B2414338480AF027F8688900909249CDF804A00F
:20093C00EA7810202D1D2B4604F0F6FC99E06878312840F08A80E67084F801A091E0C04692
:20095C00B00600206B78002B7FD1A878E3896178032815D0E078257933B9012814BF26715D
:20097C00E67008E05DC20000054304D07F48194609F0F8FF61780729DED10620607070E0CE
:20099C00062907D0E578002D08BF84F8019068D00220F3E70720F1E743BB00006B78002B98
:2009BC0053D1EB78617893B902291DD007291BD0062902D12079012816D1032914D06B48CE
:2009DC000BF016FC80B901200BF03AFC0CE00AF087FC0246A079624900900D98434601909F
:2009FC00102004F099FC68706D78002D2DD135E007000080780700206B7833BB5C485749EA
:200A1C00009002221020034604F086FC59484A46524900901020034604F07EFCED1C0E9825
:200A3C0029680160A98801238180207863700AF057FC024601230F9D607949490090102057
:200A5C00019504F069FCC0B258B184F801B008E0AA8841491020052304F05EFCB8F1010FE0
:200A7C002AD1256A45B32D6835B36078A84723E06879132820D12889012808D1607B0228CC
:200A9C0005D11C480BF04AFD0AF008FA14E036491020052204F040FC81B2164809F062FFDD
:200ABC000AE06888C00B07D3334852462B4900901346102004F030FC029808B10BF0EBFCA6
:200ADC002579E078790830D355EA00032DD0204600788DB9E179257A8DF82410109A8DF83C
:200AFC00255013680DF126052B609288AA8005E0051601109C0700208DF82490617A8DF885
:200B1C002C10A17A8DF82D100AF0EAFB1149024609AB102004F000FC38B1256A84F801B0A6
:200B3C001DB12D680DB15846A847B80803D31349304607F0EDFCF808FFF4E3AD607B401EE7
:200B5C003FF4C7AD401E7FF4DCAD0AF0A7F9D8E5C59B000059440110C11701108561000044
:200B7C000945011069630000F584011054070020F406002004070020CC060020EA060020E2
:200B9C00DFF800F0F99B01102DE9F047D34C211D2046ADF1300D09F057F804F114000BF096
:200BBC00A6FB1F220A23CE49A060102004F0B4FB002501208DF829008146ADF81650082032
:200BDC008DF82A900DF12902ADF818004946ADF81A003220ADF81C004FF4FA70ADF81E0003
:200BFC0040F2053001F02AFD40F2063002210DF1160201F023FD40F207300D2104F12C02EE
:200C1C0001F01CFD4FF442701A2104F1510201F015FD4FF4447049460DF12A0201F00EFD87
:200C3C0040F21130022106AA01F008FD40F2123002210DF11A0201F001FD40F21330022124
:200C5C0007AA01F0FBFC4FF4457002210DF11E0201F0F4FC04F139002A461823C54900904E
:200C7C00102004F059FBA8464FF0030A8DF82B900DF12B008DF82E90BF4D8DF82C804FF47A
:200C9C0080628DF82DA04B4600902946102004F043FB0BA840F202424B4600902946102029
:200CBC0004F03AFB0DF12D0040F203424B4600902946102004F030FB0DF12E0040F20642C8
:200CDC004B4600902946102004F026FBAB48062101704078062801DA07F04EFBA84800782F
:200CFC0080000BF007FCA74DA94E01460029E96042D04FF6FF7009F069FF10200090A249E4
:200D1C000191A24905F16402152304F005FBD5F88010022009F046FB287928762A7A85F899
:200D3C0054206F796F76EB7985F82530687AB5F89E2185F85500A979A5F84C20B5F82E31C9
:200D5C0085F8241005F110073B80B5F86E01A8834A46AA7685F8262085F8562005F59A734A
:200D7C006B614046286205F158012865504609F019FB77610720B071E26804F1200004F188
:200D9C000C07B061F7612AB1824906F16C00022309F04AF9804D6F782878A7B920362E62B7
:200DBC000AF09EFA05F15407CDF80080024605F14400019005F11C06029778490396AB78AE
:200DDC00102004F0A9FA7649764A102004F0A4FA754D05F1180005F10C0106F0D9FE734993
:200DFC00A8600BF0C3FA724EA8684FF4E0213246521E09F039FFA8684FF4E021324609F025
:200E1C0033FF6C4EA8684FF0C0513246521E09F02BFFA8684FF0C051324609F025FF6649BB
:200E3C0005F12400C822434609F0FEF86348686020780AF055FA62490246102004F06CFA49
:200E5C006049102004F068FA1B224FF4A473102000925D49019304F05FFA42F20305DFF854
:200E7C006CA1606841464FF040424FF0FF33FFF787FE071CF5D0CDF8108005A80AA904AA02
:200E9C0009F0C1FF002836D1BDF8140010282ED120789DF82810884229D104990E78913E33
:200EBC0002D01F3E1ED022E048780E281FD1888885421CD189680E78CEB9491C08A80A68C8
:200EDC004968026008AE4160307808AA514600F0FD003070102004F01FFA08E0F0090020D0
:200EFC00BD84011001F10800097900F071F8049808B10BF0D0FAF80FB3D3A06800F06CF8AC
:200F1C000028AED1A0680AF026FF071CF5D0388801282AD1BE78B00805D3522008F09CFD52
:200F3C00404608F099FDF00805D3512008F094FD404608F091FD700807D3607828B148461A
:200F5C000AF0EAFB40460AF0E7FB300905D3502008F082FD404608F07FFD700905D34F2082
:200F7C0008F07AFD404608F077FD384609F048FEC3E7C046A5840000C12F000078150020C1
:200F9C00694F0020040F00203CD8000073B2000008020020ADC10000B00600207FA3000061
:200FBC0061BB000080D800001817002011A900000E0005800E00001065C0000011B70000FA
:200FDC0051880110C5AB001035B9001095B40010DFF800F089840110DFF800F04FBF011069
:040FFC0030BF70474B
:20100000B41200001810000015AB0110FDB301106DC00110FDAE011099B5011000000000F7
:08102000000000002D0000009B
:20102800B01200003C100000B1C00110A9BF011067C0011069B80110000000000000000035
:041048003000000074
:20104C00B012000060100000BDC00110CDB30110D9BD01106DB3011000000000000000005B
:04106C00310000004F
:2010700000000000FC19002004000000000000000000000020000000E8C901103000000015
:2010900028100000041A00200400000000000000000000000C000000D8CA011018000000EF
:2010B0004C1000000C1A002004000000000000000000000024000000F0CA01101800000073
:2010D00000000000141A00200400000000000000000000001000000018CA01102C0000007F
:2010F00000100000241A0020040000000000000000000000200000006CCA011024000000E3
:20111000FFFFFFFF2C1A00200400000000000000000000002800000090CA011024000000A2
:20113000FFFFFFFF341A00200400000000000000000000001400000008CB01101800000021
:20115000FFFFFFFF3C1A002004000000000000000000000058000000B4C9011034000000EF
:20117000FFFFFFFF441A00200400000000000000000000001000000020CB011018000000BD
:20119000FFFFFFFF4C1A00200400000000000000000000001C000000B4CA011024000000EA
:2011B000FFFFFFFF541A00200400000000000000000000003800000044CA01102800000012
:2011D000FFFFFFFF5C1A00200400000000000000000000005400000078C901103C00000087
:0811F00001000000D0D800004E
:0411F80001000000F2
:0411FC0000000E00E1
:0412000000000F00DB
:0412040032000000B4
:0412080001000000E1
:04120C003019002075
:0412100000020000D8
:0412140000000000D6
:0412180001C90110F7
:04121C0000000000CE
:0412200000000000CA
:0412240008000000BE
:0412280000002200A0
:04122C00A8170020DF
:0412300000000000BA
:0412340000000000B6
:0412380008000000AA
:04123C00F018002086
:0412400000000000AA
:0412440000000000A6
:04124800080000009A
:04124C00000000009E
:04125000000000009A
:041254000000000096
:041258000000000092
:04125C00010000008D
:041260004018002012
:041264000600000080
:041268000100000081
:04126C00CC1600207C
:04127000000000007A
:041274000000000076
:041278000002000070
:04127C00000000006E
:02128000290043
:02128200010069
:02128400250043
:02128600300036
:02128800310033
:02128A002D0035
:02128C0001005F
:01128E00015E
:081290000300000054D8000027
:0812980000000000000000004E
:0412A0000000010049
:0412A4000000030043
:0412A80013C401105A
:0412AC0039C0000045
:0412B000B812000070
:0412B400B81200006C
:0412B8000000000032
:0412BC00A419002051
:0412C0007BC10000EE
:0412C4002000000006
:0412C800E4D7000067
:0412CC00D4D6000074
:0412D00029C101101F
:0412D40027B9000036
:0412D800A7BD0000AE
:0412DC00A1C7011095
:0412E000A3C701108F
:0412E4000000000006
:0412E80023D7000008
:0412EC0084D50000A5
:0412F0009CD5000089
:0412F4006CD50000B5
:0212F8000200F2
:0212FA000900E9
:0212FC000100EF
:0212FE000000EE
:0113000001EB
:041304002DC10000F7
:0413080079AB0000BD
:04130C009DB8000088
:04131000BDAD00006F
:0413140055AE0000D2
:04131800D5A000005C
:04131C000D8C000034
:0413200027C30000DF
:04132400AD97000081
:0413280015C70110D4
:04132C0025C70110C0
:201330002DE9F04FB64C04F10C012046ADF11C0D08F090FC04F124000AF0DFFF43F69822AF
:201350000123B049206104F1480008F073FE00250DF1170040F20D4201238DF81750AA497B
:201370000090102003F0DEFFC04910204FF0FF3203F0D8FFBE4910204FF0FF3203F0D2FFEF
:201390001020BC4E0090BD4ABB48132331460190102003F0C7FFBA48007880000BF0B0F8A5
:2013B0000146B8488346416169B14FF6FF7009F013FCB54910200BF1180200900623019106
:2013D000314603F0AFFFB148B1494FF47A722B46CBF8080004F1900008F02CFE4FF0010898
:2013F000E068AC4A29464FF0FF33FFF7CFFB5FEA000AF5D0284604900DF1160104AA05A875
:2014100009F007FDA8B9BDF8140010280DD120789DF81610884208D104990878B02804D1BF
:2014300001F108000979FFF7D9FD049808B10BF038F85FEADA70C0F00C8104E120690AF09C
:2014500090FC071C00F0FF803888401E00F08280401E6ED0801E56D0001F40F0F18078684E
:20147000BE780078002E3CD0012E2FD0022E3AD1002838D1B34884F802804FF47A7109F0BA
:2014900077FAA7496089896881460AF07FFE400829D348461B2142462B460BF0DFFA039055
:2014B00008B3A9490988ADF80A804A46ADF8081002AB057028469E490090102003F032FF07
:2014D00088B102A81B21FFF789FD0CE0E570207148B99C4884F802804FF47A7109F048FA43
:2014F00001E084F80380A0694168667105208847607A217A884218D0A678B6B1E068042166
:201510000BF0A8FA11E07868A669C28836B1B66826B11146437A027AB04706E08548834912
:201530002B460090102003F0FDFE786809F06EFB86E0B9786078012906D0022940F0808070
:201550007F480AF0F1FF7BE0062879D17C480AF0E9FF75E07848BE780088062E56D060784C
:20157000062868D1E36923B11B6813B177480AF0DBFF724880F800807548A570FF23E570FF
:2015900029461822637107F013FA0AF0D5F950B3E0690079800826D36349102006224FF465
:2015B000C86303F0BFFE6049102007224FF4C86303F0B8FE5C49102042462B4603F0B2FEB6
:2015D000284641460DF119028DF8190040F20D3001F03AF88DF8198040F2053041460DF1B3
:2015F000190201F031F8A069416805208847207984F8078004281ED108F004FB25711AE0C2
:2016100008020020ADC10000C12F0000608129468DF81810A57006AA40F20530414601F091
:2016300013F80AF0B9FB607A217A884203D0E06804210BF00FFAA0694168667004208847E3
:20165000384609F0E3FA2069FFF7CCFC00283FF4F5AE60785FEA9A0121D306281FD1E078BB
:20167000D0B93048057009F01FFC17E0C5B70000C9B9000073B2000030D80000D40D0020AD
:20169000694F00207815002018D800006BC40000EDB60000070000C00AF07EFB60785FEA98
:2016B0005A010ED306280CD109F07EF99BF80110814203DD8BF8010006F064FE20480AF0DE
:2016D00031FF5FEADA00FFF48BAEA07800283FF487AE1448007800283FF482AE607A217AFF
:2016F000884215D01B4F1620491C024691FBF0F03E465043091A2172C80000EB0110C31905
:201710009A785978305CDB1C07F0CAFB607A217A88423FF465AEE06804210BF09BF95FE6D1
:20173000601600208E1A0020BD84011089AE00004500011040E20100C0060020050F00201F
:201750005002002098020020C616002074020020380200209C0400202DE9FF47C34C0F46E1
:201770000646F80B80F05881B80880F04981607ADFF804A3B90F80F0CB80E079390914D26B
:20179000B80BC0F06A8104F13C000AF0C1FE061C08D0706830B17568F068B6F92410002204
:2017B0002023A84727F4005757E1012800F0AB80E06870300AF096FE684609F0F1F920B121
:2017D000009904F198000AF059FD00254FF00108E570A74884F805800AF0AAFDA5492A46D2
:2017F00004F160000AF088FE50460068006B80476061A2782169A369012AA0EB0100184450
:201810004FEA1030A06105D163781BB9E169B0EBC12F3AD9DFF8649284F80280A9F1150057
:2018300000686570000A30D340F60900A08494F8310000F0F00040F0010084F8310094F8E4
:20185000300000F0F00084F83000A5620AF04EFE4B4603F6FF7211686FF0020C21F002017A
:20187000116004F12401C3F8FBCF854AC3F8EB1F11688908FCD3C3F8FBCFD3F8FF1F41F03C
:201890000201C3F8FF1F0BF0E1F87E4A10687E4920F00200256140F400701060032341F876
:2018B000043C41F230038B604046086050238B6008604FF4CA638B600860237841F80C0C24
:2018D00015601BB9E06838300AF024FE022009F0EBF9112005F0BCFB307C10B90E2005F06F
:2018F000B7FB207A18B12572052009F0DDF9674965710878A57140B10D7004F1BC000421D8
:201910000AF00EFE01E00020E07127F00807A4E020B1042009F0C8F900206072B16808886B
:2019300040F602084FF0000980450AD0B0F5C15F07D00A8B4FF61F60104040F434700883C8
:2019500006E00A8A4FF61F60104040F4347008822069F0B1DAF85400016804208847C0B16A
:20197000DAF800002569006B8047F168401B738AF060020BF26098188842F06002D240186F
:201990004008F06040F6C41181422CBFB0F5FA7FF16094F8310010F00F0F0CD1718C08F1C9
:2019B0000700884207D1B56930466FF480714A464FF00073A847364904F160004A460AF0F7
:2019D0009BFD607860B10220ADF8040001A809F0BFFDBDF80C0084F801904011A4F8600131
:2019F0000120E07084F8049007F08CFF7569494630464FF080630A46A84727F000572CE016
:201A100004F0BAFA04F144000AF082FD27F0020708B147F0020720E00AF068FD014604F1A8
:201A300040000AF075FD061C12D0356AA8080FD225EA0500306208460BF008F8706850B1EE
:201A50002A46F068B6F9241075680023A84702E008460AF0FBFF27F4804727B104F1BC004D
:201A700039460AF05DFD0090BDE8FF87901A00202D660000E9B700008C01001015000440D5
:201A900010100440000004600C410440ED2000201D4B0000BB482DE9F84F0025BA4CB849BC
:201AB000056094F8E200002800F06581012800F02F81B64E02283CD0032840F05C8151F8C1
:201AD000250CD4F8B8100029A0F5C060C4F8D400B8BF49420028B8BF4042814226DA4FF09E
:201AF0008057D7F8A4014568B4F8BC0030214FF47F42082300903046A847D7F8A4014568E0
:201B1000B4F8C00004214FF4F802122300903046A847D7F8A401B4F8D070456820214FF42C
:201B300040620A2330460097A847012584F8D8501CE151F8258C0AF00DFC2F4600B90127B0
:201B50003946934F38680028FCD0B146012609F10409D9F82CA03E6009B10AF001FCCAF3B2
:201B70000720C4F8BC000AF0F5FBAA4600B9B2463B68002BFCD0D9F800B0BAF1000F3E60B8
:201B900001D00AF0EDFBCBF38440C4F8C0000AF0E1FBAA4600B9B2463B68002BFCD0D9F8A2
:201BB0001C90BAF1000F3E6001D00AF0D9FBC9F38120C4F8D000B8F5C061C4F8B81000F047
:201BD0009C8094F8D80068B9C4F8D410D4F8C000C4F8C800D4F8BC70C4F8C470D4F8D030F0
:201BF000C4F8CC30D4F8D410D4F8BC30002954BF02206FF0010004F1C802176801EB41018B
:201C10004018411000EB917107EBA1001060D4F8C810C4F8C43000291CDD1E293CDDD4F879
:201C3000CC0030B93429B4BF15391E21C4F8C81025E02A29BABFD4F8C8000B381E20C4F84C
:201C5000C800D4F8C4003F28B4BF401C3F20C4F8C4001FE0D4F8CC00032812D011F10B0F47
:201C7000C6BFD4F8C8000B30301CC4F8C800D4F8C4000028C4BF401E051CC4F8C45003257E
:201C900008E011F1150FC6BFD4F8C8001530301CC4F8C800C4F8CC504FF08057D7F8A40196
:201CB000B4F8C43030214FF47F424568374800930823A847D7F8A40104214FF40032112304
:201CD000456832480096A847B4F8C860D7F8A40104214FF4F802122345682C480096A847C3
:201CF000D7F8A40120214FF440620A23B4F8CC60456826480096A84701E084F8D85040F2DE
:201D1000FF50404502D8801C40452FD2082030E051F8251C1F4F4BF2F5204843060A386826
:201D3000C0F3814001280CD11B4800680068804708F0BAFC0AF01AFB3111C010484306EBD4
:201D5000E03694F8E50030B91448006820F07F408019460801E084F8E5501148310C0660FB
:201D7000012741600F4D8760287808B90B2000E0052084F8E40003F045F9BDE8F88FC046F3
:201D90002D400C402C500C404013002000A00C4000800C40B43F0050EC01001010200940CE
:201DB0003C600C40CDD700002DE9F04FB64D686885B0019020B905B0BDE8F04F0AF042BE2D
:201DD0000178DFF8C882B24EDFF8C892DFF8C8A201291CBF0229042946F2A81741F64C5BB5
:201DF00005D0402918BF802900F09A8043E10AF0E7FA0028FAD00198007803F07DFE00900B
:201E1000446814B9002009F04BFF9AF80100002860D001F003FC0AF045F902900168009830
:201E300001914F6807F014F9022827D000990A78012ADBD1994B19680A7A19F80230337063
:201E500018B90AF0FBFD5844A0602069C17E01F0EF01C1762069C17E41F08001C1762069F9
:201E7000C17E01F0F00141F00201C1768C48B96841182069C16101210098A0E00198017881
:201E9000802913D10822874832700178012903D09AF80100012803DD38690121C17213E00F
:201EB000D8F828103A690878D0720DE07D49072030700A783869012A02D10123C37203E0CE
:201ED000D8F828104A78C2720298817901988AF80210CBE00098002888D00199009A0078C4
:201EF000914205D101281CBF002009F0D9FE15E0012840F0C080694801680A7A19F80200F6
:201F100030700AF09BFD3918A0680AF093FD18B90AF094FD5844A0600120A8700098A5E04E
:201F30009AF8010000287DD001F078FB0AF0BAF804462068029047689AF802000AF0B2F82E
:201F500003900AF043FA10F0070F3DD0A87803F0D3FD0190416801980091029907F078F83B
:201F7000022831D001990A78012A2AD14B4B19680A7A19F80230337028B90AF05FFD834465
:201F90000098C0F808B000990869C17E01F0EF01C17600980069C17E41F08001C176009807
:201FB0000069C17E01F0F00141F00201C176009AB9683B4841181069C16101210198A97016
:201FD00054E0002009F06CFE0398A04228D002980178802913D1082232483270017801293C
:201FF00003D09AF80100012803DD38690121C17213E0D8F828103A690878D0720DE02949AD
:20201000072030700A783869012A02D10123C37203E0D8F828104A78C272A0798AF80200F1
:20203000029823E00AF0D2F910F0070F29D0A87803F062FD04462078D4F80480012820D161
:2020500016490A68107A19F8001031700AF0F6FC3918D8F808000AF0EDFC20B90AF0EEFC9E
:202070005844C8F808000120A870204605B0BDE8F04F04F05FBE05B0BDE8F04F002009F0F1
:202090000FBE05B0BDE8F08FBC200020FCD800006F4F0020289A0110684E0020104F0020B4
:2020B000F0D8FFFF734F00202DE9F04F0C46E00789B00BD50AF0B2F828B100218160A44856
:2020D000006800B1804784F001003EE1A00710D500200690002104900023029000900591AA
:2020F0000393019101223C200AF0A0FC84F002002BE11D256007974E974F40F18A80002042
:202110000790834695498878FF2804BF002009F0C7FD386890F8A00009F0C4FF80463868C0
:20213000C07A98F82691022818BF032808F5907A06D106F10D000AF075FC08B906F1070BCB
:20215000514648460AF06AFC88B33868807A002818BF012804D1314650460AF05BFC04E0D6
:202170005246494630460AF051FCFF2834D005FB00F906EB090506225146E81D09F090FEFD
:2021900016F8090040F00209E81D079006223868817E01F0010188F8261105F1010A38682F
:2021B00000F1140108F5907009F07AFE14E0514648460AF027FC78B15246494630460AF0A5
:2021D00025FCFF2808D006F10D01454348190AF029FC08B149F0020908F12C004B46017896
:2021F0000691418909090591B8F82220079904920122C088029140080390CDF804B0CDF887
:2022100000A0002098F806100AF010FC84F004009BE0200610D500200690002104900023B6
:202230000290009005910393019101223B200AF0FDFB84F0800088E0E0043BD5F11D06F1E9
:202250000D000AF0DBFB38684179012923D1017A012918BF04291ED1C17A022918BF032918
:2022700019D1817E00F1140230460AF0CFFBFF2811D04543354405F10D000AF0D3FB50B947
:20229000E91D05F10D000AF0B9FB38680622E91D143009F005FE324932484A6800784FF407
:2022B000805108F021F810B18E2006F047FA84F480504AE0A00505D50AF04CF82A490120C3
:2022D0000860FEE7610504D506F037FA84F480603BE0600405D5812006F030FA84F4804091
:2022F00033E0A00430D5214D286810B1002009F0D7FC4FF0FF3028600AF07CFB1C4D296806
:2023100051F8202F684690471A48016A426A2D68009101921849029100F128014A6809781D
:202330001368C06903938DF81010ADF812006B462E68124A12491348B0471349086003F0F0
:20235000B9F884F4005000E0002009B0BDE8F08F204F0020AC450020104F0020684E002022
:20237000784E00206E4F0020FC002043044F0020F04E0020E01700201DC200002C4D0020CB
:202390006845002088490020EC4E00202DE9FE4F0F46994C0168E16241688068E06097481C
:2023B000A16080479648E16A0160A168DFF870B24160E168DFF8648281609249002FA2463F
:2023D000C16063D03D68E8788DF8080028798DF8090002A80AF00AFBA86808B18A49016032
:2023F000E86808B189490160894C2878207068786070A878BE68A07031787368E170B26897
:2024100063602E69A2607968E6610868E06068692062A8696062287F84F828002A6AE2622F
:20243000786886681EB9002009F03AFC00E066617868C06818B9002009F032FC00E0A061F0
:202450007868406818B9002009F02AFC00E020612869E061F86881680E6806B96E4E6D49B1
:202470004FF001094E60C66881F801902EB9002009F016FCF868454601E045462E600068BE
:202490005C46FE68A0617068E06106E0002009F007FC4FF001095C464546286861494668AA
:2024B000621C04F114035020B04710B1286880688047DAF8080080475C4F00268346694631
:2024D0007E7059483E7004222061304608F004FD0098B0F5801F0CD020B908F0CDFF03F051
:2024F00033FC08E007F0BCFE09F00EFE0420788001E008F0C1FF4E4FB0462868C7F80880E0
:202510008069A660804778604A48468080F80090142009F0A3FEFF211422A0620AF00AF89B
:20253000E01CFF2103220AF005F8142009F096FE4149086008681422314609F0FBFF30461A
:20255000FDF774FD484608F0EBF83C480188FF2906D1022101807822001D314609F0EAFFDD
:2025700003200AF03FFA04200AF038FA05200AF031FA06200AF02AFA072007F0E1F8304EA2
:202590000820307006F124000AF01CFA07F012FA06F1360705200A213A4609F0CAFA38B18B
:2025B0004046C0F10901401C07F8011B0A28F8DB3078102104F0ECFC2F68224909200DF170
:2025D0000A0201AB7D68087010204146A847A06AE2690A270A309DF80A1000F8011BDAF8DB
:2025F0000C107F1EF7D1921E5846E261884702F0CFF8BDE8FE8FC0465414002041490010D7
:20261000F844002074CA0000ADB3000021BE0000E0170020C4190020E7AB00006C1A002085
:20263000A018002031B8000081BE0000641A0020B0200020AC060020E4200020FC140020D6
:20265000B8100020F82000202DE9FC41A0F2013714468846022F40F232819B4E9C493F1FC3
:202670000F2F04D9143F4CD0BF1E1CD011E0DFE817F0CF00C9000D01FA00C100B9002601F7
:20269000AF00A700100010009D008F007F0074006600282880F21381B8F1020F40F00F815F
:2026B0008849238807E1B8F1010F40F00881F078012800F00481324620781179107189B9D1
:2026D000002800F0FC805078012800F0B580042800F0B280062800F0AF80052800F0AC805C
:2026F000BDE8FC812078002840F0E9805078032800F0AF80072800F0AC80052840F0DF8036
:20271000A7E0B8F1010F40F0DA802078012840F0D68006F1EC0009F071FD002840F0CF80A7
:202730003446002004F13A0105F0F8FE002840F0C68004F1C80009F0F7FEBDE8FC81B8F1C0
:20275000020F40F0BC8020880A28C0F2B880B0F5486F00F3B4808E1C17E0B8F1020F40F01A
:20277000AE802088B0F5FA7F80F2A9800E460CE0B8F1020F40F0A38020880628C0F29F80C6
:20279000B0F5486F00F39B803E363080BDE8FC81B8F1020F40F0938020880628C0F28F80E5
:2027B000B0F5486F00F38B803C36EEE7B8F1010F40F085802078062880F28180454E0EE0C0
:2027D000B8F1010F7BD12078042878DA0A3606E0B8F1010F73D12078082870DA09363070BA
:2027F000BDE8FC81B8F1010F69D12078042866DA0836F4E7B8F1010F61D1207804285EDCAE
:20281000F61DECE7B8F1020F59D120880E36BCE7B8F1010F53D13079012850D03246207870
:20283000D178D07069B9002849D05078012803D0042818BF052842D1012009F007FDBDE8D2
:20285000FC81207800283AD15078022818BF052835D1107808F04AFD1C490246102002F08E
:2028700061FDBDE8FC8106F1830500211F22284606F09EF821464246284605F041F94446D7
:202890003078B47108F032FD002311E006F1640500211F22284606F08BF82146424628461A
:2028B00005F02EF944463078747108F01FFD01230094094901950246102002F033FDBDE8E2
:2028D000FC81C046BD840110B006002099450110F0060020EA060020094501102DE9F04F74
:2028F0008246DAF800600C465FEA0208ADF11C0D14BF00214FF0FF3106F14800834609F0FE
:202910002BFC002818BF0B2040F00D8100258848F460B8F1010F057007D06570022008F05B
:202930006BFB062008F068FB01E0012060702078012840F2AB80801E012868D9801E0128E1
:2029500033D9801E012800F2DF8009F0CFFD06904FF0805000F5EE77D0F8DC01A378466A0F
:20297000009321782846062908BF0120019001200290A068228AE1686368B047814606982E
:202990000AF064F8B9F1000F40F0C080B8F1000F02D009F055FA02E0504608F079FC0028C9
:2029B00000F0A4803868806A2AE009F09FFD06904FF0805000F5EE77D0F8DC010123066894
:2029D0000093A168A27860682478AC46042C08BF9C466346B047814606980AF037F8B9F12A
:2029F000000F40F09380B8F1000F02D009F028FA02E0504608F04CFC002877D03868406861
:202A100080474A49C1F8B0510D6081467EE009F06DFD06904FF0805000F5EE76D0F8DC01FA
:202A3000E38A87690093E0680190208B0290A0780390207D04900121059122782846022AB8
:202A500008BF081CE1786268A368B8478146069809F0FCFFB9F1000F58D1B8F1000F02D089
:202A700009F0EEF902E0504608F012FC00283DD03068006A80475FEA000947D13068C569BA
:202A9000A168E28A2369E078A847BEE709F02EFD06904FF0805000F5EE76D0F8DC01E38A05
:202AB000C7680093E0680190208B0290A0780390207D2946049001200590257805B901468B
:202AD00008466268A368E178B8478146069809F0BDFFB9F1000F19D1B8F1000F02D009F02B
:202AF000AFF902E0504608F0D3FB08B914201AE03068406980475FEA000907D130680269BC
:202B10002169E078904780E74FF0FF39B8F1010F05D0022008F0C8F8062008F0C5F858462D
:202B300009F0F8FC484607B0BDE8F08F50450240F72000202DE9FE4F05467F480024006820
:202B50000094C0090ED37D48007858B97D497C4851F8112C104040F0817041F8110C2020C2
:202B700007F0A0FB012D40F0E280DFF80892D9F8DC00012840F0D8800220C9F8DC0008F06D
:202B9000EBFE012007F08EFB5FEA000805D00120C9F8DC0008F0F0FECBE009F0BDFCA3468B
:202BB00002906948694DC0F800B0A86A016801208847012804D1584606F080FA012000907C
:202BD0006348644FC0F800B03868112009F0E0FB00B10124102009F0DBFB08B144F00204B2
:202BF0000F2009F0D5FB08B144F004040B2009F0CFFB20B12868584E016B308888470A20C6
:202C100009F0C6FB20B12868544E016B308888475348012606602868816944F0200088472F
:202C30005048066009F0AEFB00F001010191400814D2286A81684C4888478246BAF1040FCE
:202C5000F7D0BAF1010F04D1286A42684648032190474649086820F003000860584600F040
:202C7000E7FD2B683868986B8047019801280CD0BAF1010F04D1286A42683B483146904728
:202C90003A49086840F0030008603148066028684169204688470B2009F07AFB20B128684E
:202CB0002D4BC16A188888470A2009F071FB20B128682A4BC16A18888847294806600322F7
:202CD000C9F8DC20274BC3F800B02868416B204688470128F9D13868042007F0E3FA044604
:202CF000194806603868144800688009FBD30098012802D1304606F0E1F909F031FB08201B
:202D100007F0D0FA07460298C9F8DC6009F056FE1748008806F01CF808F02EFE57EA040057
:202D300018BF4FF0FF3804E06FF0040801E06FF001084046BDE8FE8F14100940281400201D
:202D5000FFFFFCFC150009400C400940B8010010000222432C20094002D50000FED400000C
:202D700028200860800104430040034024220840C8D700004013002010B50B7884074CBFCA
:202D900043F0020303F0FD0304064CBF43F0800303F07F0304074CBF43F0080303F0F70377
:202DB00084064CBF43F0200303F0DF0310F0AA0F0B7004D0107840F00C00107010BD18B959
:202DD000117801F0F301117010BD2DE9F8430D461646287802281F464FF0000862D16868AE
:202DF00001784078089C01EB002189B220001CBFB1F5285F0B205AD14FF42850091A08D072
:202E1000491E1ED0491E2CD0491E22D0491E2ED048E0DDF82490E86809F08EFB214680B210
:202E3000421A4A45ACBF4C46041BA4B26018162804DA3C802246E86801440EE04FF00D0896
:202E500034E0E8680088022139803070000A70702CE0062038800622E968304609F020F826
:202E700024E001203880E868017831701EE0E868B0B108213980018831700188090A7170C3
:202E90004188B1704188090AF170818831718188090A7171C188B171C088000AF07105E04F
:202EB000398003E0A7F800804FF001084046BDE8F2832DE9F0470F4682B03978002402298B
:202ED00070D1804678680A9E0178DFF8E0A09146427801EB022189B24FF42850091A1D4667
:202EF00006D0491E29D0491E4ED0491E39D059E0F86809F021FB80B2B04204D3A8191628EF
:202F100003DB0D244FE007244DE0FB682A464946981908F0C5FFAD19F868ADB2C5F11602E9
:202F30000021401909F006FBDAF8000000281CBF0268002A37D0002123E08EBB022DE0D150
:202F500099F8000099F80110FA6800EB01201080DAF8000000281CBF0268002A23D00121B2
:202F70000FE0EEB9062DCCD1F8680622494608F097FFDAF8000000281CBF0268002A12D0EB
:202F90000321404690470EE056B9012DB9D199F80000002813BF0128F9680870802402E0D8
:202FB0000B2400E001242046BDE8F687D82000207CB5894D144602460026A2F58062182AA3
:202FD0001AD8DFE812F0FE00F800F100E900E200DC00D500D0001900C500BE00B700AE00F2
:202FF000A3001900190080006F00680054004C00420039002C002400282880F28580022938
:2030100040F08280218809F0D5FC0646E1E0012940F0DE80002C00F0DB801135A6E01029BA
:2030300040F0D680002C00F0D380284650301022214608F035FFCCE0012940F0C980002C5D
:2030500000F0C68029468D1D90E0262940F0C080002C00F0BD8005F160002622E8E70129F2
:2030700040F0B680002C00F0B3806D1D7EE0602900D13CB9012940F0AB80002C00F0A8808B
:203090000D3573E005F186002146602208F008FF012068739DE0012940F09A80207809F0A9
:2030B00085FC96E0012940F093802078022800F38F800C3528702078022814BF301C0120FD
:2030D00009F070FC85E0072940F08280611C6846062208F00FFE20786946324604F0DCFAD3
:2030F00004460A2C10DA09F059FC38B9204602F097FD08F0B9FA06F05DFC6AE02A46012056
:2031100002F12C05285564E0022662E001295FD1A87B21780028A9735BD12078012858D1E0
:20313000E9E7012954D12478072C51DB102C4FDC0B3537E001294BD124780A2C48DA09352F
:2031500030E0012944D12478022C41DA083529E000293DD109F022FC10B908F05AFFC8E7CE
:2031700001240F351EE0012932D10A35247819E001292DD12478022C2ADAED1D12E01029AC
:2031900026D12B4603F1400051E7012920D12478022C1DDA2D1D05E0012919D12478042C60
:2031B00016DCED1C2C7014E0012911D12478022C0EDAAD1CF6E702290AD120881435288071
:2031D00007E0012904D12478022CD8BF6D1CE9DD182630467CBDC046B81000202DE9F04F19
:2031F000044678488E46016894461F46BEF1000FADF1440D4AD0BCF1000F47D09EF80020E9
:2032100001209040014241D0BCF80000B0F5C15F2FD1DCF81400DCF818606B4BDCF81C50B6
:20323000DFF8A8A10E904FF003080DF134090F9618681095C0F3036B59F8046FB6B1002104
:20325000331F05200A4653F8045FAA4506D0401E01F1040102F10102F5D107E0052A05DA1E
:20327000705820F4702040EA0B407050B8F10108E2D1C4F804E0C4F808C009F037F9544D4A
:203290008346287820B1584609F0E0FB002095E002F008FB4F49086840F0020008600AA894
:2032B00008F0A4FF4FF0050905F1BC000AAA4A49CDF8309007F016FA0AA808F077FF00264B
:2032D0004FF0FF0A05F1600019210AAB8DF83060424ACDF82CA007F08BF90AA808F086FF75
:2032F00005F1F0000AAA3E49CDF8309007F0FAF90AA808F05BFF4FF00108CDF82CA005F15B
:203310007C001A210AAB374A8DF8308007F070F93549324605F19800134606F01FFE3348B0
:2033300009F006F8324A3346042105F14C0008F023F94FF6FF70A5F86001AE702E716E71C8
:20335000AE71EE712E726E722E61C5F81C902B7885F80180581C2870584609F077FB1FB9D9
:2033700003AF384608F08AFE386820607868E060387C84F811802074788A60821D4DA561A4
:203390006561F86800B1A061B86800B160613146782204F1200005F00BFB04F138003146EE
:2033B00007F0E6FF684609F073F81349029404F1700032466B4606F0D1FD204611B0BDE8FF
:2033D000F08FC046D4210840541300500200F844901A00200020094011BF0000E9B7000083
:2033F00001760000B58500004DC200002D660000F19D0000BB980000D1C40000F0B5734894
:20341000734A0078734C744B74490D2883B03CD8DFE800F0DB07070707D3D358D39292B05D
:20343000B0B7146041F204456D494C88AC421FBF4E8BAE424E8EAE4203D11D8069481060A8
:2034500072E0022C684D1C804FF4A05635D94FF48067E41B1AD0241F012C1DD94FF47F7792
:20347000E41B1BD04FF44067E41B0FD0A41E012C0CD9241F0AD0641E012C0DD940F2F937A2
:20349000E41B012C19D9241F08D096E0022814BF1E80564D156047E0554DFBE75548036807
:2034B0001C7A012C05D141F20240488048834886F0E74E804E834E86ECE7002008F0F0FB6D
:2034D00083207EE04C488178FF2952D0182041434A48146040F204450068841C645A1C8065
:2034F000641B012C464B70D94FF47F75641B0FD04FF44065641B032C84BF641F012C0BD934
:20351000A41E012C61D940F2FD35641B06D103E0801C41F201444452136005E0002008F0BB
:20353000BFFB852009F036FA03B0BDE8F04035480078012103F02CBD40F204424888188098
:2035500090421CBF41F2084290423ED041F60402904211D12C4C2D4A25682D4800680023E4
:20357000CDE9002355F8086F2A4B0222B0472A490880F7BD48881880002008F091FB8520AE
:203590001FE04888188002280DD940F20442801A1BD040F6FC72801A05D0083815D04FF42C
:2035B0007F72801AE8D1887B801CC0B2B528A8BF6620887300204880F7BD002008F070FBC2
:2035D0008420BDE8FE4009F0E5B9F7BD6F4F0020204F0020CBC40000504F0020CC4C002016
:2035F000204A002059550110615A0110B1540110755B0110104F0020684E0020804E00206C
:20361000313901106E4F0020F04E002002000080EC4E002001A50000424F00202DE9FE4F4E
:20363000DFF8FC8198F8011011B9002008F038FB09F004FA0546002405F6C4150027794E48
:20365000DFF8E4910EE0384608F02CFD417939B1316882790A552946641C09F097F9E4B2DC
:203670007F1CFFB299F800008742ECDB98F80100844205D0002008F013FB822009F08AF95D
:2036900098F80100012840F0A980002701E07F1CFFB299F80000874280F29A80384608F057
:2036B00001FD054668790028F1D03068A979027891421CBF002008F0F3FAA87986E03068E1
:2036D00010F8090008F0EEFC00684268DAF808109068814204BF3D4609F1010900F08D80E9
:2036F0008FE03068047801210FE0D8F80420435C02F5AD7209FB03F509FB04FE555B32F8A1
:203710000E20954238BF1C46491CFFB2B942ECDB4FF6FF7009F036F98346204608F0C2FCA2
:2037300040F6C41500684168CDF800A000204FEA5B076F4382460291CDF804B016E0204657
:2037500008F0B0FC01680A78802A04BFDBF810305F610978402907D1344A8079136803EBE8
:20377000401107F5A062CA610AF1010A0098824554DA306810F80A008442F5D0D8F80430F3
:2037900009FB00F2991803F5AD73C9899A5A4B08934203D2009B891A8B42E5DA08F082FCD7
:2037B0000068D0F804B0029A0198DBF80810936800EBD0704010A1F6C41105FB003009F0EA
:2037D00039F90028BBD0306810F80A00BDE8FE8F002008F065FA822009F0DCF898F8011091
:2037F000306809F0CBF83068007808F05BFC00250168D1F804A04FF001096F1CA145FFF65C
:203810005EAFEDB2002D1CBFF8B20028A2464FF4C0797FF466AF3068047879E72046D5E790
:20383000684E0020004F00207B4F0020844E00202DE9F84FDFF8F4B10746ABF13500DFF889
:20385000E0910068800880F0D98071480068006880477A490831D1F8008000254FEA2872A1
:203870005FEA985102F101020AD2C0F13E0110F10A0F4FEAE101D8BF08218A42B8BF0A1CE6
:20389000644BD3F87C11C1F304611629A8BF20391B68C3F30443162BA8BF203B9A468918F5
:2038B000162905DA11F10A0FB8BF6FF0090100E01521594B594E01F01F0242F4F8521A8052
:2038D000326812F0030F18BF0125D20828BF45F002050FB145F004054A4692F90730C31A03
:2038F000052B04DA9379AB4208BF918866D0DFF834E10F28A0F10F0C25DB0CEB0013A3F12E
:20391000F00C4FEA2C26072E88BF07263446062C88BF06245EF82470042303EB840374460A
:20393000E358DB1B03F0FF04EF0824BFC3F307273C44AF0824BFC3F307473C446F0828BF96
:2039500004EB136401E0002426465EF826E0EF080EF0FF0324BFCEF307273B44AF0824BF42
:20397000CEF307473B446F0828BF03EB1E63A4B2ACEB0626AAEB01017443002904F18004D3
:2039900003EB1423D8BF0121342408F0FF074C43A1B27943B1FBF3F14FF6FF738B4238BF3A
:2039B000191C802889B2918005DA10F1800FB8BF6FF07F0000E07F20D07195711A4800687A
:2039D0001F2910604FF0000008D340F2FF128A4206D24908401C8A42FBD301E01F219180A5
:2039F000134F0F39090940EAC10047EA0001CBF8FB1F0026CBF8FF6FBDE8F88F0D490E4FCB
:203A10004A4608200F60921D1070BDE8F88FC046EC0100103C1100506E62084024220840CE
:203A3000D02000209C130050082009403500094000E7A48030100940FDFDA400AC3F00500B
:203A50002DE9FE4F0E468246307AC10693461C464FF000090CD5584608F08CFF030000F0EE
:203A7000EA800A223146504698475FEA00094DD13078DDF838800D9D0C9F02281AD17068CD
:203A90000178407801EB002189B24FF42052891A012910D9891E3AD0491E14D0FD397BD0B5
:203AB000491E00F08280491E6ED0491E74D0491E00F09780ADE0002D2AD1F06801783980A0
:203AD0000278416889E0002D22D101203880F0680178217000217089401C80B208F046FF0A
:203AF000398860B10278921C51183980418961704189090AA17002784168E01C6EE0091D7E
:203B1000398004220021601C08F014FD95E0002D68D1F0680588042139802570290A6170D9
:203B300028460DF1020108F021FF5FEA000821D0D8F80C50BDF802204FF6FF766B463146C7
:203B500008F010FF50B998F80030D8F804203C48022108F003FF08B9ADF800602878022860
:203B70000AD169680222201D08F09AF93888801C388001E0ADF80050BDF80000A070BDF839
:203B90000000000AE07058E0002D2BD1F0680168504608F0FBFA02E025BBF0680088022151
:203BB00039802070000A607047E0F06808F0C4FC80B229468842B8BF4FF007093DDB81428F
:203BD00008BF002206D008EB01028242B2BF4246451BAAB23A80F0680144204608F060F999
:203BF0002BE015B14FF00B0927E0F0680721398001782170417861704188A1704188090A07
:203C1000E17001792171C1886171C088000AA07113E0584608F09EFE5FEA00090BD00F98C0
:203C30000290CDF8048000953B46224631465046C847814601E04FF00E094846BDE8FE8F41
:203C50003AD60000F8B57E4F04463868C16E0025002940F0F180102008F000FB39680028D6
:203C7000C86600F0E7808E6E1022214608F018F939680878002840F08E80CA6ED6F89800EC
:203C900012F80CCF00F001030CF0010C634518BF0023400843EA4000C6F89800C0F340038F
:203CB000D2F800C0CCF3400C634506BF430803F00103002320F0020040EA4300C6F89800B8
:203CD000C0F38003D2F800C0CCF3800C634506BF830803F00103002320F0040040EA8300F6
:203CF000C6F89800C0F3C003D2F800C0CCF3C00C634506BFC30803F00103002320F0080069
:203D100040EAC300C6F89800C0F30023D2F800C0CCF3002C634506BF030A03F00103002371
:203D300020F4807040EA0320C6F89800C0F34023D2F800C0CCF3402C634506BF430A03F054
:203D50000103002320F4007040EA4320C6F89800C0F38023D2F800C0CCF3802C634506BF0D
:203D7000830A03F00103002320F4806040EA8320C6F89800C0F3C0231268C2F3C0229342F9
:203D900006BFC20A02F00102002220F4006040EAC220C6F898008A6E92F89500030718D587
:203DB000C86E4368C3F3C00098B1C87840F00800C870D6F8981023480140C6F8981038687B
:203DD000C06EC16821F48071C16049084900C16003E092F8330001282AD0607800281CBFFC
:203DF0007178002908D13968CA78130708D5002804BF7078002803D03A68052111711CE0DA
:203E10006068C0F3800040B996F8950010F0040002D10120087110E00AD00878002819BFC0
:203E3000307821783178207808F090FD054604E0182502E0132500E011252846F2BD00BFF3
:203E5000304F0020FEFEFFFF2DE9F0411C4615468C4208BF854282BF00230022E5E0002CE2
:203E700008BF002D0AD100290EBF00286FF000006FF0000100F0E1F8BDE8F0815FF0000850
:203E90005FF0000E002C08BF8D429CBF2C1C0025070C47EA01470E0CB44208BFBD429EBF6C
:203EB0005FEA044444EA15445FEA0545070A47EA01670E0AB44208BFBD429EBF5FEA0424FB
:203ED00044EA15645FEA0525470847EAC1774E08B44208BFBD4200F29380870847EA817731
:203EF0008E08B44208BFBD427CD8C70847EA4177CE08B44208BFBD4266D8070947EA0177CB
:203F10000E09B44208BFBD4250D8470947EAC1674E09B44208BFBD423AD8870947EA81671F
:203F30008E09B44208BFBD4224D8C70947EA4167CE09B44208BFBD420DD8E60146EA55662F
:203F5000EF01B14208BFB84201D3C01BB14158EB08085EEB0E0EA60146EA95664FEA8517AD
:203F7000B14208BFB84201D3C01BB14158EB08084EEB0E0E660146EAD5666F01B14208BF38
:203F9000B84201D3C01BB14158EB08084EEB0E0E260146EA15762F01B14208BFB84201D334
:203FB000C01BB14158EB08085EEB0E0EE60046EA5576EF00B14208BFB84201D3C01BB14147
:203FD00058EB08084EEB0E0EA60046EA9576AF00B14208BFB84201D3C01BB14158EB0808F1
:203FF0004EEB0E0E660046EAD5766F00B14208BFB84201D3C01BB14158EB08085EEB0E0EFF
:20401000A14208BFA84201D3401BA14158EB08085EEB0E0EA34208BFAA423EBF2D0A45EA38
:204030000465240A89D3734642461E4617460B46024631463846BDE8F08170472DE9F041D9
:204050000446764DA178A869ADF1180D891F00F0DE80C91E00F0C980491E5FD0491E48D02B
:20407000C91E3CD0481E40F0D580287A697AB8B96878002831D0A08808F064FC071C00F0C0
:20409000C980A07A40080FD3787968B1E168890A0AD2B91D01AA03F0FFFA0A2804D1032129
:2040B000A08808F04BFCB5E0287B022802D1A07A0009F4D3A088797904F1080201F06AF8FE
:2040D000A869002800F0A6804368002B00F0A28000210A46A08898479CE00521E0E7002890
:2040F00000F098804368002B00F0948062780221F0E708F09BF8002800F08C80A86950B139
:20411000076847B1206900906189227B637BE01C3C46A0477EE060890121C2E767784FF015
:204130000008002F52D1A17949084FD3EF69002F4CD101A841460E2208F0FCF9A08808F077
:2041500001FC071C66D0606940B97879B91D06228DF80A0001A807F0A3FE19E06669307C04
:20417000062206F111018DF80A0001A807F098FE07F10C00B91D062207F092FEB81D0622B3
:2041900006F1110107F08CFE307C40F002007871A1799DF81120C1F3800010438DF81100C1
:2041B000080905D39DF8110040F008008DF8110001A8214600F022F928B92878022102F0E1
:2041D000E7FE404627E0A8694FF0150810B3436803B3A088627801219847B8F1000F19D028
:2041F000A86943680321424674E7E078211D002203F052FA0A280DDA410001EB800004F13A
:204210000C0225300421C0B201F0B4FF02E0A08805F0D0FC012006B0BDE8F081B810002050
:204230002DE9F04F6C4CE2680746880FADF1140DC0F0CF805068406808B18047E268516892
:20425000664E886808B9CD6875B13568002DFCD00022326010B18047E0684168C86800B1EA
:2042700080475F4807F074F94FF00008C6F800805C4846F81C0C5C4808F05AF840F60A0996
:20429000A4F82490A378A4F82680BD6894F83000C34604F1240A00F0F00084F83000012B9C
:2042B000C4F828B094F83100A5F8028000F0F00040F0010084F8310001D17B7CABB1B8687B
:2042D0000088A9F10801814208D0B0F5C15F05D0298B4FF60F400840288304E0298A4FF657
:2042F0000F400840288287F811804048016883680193C368406B00911022694620F07840DD
:2043100040F0805003903A48029303F0F9FB494600E01D466B6813B118888142F9D1C5F8A9
:2043300004A0687B00F0F000687304F1380008F0EFF880680088A9F10701814220D0491CF5
:2043500081421DD03B8CEBB197F82C0097F82D30C7F824B000F0F00087F82C0003F0F00092
:2043700040F0010087F82D0007F12002A2629AF80D00A7F8228000F0F0008AF80D0001E002
:20439000C4F8108030680028FCD0C6F80080B968237A0A8A4FF6FF301040088283B91548BE
:2043B000006801680120884701280FD0687B00F0F00040F0010068730F4807F0B9FF05E06A
:2043D00006F076F80028FBD008F0A0F8B86846F81C0C05B0BDE8F08F901A00201C1004404D
:2043F0000100070601010E04691700004C13005018000021E0010010C59400002DE9F04F84
:20441000714CDFF8C0A1E56988468146ADF1140D002D4AD1B9F1000F00F09280B8F1000F3A
:2044300000F08E8007F03EF806460A2E23DAD8F814702674002F39D0700010216A4600EB5E
:2044500086002330C0B207F074FB90B950460778FF211022684607F091FC50B93FB999F827
:204470000600494600F0010008F064FA01E00120A074E56919E004F1E60B0A270026584618
:20449000FF21062207F07AFC68B97F1E0BF10E0B06F10106F3D1607C002804BF0A2020743D
:2044B0004ED094F83660267400E0267C0A2E47DA002D35D170000E214A4600EB8600203014
:2044D000C0B201F057FE207C05F0D6FC6846FF21102208F02FF8207C10216A467030C0B203
:2044F00001F048FE217C0E220801A0EB410000194946E63007F0D4FCD8F814206AB1504699
:20451000007840B9107C02F11101002300F0010008F00CFA01E00120A074C4F81C804CE0DD
:20453000AA68002A3ED12A69002A2FD16A690ABBEA683AB9A07B08B106F0BEFD07F0EAFA26
:2045500001203BE07000102100EB86002430C0B201F010FEE769217CFA68480000EB810035
:20457000103225300421C0B201F004FEE1690020C86022E07000102100EB86002330C0B29F
:2045900001F0F8FDE1690020486116E070001C2100EB86002230C0B201F0ECFDE1690020F6
:2045B00008610AE070001C2100EB86002130C0B201F0E0FDE16900208860002005B0BDE81D
:2045D000F08FC0465A4F0020B810002066480178002900D170472DE9F043491E032985B0AC
:2045F00004D9891F012940F2BC80B4E05F4CDFF880912168DFF87C8108685F4E00F10805EF
:20461000062205F1080102A807F04AFC0622A91C684607F045FC2878C1091D2700F00F02FA
:20463000032AC0F3801537D16079C0F3800081421ED12169062202A807F0EEF900280AD0F3
:204650006946284608F0EAF9002804D03146684608F0E0F9FF2879D04743D8F80000807A9C
:20467000F519002818BF02280AD0012818BF03286CD1F25D691C484608F054F9102865D09D
:204690006B46EA1D2946484608F048F906226946E81D07F005FC59E000F00F00052860D1B2
:2046B0006079C0F38000814250D12169062202A807F0B2F9002849D06946284608F0AEF9FF
:2046D000002843D03146684608F0A4F9FF283DD04743D8F80000807AF519002818BF012817
:2046F0000AD0022818BF032830D1F25D691C484608F018F9102829D040F2024008F00AF998
:204710006B46EA1D2946484608F008F906226946E81D07F0C5FBD8F80010F05D88760622F5
:20473000D8F80000691C143007F0BAFB1348144A41F2044141804183418612480180124971
:20475000124808600121107802F022FC21680A680020107105E0002007F0A2FA862008F0FB
:2047700019F905B0BDE8F0836F4F0020F44B0020CC470020104F0020AC450020204A0020C0
:204790006E4F0020504F0020204F0020595501102DE9FE4F674D664C674F2868626A0669D5
:2047B00004F1200339460120B04710B1286880688047DFF89881DFF8849106F041FF5FEADF
:2047D000000B03D003F016FB4FF0FF3B002637E00098216910F8062CA0F10C07032A02D131
:2047F00071B388472CE0A06A9DF805C00A213246401E10F8013F9C4506D0491E02F10102E9
:20481000F7D14FF0FF0A01E05FFA82FA2868BAF1FF0F00F1080011D0387906F051F9B9797C
:20483000012904D0022904BF0099887001E0009908700099504607F00FF901E000688047BB
:204850002868C3690DF105016A4601A898470028BED0D9F8000030F8167027B9761CF6B201
:204870000A2EF8DB23E00A2E21DAD8F808008047D9F800107700002231F807A0CA53D8F811
:204890000C1088472E4850F8262026705146304690470646FF202070D8F808008047D9F834
:2048B00000107A5A16437E52D8F80C10884706F0C7FE0746BB451AD007B9224FE069B842BA
:2048D00038BF071CD8F80800804782462868016A206A8847626A286817491B4B521C62629F
:2048F000C6683846B047D8F80C1050468847A7682968606914318FB9D9F800000A27002696
:20491000835B33B10969606988472968D9F8000014317F1E06F10206F2D103E00969884791
:204930002968143109684FF0FF30884745E7C046A01800206C1A002009AB0000E42000205B
:2049500084D600008EC2F528C0180020541400202DE9F04FADF1240D079000F0A3FF61480A
:20497000007806F0F1FE604D0024012808D90A380FD0801E04D0401E0ED0401E09D006E003
:2049900007F016FA022804BF01210C1C06D0696805E005211F2401E0032107246960534A3E
:2049B0001068C0F38150012806D152F80C0C0127020E07FA02F0044307F010FC524AFF2356
:2049D0000818401E471C28607F1E02F8013BFBD1079A1268002702F0FF03FE2B20D0DDF89B
:2049F0001CC096463B4601260EF0FF02FF2A10D0904205D3914203D806FA02F2144201D0CC
:204A100002206CE017430EF0FF02DFF8FCE00EF802305CF804EF5B1C0EF0FF02FE2AE5D139
:204A3000092002F0CFFB07980121A86005F1280006F09EFC05F19806A8464FF0010A4FF0FF
:204A5000040B0025A9460AFA05F0044216D1074204BF05F0FF0141F4C04104D02A480799E0
:204A7000405D51F82010224802F08CF8E8B24FF0FF3107F0C1F8C6F8009001E0C6F800B0DA
:204A9000D8F800006D1C361D8542DCD904A807F08DFB184C184A2078102104AB059008F1E7
:204AB0000C0005F0A5FD684607F0A0FBCDF80C906A4660681149029008F1640005F012FEDC
:204AD0000F4951F80D0C20F4F85040F4005041F80D0C0C4FC1F8FFAF4846C7F800A009B072
:204AF000BDE8F08FF62000202C120020B43F0050007FC76768D8000025BC000081A40000B8
:204B10000D30094008000940701200202DE9F84F694CE76B07F058F96A4D002F4ED08108D3
:204B30001BD207F110020CCA002102400B4008BF002A43D03A693E6A10403043386207F146
:204B5000180696E80C002764194307F11806104386E803004FF480412CE039693E6A07F18A
:204B7000180341F0020108403043386293E800030022002607F1180340EA080046EA09013C
:204B900083E803003E69E2632B46A3F1100000F108031968B14307F11006196096E800031D
:204BB00001684B4699430160394604F1440005F01DFA022104F1BC0007F0B2FCAB4600265A
:204BD00001254FF002094FF0110AA846F0B207F073F9071C30D0B87C01282DD1ABF11400DA
:204BF000797C0368113105FA01F223EA02010160797C4268113105FA01F111434160787CE5
:204C100008FA00F0C0B207F083F8F868002106F01DFC812808BF87F8129081280CD0787C14
:204C300094F862110AFA00F0084384F86201002104F1F00007F074FC761C032EC6D3204816
:204C500007F066FC0746E06B002832D167B3684604F034FF30B1009820B1082003F066FE70
:204C7000BDE8F88F082007F053F814493869A1F10802136807F110061843106096E80C0016
:204C900051F8102C181C104341F8100C00250D60B86841F81C0C0F68002FFCD0084807F0D7
:204CB000ABF8E063BDE8F88F04F1BC00494607F037FCBDE8F88FC046901A00201C100440FC
:204CD000C81A00201C10044060480178042900D870472DE9F84F891F2FD0491E012900F2EE
:204CF000AA805B4CA078FF2827D007F0DBF982460AF16C06706807F009FE0746387903289E
:204D10001BD1B868017811F0030904D17068BDE8F24F07F0F7BD457800F102080AF20F10E0
:204D3000B9F1030F00900DD045B1307830B900983D21417001210098017084E04548017877
:204D50000129FAD09AF894000AF59A7B58B32D1F4346EAB24946504607F0D0FD50B900990E
:204D70003D204870012000990870BDE8F24F3A4807F0C0BD39480168884700904FF4C07044
:204D90009AF80620616842438818002180F83911DBF800109BF80600490804F063FA3049E3
:204DB00000980A6890470020B9F1030FB8602ED02C4840690078810708D5C0074CBF032021
:204DD0000020EDB2401918F8000000E0812030722549BBF83E000A78904211D3317A80298D
:204DF00018BF81290FBF7F21204A1078091A49B200914B46A078EAB2414607F077FD11E0EB
:204E1000A0784B46EAB2414607F06CFD0AE00F480178082903D04146504607F05FFD4046A2
:204E300005F050F8706807F06DFD39465046BDE8F44F07F04FBD002006F032FFBDE8F24FBF
:204E5000862007F0A7BDBDE8F18F00BF6F4F0020684E0020794F0020AC4500205C14002020
:204E700060140020FCD800006B4F0020704F00202DE9F04F8346ADF1140D0393BBF1000FD3
:204E900002920E9801910F9C049000F0AC80081C00F0A980101C00F0A680181C00F0A38015
:204EB0000498002800F09F80002C00F0A180206A002800F09880524D676A281D0068002FCC
:204ED00000F09180A16A07F001FD40B2002808BF6FF0020700F0838084F82C00207861885C
:204EF00000EB80000918143188B2216A88474349086030B92846406807F0E4FC4FF0FF37FE
:204F10006DE08A46628823786088DAF8001026789F1800EB0109781800F1040806EB460007
:204F300002EB430786187F18C01876188018401800F11005204605F035F82078C01C80100D
:204F5000C9F800002078C01C8010C8F8000020780837C01C8010386020780C36C01C80109B
:204F700030602078C01C801028602278594609F1040002F0C5FD2278019908F1040002F0F7
:204F9000BFFD22780299381D02F0BAFD0095484641463A46334607F091FC47B222780398BD
:204FB000331D194602F0ACFD22780498291D02F0A7FD21786288DAF8000001EB8101521858
:204FD000002103F0F5FC616ADAF8000088470C48406807F077FCF8B2992808BF002784F815
:204FF0002C70384606E01CB16FF0010084F82C006FF0010005B0BDE8F08FC046884F002096
:20501000DC1900202DE9F843614C5A4D5A4EDFF870815E4F94F8E4100846401E0B2864D80E
:20503000DFE800F07B2C43062343062343067664042907D001220A2945F8212C14BF02202E
:20505000032004E0202045F8210C0120024684F8E200002045F8390C0827C5F8FF7FC5F8FF
:20507000F37F45F8392CBDE8F883052914BF09200620002784F8E400376075E094F8E1704C
:20509000383D0120002FC5F81B0004BF0620002102D00021F160032084F8E400032045F832
:2050B000010C3160306880085ED294F8E4103348012703290ED000684568002160220523E5
:2050D00000914046A84794F8E400062814BF0A200720CFE700684568002160220523022040
:2050F00000904046A8470420C4E7FEE72548264F0026012506600E203D6001F0A9FF0220CD
:2051100005F0D2FD84F8E45084F8E360BDE8F883002038600C25786024E04FF08059D9F87E
:20513000A0010168202088472C3D0F2045F8010C41F61D56C5F80360D9F8A4014668002155
:205150004FF4C0720723022540460095B047D9F8A401C66800214FF4C07207234046B04786
:205170000120386084F8E45004F1780007F0B8F9BDE8F88339400C4038600C40A401001023
:2051900000A00C402C500C4004800C4034600C40401300202DE9F04F88468246ADF1AC0DE6
:2051B000299207F0CFFB5C4CE67894F80BB0A57A94F80C90071C00F0AB8068460021A422FC
:2051D00007F0B8F92801279A55498DF8046005F0030300F4807605F00405ADF800A0B9F1D4
:2051F000020F01EA020143EA01024C4B8DF8A0B046EA020100F4C06603EA010246EA020095
:2052100045EA00054FF00000279508BF01208DF8370007F04FFB412809DB207B00280CBF8F
:20523000002008209DF8991008438DF89900607B002804BF00208DF8380017D001208DF83F
:20525000380004F1860120220DF1390006F028FE0DF1590004F1A601202206F021FE0DF1AD
:20527000790004F1C601202206F01AFEA07940B18DF8260004F1500110220DF1270006F051
:205290000FFE66793EB104F16000B91D0622054606F0C2FB68B92079002804BF00208DF888
:2052B000050015D08DF8050004F140010DF106000BE08DF805600DF1060005F11601102218
:2052D00006F0EEFD0DF11600A91D102206F0E8FDE07930B1B8F1000F03D0279941F002013D
:2052F0002791002100B10121A7789DF89900002F41EA00018DF899100CBF002004209DF878
:205310009910084329998DF89900684607F0CEFA2BB0BDE8F08FC046B8100020FBF9FFFF5D
:20533000FCFEFFFF0FB42DE9F04106AF8046ADF1280D07F07BF83E1D26F00306361D30F0B6
:20535000010001D106F018FECDF81A601420ADF816000025CDF80E50FF248DF818407B6805
:20537000CDF81E3007F09EFA064607F05FF830F0010015D006F0E8FC4D492A46844606200B
:2053900031F80C7F4FB14B681B689E4204D0401E02F10102F4D100E0D4B2604606F0F7FD50
:2053B000404605F04DFC0146FF2905D0204603220DF11A0303F08AFF07F074FA05F004FE57
:2053D000A8460446CDF8008007F030F830F0010063D00098A04260D041F2883001A905F099
:2053F000C3FD009D002852D107F058FA0199012746186068019B41464FF00052FBF7C6FB5D
:2054100000282BD00DF122000DF1230102AA04F081F8B0B99DF8220003A905F0BDFD38B992
:20543000029A06F0E5FF00281CBF029D474615D10299684605F070FF60684FF0005107F0D5
:2054500009FB0198B0F1FF3FD3D00028D1D007F025FA301A02D00199814216D206F0A2FB4A
:20547000009E06F071FC083401463EB1324652F80C0C40B9206842F80C0C2660084606F032
:2054900086FD384603E00246F1E70190B1E720B92DB1284607F005F801E006F06DFDDDF8A0
:2054B0001A0000680AB0BDE8F04104B07047C046A814002070B5414C414B2568186855F8E5
:2054D000183F00224FF0FF3198473E483E4A416B3E4C88683E4D41791170002607F0DAF90B
:2054F0003C4807F0D3F907F0CDF93B48026800215171A02301680722CB804A7203210268DE
:2055100011720021036859770268D176036883F85C10012102681177036883F85D10002111
:20553000006880F85E100EE06068F6B24FF4C071714308444279012A04D1304606F0B2FD65
:2055500007F09CF9761C2978F0B28842ECD307F091F92248224A0178117005F0FFF807F01D
:2055700085F92049204A002008700021117001201E4A10701E4A11701E4A10704FF4A4705F
:205590001D4A11701D4A11701D4A11701D4A11801B211D4A1180FB211C4A108040F6480087
:2055B0001B4A11801B4A10801B4A11801B4A108007F058F91A490020087070BDF04E002037
:2055D000EC4E0020FCD80000714F0020684E00207B4F0020CC470020104F00206D4F00205F
:2055F0007A4F0020734F0020744F0020754F0020764F0020774F0020784F0020794F00206F
:20561000F5200020524F0020444F0020464F0020484F00204A4F00204C4F00204E4F002034
:205630006F4F0020F0B5514C20780D46E90BADF11C0DC90372D1A80860D2E069216A6A085D
:205650000ED2E80828BF85F0040580F08C80680904D303F0E7F985F0100584E0002083E0FD
:20567000868861B904F11600414A00904FF6FF710223012007F0F2F80146216221B304A8A6
:2056900000900027019702230293FF220392E28A30460DF11203FEF7D3F958B99DF81300CC
:2056B0009DF81220216A12EB002204D04989304604F03CFE216AE28A08463B464FF6FF71A4
:2056D00007F050F901462162A069002918BF85F001051AD168B143685BB1E06980880121FE
:2056F00000229847A069E7694368B88803210022984706F0C7FA85F0010534E00020014683
:20571000FEF77CFE18B185F00205012102E0022185F00205207801F03BFC24E002F020FB51
:20573000071C1ED038780126B03811D0401E02D01F3808D011E0387978B97888F9883A8932
:2057500004F0F4FD0AE03846FEF778FC064604E0397907F10800FBF741FC16B1384606F037
:205770006BF985F40045A8B207B0F0BDB810002030D600002DE9FE430AAFADF808303B889B
:2057900015460E46002B18BF0B2040F08680726851781778DFF80891002407EB012742F6CF
:2057B0004D21B94264D01B39B94261D01A31B9424AD042F60218B84516D0891CB94268D14E
:2057D000BDF80800012851D1297831F001004BD1F0680170287800280CBF022003204946A2
:2057F00009684968884754E00093BDF8083031462A4603F0CFFD041C4ED16978287800EBA3
:20581000012C71894F46A7F1180086794769002E3FD07B6813B15A89914204D0761E07F163
:205830000C07F6D135E0002F33D0BCF1010F0CBF02230323806902AA066800920195797A46
:20585000387A4246B04724E0BDF8080001280DD1287830F0010107D149460968496822468C
:2058700000B101221046BDE7802415E00D2413E0708905F049FB60B14946096802AB0E6827
:2058900000930195027A417A234610463A46B04704460CB906F080FA2046BDE8FE83C04651
:2058B000200200202DE9FF47484C94F8E700002876D13D4801273D4D006884F8E770EE7CE8
:2058D00084F8E6606B68C4F81031C0F3801084F8E800684606F0DCFD002604F10C00019644
:2058F0006B468DF8006032490296324604F036FB304904F130006B46324604F02FFB2E49F6
:2059100004F154006B468146324604F027FBA96838468847DFF8B08028482A7D08F10403AC
:205930000078284D1868C0F3815A22B1BAF1030F04D184F8E170BAF1030F17D0BAF1020FCA
:2059500014D0BAF1010F0ED0022005F055FB1C480068016804208847012804D0286832214B
:20597000B1FBF0F10DE004F053FF12E0022005F043FBBAF1030F0CBF4FF47A7142F21071A5
:205990002868B1FBF0F1484606F0A8FD484606F0A7FD40460068C00802D2304605F02CFB6D
:2059B00000200090BDE8FF8714100940B8D70000CB9A0000F1770000418E0000F62000202E
:2059D000E0010010E0200020B03F0050401300202DE9F84F5FEA00091C46924600917DD02D
:2059F000081C7BD0BAF1000F78D0002C7BD0206A002873D03F4D616A281D006800296DD050
:205A1000A16A06F063FF40B2002808BF6FF002055FD084F82C002078618800EB4000091828
:205A30000C3188B2216A88473149AB46086030B9DBF8040006F046FF4FF0FF3549E088464D
:205A5000668865882178D8F800008F192D183F1806EB41063618204604F0A4FA2078C01CBC
:205A70008010286020783F1DC01C8010386020780836C01C8010306022784946281D02F0D4
:205A90003FF828463A463346014606F0E3FE45B2227800983B1D194602F032F8227850460E
:205AB000311D02F02DF821786288D8F8000001EB41015218002102F07BFF616AD8F800005E
:205AD0008847DBF8040006F0FDFEE8B2992808BF002584F82C502846BDE8F88F1CB16FF01A
:205AF000010084F82C006FF00100BDE8F88FC046884F0020DC1900202DE9F0410746FF2F8D
:205B10001ED106F063FC10F0070F16D0042004F067FF08B104200AE0012004F061FF08B1C2
:205B3000012004E0022004F05BFF20B10220BDE8F04104F071BF06F0B3F80020BDE8F0811C
:205B500004F06AFF8046012FD8F80450334E04D0022F29D0042F3DD0EFE7022004F040FFD4
:205B700080B1022004F058FF074601207C6804F037FF28B1A0683118A86806F05BFF88B138
:205B90003846DBE7042004F02BFF28B1042004F043FF0746012026E0012004F021FF08B9D6
:205BB0004FF000084046C9E7042004F019FF28B1042004F031FF0746022014E0012004F08F
:205BD0000FFF28B1012004F027FF074602200AE00220E2E7012004F003FF88B1012004F0EA
:205BF0001BFF074604207C6804F0FAFE0028C7D0A0683118A86806F01DFF0028C0D1D1E797
:205C1000022004F0EDFE30B1022004F005FF074604207C68E8E70420BFE700BF589EFFFFD7
:205C30002DE9F047464E0546307CADF1500DA84209D13078012105F085F83078022105F0C1
:205C500081F806F01FF86C0004EB85040E210FAA04F1200004F120075FFA80F9F8B205F040
:205C700068FF002867D10FA8FF21062206F086F8002860D104A81C2206F05CFC6846FF217B
:205C9000102206F057FC0DF12C0A04F123001021C0B25246804605F04CFF90B929480778B3
:205CB000FF211022504606F069F850B93FB99DF842000FA900F0010006F03CFE01E00120E2
:205CD000B0740FA8FF210E2206F034FC48460E210FAA00F04FFA04AF06461C2104F1210062
:205CF0003A46C0B200F046FA1C2106433A4604F12200C0B200F03EFA102106433A4640463B
:205D100000F038FA102106433A4604F12400C0B200F030FA2534042106433A46E0B200F0E9
:205D300029FA703510216A4640EA0604E8B200F021FA204300E0002014B0BDE8F087C04688
:205D5000B81000205A4F00202DE9FE4304F09CFEDFF80C81814608F1020000880027011FA8
:205D70008CB26FF00301401880B204285ADBFF254FF6FF7620466946042205F0ADF8BDF81F
:205D900000309E4237D0002B35D0D80BC2032FD19D422DD0381FDDB280B2042815DBB0F54F
:205DB000805F12DA00F18852126801A90A60BDF804108D4207D0BDF80610401A001F80B2CA
:205DD0000428ECDA01E0012300E00023BDF802001BBB211A001D8BB282B207F18851184634
:205DF00005F07AF8BDF80200C119091D8FB214E0BDF8020011E0BDF8020003466FF30E0325
:205E100063B9011D8C4208DA002005F049FF484605F02AFF0020BDE8FE83241A241FA4B262
:205E3000042CA7DA04F01CFA3FB10C484FF088513A4606F00DFB06F067F9484605F014FFD1
:205E50004246507800281CBF0020011C03D1C7F58054391DA0B25180BDE8FE8304E00100BA
:205E7000641A00202DE9FE430E46814630887188814201D3010001D1012074E00021ADF8AC
:205E90000410029100244FF6FF7827E00294287802283AD1BDF8007001218DF80610BF0850
:205EB0002878022861D1698904F8011B02226889000A04F8010B2046696805F0F1FFA41CC9
:205ED000BDF80400401CADF80400B9B2BDF8040088424AD26889404547D0401C002100914F
:205EF00000237188002280B206F0B8FC05003CD0BDF8040010BB6B4642460521484606F000
:205F1000ADFD0400C2D111202DE002208DF806001221BDF8000090FBF1F72978102924D11B
:205F3000688904F8010B10226889000A04F8010B2046696805F0B4FF1034C1E79DF80600BD
:205F50000128EAD1ACE701A9484606F07FFC48B101AB05221621484606F074FC10B10298BF
:205F700003F0B0FF0020BDE8FE83BDF804000028E9D10A20F7E770472DE9F0413C4C243CA0
:205F900004F14408404606F0C3FA071C6DD0B86840F603022026531C02E04068761EF6B241
:205FB00060B15EB101888A4218BF8B42F5D1F9682CC820312CC149C881E849003A6A0025D3
:205FD0003D627868D0B197F8270042F00202002300F00700401E09D0401E04D0801E08D1CB
:205FF0004FF0805304E04FF0804301E04FF000532A467E68F868B7F92410B04706F076FA2F
:206010000646B4F94A00401C6FF31F30A4F84A00606C80F82750404605F0EEFE304606F0AC
:2060300015FDF868B0F99410B4F94A2091421CD190F89670A7B9076897B1E2680D491268FB
:206050000968B2F1FF3F10D0B7FBF1F2012A8CBFB7FBF1F10121703006F010F9BDE8F08188
:2060700080F89650082002F061FCBDE8F081C046B41A0020E02000202DE9FE4F8A46064692
:206090000CAF97E80300984691460746019106F02DFA374D8346082005F5B47494F8273088
:2060B00033F07F0357D106F1700006F01BFAB5F94800401C6FF31F30A5F84800C4F808A045
:2060D000019A84F82690294BC4F80480B5F848002021114004F11002A08403EA0700002762
:2060F000E660B84604F1180382E8030021466A4684F8277005F1380083E8800103F076FF23
:2061100000282CD096F89630A08C012BA6F8940004BF86F896706F709DF8006094F827009F
:2061300040F0800084F827003EB1A87928B1E87818B10120E871AF716F70584606F086FC5B
:206150009DF8000018B1E86B08B903F0DBFBB4F92400BDE8FE8F401E04F128049ED1584665
:2061700006F074FC6FF00100BDE8FE8FF1EFFF9F901A00202DE9FE4F3B4D4FF0000A9346C2
:206190000290884685F801A003F0E8FB071C1BD0B8F1000F08BF544614D0ABF1010946465E
:2061B0005446384601A9012204F096FE9DF8041019F8010F884205D17F1C761E04F10104CF
:2061D000BFB2EED1A0454CD06F8808F103004FF6FC7440F6FC7104EA0006B819814204DACD
:2061F00006F054F8FFF7B0FD6F88E41C46F40040ADF80040BB19ADF80200694601229CB2B9
:20621000204602F013FABDF80200694601226FF3DF30ADF80200204602F008FAB0105946AF
:20623000C2B2384602F002FA02986946012240F40040ADF80000204602F0F8F9BDF80000EB
:20625000694601226FF3DF30ADF80000204602F0EDF9687820B968888019001D688000E0E1
:2062700082465046BDE8FE8F641A00202DE9F04F0C4638498446E639487CADF11C0D0690AE
:20629000CA780092C87A91F8059091F80CA091F80EE00590487A8A780490087A8E79039005
:2062B000887A4B780290C8798F8A01900879E0460025A8F58068B8F1180F0ED8DFE808F0C6
:2062D0004442403E3D3734320D0D302E2C2A270D0D250D22201D1B1917C0BCF1280FA8BFDA
:2062F000022532DA604606F0A9FA20802DE0069E01E050311CE0B14602E06031262218E0C3
:20631000CA4602E08631602213E0D64602E005F06FF912E0CDF814E00598049004980390E9
:2063300003980290029801900198024608E040311022204605F0B4FD07E00090009B03E088
:206350001046FAE73846D0E72370284607B0BDE8F08FC0469E1100202DE9F0410C4616461B
:206370000546984600210622ADF1300D09A802F01FFB2846214609AA01F08EF905460A2D81
:2063900044DA05F085F907464346294630463A4602F0FAFB68460021142206F0CBF86C0010
:2063B00004EB850404F1240010216A46C0B205F0C0FB88B96846FF21102205F0DFFC58B917
:2063D000253404AA0421E0B205F0B3FB304607F001016A4606F02EFA05AC05F170001021C7
:2063F0002246C0B205F0A5FB68B9204605F083FB04AF042437F8041F19B1BA78304605F090
:2064100079FA641EF6D1284603F036FDB8F1040F12D10B4A507802280ED1D079002100B13C
:206430000121907808B141F00401107B08B141F00801304606F0FAF90CB00020BDE8F08164
:20645000B81000202DE9F8439946904604460E1C44BF0020011C67D406F05EF80546802117
:20647000304604F041FE071C04D097F8270030F07F0003D1284606F0A1FA53E097F827005B
:2064900010F0070F46D10020022107F1180640EA090941EA080896E8030008EA000019EA79
:2064B000010608BF002820D0284606F087FA07F1180003C804F1680604F1680508EA000867
:2064D00009EA010986E8000395E80C0007F1180696E8030007F118059943904385E80300EA
:2064F000683494E80300BDE8F88310487968884202D079682166786004F1580080E8000384
:20651000284606F05BFA04F138004FF0FF3105F023FEE5E7284606F051FA97F8270010F0CF
:20653000070FFAD102200021BDE8F883099800002DE9F04F054685B068888946904606F006
:2065500071F9871EBFB2DFF8C8A0DFF8C8B0324E3189B81E88424CDB5FEA090049D104A804
:2065700000902B7B6989288905F10D0206F076F904003ED060892881BDF81020217A6888B4
:2065900006F04CF95FEA000933D12879DAF80030BDF8102003900021B81E80B202900191F2
:2065B000CDF800B021466888FDF74AFA5FEA00091FD16389BBF80020DAF80010688806F0FE
:2065D00029F95FEA000914D128894FF6FF7188421CBF401C2881BBD10BE05FEA09002889C8
:2065F000A8F8000008BF4FF00A09484605B0BDE8F08F30890028F0D0718890FBF1F03080B5
:206610003146688806F002F90028EFD01620EDE7E04E00203E4F0020FC4C0020B0B5324CDB
:206630000D46A80842D2E8085DD301250420657204F0E2FC2D480068006B8047206104F19B
:20665000380005F065FF00280EBFE068C068E0604068274900780860022004F0CDFC1120EC
:2066700000F0B0FDE1682571087C10B1A078012803D00E2000F0A6FDE16849681D488F681E
:206690000FB9CF681FB10021C1611B4F07601B4A40F2FF711160002787611949416119481B
:2066B00005F046FE192005F023FFB0BDFFF764FC04F1440005F02CFF25F0020504F13801DB
:2066D00058B9E80803D2084605F022FF58B104F1980005F007FF042101E045F0020104F1AC
:2066F000BC0005F01DFFB0BD901A00208C010010D02108400010044051000706000004609A
:2067100002000040314200002DE9FC41374C0D4606466178A078174606292DD0022930D09A
:2067300005F00AF910B903F06DFA2AE0DFF8B8801020062220234146FEF7F4FD10200722B4
:2067500030234146FEF7EEFD1020012205234146FEF7E8FD002001216A468DF8000040F2EA
:206770000D30FBF771FF012140F205306A468DF80010FBF769FF04E018B1607A217A884256
:206790002AD005F0D9F868B3607A1623401C90FBF3F15943401A6072217A814205D1491CCF
