:2000000000400020CD21010001C9011001C9011001C9011001C9011001C9011001C901106F
:1C00200001C9011001C9011001C9011001C9011001C9011001C901103FC9011089
:20003C0080B54FF4FC720FF278011A480DF01AF8012119484174002202210270C17601BDEF
:20005C002DE9F0410FF2502214493820136854689568D6681769D2F814C0D2F818E0D2F8F9
:20007C001C800B604C608D60CE600F61C1F814C0C1F818E0C1F81C8020322031401EE5D1DC
:20009C0050689368D46812680A6048608B60CC60BDE8F081480400215903002100C00021D1
:2000BC00410500217D0500212D06002170B51D46004C204787B2000010B5014800470000FD
:2000DC00D509000070B5614C6148254650358047022809D14034E1885E4A914204D1E97C5E
:2000FC00890601D4911DE18070BD70B557495A4A084650300378002B10D08379012B0DD181
:20011C00037C5B09DB0709D0097D544DC1746C7F20202043687790476C7770BDFF21C17420
:20013C00904770BD10B54E48484C804702280ED121464031CA88474B9A4208D1CA7C5209CE
:20015C00D20704D0227D920601D49A1DCA8010BD70B53E4843494030C07C4009C00707D032
:20017C003E4D41482C8B2043288388472C8370BD884770BD10B53B48344CAC388047214609
:20019C0053310A789309DB0705D04034A2730A7803231A430A7010BD2C4940310871182876
:2001BC0012D004DC0A280BD00B2804D10AE025280CD02A280CD02D4980004018C0687047DE
:2001DC002B4870472B4870472B4870472B4870472B48704770B504461C484E252D5CAE09AB
:2001FC00F60716D0067D3007000F052803D00120054202D00DE00220FAE7E80905D07006D1
:20021C0003D54868800F012803D05B085B0052085200062B03D01020022B11D011E0FB20F7
:20023C00024002232046FFF741FF002807DAC100611A2039497E1422114200D1002070BD93
:20025C00024303432046FFF731FF70BD4401002137CB000004140000EBC80000A800002142
:20027C00F5B4000053AD00002020000080DF00001D050021F9040021CD040021930400210F
:20029C006D04002110B5034CFFF716FF20680028FAD110BD0011044068610000F825F965B0
:2002BC00F9754500450045002600260057A3520052004C00401F401F401F3F000000000053
:2002DC00304000400140034007400F404F40CF40CF41CF43CF47CF4FCF3FCF2FCF1FCF0F6C
:2002FC00000000000000000000000F00080000003F00000040003F000000040068000E0093
:20031C00DC00060043001A00050000000000020000000000000000000400C00000000400B3
:20033C00C000000007000000000000000000000000000000000000003040004001400340A6
:20035C0007400F404F40CF40CF7FCF6FCF5FCF4FCF3FCF2FCF1FCF0F00000000000000009D
:20037C0050C00091007070C00091007082312100319110B10070018101B100A1823132910D
:20039C0010B101911110418141227740F106007051C0019130181039833108D01831416FD1
:2003BC003100319110B18314141683680070251050C00091F4C340C12014036F3110410497
:2003DC005082F0229840512622C082312100319110B163393110410482C08231210031919B
:2003FC0010B163393110A2C082312100319110B150101531051405920070676452C03110A6
:20041C0031066131C1026A6412C13110213971065131E1026A64007051C0019101CCE2C0CC
:20043C006A64676411C1C2C06A6450B054B0007140804022D6440022C94060B08180111EC9
:20045C00C944007054A064B0F0800022C9404012B09032B070C1DF6811C122C16A6470C1C0
:20047C00E46851C00191E2C0823160820200329110B130C2EE68538253395339B16460C347
:20049C00F4688012B09032B00070676401C122C16A6401C1C2C06A645382B164C012B09074
:2004BC0032B00070676472C281C06A6422C111C16A6402C011C16A6462C031C36A6462C3D2
:2004DC0011C16A6402C311C16A6453825339B164E2C36F6411221C4142C281C86A6452C24E
:2004FC0011C16A6472C2E1CE6A6402C281C86A6402C201C86A64B0C030690070676442C211
:20051C0001C86A6452C211C06A6472C2E1C06A6402C001C16A6462C001C36A6422C101C127
:20053C006A6462C301C16A6402C301C16A645382B16400708180111E5C4150B054B000712B
:20055C00408040225D4154A064B0F1800122514500700022514160B04E61000000000000AA
:20057C000000000000000000067305720B720E7250B00071818060B050A09280F0EFF1928C
:20059C0002936A6741228C458080F1C11004301601110114016CB561B661B761B861B9618D
:2005BC00BA61BB61BD61BF61C161C36126632D63F0C002043231412A121432160111211412
:2005DC00016CDA61C561E061C761CB61B561B561B561F461C561FA61C761CB61B561B56104
:2005FC00B561F461C561FA61C761CB61B561B561B561E761C561ED61C761CB61B561B56121
:20061C00B561CF61CF61CF61CF61CF61CF61C064CF61F964CF610665CF613265CF6174676A
:20063C00CF611166CF61C0644E65F964CF61066511663265CF618280E0DFF2926A67B0B044
:20065C00D661B1B00673057230B06C61D0CF6A6784C203C0C0C37C64207851788278E378B7
:20067C001579B6780062C0CF6A6784C203C0C0C37C64307861789278F3781579C678006250
:20069C00B0CF6A6784C203C0C0C37C6440787178A27803791579D678109221923292439281
:2006BC005492659256911FC0FF914039F00601101031101400927067CF61E3B054A0F08076
:2006DC0050221A4640800022BE461262E3A000C86091598150B0918041228E46A0CF6A6734
:2006FC0012828231823942398B641282F2062F101F312F141682D622334640C1346200C5AF
:20071C0020140D6F6D39DE10F4C34E0482C082312E006D39A2C082312D001A828A39FA0606
:20073C002082803180390BC00B18BC10AC18038239149B141082F0060110103110145181C2
:20075C0010140C14C622C94631D0C1266462021011C0013010C00118021882312100C126C2
:20077C00919103B013B063B053B041800122BE46B481C491D581B51C774E95186591F0803E
:20079C00102269428C623D9110B13E9110B1E08000228146E6228142E0B0951865910F926B
:2007BC005981F914F0805022114210228C464D6390CF6A6763B052A03082F2C0200402107E
:2007DC0011C0013010C00118021882312100C1269191919113B003B063B053B064B054B055
:2007FC00007141800122BE4663B064B0F08050221142B181C191D1819118619131B0A462D0
:20081C002967E0A059810582591480C0007163B0BA6A6962E3A0018262818231823D80EF61
:20083C00F19202936A6703A0007037824739873930828039F006021011C0013010C0011849
:20085C00021882312100C126819102B012B030824039F006021011C0013010C001180218E9
:20087C0082312100C126919103B013B063B053B0007153A062B052B041800122BE46A4816E
:20089C00C491D581B51CFE4E95186591F0801022F0428C62B481C491D4814518751C084FEB
:2008BC00F0801022F0428C623D9110B13E9110B1E08000221247E6221243E0B065910F92DC
:2008DC005981F914F0805022114210228C4630632967E0A0598105825914F0C0007162B038
:2008FC00226BF062A2808B64CF6112824239F2068B6050B00071CF6170CF6A674082418096
:20091C000122BE46A481C491D58195186591F18011228C46336B41800122BE46A481C491AB
:20093C00D581C51C1C4B95186591F08010223F438C6260CF6A67408241800122BE46B48169
:20095C00C491D58195186591F18011228C46506B41800122BE46B481C491D581C51CB44A55
:20097C0095186591F08010225C438C62E092D08200226B47C0B20070A080F022874330B033
:20099C0002C1623101C0A080001E8043F022814380F86031603981632010101A136F236E5A
:2009BC0011161216826B00702DE9F84FDFF81885DFF8181588F80000002008600921DFF891
:2009DC00100501700D2141804FF408718180DFF80405DFF8041501608A7EDFF80005027042
:2009FC00FF2ACB7E437008BFFF2B0D7F85704E7FC6708F7F0771C97F417115D1FF2D08BFE8
:200A1C00FF2E11D1FF2F08BFFF290DD1DFF8D0140A7802704A7842708A788270CA78C27025
:200A3C000A79027149794171DFF8B81402780A70FF2542784A7082788A70C278CA7002791E
:200A5C000A714079DFF8A02448710021DFF89C04057045708570C570057145711180DFF872
:200A7C009004DFF89014466BDFF88C247078087031781170B078DFF884140870716908791F
:200A9C00DFF87C14421E0A70F078DFF878140870B069DFF87414086008B913F0C9FEF069F2
:200ABC00DFF86844206008B913F0C2FE2068DFF8607401688847216851F8042F38469047CE
:200ADC00DFF85004DFF850143862DFF850047862306A086008B913F0ABFE706ADFF8401481
:200AFC00086008B913F0A4FEDFF838B4DFF838649BF8040014F0D0FC306008B900F045B930
:200B1C009BF80500DFF8247414F0C6FC386008B9306837E19BF80600DFF8144414F0BCFC5F
:200B3C00206020B9306814F0BFFC38682AE19BF80700DFF8009414F0AFFCC9F8000038B9D8
:200B5C00306814F0B1FC386814F0AEFC206819E1DFF8A4130A789BF80000DFF8DCA3921CB9
:200B7C00504380B214F098FCCAF8080058B9306814F09AFC386814F097FC206814F094FC9C
:200B9C00D9F80000FEE0DC480078002800F00281BBF80210DFF8A4B3484380B214F07CFC27
:200BBC00CBF8040078B9306814F07EFC386814F07BFC206814F078FCD9F8000014F074FCAB
:200BDC00DAF80800DEE0CC48007814F065FCDC49086080B9306814F067FC386814F064FCA7
:200BFC00D9F8000014F060FCDAF8080014F05CFCDBF80400C6E0C04800781C21484314F0A9
:200C1C004BFCD04A1060B0B9306814F04DFC386814F04AFC206814F047FCD9F8000014F00B
:200C3C0043FCDAF8080014F03FFCDBF8040014F03BFCC348A5E0B0480078400114F02CFCC1
:200C5C00C1490860D8B9306814F02EFC386814F02BFC206814F028FCD9F8000014F024FC3F
:200C7C00DAF8080014F020FCDBF8040014F01CFCB348006814F018FCB249086882E09E483D
:200C9C000078000114F008FCB0490860F0B9306814F00AFC386814F007FC206814F004FCD8
:200CBC00D9F8000014F000FCDAF8080014F0FCFBDBF8040014F0F8FBA148006814F0F4FB60
:200CDC00A049086814F0F0FB9F485AE08A480078000114F0E1FB9E49086018BB306814F0A6
:200CFC00E3FB386814F0E0FB206814F0DDFBD9F8000014F0D9FBDAF8080014F0D5FBDBF8ED
:200D1C00040014F0D1FB8E48006814F0CDFB8D49086814F0C9FB8C48006814F0C5FB8B49F7
:200D3C0008682FE0744800783021484314F0B4FB884A106070BB306814F0B6FB386814F0F7
:200D5C00B3FB206814F0B0FBD9F8000014F0ACFBDAF8080014F0A8FBDBF8040014F0A4FB1B
:200D7C007748006814F0A0FB7649086814F09CFB7548006814F098FB7449086814F094FB4B
:200D9C007348006814F090FB002013F051FD4FF4804192E0316801200871306805733168C2
:200DBC004D73306885733168CD7330680574002031684D743268D072A0223168487103214F
:200DDC003068C28001720720316848720020326890722821306841820121C17600203168BE
:200DFC004877326882F85E00012031680877326882F85D00396808713868057339684D7369
:200E1C00386885733968CD7338680574002039684D743A68D072396848713A6890724FF47D
:200E3C00207039680022C88008818A7401213A68D17421680D732268557321688D732268FD
:200E5C00D57321680D740021226855742368D9720121226811710021236859712168C88065
:200E7C000881002088722168887405202268D0743948016888472A490A6805461068804713
:200E9C0027490A6852F8043F0020984718481D4BC16818780A88314902430A802846304985
:200EBC000A6890470C212F4800F05EF80F4800F05FF800F061F84FF4005198F80000BDE833
:200EDC00F44F09F009BF00BF6E4F0020044F0020604E0020084F0020B63F00502C4E0020BF
:200EFC00E81200503C4E00200C4F0020344E0020C86D01006D4F00207B4F00206B4F0020EF
:200F1C00724F00206C4F0020F04E0020F44E00207C4B0020B5540100F84E0020C5540100C8
:200F3C00FC4E0020D00F0020104F002010300020184F00200C300020B42F0020684E002091
:200F5C00004F00200430002008300020884E00208C4E0020904E0020A00D0020544F0020DC
:200F7C00A40D0020F84D0020DFF800F0E5710110DFF800F01D6E0110DFF800F04D710110F8
:200F9C00ADF1080DADF80400134800680090134800788DF806009DF80600002819DD0099D6
:200FBC00BDF804000988884207D10D4800990078897A884201D100980CE09DF80600401EA7
:200FDC008DF8060000980C3000909DF806000028E5DC002002B07047182F00201C2F002027
:040FFC00800F002042
:20100000B41200001810000015AB0110FDB301106DC00110FDAE011099B5011000000000F7
:08102000000000002D0000009B
:20102800B01200003C100000B1C00110A9BF011067C0011069B80110000000000000000035
:041048003000000074
:20104C00B012000060100000BDC00110CDB30110D9BD01106DB3011000000000000000005B
:04106C00310000004F
:20107000000000000810002004000000000000000000000020000000E8C901103000000012
:2010900028100000101000200400000000000000000000000C000000D8CA011018000000ED
:2010B0004C1000001810002004000000000000000000000024000000F0CA01101800000071
:2010D00000000000201000200400000000000000000000001000000018CA01102C0000007D
:2010F0000010000030100020040000000000000000000000200000006CCA011024000000E1
:20111000FFFFFFFF381000200400000000000000000000002800000090CA011024000000A0
:20113000FFFFFFFF401000200400000000000000000000001400000008CB0110180000001F
:20115000FFFFFFFF4810002004000000000000000000000058000000B4C9011034000000ED
:20117000FFFFFFFF501000200400000000000000000000001000000020CB011018000000BB
:20119000FFFFFFFF581000200400000000000000000000001C000000B4CA011024000000E8
:2011B000FFFFFFFF601000200400000000000000000000003800000044CA01102800000010
:2011D000FFFFFFFF681000200400000000000000000000005400000078C901103C00000085
:0811F000010000007C6D01000C
:0411F80001000000F2
:0411FC0000000E00E1
:0412000000000F00DB
:0412040032000000B4
:0412080001000000E1
:04120C00240E00208C
:0412100000020000D8
:0412140000000000D6
:0412180001C90110F7
:04121C0000000000CE
:0412200000000000CA
:0412240008000000BE
:0412280000002200A0
:04122C00EC0B0020A7
:0412300000000000BA
:0412340000000000B6
:0412380008000000AA
:04123C00040D00207D
:0412400000000000AA
:0412440000000000A6
:04124800080000009A
:04124C00000000009E
:04125000000000009A
:041254000000000096
:041258000000000092
:04125C00010000008D
:04126000540C00200A
:041264000600000080
:041268000100000081
:04126C001C0B002037
:04127000000000007A
:041274000000000076
:041278000002000070
:04127C00000000006E
:02128000290043
:02128200010069
:02128400250043
:02128600300036
:02128800310033
:02128A002D0035
:02128C0001005F
:01128E00015E
:0812900003000000E86C0100FE
:0812980000000000000000004E
:0412A0000000010049
:0412A4000000030043
:0412A80013C401105A
:0412AC00B550010038
:0412B000B812000070
:0412B400B81200006C
:0412B8000000000032
:0412BC00900F00206F
:0412C000B353010023
:0412C4002000000006
:0412C8004C6C010069
:0412CC00106B0100A2
:0412D00029C101101F
:0412D4001B180100E2
:0412D8008B1C01006A
:0412DC00A1C7011095
:0412E000A3C701108F
:0412E4000000000006
:0412E800C76D0100CD
:0412EC00586901003C
:0412F0007069010020
:0412F400406901004C
:0212F8000200F2
:0212FA000900E9
:0212FC000100EF
:0212FE000000EE
:0113000001EB
:04130400F952010099
:04130800B5340100F7
:04130C001D4501007A
:04131000653801003B
:041314009938010003
:04131800A51F01000C
:04131C0025F20000B6
:04132000A9550100CA
:04132400710801004B
:0413280015C70110D4
:04132C0025C70110C0
:201330002DE9F04F0C4685B0834614F8010BDFF870278DF8000018280BF1FD010BF1E708C8
:201350000BF166090BF20D1A0BF5B0760BF59C750BF5C67700F29183DFE810F019006F0025
:201370005F0191008F038F03FA00690311012301FE000D0133018F038F037C018F036101D7
:2013900055017503D602D60227028F03740214F8010B8BF88600022221460BF1880014F05A
:2013B0006FFD014602220BF18A0014F069FD014602220BF18C0014F063FD014602220BF198
:2013D0008E0014F05DFD04469BF8860040008BF886000BF1860102224888400048800BF1EA
:2013F00086008188490081800BF1860108890001088121460BF1840014F042FDB9F81E105D
:20141000BBF80800091A89B247F6FF7291422ADA0BF18601C8888A88401C520050430A8965
:20143000904203D33B208AF80B0039E2012089F81C000020ABF81E001EE0052221460BF1CA
:20145000610014F01DFD014602220BF1920014F017FD0BF1860047F6FF728189BBF80800F7
:20147000091A89B2914280F218820BF18600012181720021ABF81E10012028700CE398F85E
:201490001600C1070AD41A2198F80D0088F80E10012808BF0D213FD00D21CDE1002089F860
:2014B000000089F806000822012088F8110021460BF1B00014F0E4FC014602220BF1B800A3
:2014D00014F0DEFC0BF1A80601460822304614F0D7FC04460821304614F0CEFC0BF19C0661
:2014F00004222146304614F0CBFC0421304614F0C3FC0BF1A00014F0BBFC0BF1980014F0C1
:20151000B3FCDFF8A005018841F08001018098F80D00012806D10421584605B0BDE8F04FDB
:2015300011F01CBE99F81000012804BF99F811100F290BD158460FF023FB042158460EF0F1
:2015500043FB0F2089F81A00FD2175E1042173E1012088F80F009FE2002089F8000089F833
:20157000060088F800000B21012088F80D00002088F8010060E1012088F810008CE20020DA
:2015900002F10906235C365C33432354561C365C33400B54401C0828F2DB58460EF0DEFD95
:2015B00070E2002002F10905235C2D5C2B432354551C2D5C2B400B54401C0828F2DB02207C
:2015D00048E299F8060008B93D2167E19AF800000128D3D014F8011B8AF80310022221462D
:2015F0000BF5897014F04CFC014602220BF58A7014F046FC01208AF800009AF8020000288C
:201610001BD10C2118E198F81600C10601D41221D1E0584610F00CF834E221783EE120787A
:2016300030706078707099F8100001280CD199F811100F2902D0162902D02DE268732BE2D7
:20165000387B40F0010016E205B0BDE8F04F002013F0F4B898F81600810707D410F0110F0D
:2016700008BF0F2000F009821A2252E02078617800EB01202882E178A07800EB01206882ED
:201690006179207900EB0120A882E179A07900EB0120E882207A2876A17A607A00EB01206F
:2016B0006883217BE07A00EB0120A883A17B607B00EB0120E883217CE07B00EB01202884E4
:2016D000A17C607C00EB01206884217DE07C00EB0120A884A17D607D00EB0120E8840BF564
:2016F000AA700490688B0390287E0290BBF808000190E88A0090AB8A6A8A298A58460DF0A9
:2017100015FD68B198F81600410701D40F2152E01E22584605B0BDE8F04F0F2111F03ABDCA
:20173000688A0BF186018880A88AC880E88A088102208BF8860000204880BBF83400C01DD0
:20175000A9F81E008888BBF83210884201BF0BF18600C188BBF83400814206D10BF186005D
:201770000189BBF8360081421DD099F81000012804BF99F811100F2907D099F8150020B171
:201790000F2189F81A10FE2156E0FC2158460EF01BFAE88A0090AB8A6A8A298A9BF80600C4
:2017B00014F05EFB78E1102146E098F8170010F0090F03D116218AF80C1060E160782178F2
:2017D00000F00700014021702078797B0140F97211D0481E01420CD0490704D5B87B10B175
:2017F0000421F97205E0F97A022001421AD14008FBD1F87A08B9B97AF972F87A042803D14A
:2018100058460FF0B4FFB083F87A14F025FB3871B28BB97B012310F015FD0146308B884283
:2018300002D207E0F872E4E7B28BB97B3879012310F008FD78801721584605B0BDE8F04FF6
:201850000EF0C2B960782178814207D100F007000840207033D0421E10420FD01E22182117
:20187000584611F097FC9BF80610002300221E200BF0D4F9387B40F04000FCE0F87247F68C
:20189000FF72A078E17800EB012038813989BBF80800091A89B2914206DB28218AF80B101C
:2018B00001208AF80A00F7E00120B871F87A042803D158460FF05BFFB083F87A0BE099F8C0
:2018D0001100162806D1BA7A9BF80610134600200BF0A4F9B87A3871B28BB97B38790123C3
:2018F00010F0B0FC0146308B884205D3B28BB97B3879012310F0A6FC78800121387B40F0A3
:20191000400038732970C7E02078617800EB01207082E178A07800EB0120F08261792079BB
:2019300000EB01203082E179A07900EB0120B082B18AF089884288BF0846B97A042905D1DF
:2019500040F691229042B8BF4FF42960F28BF0839042B87A14BF01240024042803D15846CB
:201970000FF005FF04E0B089F18A884288BF0846B28BB083904214BF012100210C433089FD
:20199000718A328B884288BF0846904214BF012100210C433083B28BB97B3879012310F0F0
:2019B00051FC0146308B884205D3B28BB97B3879012310F047FC78807189308A728B814231
:2019D00088BF0146718391429BF8063014BF0120002004438A4234490A6802EB4311728B85
:2019F0008041121DC00F0A7610B1584611F07CFE9DF80000142810D144B1F08B0090738B0E
:201A1000B28B318B9BF8060014F022FA584605B0BDE8F04F15210CF011BB1CB1387840F022
:201A300008003870397841F02001397034E020780E280ED00F2809D0122804D014280CD044
:201A5000162812D028E00020287225E00120287322E0032088F815001EE0387840F0020039
:201A7000387040F01000387016E0387B40F00200387340F0100038730EE08AF80C0058463B
:201A90000FF05AF940B905B0BDE8F04F074800784FF4804109F026B905B0BDE8F08F00BF17
:201AB000282F0020524F0020083000206E4F002000B5ADF1140D02928DF80E10ADF80C004D
:201AD00000208DF80F004FE29DF80E00102805D10299AC4810220BF0CBFA85E218208DF8BB
:201AF0000F0081E29DF80E00102805D10299AF4810220BF0BDFA77E218208DF80F0073E2C3
:201B10009DF80E00042804D10298B049006808606AE218208DF80F0066E29DF80E00012882
:201B300044D1AD48007801283CD0AC4800788DF810000298A949007808709DF81000B0B15B
:201B5000A648007898B9AF480078022804D0AD480078052840F04882AB480178502010F0E1
:201B7000A5FAAA49024610200AF0BEFE3CE29DF81000002840F0388298480078002800F050
:201B90003382A0480078012808D09E480078042804D09C480078052840F02682012013F03C
:201BB00071FB21E212208DF80F001DE218208DF80F0019E29DF80E0001284CD187480078EA
:201BD000012844D0844800788DF8100002988249007808709DF81000D0B17F480078B8B9B4
:201BF00088480078032808D086480078072804D084480078052840F0F78183480178502074
:201C100010F054FA8149024610200AF06DFEEBE19DF81000002840F0E7816F480078002837
:201C300000F0E2817748007801280CD075480078042808D073480078062804D07148007866
:201C5000052840F0D181012013F01CFBCCE112208DF80F00C8E118208DF80F00C4E19DF868
:201C70000E00022804D10298B84900880880BBE118208DF80F00B7E19DF80E001F2821DCB5
:201C9000B54800211F220CF0DCFE02999DF80E20B1480BF0EDF99DF80E00B04908705A4811
:201CB0000178502010F002FA0246AC480078AC490090A9480123019010200AF015FE8DF88E
:201CD0000F0091E118208DF80F008DE19DF80E001F2821DCA34800211F220CF0B2FE0299BE
:201CF0009DF80E209F480BF0C3F99DF80E00C049087045480178502010F0D8F90246BC48BC
:201D100000789749009097480023019010200AF0EBFD8DF80F0067E118208DF80F0063E13A
:201D30009DF80E00012808D102980078042804DC0298B0490078087056E118208DF80F004A
:201D500052E19DF80E00012808D102980078032804DC0298A8490078087045E118208DF820
:201D70000F0041E19DF80E00062806D10298A34902680A608088888036E118208DF80F002D
:201D900032E1C046642F00209DF80E00012808D102980078072804DC029899490078087035
:201DB00022E118208DF80F001EE1C046742F00209DF80E0001280BD102980078032807DCB4
:201DD00002989049007808700EE1C0465C2F002018208DF80F0007E1BD0D0020BC0D002069
:201DF0009DF80E00012808D102980078062804DA0298854900780870F6E018208DF80F0016
:201E1000F2E0C046582F0020502F00209945011002980088ADF810009DF80E0002280DD123
:201E3000BDF81000062809DBBDF81000B0F5486F04DCBDF8100075490880D5E018208DF83D
:201E50000F00D1E002980088ADF810009DF80E0002280DD1BDF81000062809DBBDF8100094
:201E7000B0F5486F04DCBDF8100069490880BBE018208DF80F00B7E002980088ADF8100042
:201E90009DF80E00022809D1BDF81000B0F5FA7F04DABDF810005F490880A5E018208DF893
:201EB0000F00A1E002980088ADF810009DF80E0002280DD1BDF810000A2809DBBDF8100060
:201ED000B0F5486F04DCBDF81000534908808BE018208DF80F0087E0029800788DF8100088
:201EF0009DF80E00012819D19DF81000012815D14A4812F027FE68B94349002009F07AFB74
:201F10008DF80F009DF80F0000286DD1444813F09BF969E016208DF80F0065E018208DF8DB
:201F30000F0061E0BDF80C00282811DA9DF80E0002280DD102983B49BDF80C2003881020E0
:201F50000AF0D2FC8DF80F004EE0C046BE0D002002208DF80F0047E0440D0020C00D0020BB
:201F700009450110630D0020BDF80C00A0F201301A28D7D801A151F820008746D91A000022
:201F9000F51A0000111B0000351F00002B1B00006F1C0000891C0000DD1C0000311D0000E5
:201FB000531D0000751D0000991D0000C11D0000351F0000351F0000F11D0000211E000086
:201FD000551E0000891E0000B51E0000351F0000351F0000351F0000351F0000E91E0000AD
:201FF000351F0000C51B00009DF80F0005B000BDC10D0020602F0020612F00207710002093
:20201000622F0020632F00209C0F00209E0F0020A00F0020A20F0020A40F0020B02E002044
:202030008C2E0020BD8401102DE9F84F012011F0A9FB01280ED1DFF8F8743968002048717C
:20205000386810F021F904F0B5FC040003D1812013F0FAFE68E201206071DFF8D854DFF887
:20207000D8044178491C41703968A07981F8A00040200CF0EBFB2060287901281CBF00204B
:2020900012F0DCFBE8682168DFF8B05400F5B060C860286801680A79032A1CBF002012F0D0
:2020B000CDFB2868DFF898840168DFF898B401F10809062299F80000C0F3801084F82E018F
:2020D00009F1020104F5947012F01EFF042209F10E0104F1240012F017FFD8F80000A67988
:2020F00000F10C03042209F10E0103EB461012F00BFFD8F80000A37900EB4310032209F108
:202110001201103012F000FF04F12C0699F81500B070022209F1160104F1300012F0F4FE20
:20213000022209F1180104F1320012F0EDFE022209F11A0104F1340012F0E6FE308960845F
:20215000022209F11C0104F1360012F0DDFEB078F18872894000B0704900B088400012015C
:20217000B080F180728189B2638C5B1C4800434392B2934200D231B99BF80000802108F04B
:20219000B1FD3B21FEE004F12E01204612F016FB0520A081204612F0FFFC052209F11E01C1
:2021B00004F1610012F0B0FE99F823004009307013F046FE60823A68E34F518A401A04F541
:2021D0009771888104F1610199F82300DFF87C9300F01F00F073204610F040F929680A68D9
:2021F000002010711C25A1793868694341F6210242520022A17969430144001D4A80A1796B
:202210006943425099F80200410609D5D049088841F20A4290420CBFCE48CF48C4F89C016D
:202230002046D4F89C1188473968A37901F10E026B43D054A1793868694308440021C17348
:20225000C648017881B1B08870B9002171730120208160812046D4F89C1188473968A37941
:2022700001F10E026B43D0543868A27900F10E016A43885C707394F8960108B912F0DEFA8D
:20229000A1793868DFF8D8A26943084494F896114A1E02740023A179386869430844002124
:2022B0004174A279396801F112006A4301F1140C8352A279D8F8000000EB42136A434CF8E9
:2022D0000230A2796A431144A64A8A61DAF814100B78DA074CBF4FF0100C4FF0000C990719
:2022F0004CBF202100215A074CBF402200221B0700F10803A07941EA0C014CBF4FF0800E2A
:202310004FF0000E0A4340014EEA020242F00F021A54D8F80000A17900EB41100B224272DE
:20233000D8F80010A07901EB401104228A728E4A1378D8F80000A179012B00EB411002D1AD
:202350000121C17203E0DAF828104A78C272D8F80000A17900EB41101F220276D8F8001076
:20237000A07901EB401100224A76A07909F064FFA279D8F8001052018850A2795301C858EB
:2023900020B90721204612F017F9CDE07748016801EB021013F050FD744AA0791368D8F86F
:2023B000001003EB00130A1D40011350081DA27952018058F063A0794001095871640421BE
:2023D0009BF8000008F08EFC644BB2881978901C11B10AB9F088801C618A94F806B0414368
:2023F0004FF4C87205FB0BFBB1FBF2F1491CA061616140F6C41C23683A68CDF800B002F1E8
:20241000080ED3F80CB00CFB00B0411A0098A1F5A8614EF8001002F10800A1796943405817
:20243000986002F10C01A07968430C32095C01F0EF011154A0793968684301F10C020C3145
:20245000125C02F07F020A54A0793968684301F10C020C31125C02F0F00242F002020A54A5
:20247000A179386869430844417B01F0F00141F0010141733868A27900F108016A438858D3
:20249000216808616369D8F80000A17996F802E05B0000F1140249010CFB0E3303F5F663CF
:2024B0005350A17900EB4110C27C02F0F00242F00402C274D8F80010A079DAF8303001EB6C
:2024D0004012F0880CFB00F61868301AA0F51670D061A27901EB4210C17E01F0F00141F064
:2024F0000401C176A17938684D4321684019486099F80100810614D504F59771488F1B289F
:2025100004BF888F1B2808D1C88FB0F5A47F04BFB4F86E11B1F5A47F03D0142120460DF074
:2025300053FB134907200870BDE8F14F01F00EBC104F0020B44D0020684E0020F44B0020CD
:20255000083000206E4F002004300020282F0020504F0020CD0801008F110100784E00204F
:20257000C86D01005C4D0020734F00208C4E00206F4F002000B5ADF1240D029000208DF8D7
:202590000C0045E202980490049840788DF814009DF8140058BBA648A6490222102300905D
:2025B00010200AF0A1F9A84803221023A149009010200AF099F90498A849C01C02680A608C
:2025D00080888880A64801210170A648017850200FF06CFD0246A4480078A5490090A34806
:2025F0000123019010200AF07FF98DF814009DF8140010B19A480821017001208DF80C0043
:2026100030E20298049004984078002830D10498C07890B19348017850200FF047FD024689
:202630009448007892490090A9480023019010200AF05AF9049948701AE0894800780228E7
:2026500016D087480078072812D085480078062803D1A548007801280AD181480078032810
:2026700006D0A94812F06EFA10B9012012F00AFE04984078002800F0F581794808210170E8
:2026900001208DF80C00EDE1029804900498407800283CD102988078032812D17048007823
:2026B000062803D16E480721017033E0A948007818B16B48022101702CE0694803210170DB
:2026D00028E0AC48008858B1A248007810B98648007880B1A74801888B480FF083FB0AE009
:2026F0009C480078012803D19A490020087002E07D49002008705A480078072803D15848F9
:202710000621017006E056480421017002E054480821017001208DF80C00A3E1029804907B
:2027300004984078002842D10498B449001D02680A60808888800498B149408908804848E9
:20275000062101700498AF49C08908800498AE49008A08800498AD49408A08800498B64948
:20277000C0780870B5480078012803D0B348007802280ED1B24910201F220AF0B5F8ADF8F4
:202790001400BDF814004FF47A714143AD480FF029FB04984089AC49009004200190049847
:2027B000049BC2781B1D10200AF09EF80DE004984078312806D167490020087028480421EA
:2027D000017002E026480821017001208DF80C0048E1029804900498AC49828810200AF0C0
:2027F00083F88648002106220CF02BF985490020088085490020088084490020088004981A
:20281000A349807908708F4812F01EFDA14812F01BFD01208DF80C0079494FF6FF700880A4
:202830003148007840B10E48032101701AE1C046642F00201F4A010004988079082805D102
:2028500007480521017004E0742F0020044804210170012012F016FD04E1C046E02F0020A9
:20287000582F0020502F0020C00D0020440D002009450110C10D002002980490854812F05A
:20289000E3FC04984078002840F0EC8004985D49C088088004985C490089088004985B498D
:2028B00040890880674812F04DF9002840F0DA8079480068002800F0D580774852490068B6
:2028D000524A036809884F48128800889847C9E0630D0020029804900498704982880523CA
:2028F00010200AF001F8BDE0BD0D00200298049004988088ADF8140050480078052805D180
:2029100000208DF81E0072E0682E002001208DF81E004C4812F098FC48480078012803D0EA
:2029300046480078042839D15D4804990088C988884202DD5A48008801E00498C088ADF8F3
:2029500016005848049900880989884204DD5548008803E0BC0D002004980089ADF818007C
:202970005148049900884989884205DD4E48008804E0C046BE0D002004984089ADF81A00F4
:202990004A48049900888989884202DD4748008801E004988089ADF81C0028E02748007868
:2029B000032803D025480078022810D13C480088ADF816003B480088ADF818003A48008880
:2029D000ADF81A0039480088ADF81C000FE00498C088ADF8160004980089ADF81800049852
:2029F0004089ADF81A0004988089ADF81C003049102005AA09F078FF34E0C0467D1000204A
:202A1000C20D0020C40D0020C60D0020C80D002002988078052819DC05283FF47FAE002875
:202A30003FF4B0AD801E3FF4ECAD401E3FF42CAE401E3FF429AE15E0CA0D00209C0F002002
:202A5000F58401108C2E0020CDA10000801F3FF4C0AE401E3FF410AF08383FF43BAF801E09
:202A70003FF444AF9DF80C0001280CD11148006848B110480068006828B10E480068016897
:202A90000D480078884709B000BDC04681090100CB0D0020B02E0020D40D0020C1170110A3
:202AB0009E0F0020A00F0020A20F0020A40F002005160110D00D0020582F00202DE9F843A5
:202AD000040014D1002011F0B9FE10E020460EF033F9012808D065E08A0740F1548101F0D7
:202AF000FD0101700020B07120460EF049F804F16605687D002855D0697CDFF8A4940229C0
:202B100004F1EC0704F59E7804F5B07604F5C67035D0042949D005295CD0062900F08A8092
:202B30000729D3D0092900F0EC800B2900F0C1800C2900F008810D2900F0D0800E2900F074
:202B5000EA800F2900F02881102900F04281112900F05C81122900F00E81142900F0878148
:202B7000162900F05A81172900F07581FC2919D0FD2900F09581FE2900F09B81A2E7297C7A
:202B9000012909D199F80300002815D01621204611F012FD012006E020460DF0C1FC287410
:202BB000E88A28830020BDE8F283297C012940F0948199F80200002800F0E580FC21204607
:202BD00010F0CCFAA07904F1B80204F1B00113F02FF98CE7297C01290FD199F8020020B100
:202BF00084F89410002038607860B87A012868D10621204610F0B2FA79E704F1E70630785E
:202C1000012809D1204610F0CBF80128CAD10020B87201202874C5E770780028C2D004F16A
:202C3000C70204F1A00104F1D70013F0FDF8012030705CE7297C012940F0538199F80200F7
:202C500000283ED0618CE18320460DF099FF0120287020460FF0C0FB0120A871397A787C28
:202C7000012900F010000FD148B1002088F80500D8F8001098F8060049080CF003FEA079BF
:202C9000002113F0CDF80EE040B1D8F80020C54804F5A1735208214612F01CFDA07901223A
:202CB000002113F0B9F8002038723873F872B8721DE7287C012805D1F97A012908BFFC21FE
:202CD00097D060E020460CF0B3FF0128A3D10020F87284F894000120287408E7297C012977
:202CF00040F0038199F80200002809D0002184F894100120287020460FF06EFB0120A8717A
:202D100088E0297C012940F0F48099F80200D0B3618CE183E8E6287C012840F0EE80387C74
:202D3000022804F1FD0204D1A179002013F070F8DAE6032840F0EA80A1791A2013F068F8AF
:202D500000203874D0E6287C012804F20D1140F0E8800B78012B04F5897240F0E88048786D
:202D7000012807D15388009300201388CA78A17913F04AF8B8E6297C012940F0E78099F8E3
:202D900002000028F6D1298B481E288380B200287FF408AF2221FAE6287C012840F0DA806F
:202DB00098F80910012902D130780F281BE098F80800012826D1002188F80810288D000954
:202DD00000901A20AA8CEB8CA179520813F018F88AE6287C012840F0C18098F80910012964
:202DF00010D1307810281CBF002011F027FD002088F80900288D00090090AA8CEB8CA17924
:202E10007078E2E7287F0028E2D1BCE7297C012940F0A88099F80300F5E7297C012940F036
:202E3000A580017B4A061DD4CA0709D501F0FE0101730023A1797078002209F0EFFE53E627
:202E50008A0740F1988001F0FD0101730023A17900221A20F1E7297C012940F09980027B1F
:202E7000510690D5017B01F0BF0101733CE6297C012940F08F8001788A067FF52DAE01F06C
:202E9000DF010A0701700AD501F0F7010170F08B0090738BB28B318BA07912F0D9FF21E68B
:202EB000A97E204610F05AF915E7002011F0C6FC78E6A87E0F28F8D1FC21204610F04EF9F5
:202ED000B8F812000090B8F81030B8F80E20B8F80C10A07912F0C4FF64E620460AF052FC20
:202EF0005DE620460DF0FCFF59E620460FF058FC55E620460DF032F951E620460CF020FCAB
:202F10002874E88A2883012038744BE6288B401E288380B20028F8D1A179222012F078FF36
:202F300038E70120887020460CF0C6F837E6288B401E288380B20028E7D150880090222094
:202F50001388CA78A17912F05FFF23E720460EF047FB24E6204609F0B1FE20E6204609F0DD
:202F7000FDFE1CE620460DF07BFA18E61621204609F014FB13E6288B401E288380B20028BA
:202F9000C3D1A17900230022222009F047FE01E71721ECE7142120460BF050F8FFE500BF3A
:202FB0005C4D002055F000002DE9F84FDFF82844A178FF2904BF002011F040FCA07812F0D8
:202FD0004DF9044604F1680604F5C9753168086804F1900710B10022E28310E0B17B002995
:202FF00004BFB07E00280AD13978002904BF2878002804D1217F012904BF608CE08321890D
:20301000E08B4118491C6181204611F0F7FB01281EBFDFF8C8030178012904D12089002251
:20303000401CE2836081B07E01280CD1B28B6189208912F0E1FE30B121896289481C82425B
:203050002AD0B28B1FE0387801280CD17A886189208912F0D1FE30B121896289481C824270
:203070001AD07A880FE02878012815D16A886189208912F0C1FE00281FBF2189481C628971
:20309000824209D06A88824206D0501E608180B212F0AEFE401EE0832878012801BF69888D
:2030B0002089401C814207D16A792A71002028701346A17909F0B2FD04F59A71087920B1B9
:2030D00020890021401CE183608104F12E07B07E012801BFB08B2189491C884238D1608136
:2030F00004F18601204611F069FBB08C6189608400202077E083E0894118A181B08B21898C
:2031100012F076FE8046B988308C728C01FB0808F08C8A4204BF3989884202BFB18CFB8844
:20313000994207D000090090B38CA1795208002012F066FEB07F3870708CB880B08CF8803C
:20315000F08C3881204611F027FD0220B07601E0B7F80480E28BDFF88892501C00FB08F185
:2031700040F6C41808FB01F000902368D3F80CC06044DFF870C2D860DCF800E09A489EF876
:2031900000A003884FEA9A1ABAF1030F13D199F80FC05FEACC7E48BF00230CD45B1C9BB2A5
:2031B000012B11BFB4F812C004F59A7CBCF806C00CF2DC5C01E0B4F812C00CFB01FC4FF420
:2031D000C87EBCFBFEFCDFF824A20CF1010CC4F814C0038084F820204FF01C0BA379A161EE
:2031F0000BFB03F3DAF80010226801F1080001F1080CC058D3681061A0790BFB00FE6069AD
:203210001B1A4CF80E3001F10800A3790BFB03F3C058906001F10C02A0790BFB00F00C3181
:20323000125C02F0F00242F002020A54DAF80000A279811C0BFB02F200208852287908B9B8
:2032500011F0FCFADAF80000A27900F1100128790BFB02F240088854A079DAF800100BFBB8
:2032700000F00844002141742879042814D1A079DAF800100BFB00F001F110022B7A125C72
:20329000103142EA83020A54A179DAF800000BFB01F1084420214174DAF80000A27900F1CA
:2032B00012010BFB02F200238B525149A2790968520101F11403D4F814C09B5801F1140EC8
:2032D00003EB4C034EF80230B27E022A0AD1A279520101F114033E789B5808FB063301F1A4
:2032F0001406B35099F80F20D30749D5A2790BFB02F200F1080300F108069B58A3F5A86343
:20331000B3500830A27923680BFB02F282589A600098121A1A6101F11402A079400101F15B
:203330001403125802F5F6621A502879042807D1A079400101F11402125802F5B0621A505F
:2033500001F11400A27952018058C4F8340101F11C03284AB888166BA57908FB00F730682C
:203370006D01381AA0F516705851A37901EB431021490D78012D0EBF0122916A4A7819E09B
:203390002879A37904280CBF4FF44B604FF4E66001F114025B01D258101ABA8808FB02F201
:2033B000A2F516729042D2D30821204611F004F901200FE0C272A179DAF800000F4A0BFB4B
:2033D00001F10844216848600720107020460FF024FB0020BDE8F28F684E0020784F002040
:2033F0005C4D0020084F00203A3000200430002008300020C86D0100734F00206F4F002051
:203410002DE9FE43BF4C0F460646F80B80F05081B80880F03D81E07ADFF8F492B90F80F078
:20343000B680607A002840F096803809C0F09580A07A20B10020A072052010F021F9002577
:203450004FF001086570284684F8078007F09FFFAD4904F174002A4612F0D4F920790128D9
:203470001AD16079C0B9DFF8A482D8F8000000284CD048460068006B804761694346401A19
:20349000000BA0611968E2698018B0EBC11F98BFE0613BD9E56101E084F80480DFF8748291
:2034B000A8F115000068000A30D340F60900A08694F8410000F0F00040F0010084F84100D9
:2034D000E58694F8400000F0F00084F84000A56312F092F908F6FF7211686FF0020321F017
:2034F0000201116004F13401C8F8FB3F8A4AC8F8EB1F11688908FCD3C8F8FB3FD8F8FF1FC5
:2035100041F00201C8F8FF1F12F06EFC65610FF0C1FA82480560022010F0B2F8112008F079
:2035300053FA307C10B90E2008F04EFAE5712572A07818B906F1380012F06EF9784812F01B
:203550003FF878490878F8B10D7004F1D000042112F06AF918E0380914D2B80BC0F0C98093
:2035700004F1240012F054F9061C08D0706830B17568F068B6F91C1000222023A84727F4A1
:203590000057B6E00020607227F00807B1E020B1042010F075F80020E072B168088840F6D2
:2035B00002054FF0000885420AD0B0F5C15F07D00A8B4FF61F60104040F43470088306E07E
:2035D0000A8A4FF61F60104040F4347008826069E0B1D9F85400016804208847B0B1D9F8C4
:2035F0000000006B80476169814226BF401A401E401A000BF060708AF168401840F6C411F4
:20361000F06081422CBFB0F5FA7FF16094F8410010F00F0F0BD1708CED1D854207D1B569A3
:2036300030466FF4807142464FF00073A8473E4904F17400424612F0E5F8607958B102202C
:20365000ADF80000684610F065FE84F80580BDF80800A4F8700001206070E078401CE070E5
:2036700004F1200084F8068012F0D2F8002808BF47F0020702D0192012F0C2F875694146FC
:2036900030464FF080630A46A84727F0005730E004F12C05284612F0BBF806F009FF284610
:2036B00012F0B6F827F0020708B147F0020720E012F0A2F8014604F1280012F0A9F8064642
:2036D000B569A80810D27EB125EA0500B061084612F08AFB706850B12A46F068B6F91C1085
:2036F00075680023A84702E0084612F07DFB27F4804727B104F1D000394612F095F8BDE8EF
:20371000FE83C04608020020D9430100F42F00208C010010150004401010044000000460CA
:20373000B9A50000F02F0020A19C0000BB482DE9F84F0025BA4CB849056094F8E200002818
:2037500000F06581012800F02F81B64E02283CD0032840F05C8151F8250CD4F8B810002911
:20377000A0F5C060C4F8D400B8BF49420028B8BF4042814226DA4FF08057D7F8A4014568D7
:20379000B4F8BC0030214FF47F42082300903046A847D7F8A4014568B4F8C00004214FF447
:2037B000F802122300903046A847D7F8A401B4F8D070456820214FF440620A233046009768
:2037D000A847012584F8D8501CE151F8258C11F015FF2F4600B901273946934F3868002895
:2037F000FCD0B146012609F10409D9F82CA03E6009B111F009FFCAF30720C4F8BC0011F06D
:20381000FDFEAA4600B9B2463B68002BFCD0D9F800B0BAF1000F3E6001D011F0F5FECBF306
:203830008440C4F8C00011F0E9FEAA4600B9B2463B68002BFCD0D9F81C90BAF1000F3E6040
:2038500001D011F0E1FEC9F38120C4F8D000B8F5C061C4F8B81000F09C8094F8D80068B9DB
:20387000C4F8D410D4F8C000C4F8C800D4F8BC70C4F8C470D4F8D030C4F8CC30D4F8D4106C
:20389000D4F8BC30002954BF02206FF0010004F1C802176801EB41014018411000EB9171A0
:2038B00007EBA1001060D4F8C810C4F8C43000291CDD1E293CDDD4F8CC0030B93429B4BFCE
:2038D00015391E21C4F8C81025E02A29BABFD4F8C8000B381E20C4F8C800D4F8C4003F2856
:2038F000B4BF401C3F20C4F8C4001FE0D4F8CC00032812D011F10B0FC6BFD4F8C8000B30F6
:20391000301CC4F8C800D4F8C4000028C4BF401E051CC4F8C450032508E011F1150FC6BF82
:20393000D4F8C8001530301CC4F8C800C4F8CC504FF08057D7F8A401B4F8C43030214FF438
:203950007F424568374800930823A847D7F8A40104214FF400321123456832480096A847CF
:20397000B4F8C860D7F8A40104214FF4F802122345682C480096A847D7F8A40120214FF4BA
:2039900040620A23B4F8CC60456826480096A84701E084F8D85040F2FF50404502D8801CCF
:2039B00040452FD2082030E051F8251C1F4F4BF2F5204843060A3868C0F3814001280CD13A
:2039D0001B480068006880470FF046F811F022FE3111C010484306EBE03694F8E50030B981
:2039F0001448006820F07F408019460801E084F8E5501148310C0660012741600F4D8760A3
:203A1000287808B90B2000E0052084F8E40004F0F1FABDE8F88FC0462D400C402C500C4013
:203A30003C08002000A00C4000800C40B43F0050EC010010102009403C600C406E6C0100DE
:203A50002DE9F04F0D46E80789B00BD511F002FD28B100218160AE48006800B1804785F080
:203A7000010052E1A80710D5002006900021049000230290009005910393019101223C2081
:203A900012F0AEF985F002003FE11E246807DFF88482A14F40F19B800020079082469F49A5
:203AB0008878FF2804BF002010F0C8FE386890F8A00011F0D3FB06463868C07A96F82EB1FC
:203AD000022818BF032806F5947906D108F10D0012F082F908B908F1070A4946584612F04E
:203AF00077F988B33868807A002818BF012804D14146484610F05EF804E04A465946404670
:203B10000CF0CCF9FF283DD06043834608EB0B0406224946E01D11F0F7F918F80B0040F042
:203B3000020BE01D079006223868817E01F0010186F82E1104F10109386800F1140106F5BD
:203B5000947011F0E1F91DE04946584611F089FAC0B14A46594640460CF0A0F9FF2811D005
:203B70004443444404F10D0012F036F940B904F10D0012F031F9002804BF607F012801D107
:203B90004BF0020B06F12C005B4601780691418909090591728C079904920122C088029155
:203BB00040080390CDF804A0CDF800900020B17912F016F9D6F89C0159498842B0790CBF36
:203BD000002101210AF0E6F885F004009DE0280610D5002006900021049000230290009001
:203BF00005910393019101223B2012F0F9F885F080008AE0E8043CD508F1070108F10D0023
:203C100012F0E2F838684179012923D1017A012918BF04291ED1C17A022918BF032919D155
:203C3000817E00F1140240460CF038F9FF2811D04443444404F10D0012F0CEF850B9E11DD3
:203C500004F10D0012F0C0F838680622E11D143011F05AF9334934484A6800784FF4805104
:203C70000EF074F910B18E2012F0AAF885F480504BE0A80505D511F0C1FC2C4901200860FF
:203C9000FEE7690504D507F03EFE85F480603CE0680405D5812012F093F885F4804034E07F
:203CB000A80431D5224C206810B1002010F0C6FD4FF0FF3020600CF0A3FB1E4C216851F8E4
:203CD000202F684690471C48C16A026B2468009101920021029100F134014A6809781368CC
:203CF000806A03938DF81010ADF812006B46D4F80080124A12491348C0471349086003F00B
:203D10000BFF85F4005000E0002009B0BDE8F08F204F0020001E0020104F0020684E0020C1
:203D3000CD080100784E00206E4F0020FC002043044F0020F04E0020B00B0020FC2D002086
:203D5000CC0E002088490020EC4E00202DE9F04FB64D686885B0019020B905B0BDE8F04FAE
:203D700012F02AB80178DFF8C882B24EDFF8C892DFF8C8A201291CBF0229042946F2A817EF
:203D900041F64C5B05D0402918BF802900F09A8043E111F063FC0028FAD00198007805F0F1
:203DB000C3FD0090446814B9002010F047FD9AF80100002860D002F017F811F04FFA0290FE
:203DD0000168009801914F680BF0F0FC022827D000990A78012ADBD1994B19680A7A19F895
:203DF0000230337018B911F0E3FF5844A0602069C17E01F0EF01C1762069C17E41F0800134
:203E1000C1762069C17E01F0F00141F00201C1768C48B96841182069C16101210098A0E013
:203E300001980178802913D10822874832700178012903D09AF80100012803DD7869012123
:203E5000C17213E0D8F828107A690878D0720DE07D49072030700A787869012A02D1012380
:203E7000C37203E0D8F828104A78C2720298817901988AF80210CBE00098002888D00199FE
:203E9000009A0078914205D101281CBF002010F0D5FC15E0012840F0C080694801680A7A36
:203EB00019F80200307011F083FF3918A06811F07BFF18B911F07CFF5844A0600120A870C6
:203ED0000098A5E09AF8010000287DD001F08CFF11F0C4F904462068029047689AF80200CC
:203EF00011F0BCF9039011F0BFFB10F0070F3DD0A87805F019FD0190416801980091029961
:203F10000BF054FC022831D001990A78012A2AD14B4B19680A7A19F80230337028B911F076
:203F300047FF83440098C0F808B000990869C17E01F0EF01C17600980069C17E41F0800109
:203F5000C17600980069C17E01F0F00141F00201C176009AB9683B4841181069C161012139
:203F70000198A97054E0002010F068FC0398A04228D002980178802913D10822324832706C
:203F90000178012903D09AF80100012803DD78690121C17213E0D8F828107A690878D07229
:203FB0000DE02949072030700A787869012A02D10123C37203E0D8F828104A78C272A07917
:203FD0008AF80200029823E011F04EFB10F0070F29D0A87805F0A8FC04462078D4F804806C
:203FF000012820D116490A68107A19F80010317011F0DEFE3918D8F8080011F0D5FE20B9C7
:2040100011F0D6FE5844C8F808000120A870204605B0BDE8F04F07F0E9B805B0BDE8F04FEE
:20403000002010F00BBC05B0BDE8F08FB42F0020C86D01006F4F0020289A0110684E0020F0
:20405000104F0020F0D8FFFF734F00202DE9F04F0546A64CA878E169ADF11C0D801F00F0D7
:204070003E81C01E00F02981401E78D0401E56D0C01E4AD0401E40F03481207A617A0028F7
:204090003FD1607800283BD0A88811F089FE071C00F02781A87A40080AD3787940B1E96808
:2040B000890A05D2B91D01AA08F072FC0A2825D0207B022802D1A87A00091FD36078AE88B5
:2040D0007979C0B1607CB0B90120607405F10802304604F0E3F9002840F00381E0690028A0
:2040F00000F0FF804368002B00F0FB80002130460A469847F5E00521304603E0032100E0E2
:204110000521A88811F048FEEBE0002900F0E9804B68002B00F0E5806A780221CBE011F0C1
:20413000A1F9002800F0DD80E7690FB1386868B9286900280CBFA0690120698911F028FEC8
:20415000002800F0CE8068890121DBE7286900903C6869892A7B6B7BE81CA047C1E0687866
:204170004FF00008002840F09580A8794008C0F09180206A002840F08D8001A841460E2202
:2041900011F058FBA88811F00BFE061C00F0A9806869002859D0814641460622113010F06D
:2041B000E4FDC24628B348464146062210F0DDFDD8B999F8100009F1110B474605907F1C0F
:2041D0005846FFB28BF800700FF070FE0A280BDA474B059A0101A1EB4001C9188879824263
:2041F00002D1002FEBD100E01FB947464FF0010A6F61BAF1000F09D109F1110101A8062221
:2042100010F082FE99F810008DF80A00BAF1010F1BD06F69CFB1387C07F1110106228DF875
:204230000A0001A810F070FE06F10C00B11D062210F06AFEB01D07F11101062210F064FE8B
:20425000387C40F00200707107E07079B11D06228DF80A0001A810F057FEA9799DF811204C
:20427000C1F3800010438DF81100080905D39DF8110040F008008DF8110001A8294602F0AA
:2042900081FC28B92078022106F02CFD404629E04FF0150811F00CFAE06910B3436803B377
:2042B000A8886A7801219847B8F1000F19D0E069032142464368A8881BE7E878291D0022A0
:2042D00008F066FB0A280CDA410001EB800005F10C0225300421C0B210F099FB01E00CF04F
:2042F00047FB012007B0BDE8F08FC046400400202E0500207CB59D4D144602460026A2F539
:204310008062182A1AD8DFE812F025011E0116010D010501FF00F700F100E700DB00D300C2
:20433000CB00B900AD00190019008A0074006D0058004F0044003B002E002400282880F265
:204350008F80022940F08C80218811F01DFD064609E1012940F00681002C00F003812946ED
:2043700001F11203C6E0102940F0FC80002C00F0F980284658301022214610F0C5FDF2E0E3
:20439000012940F0EF80002C00F0EC802B469B1DB0E0262940F0E680002C00F0E3802B462E
:2043B000262203F16800E7E7012940F0DB80002C00F0D8802B465B1D9CE0602900D144B996
:2043D000012940F0CF80002C00F0CC802B460D3390E005F18E002146602210F095FD01207B
:2043F0006873C0E0012940F0BD80207811F0C8FCB9E0012940F0B6802078022800F3B2802E
:204410002B4603F10C0108702078022818BF301C02D11020D872012011F0AEFCA3E00729F1
:2044300040F0A080611C6846062210F041FC20786946324608F0ACFA04460A2C10DA11F0C4
:2044500097FC40B9204605F003FB502010F0A7FC0CF01AFC87E02B4601202833185582E01F
:20447000022680E001297DD12B462178987B0028997378D12078012875D1E9E72B46187BB7
:2044900001296FD1022804D02178072901DB102904DD022866D12178102963D1D97262E0F1
:2044B00001295FD122780A2A5CDA2B46093340E0012957D12278022A54DA2B46083338E0B7
:2044D00000294FD111F054FC10B910F0D5FDBCE72B4601220F332CE0042943D120682449DC
:2044F00081423FD32B46183318603CE0012939D12B460A3322781CE0012933D12278022A1B
:2045100030DA2B46DB1D14E010292BD12B4603F1480030E7012925D12278022A22DA2B46D8
:204530001B1D06E001291DD12278042A1ADC2B46DB1C1A7017E0012914D12278022A11DACE
:204550002B469B1CF5E702290CD120882B461433188008E0012905D12278022ADCBF2B1CB7
:204570005B1CE6DD182630467CBDC046400400203F420F002DE9FC41884C894A2678894F9A
:20459000894D8A490D2E30464FF4A0534CD8DFE816F003010E000E000E000E00FB00FB0058
:2045B0006800FB00A700A700D800D800DF008049176041F204464C887E4FB4421CBFB1F8D3
:2045D0001AE0B6450BD0B1F83280B0451CBF41F20A46B44203D0B64518BFB04502D12E803C
:2045F000176076E0022C744E2C8035D94FF48067E41B1AD0241F012C1DD94FF47F77E41B83
:204610001BD04FF44067E41B0FD0A41E012C0CD9241F0AD0641E012C0DD940F2F937E41BF0
:20463000012C19D9241F08D0AEE0022814BF2B80624E16604DE0624EFBE762480468257A60
:20465000012D05D141F20240488048834886F0E74B804B834B86ECE7002010F0EFF88320B2
:2046700096E059488178FF291ED01C2041435748176040F204460068841C645A2C80A41B81
:20469000012C534D10D94FF47F76A41B15D00A3C012C14D940F6F636A41B032C84BF641F02
:2046B000012C0ED9A41E012C76D940F2FD36A41B07D0641E012C02D905E041F20143801C1B
:2046D0004352156005E0002010F0B8F8852011F0BBFBBDE8FC413F480078012106F002BBF9
:2046F0004A882A8040F20443D21A55D040F6FC73D21A15D0083A4FD04FF47F73D21A22D1B9
:20471000354C364A2568364800680023CDE9002355F8086F334B0222B047334908803BE09D
:20473000092810D131490A68508960B1304908780CF052FA0021002011F016FB002020703D
:204750002AE048882880002010F078F885201FE04A882A80022A0DD940F20440121A1BD078
:2047700040F6FC70121A05D0083A15D04FF47F70121AE8D1887B801CC0B2B528A8BF66206D
:2047900088730020488007E0002010F057F88420BDE8F64111F058BBBDE8F3816F4F002045
:2047B000204F0020D3570100504F0020F02E0020204A002039200000C19F000075BD0000BD
:2047D000755B0110104F0020684E002004300020CD5700006E4F0020F04E0020020000805E
:2047F000EC4E0020F1270100424F00200C300020714F00200EB50091ADF8040000208DF8A7
:204810000600A8E07948009900780870EAE000987749102208F02CFCE4E0009875491022F0
:2048300008F026FCDEE07448009900680860D9E0724900980A68026089888180D2E070480F
:20485000009900780870CDE06E48009900780870C8E06D48009900880880C3E06B490098DE
:204870000A786B4908F004FCBCE06A4900980A78694908F0FDFBB5E0684800990078087021
:20489000B0E06748009900780870ABE0654900980A68026089888180A4E063480099007849
:2048B00008709FE061480099007808709AE0604800990088088095E05E4800990078088040
:2048D00090E05D480099008808808BE05B4800990088088086E05A4800990088088081E041
:2048F00058480099008808807CE0574900980A6802608988818075E054480099008808804B
:2049100070E053480099008808806BE0514800990088088066E0504800990078087061E0BE
:204930004E480099007808705CE04D4800990078087057E0BDF80400282808DA4949BDF885
:204950000420102007F0D0FF009908804AE002208DF8060046E0BDF80400A0F540701D28CC
:20497000E8D802A151F820008746C046154800001F4800002B480000374800004148000049
:204990004F480000634800006D4800007B48000089480000934800009D480000AB480000C9
:2049B000B5480000BF48000045490000C9480000D3480000DD480000E7480000F14800009C
:2049D000FB48000009490000134900001D4900004549000031490000594800002749000057
:2049F0003B4900009DF806000EBDC046592F0020642F0020742F00205C2F0020E02F0020BF
:204A1000BC0D0020BD0D0020BE0D0020C00D0020440D0020C10D0020630D0020602F00203D
:204A3000612F002077100020622F0020632F0020C20D00209C0F00209E0F0020A00F002056
:204A5000A20F0020A40F00207D100020C40D0020C60D0020C80D0020CA0D0020582F00207E
:204A7000CB0D0020F584011010B50B7884074CBF43F0020303F0FD0304064CBF43F08003D0
:204A900003F07F0304074CBF43F0080303F0F70384064CBF43F0200303F0DF0310F0AA0FD7
:204AB0000B7004D0107840F00C00107010BD18B9117801F0F301117010BDF8B50F460026D1
:204AD0003878022814461D4667D1786801784278069801EB022189B2002818BFB1F5285FD0
:204AF00001D00B20F2BD4FF42850091A0AD0491E1ED0491E4BD0491E22D0491E28D0C539B6
:204B100041D04AE0F86810F099FE069B079980B2C21A8A42ACBF0846C01A80B2C11816295B
:204B300004DA28800246F868C1180DE00D2636E0F8680088022129802070000A60702EE0FC
:204B5000062028800622F968204610F0DDF926E0F868B0B108212980018821700188090A63
:204B700061704188A1704188090AE170818821718188090A6171C188A171C088000AE071C6
:204B90000DE029800BE04A480178CA0705D401202880F8680178217001E02E800126304670
:204BB000F2BD2DE9F8460E46814630780024022817469A4678D17068017842783C4D01EBCB
:204BD000022189B24FF42850091A08D0491E30D0491E55D0491E3FD0C63960D064E0F0687D
:204BF00010F02CFE089980B2884206D308460AEB0001162903DB0D2457E0072455E0F36881
:204C100052463946184410F07FF908985044ADF8200000210898F368C0F11602184410F05F
:204C300009FE686800281CBF0268002A3DD0002123E0089888BBBAF1020FDCD139787878D8
:204C5000F26801EB00211180686800281CBF0268002A2AD0012110E00898F0B9BAF1060FD0
:204C7000C9D1F0680622394610F04EF9686800281CBF0268002A18D003214846904714E078
:204C9000089850B9BAF1010FB5D13878002813BF0128F1680870802407E00B2405E0287837
:204CB000C10758BF032400D501242046BDE8F286D80F00202DE9F04F8246DAF800600C46B9
:204CD0005FEA0208ADF11C0D14BF00214FF0FF3106F14800834610F05BFB002818BF0B20BF
:204CF00040F00681002565708448F460B8F1010F057004D065700220F4600EF00FFE2078E3
:204D1000012840F2AB80801E012868D9801E012833D9801E012800F2DF8010F06DFD06900A
:204D30004FF0805000F5EE77D0F8DC01A378466A009321782846062908BF01200190012027
:204D50000290A068228AE1686368B0478146069811F04AF8B9F1000F40F0C080B8F1000F69
:204D700002D010F095F802E050460FF0FFF9002800F0A4803868806A2AE010F03DFD0690B5
:204D90004FF0805000F5EE77D0F8DC01012306680093A168A27860682478AC46042C08BF60
:204DB0009C466346B0478146069811F01DF8B9F1000F40F09380B8F1000F02D010F068F800
:204DD00002E050460FF0D2F9002877D03868406880474949C1F8B0510D6081467EE010F025
:204DF0000BFD06904FF0805000F5EE76D0F8DC01E38A87690093E0680190208B0290A078DA
:204E10000390207D04900121059122782846022A08BF081CE1786268A368B8478146069855
:204E300010F0E2FFB9F1000F58D1B8F1000F02D010F02EF802E050460FF098F900283DD0B2
:204E50003068006A80475FEA000947D13068C569A168E28A2369E078A847BEE710F0CCFC94
:204E700006904FF0805000F5EE76D0F8DC01E38AC7680093E0680190208B0290A07803908F
:204E9000207D2946049001200590257805B9014608466268A368E178B8478146069810F02A
:204EB000A3FFB9F1000F19D1B8F1000F02D00FF0EFFF02E050460FF059F908B9142017E071
:204ED0003068406980475FEA000907D1306802692169E078904780E74FF0FF39B8F1010F3D
:204EF00002D002200EF0CCFB584610F095FC484607B0BDE8F08FC0465045024047300020DD
:204F10002DE9F04FDFF80CB29BF80000002885B004D0401E032804D9801F012840F2F780FC
:204F3000EFE07D4DDFF8F4812868DFF8F49103687C4E03F10807062207F1080103A80FF085
:204F5000E3FF0622B91C01A80FF0DEFF3878C0F380118DF800101E24C10900F00F02032A1A
:204F700039D16879C0F38000814233D12969062203A80FF093FC00282CD09DF8000001A9E6
:204F900010F026FF002825D0314601A80EF012FE0746FF2F1ED0D9F80000807A674300288B
:204FB00018BF02280BD0012818BF032812D1701CF25DC119404610F0D3FE10280AD0F419CC
:204FD00001AAE11D40460BF0FAF8062201A9E01D0FF09AFF90E000F00F00052840F097805B
:204FF0006879C0F380008142F4D12969062203A80FF054FC0028EDD09DF800003F7801A976
:2050100010F0E6FE7F0940F2024A88B3314601A80EF0D0FD8346BBF1FF0F6DD0D9F80000DF
:20503000807A002804FB0BF118BF012800910CD0022818BF03285FD10846711C325C0144CC
:20505000404610F08DFE102856D0504610F084FE009806EB000A01AA0AF1070140460BF0F7
:20507000AEF8062201A90AF107000FF04DFF1CE09BF8000002283FD19DF8001001AA3046CC
:205090000AF00CFF8346BBF1FF0F35D004FB0BF03118487F012805D070BB01F10D0010F041
:2050B0009BFE48B3504610F057FE04FB0BF4D9F80010305D88760622701C0119D9F8000058
:2050D00014300FF021FF184918488A78510604D5F90758BF41F20A4101D541F204414180C6
:2050F000418341861248134A01801348134908600121107805F0F6FD29680A680020107188
:2051100005E000200FF09AFB862010F09DFE05B0BDE8F08F6F4F0020F44B0020CC4700205C
:20513000104F0020001E0020282F0020204A0020504F00206E4F002039200000204F00201D
:205150002DE9FE4F05467E48002400680094C0090ED37C48007858B97C497B4851F8112CA6
:20517000104040F0817041F8110C20200DF0D0F8012D40F0E080DFF80092D9F8DC00012856
:2051900040F0D6800220C9F8DC000FF0D7FA01200DF0BEF85FEA000805D00120C9F8DC0032
:2051B0000FF0DCFAC9E010F03BFBA34602906848684DC0F800B0A86A01680120884701284F
:2051D00004D158460AF028FB012000906248634FC0F800B03868112010F028FA00B10124F1
:2051F000102010F023FA08B144F002040F2010F01DFA08B144F004040B2010F017FA20B117
:205210002868574E016B308888470A2010F00EFA20B12868534E016B30888847524801266E
:2052300006602868816944F0200088474F48066010F0F6F900F001010191400814D2286A2B
:2052500081684B4888478246BAF1040FF7D0BAF1010F04D1286A42684548032190474549C4
:20527000086820F003000860584600F0B7FC2B683868986B8047019801280CD0BAF1010F9C
:2052900004D1286A42683A48314690473949086840F0030008603048066028684169204612
:2052B00088470B2010F0C2F920B128682C4BC16A188888470A2010F0B9F920B12868294B06
:2052D000C16A18888847284806600322C9F8DC20264BC3F800B02868416B204688470128F6
:2052F000F9D1386804200DF013F80446184806603868134800688009FBD30098012802D1AA
:2053100030460AF089FA10F07FF908200DF000F807460298C9F8DC6010F01AFD0AF056FEAC
:205330000FF01CFA57EA040018BF4FF0FF3804E06FF0040801E06FF001084046BDE8FE8F66
:205350001410094024090020FFFFFCFC150009400C400940B8010010000222432C200940D5
:20537000D6680100D2680100282008608001044300400340242208403C0800200EB58DF86E
:2053900001108DF800008848006830B94FF0004000210BF0F5F88449086083480068002135
:2053B000002256A30EF0EFFD97E07F4800680021002256A30EF0E7FD7B48006802210022A4
:2053D00055A30EF0E0FD97E09DF8010001280ED175480068002100224CA30EF0D4FD7248F5
:2053F00000680221002251A30EF0CDFD84E06E4800680021002245A30EF0C5FD6A480068AD
:20541000022100224FA30EF0BEFD75E066480068002100223DA30EF0B6FD63480068022117
:2054300000224DA30EF0AFFD01208DF804009DF80400002860D09DF804000028FBD15BE03D
:20545000594800680021002230A30EF09CFD564800680221002244A30EF095FD01208DF81E
:2054700004009DF80400002846D09DF804000028FBD141E04C4800680021002223A30EF090
:2054900082FD49480068022100223CA30EF07BFD01208DF804009DF8040000282CD09DF8EE
:2054B00004000028FBD127E03F4800680021002216A30EF068FD3C4800680221002234A387
:2054D0000EF061FD01208DF804009DF8040098B19DF804000028FBD10EE09DF80000801E26
:2054F0003FF472AF801E3FF460AF401E8ED0401EA6D0401EBED0D7E70EBDC0463E3E3E5350
:205510005441434B20415353455254002A2A2A4552524F522A2A2A003E3E204F5554204FDD
:2055300046204D454D4F52592100C0463E3E20494E5445524E414C204657204552524F5295
:205550002100C0463E3E20494E5445524E414C204552524F522100C03E3E204943414C4C8F
:205570002041424F525421003E3E204943414C4C2054494D454F55542100C0463E3E205700
:20559000524F4E47204150492043414C4C2100C03E3E2044454641554C54205350494E4C67
:2055B0004F434B2100C046C0841000202DE9F84F0024774D774EDFF8E0B1DFF8E0A1DFF8C2
:2055D000E081DFF8E091D9F800104A7A01231820A34060431A420AEB000709D0087A38F8A8
:2055F00010203A8000201BF80420BA73F87302E040F6010038800020788007F118007860F1
:20561000387B00F0EF0040F080003873097A01290ED141F28830B860387B00F0F00040F03B
:2056300005003873787B00F0F00040F0020019E0002C0CBF0221002100F0F000084338739B
:205650003CB910F0B5FB00F5C870CAF80800022004E00020022CB860F9D10120797B01F062
:20567000F00108437873641C3E61022C7D61AADDD9F80000017A01290EBFCAF834A0002048
:20569000CAF834000EF08EFB3060474880690078C1074CBF1021002182074CBF20220022E0
:2056B00043074CBF4023002300074CBF8020002011431943014341F00F0131710020707155
:2056D000D9F80010887A00F003007071CA7A920002F00402104370718A7ED20002F008022B
:2056F00042F0100210437071087A012818BF042806D10020B071F071B06001F1140216E0ED
:20571000487FB07101F15D025078F071487F20B10B7FC3EB4313C8181E30B060507828B112
:205730001278C2EB42128B1803F15F001F4AF060726101F10C0030611D4BF07E727900F00C
:20575000E00040F08600F0761A48F061187828B1307900F0FE0042F040023071164B987804
:2057700043064CBF42F0200202F0DF02727100202880A870E87028716871E8802881A872E6
:20579000E872E8600868C0F804A0BDE8F18F00BFB44D0020F44B0020409A0110204A0020B2
:2057B000109A0110104F0020C86D0100D0470020784E002000204E00282F00207E488078A9
:2057D000FF2800D170472DE9F84F0FF047FD054605F217100178012908BF417800F0A280CC
:2057F00005F17400817B022903D105F174020020907305F59276F18911B1307B05F072FA5B
:2058100068896E4F288105F58D78B87AFB793A7BF97A7C7BB8F800C000EB030E96448E4445
:2058300074441FFA84FEB8F80440641CA8F80440F444B8F80240A8F800C00419A8F8024024
:205850004FF01C0C3468FCB1DFF8749195F806A0D9F8009009F10E0B0CFB0AFA09F10E09E9
:205870001BF80AA034F81AB0F34424F81AB095F806A00CFB0AFA19F80A9004EB4904B4F877
:205890004AE08644A4F84AE0002B08BF002904D1002A04BF797B002923D02A89E889821893
:2058B00000202874AA81287F012804BF698CE983787868B10121297705F17401887800289F
:2058D00004BF887B002803D1087F08B9698CE983307D80B3022804BFF87A002827D10021CD
:2058F00028E0E98338B100202874287F012807D1698CE98304E0B8F80600401CA8F80600DA
:20591000A8892989814206D08842D1D2081A41F2AB029042CCDA287C08B1052901D008218F
:2059300000E03E212846BDE8F44F0EF045BE787A08B1022131752348FA7B01682868D3079A
:2059500008D53A69C26001F11400A97949010022425011E001F11402A979490152581849FF
:2059700032610A68A97902F108030CFB01F29958C1600020E8832877134841690A7890079E
:205990004CBFB87B812085F874002846FDF796F801280ED00121284609F040F928460EF002
:2059B0005DFCFDF701FB012803D0BDE8F14FFEF7CDB9BDE8F18F00BF684E00205C4D0020AF
:2059D0000430002008300020C86D01002DE9F0410C4684B00746207A0026C10690461D46FB
:2059F0000BD5404610F0B0F9030000F0F0800A22214638469847060050D1207802281AD161
:205A100060680178427801EB022189B24FF42050091A012910D9891E41D0491E16D0FD390D
:205A300005D0491E00F08B80491E74D0491E7BD0491E00F0A180B8E00B98002831D1E0689D
:205A50000A9A017811800278416891E00B98002827D10A9801210180E06801782970002171
:205A70006089401C80B210F06BF90A99098868B102780A9B921C51181980418969704189B2
:205A9000090AA97002784168E81C72E00A98091D018004220021681C0FF0CCFE98E00B9859
:205AB00000286BD1E06807880A98042101802F70380A68700DF10201384610F041F90400DD
:205AD0001FD0E768BDF802204FF6FF786B46414610F032F940B9237862683F48022110F07A
:205AF00027F908B9ADF80080387802280BD179680222281D0FF008FA0A980188891C01803E
:205B100001E0ADF80070BDF80000A870BDF80000000AE8705CE00B9800282FD1E0680168E3
:205B300038460EF005FD03E00B9838BBE06800880A9A022111802870000A687048E0E0684C
:205B50000FF07CFE0B9B80B29842B8BF07263FDB834208BF002006D00C99C9188142B2BF10
:205B70000C98C01A80B20A9908800246E068C11828460FF0C9F92BE00B9808B10B2627E003
:205B90000A9AE0680721118002782A70417869704188A9704188090AE97001792971C18836
:205BB0006971C088000AA87112E0404610F0BCF806000CD00D980C990A9B029001912A46FF
:205BD0000B98009021463846B047064600E00E26304604B0BDE8F081C26D01002DE9F84F79
:205BF000DFF8F0B10746ABF13500DFF8DC910068800880F0D88070480068006880477949F2
:205C10000831D1F8008000254FEA28725FEA985102F101020AD2C0F13E0110F10A0F4FEAB3
:205C3000E101D8BF08218A42B8BF0A1C634BD3F87C11C1F304611629A8BF20391B68C3F3F2
:205C50000443162BA8BF203B9A465118162905DA11F10A0FB8BF6FF0090100E01521584BCF
:205C7000584E01F01F0242F4F8521A80326812F0030F18BF0125D20828BF45F002050FB1DA
:205C900045F004054A4692F90730C31A052B04DA9379AB4208BF918865D0DFF830E10F284C
:205CB000A0F10F0C25DB0CEB0013A3F1F00C4FEA2C26072E88BF07263446062C88BF06243D
:205CD0005EF82470042303EB84037446E358DB1B03F0FF04EF0824BFC3F307273C44AF0858
:205CF00024BFC3F307473C446F0828BF04EB136401E0002426465EF826E0EF080EF0FF03A5
:205D100024BFCEF307273B44AF0824BFCEF307473B446F0828BF03EB1E63A4B2ACEB062614
:205D3000BAEB010104FB06F404F1800403EB1423D8BF0121342408F0FF074C437C43B4FB09
:205D5000F3F14FF6FF738B4238BF191C802889B2918005DA10F1800FB8BF6FF07F0000E007
:205D70007F20D07195711A4800681F2910604FF0000008D340F2FF128A4206D24908401CFD
:205D90008A42FBD301E01F219180134F0F39090940EAC10047EA0001CBF8FB1F0026CBF888
:205DB000FF6FBDE8F88F0D490D4F4A4608200F60921D1070BDE8F88FEC0100103C1100506B
:205DD0006E62084024220840E82F00209C130050082009403500094000E7A4803010094054
:205DF000FDFDA400AC3F00502DE9FE4F7D4C617811B900200EF022FD0FF0DAFF81460027E8
:205E100009F6C4190026784DDFF8E0810EE030460FF024FA417939B129688279CA55494614
:205E30007F1C00F0E7F8FFB2761CF6B298F800008642ECDB009761788F4205D000200EF0AA
:205E5000FDFC822010F000F86078012840F0A380002601E0761CF6B298F80000864280F240
:205E7000948030460FF0FAF9074678790028F1D02868B979027891421CBF00200EF0DEFC8D
:205E9000B87980E0286810F809000FF0E7F900684268DAF808109068814204BFB84609F16F
:205EB000010900F088808BE0296891F800B04FF0010910E0626811F8093002F5B17208FB39
:205ED00003F708FB0BFED75B32F80E20974238BF9B4609F10109C0B28145EBDB4FF6FF70BB
:205EF00009F00AFA074658460FF0B8F940F6C4190068416800967808029109FB00FA002609
:205F1000019715E058460FF0A9F901680A78802A04BF7B69C3F814A00978402907D1344ABA
:205F30008079136803EB40110AF5A062CA61761C0098864253DA2868805D8345F7D063688C
:205F500008FB00F2991803F5B173C9899A5A4B08934203D2009B891A8B42E8DA0FF07EF9E9
:205F700000684768029A0198B968936800EBD0704010A1F6C41109FB00300FF015FF002853
:205F9000C0D02868805DBDE8FE8F00200EF056FC82200FF059FF6178286809F04CFF28681C
:205FB00000780FF05BF90168009ED1F804A04FF000084FF00109B14508F10107FFF662AF05
:205FD0004046C0B200281EBF3846C1B200294FF4D0787FF469AF286890F800B07EE75846B9
:205FF000D1E700BF684E0020004F00207B4F0020083000202DE9F24F054682B02868D0F867
:2060100004B0DBF808000FF0CFFE002840F0E4802968029809690FF083FE05F182048046FA
:206030002078002805F12E0740F6C4196BD0298960880FF0DDFE82462078022806BF05F55A
:206050009A710E8EBE8806FB0AF609FB06F00090286801690098411802980FF0A5FE002869
:206070004BD000982189A8EB000009FB01F2B0FBF2F302FB130000B15B1C288982449A440C
:20609000A5F80AA05943E088861920788E1901284BD105F1860128460EF090FB6089698933
:2060B000688400202877E883E8894118A9812289B988A0898A4204BF3989884202BF6189EB
:2060D000FB88994207D0000900906389A979520800200FF095FEB88805F59A71088620795C
:2060F00038702089B8806089F880A089388128460EF052FD0220207017E0207801281CBFC4
:2061100000200EF09BFBB88809FB00F0B8FBF0F100FB11888EB2B8F1000F28891CBF761C49
:20613000B6B230186881B88846432968314A086909FB0600CBF808000B78802B0DD1C86067
:20615000D2F83080BB88D8F8000009FB03F31B1ADBF81400A3F5167343610878402833D1DB
:20617000AE614FF4C873688A4643B6FBF3F0401C6861DBF80830181ACBF808006B69D5F8A5
:20619000340100EB4300DBF8143058611A4823780068022B0CD1AB795B0100F1140454F878
:2061B00003803C7809FB048800F1140444F80380AB79126B00EB4313B88809FB00F41068AE
:2061D000201AA0F51670D861DBF808208A60F87AB87228460CF021FC6989A8890FF008FEF1
:2061F000E989814205F59A7138BF0120C885BDE8F78F00BFC86D010008300020F8B57E4FFE
:2062100004463868C16E0025002940F0F18010200FF048F939680028C86600F0E7808E6EAC
:20623000102221460EF070FE39680878002840F08E80CA6ED6F8980012F80CCF00F001034B
:206250000CF0010C634518BF0023400843EA4000C6F89800C0F34003D2F800C0CCF3400CED
:20627000634506BF430803F00103002320F0020040EA4300C6F89800C0F38003D2F800C0A7
:20629000CCF3800C634506BF830803F00103002320F0040040EA8300C6F89800C0F3C00304
:2062B000D2F800C0CCF3C00C634506BFC30803F00103002320F0080040EAC300C6F898000C
:2062D000C0F30023D2F800C0CCF3002C634506BF030A03F00103002320F4807040EA03207E
:2062F000C6F89800C0F34023D2F800C0CCF3402C634506BF430A03F00103002320F4007015
:2063100040EA4320C6F89800C0F38023D2F800C0CCF3802C634506BF830A03F0010300232B
:2063300020F4806040EA8320C6F89800C0F3C0231268C2F3C022934206BFC20A02F0010234
:20635000002220F4006040EAC220C6F898008A6E92F89500030718D5C86E4368C3F3C000D0
:2063700098B1C87840F00800C870D6F8981023480140C6F898103868C06EC16821F480718F
:20639000C16049084900C16003E092F8330001282AD0607800281CBF7178002908D13968E7
:2063B000CA78130708D5002804BF7078002803D03A68052111711CE06068C0F3800040B98C
:2063D00096F8950010F0040002D10120087110E00AD00878002819BF30782178317820784D
:2063F0000FF09AFC054604E0182502E0132500E011252846F2BD00BF304F0020FEFEFFFFE7
:206410002DE9F0411C4615468C4208BF854282BF00230022E5E0002C08BF002D0AD100299D
:206430000EBF00286FF000006FF0000100F0E1F8BDE8F0815FF000085FF0000E002C08BF12
:206450008D429CBF2C1C0025070C47EA01470E0CB44208BFBD429EBF5FEA044444EA1544BE
:206470005FEA0545070A47EA01670E0AB44208BFBD429EBF5FEA042444EA15645FEA052513
:20649000470847EAC1774E08B44208BFBD4200F29380870847EA81778E08B44208BFBD4213
:2064B0007CD8C70847EA4177CE08B44208BFBD4266D8070947EA01770E09B44208BFBD4264
:2064D00050D8470947EAC1674E09B44208BFBD423AD8870947EA81678E09B44208BFBD42BA
:2064F00024D8C70947EA4167CE09B44208BFBD420DD8E60146EA5566EF01B14208BFB842F9
:2065100001D3C01BB14158EB08085EEB0E0EA60146EA95664FEA8517B14208BFB84201D3E3
:20653000C01BB14158EB08084EEB0E0E660146EAD5666F01B14208BFB84201D3C01BB1413F
:2065500058EB08084EEB0E0E260146EA15762F01B14208BFB84201D3C01BB14158EB0808C9
:206570005EEB0E0EE60046EA5576EF00B14208BFB84201D3C01BB14158EB08084EEB0E0ED9
:20659000A60046EA9576AF00B14208BFB84201D3C01BB14158EB08084EEB0E0E660046EAC8
:2065B000D5766F00B14208BFB84201D3C01BB14158EB08085EEB0E0EA14208BFA84201D39C
:2065D000401BA14158EB08085EEB0E0EA34208BFAA423EBF2D0A45EA0465240A89D373460F
:2065F00042461E4617460B46024631463846BDE8F081704700B5ADF12C0D0493039202919C
:206610000190019878B1029868B1039858B1049848B10C9838B10D9828B10D98006A10B150
:206630000D98406A48B90D9820B10D986FF0010180F82C106FF00100CDE00D98816A67487E
:2066500000680FF065FB0D9981F82C000D9890F92C0038B90D986FF0020180F82C106FF0B3
:206670000200B8E00D980D9A016A0D985288007800EB80001218143290B2884758490860CD
:2066900058B9564800680FF03FFB0D984FF0FF3180F82C104FF0FF309DE00D9841885048E1
:2066B0000068401805900D9805990078001D401806900D9806990078001D401807900D9842
:2066D00007990078001D401808900D9808990078001D401809900D9809F0A2FD0D9800785F
:2066F000C01C411000EB91700599801008600D980078C01C411000EB91700699801008600E
:206710000D980078C01C411000EB91700799801008600D980078C01C411000EB91700899C4
:20673000801008600D980078C01C411000EB91700999801008600D9A059801991278001DFC
:2067500006F096FC0D9A069802991278001D06F08FFC0D9A079803991278001D06F088FC96
:2067700009980090089B0699079A05980FF0C8FA8DF828000D9A089904981278091D06F060
:2067900077FC0D98099902780C98091D06F070FC0D980D9900784A8800EB80001218104807
