:2000000000400020E1F5000001C9011001C9011001C9011001C9011001C9011001C9011088
:1C00200001C9011001C9011001C9011001C9011001C9011001C901103FC9011089
:20003C0080B54FF4FC720FF278011A480BF012FC012119484174002202210270C17601BDF5
:20005C002DE9F0410FF2502214493820136854689568D6681769D2F814C0D2F818E0D2F8F9
:20007C001C800B604C608D60CE600F61C1F814C0C1F818E0C1F81C8020322031401EE5D1DC
:20009C0050689368D46812680A6048608B60CC60BDE8F081480400215903002100C00021D1
:2000BC00410500217D0500212D06002170B51D46004C204787B2000010B5014800470000FD
:2000DC00D509000070B5614C6148254650358047022809D14034E1885E4A914204D1E97C5E
:2000FC00890601D4911DE18070BD70B557495A4A084650300378002B10D08379012B0DD181
:20011C00037C5B09DB0709D0097D544DC1746C7F20202043687790476C7770BDFF21C17420
:20013C00904770BD10B54E48484C804702280ED121464031CA88474B9A4208D1CA7C5209CE
:20015C00D20704D0227D920601D49A1DCA8010BD70B53E4843494030C07C4009C00707D032
:20017C003E4D41482C8B2043288388472C8370BD884770BD10B53B48344CAC388047214609
:20019C0053310A789309DB0705D04034A2730A7803231A430A7010BD2C4940310871182876
:2001BC0012D004DC0A280BD00B2804D10AE025280CD02A280CD02D4980004018C0687047DE
:2001DC002B4870472B4870472B4870472B4870472B48704770B504461C484E252D5CAE09AB
:2001FC00F60716D0067D3007000F052803D00120054202D00DE00220FAE7E80905D07006D1
:20021C0003D54868800F012803D05B085B0052085200062B03D01020022B11D011E0FB20F7
:20023C00024002232046FFF741FF002807DAC100611A2039497E1422114200D1002070BD93
:20025C00024303432046FFF731FF70BD4401002137CB000004140000EBC80000A800002142
:20027C00F5B4000053AD00002020000080DF00001D050021F9040021CD040021930400210F
:20029C006D04002110B5034CFFF716FF20680028FAD110BD0011044068610000F825F965B0
:2002BC00F9754500450045002600260057A3520052004C00401F401F401F3F000000000053
:2002DC00304000400140034007400F404F40CF40CF41CF43CF47CF4FCF3FCF2FCF1FCF0F6C
:2002FC00000000000000000000000F00080000003F00000040003F000000040068000E0093
:20031C00DC00060043001A00050000000000020000000000000000000400C00000000400B3
:20033C00C000000007000000000000000000000000000000000000003040004001400340A6
:20035C0007400F404F40CF40CF7FCF6FCF5FCF4FCF3FCF2FCF1FCF0F00000000000000009D
:20037C0050C00091007070C00091007082312100319110B10070018101B100A1823132910D
:20039C0010B101911110418141227740F106007051C0019130181039833108D01831416FD1
:2003BC003100319110B18314141683680070251050C00091F4C340C12014036F3110410497
:2003DC005082F0229840512622C082312100319110B163393110410482C08231210031919B
:2003FC0010B163393110A2C082312100319110B150101531051405920070676452C03110A6
:20041C0031066131C1026A6412C13110213971065131E1026A64007051C0019101CCE2C0CC
:20043C006A64676411C1C2C06A6450B054B0007140804022D6440022C94060B08180111EC9
:20045C00C944007054A064B0F0800022C9404012B09032B070C1DF6811C122C16A6470C1C0
:20047C00E46851C00191E2C0823160820200329110B130C2EE68538253395339B16460C347
:20049C00F4688012B09032B00070676401C122C16A6401C1C2C06A645382B164C012B09074
:2004BC0032B00070676472C281C06A6422C111C16A6402C011C16A6462C031C36A6462C3D2
:2004DC0011C16A6402C311C16A6453825339B164E2C36F6411221C4142C281C86A6452C24E
:2004FC0011C16A6472C2E1CE6A6402C281C86A6402C201C86A64B0C030690070676442C211
:20051C0001C86A6452C211C06A6472C2E1C06A6402C001C16A6462C001C36A6422C101C127
:20053C006A6462C301C16A6402C301C16A645382B16400708180111E5C4150B054B000712B
:20055C00408040225D4154A064B0F1800122514500700022514160B04E61000000000000AA
:20057C000000000000000000067305720B720E7250B00071818060B050A09280F0EFF1928C
:20059C0002936A6741228C458080F1C11004301601110114016CB561B661B761B861B9618D
:2005BC00BA61BB61BD61BF61C161C36126632D63F0C002043231412A121432160111211412
:2005DC00016CDA61C561E061C761CB61B561B561B561F461C561FA61C761CB61B561B56104
:2005FC00B561F461C561FA61C761CB61B561B561B561E761C561ED61C761CB61B561B56121
:20061C00B561CF61CF61CF61CF61CF61CF61C064CF61F964CF610665CF613265CF6174676A
:20063C00CF611166CF61C0644E65F964CF61066511663265CF618280E0DFF2926A67B0B044
:20065C00D661B1B00673057230B06C61D0CF6A6784C203C0C0C37C64207851788278E378B7
:20067C001579B6780062C0CF6A6784C203C0C0C37C64307861789278F3781579C678006250
:20069C00B0CF6A6784C203C0C0C37C6440787178A27803791579D678109221923292439281
:2006BC005492659256911FC0FF914039F00601101031101400927067CF61E3B054A0F08076
:2006DC0050221A4640800022BE461262E3A000C86091598150B0918041228E46A0CF6A6734
:2006FC0012828231823942398B641282F2062F101F312F141682D622334640C1346200C5AF
:20071C0020140D6F6D39DE10F4C34E0482C082312E006D39A2C082312D001A828A39FA0606
:20073C002082803180390BC00B18BC10AC18038239149B141082F0060110103110145181C2
:20075C0010140C14C622C94631D0C1266462021011C0013010C00118021882312100C126C2
:20077C00919103B013B063B053B041800122BE46B481C491D581B51C774E95186591F0803E
:20079C00102269428C623D9110B13E9110B1E08000228146E6228142E0B0951865910F926B
:2007BC005981F914F0805022114210228C464D6390CF6A6763B052A03082F2C0200402107E
:2007DC0011C0013010C00118021882312100C1269191919113B003B063B053B064B054B055
:2007FC00007141800122BE4663B064B0F08050221142B181C191D1819118619131B0A462D0
:20081C002967E0A059810582591480C0007163B0BA6A6962E3A0018262818231823D80EF61
:20083C00F19202936A6703A0007037824739873930828039F006021011C0013010C0011849
:20085C00021882312100C126819102B012B030824039F006021011C0013010C001180218E9
:20087C0082312100C126919103B013B063B053B0007153A062B052B041800122BE46A4816E
:20089C00C491D581B51CFE4E95186591F0801022F0428C62B481C491D4814518751C084FEB
:2008BC00F0801022F0428C623D9110B13E9110B1E08000221247E6221243E0B065910F92DC
:2008DC005981F914F0805022114210228C4630632967E0A0598105825914F0C0007162B038
:2008FC00226BF062A2808B64CF6112824239F2068B6050B00071CF6170CF6A674082418096
:20091C000122BE46A481C491D58195186591F18011228C46336B41800122BE46A481C491AB
:20093C00D581C51C1C4B95186591F08010223F438C6260CF6A67408241800122BE46B48169
:20095C00C491D58195186591F18011228C46506B41800122BE46B481C491D581C51CB44A55
:20097C0095186591F08010225C438C62E092D08200226B47C0B20070A080F022874330B033
:20099C0002C1623101C0A080001E8043F022814380F86031603981632010101A136F236E5A
:2009BC0011161216826B00702DE9F84FDFF81885DFF8181588F80000002008600921DFF891
:2009DC00100501700D2141804FF408718180DFF80405DFF8041501608A7EDFF80005027042
:2009FC00FF2ACB7E437008BFFF2B0D7F85704E7FC6708F7F0771C97F417115D1FF2D08BFE8
:200A1C00FF2E11D1FF2F08BFFF290DD1DFF8D0140A7802704A7842708A788270CA78C27025
:200A3C000A79027149794171DFF8B81402780A70FF2542784A7082788A70C278CA7002791E
:200A5C000A714079DFF8A02448710021DFF89C04057045708570C570057145711180DFF872
:200A7C009004DFF89014466BDFF88C247078087031781170B078DFF884140870716908791F
:200A9C00DFF87C14421E0A70F078DFF878140870B069DFF87414086008B911F031F8F06992
:200ABC00DFF86844206008B911F02AF82068DFF8607401688847216851F8042F384690476E
:200ADC00DFF85004DFF850143862DFF850047862306A086008B911F013F8706ADFF8401421
:200AFC00086008B911F00CF8DFF838B4DFF838649BF8040011F0D2FA306008B900F045B9D3
:200B1C009BF80500DFF8247411F0C8FA386008B9306837E19BF80600DFF8144411F0BEFA65
:200B3C00206020B9306811F0C1FA38682AE19BF80700DFF8009411F0B1FAC9F8000038B9DE
:200B5C00306811F0B3FA386811F0B0FA206819E1DFF8A4130A789BF80000DFF8DCA3921CBF
:200B7C00504380B211F09AFACAF8080058B9306811F09CFA386811F099FA206811F096FAA8
:200B9C00D9F80000FEE0DC480078002800F00281BBF80210DFF8A4B3484380B211F07EFA2A
:200BBC00CBF8040078B9306811F080FA386811F07DFA206811F07AFAD9F8000011F076FAB7
:200BDC00DAF80800DEE0CC48007811F067FADC49086080B9306811F069FA386811F066FAB0
:200BFC00D9F8000011F062FADAF8080011F05EFADBF80400C6E0C04800781C21484311F0B2
:200C1C004DFAD04A1060B0B9306811F04FFA386811F04CFA206811F049FAD9F8000011F017
:200C3C0045FADAF8080011F041FADBF8040011F03DFAC348A5E0B0480078400111F02EFACA
:200C5C00C1490860D8B9306811F030FA386811F02DFA206811F02AFAD9F8000011F026FA4B
:200C7C00DAF8080011F022FADBF8040011F01EFAB348006811F01AFAB249086882E09E4846
:200C9C000078000111F00AFAB0490860F0B9306811F00CFA386811F009FA206811F006FAE4
:200CBC00D9F8000011F002FADAF8080011F0FEF9DBF8040011F0FAF9A148006811F0F6F96C
:200CDC00A049086811F0F2F99F485AE08A480078000111F0E3F99E49086018BB306811F0AF
:200CFC00E5F9386811F0E2F9206811F0DFF9D9F8000011F0DBF9DAF8080011F0D7F9DBF8F9
:200D1C00040011F0D3F98E48006811F0CFF98D49086811F0CBF98C48006811F0C7F98B4903
:200D3C0008682FE0744800783021484311F0B6F9884A106070BB306811F0B8F9386811F000
:200D5C00B5F9206811F0B2F9D9F8000011F0AEF9DAF8080011F0AAF9DBF8040011F0A6F927
:200D7C007748006811F0A2F97649086811F09EF97548006811F09AF97449086811F096F957
:200D9C007348006811F092F9002010F0B9FE4FF4804192E03168012008713068057331685F
:200DBC004D73306885733168CD7330680574002031684D743268D072A0223168487103214F
:200DDC003068C28001720720316848720020326890722821306841820121C17600203168BE
:200DFC004877326882F85E00012031680877326882F85D00396808713868057339684D7369
:200E1C00386885733968CD7338680574002039684D743A68D072396848713A6890724FF47D
:200E3C00207039680022C88008818A7401213A68D17421680D732268557321688D732268FD
:200E5C00D57321680D740021226855742368D9720121226811710021236859712168C88065
:200E7C000881002088722168887405202268D0743948016888472A490A6805461068804713
:200E9C0027490A6852F8043F0020984718481D4BC16818780A88314902430A802846304985
:200EBC000A6890470C212F4800F05EF80F4800F05FF800F061F84FF4005198F80000BDE833
:200EDC00F44F09F055BD00BF6E4F0020044F0020604E0020084F0020B63F00502C4E002075
:200EFC00E81200503C4E00200C4F0020344E0020303A01006D4F00207B4F00206B4F0020BA
:200F1C00724F00206C4F0020F04E0020F44E00207C4B0020B9200100F84E0020C920010028
:200F3C00FC4E002064260020104F0020E42E0020184F0020E82E0020B82E0020684E002037
:200F5C00004F0020DC2E0020E02E0020884E00208C4E0020904E002088200020544F002035
:200F7C008C200020F84D0020DFF800F0E5710110DFF800F01D6E0110DFF800F04D710110FD
:200F9C00B0B5174C241D20680004070C23D01248006800688047114991F90720824205DDF8
:200FBC0010F1800FB8BF6FF07F00C8718D88BD4210D80A68D4F8D40F801A801C1F2888BF16
:200FDC001F207F1B4008C7404FF6FF70EF19B84238BF071C8F80B0BDEC010010CC2E00206A
:040FFC003010094068
:20100000B41200001810000015AB0110FDB301106DC00110FDAE011099B5011000000000F7
:08102000000000002D0000009B
:20102800B01200003C100000B1C00110A9BF011067C0011069B80110000000000000000035
:041048003000000074
:20104C00B012000060100000BDC00110CDB30110D9BD01106DB3011000000000000000005B
:04106C00310000004F
:20107000000000008426002004000000000000000000000020000000E8C901103000000080
:20109000281000008C2600200400000000000000000000000C000000D8CA0110180000005B
:2010B0004C1000009426002004000000000000000000000024000000F0CA011018000000DF
:2010D000000000009C2600200400000000000000000000001000000018CA01102C000000EB
:2010F00000100000AC260020040000000000000000000000200000006CCA0110240000004F
:20111000FFFFFFFFB42600200400000000000000000000002800000090CA0110240000000E
:20113000FFFFFFFFBC2600200400000000000000000000001400000008CB0110180000008D
:20115000FFFFFFFFC426002004000000000000000000000058000000B4C90110340000005B
:20117000FFFFFFFFCC2600200400000000000000000000001000000020CB01101800000029
:20119000FFFFFFFFD42600200400000000000000000000001C000000B4CA01102400000056
:2011B000FFFFFFFFDC2600200400000000000000000000003800000044CA0110280000007E
:2011D000FFFFFFFFE42600200400000000000000000000005400000078C901103C000000F3
:0811F00001000000003A0100BB
:0411F80001000000F2
:0411FC0000000E00E1
:0412000000000F00DB
:0412040032000000B4
:0412080001000000E1
:04120C007825002021
:0412100000020000D8
:0412140000000000D6
:0412180001C90110F7
:04121C0000000000CE
:0412200000000000CA
:0412240008000000BE
:0412280000002200A0
:04122C000424002076
:0412300000000000BA
:0412340000000000B6
:0412380008000000AA
:04123C001C2500204D
:0412400000000000AA
:0412440000000000A6
:04124800080000009A
:04124C00000000009E
:04125000000000009A
:041254000000000096
:041258000000000092
:04125C00010000008D
:041260006C240020DA
:041264000600000080
:041268000100000081
:04126C00302300200B
:04127000000000007A
:041274000000000076
:041278000002000070
:04127C00000000006E
:02128000290043
:02128200010069
:02128400250043
:02128600300036
:02128800310033
:02128A002D0035
:02128C0001005F
:01128E00015E
:08129000030000007C3901009D
:0812980000000000000000004E
:0412A0000000010049
:0412A4000000030043
:0412A80013C401105A
:0412AC009F1E010080
:0412B000B812000070
:0412B400B81200006C
:0412B8000000000032
:0412BC0014260020D4
:0412C000A51F010065
:0412C4002000000006
:0412C80008390100E0
:0412CC0000380100E5
:0412D00029C101101F
:0412D4008F05010081
:0412D800DB10010026
:0412DC00A1C7011095
:0412E000A3C701108F
:0412E4000000000006
:0412E8002E3A010099
:0412EC008436010043
:0412F0009C36010027
:0412F4006C36010053
:0212F8000200F2
:0212FA000900E9
:0212FC000100EF
:0212FE000000EE
:0113000001EB
:04130400451F010080
:0413080021050100BA
:04130C00291501009E
:04131000350801009B
:041314009B08010031
:0413180045F4000098
:04131C00F1CF00000D
:041320007321010034
:04132400D9E3000009
:0413280015C70110D4
:04132C0025C70110C0
:201330002DE9F04F0C4685B0834614F8010BDFF870278DF8000018280BF1FD010BF1E708C8
:201350000BF166090BF20D1A0BF5B0760BF59C750BF5C67700F29183DFE810F019006F0025
:201370005F0191008F038F03FA00690311012301FE000D0133018F038F037C018F036101D7
:2013900055017503D602D60227028F03740214F8010B8BF88600022221460BF1880011F05D
:2013B00005FB014602220BF18A0011F0FFFA014602220BF18C0011F0F9FA014602220BF1E4
:2013D0008E0011F0F3FA04469BF8860040008BF886000BF1860102224888400048800BF15A
:2013F00086008188490081800BF1860108890001088121460BF1840011F0D8FAB9F81E10CD
:20141000BBF80800091A89B247F6FF7291422ADA0BF18601C8888A88401C520050430A8965
:20143000904203D33B208AF80B0039E2012089F81C000020ABF81E001EE0052221460BF1CA
:20145000610011F0B3FA014602220BF1920011F0ADFA0BF1860047F6FF728189BBF80800D7
:20147000091A89B2914280F218820BF18600012181720021ABF81E10012028700CE398F85E
:201490001600C1070AD41A2198F80D0088F80E10012808BF0D213FD00D21CDE1002089F860
:2014B000000089F806000822012088F8110021460BF1B00011F07AFA014602220BF1B80012
:2014D00011F074FA0BF1A80601460822304611F06DFA04460821304611F064FA0BF19C06AE
:2014F00004222146304611F061FA0421304611F059FA0BF1A00011F051FA0BF1980011F011
:2015100049FADFF8A005018841F08001018098F80D00012806D10421584605B0BDE8F04F47
:201530000EF0A6BE99F81000012804BF99F811100F290BD158460DF027F8042158460CF06D
:2015500089F90F2089F81A00FD2175E1042173E1012088F80F009FE2002089F8000089F8EF
:20157000060088F800000B21012088F80D00002088F8010060E1012088F810008CE20020DA
:2015900002F10906235C365C33432354561C365C33400B54401C0828F2DB58460CF0F4FB83
:2015B00070E2002002F10905235C2D5C2B432354551C2D5C2B400B54401C0828F2DB02207C
:2015D00048E299F8060008B93D2167E19AF800000128D3D014F8011B8AF80310022221462D
:2015F0000BF5897011F0E2F9014602220BF58A7011F0DCF901208AF800009AF8020000286C
:201610001BD10C2118E198F81600C10601D41221D1E058460DF0F8FB34E221783EE120788E
:2016300030706078707099F8100001280CD199F811100F2902D0162902D02DE268732BE2D7
:20165000387B40F0010016E205B0BDE8F04F002010F05CBA98F81600810707D410F0110FA6
:2016700008BF0F2000F009821A2252E02078617800EB01202882E178A07800EB01206882ED
:201690006179207900EB0120A882E179A07900EB0120E882207A2876A17A607A00EB01206F
:2016B0006883217BE07A00EB0120A883A17B607B00EB0120E883217CE07B00EB01202884E4
:2016D000A17C607C00EB01206884217DE07C00EB0120A884A17D607D00EB0120E8840BF564
:2016F000AA700490688B0390287E0290BBF808000190E88A0090AB8A6A8A298A58460BF0AB
:20171000FBFB68B198F81600410701D40F2152E01E22584605B0BDE8F04F0F210EF0C4BD5F
:20173000688A0BF186018880A88AC880E88A088102208BF8860000204880BBF83400C01DD0
:20175000A9F81E008888BBF83210884201BF0BF18600C188BBF83400814206D10BF186005D
:201770000189BBF8360081421DD099F81000012804BF99F811100F2907D099F8150020B171
:201790000F2189F81A10FE2156E0FC2158460CF061F8E88A0090AB8A6A8A298A9BF8060082
:2017B00011F0F4F878E1102146E098F8170010F0090F03D116218AF80C1060E16078217862
:2017D00000F00700014021702078797B0140F97211D0481E01420CD0490704D5B87B10B175
:2017F0000421F97205E0F97A022001421AD14008FBD1F87A08B9B97AF972F87A042803D14A
:2018100058460DF050FBB083F87A11F0BBF83871B28BB97B01230DF01FFF0146308B884254
:2018300002D207E0F872E4E7B28BB97B387901230DF012FF78801721584605B0BDE8F04FED
:201850000CF008B860782178814207D100F007000840207033D0421E10420FD01E221821D4
:2018700058460EF021FD9BF80610002300221E2009F068FE387B40F04000FCE0F87247F66D
:20189000FF72A078E17800EB012038813989BBF80800091A89B2914206DB28218AF80B101C
:2018B00001208AF80A00F7E00120B871F87A042803D158460DF0F7FAB083F87A0BE099F82B
:2018D0001100162806D1BA7A9BF806101346002009F038FEB87A3871B28BB97B387901232C
:2018F0000DF0BAFE0146308B884205D3B28BB97B387901230DF0B0FE78800121387B40F091
:20191000400038732970C7E02078617800EB01207082E178A07800EB0120F08261792079BB
:2019300000EB01203082E179A07900EB0120B082B18AF089884288BF0846B97A042905D1DF
:2019500040F691229042B8BF4FF42960F28BF0839042B87A14BF01240024042803D15846CB
:201970000DF0A1FA04E0B089F18A884288BF0846B28BB083904214BF012100210C43308968
:20199000718A328B884288BF0846904214BF012100210C433083B28BB97B387901230DF0F3
:2019B0005BFE0146308B884205D3B28BB97B387901230DF051FE78807189308A728B81421C
:2019D00088BF0146718391429BF8063014BF0120002004438A4234490A6802EB4311728B85
:2019F0008041121DC00F0A7610B158460EF07EFE9DF80000142810D144B1F08B0090738B0F
:201A1000B28B318B9BF8060010F0B8FF584605B0BDE8F04F15210AF0DBBD1CB1387840F0C1
:201A300008003870397841F02001397034E020780E280ED00F2809D0122804D014280CD044
:201A5000162812D028E00020287225E00120287322E0032088F815001EE0387840F0020039
:201A7000387040F01000387016E0387B40F00200387340F0100038730EE08AF80C0058463B
:201A90000CF08AFE40B905B0BDE8F04F074800784FF4804108F072BF05B0BDE8F08F00BF94
:201AB000842E0020524F0020E02E00206E4F00202DE9F04FD04C04F118012046ADF1440DA4
:201AD0000DF08AF8D54D00264FF6FF700123667032462082294604F1A4000DF01BFC022326
:201AF000324604F1C80029460DF014FC0423324604F1EC0029460DF00DFC4FF0040A04F1EE
:201B1000440810224046314684F802A00BF01DF804F154091022484631460BF016F804F185
:201B30001C073E6004F10A052E70E671267207206072CDF80080DFF81883022210200346F6
:201B5000414606F0FBFA102003224146CDF80090034606F0F3FA1020524641460097134667
:201B700006F0ECFA4FF0080B4FF0030905F12A000C9005F179000D9005F11E000E9005F16C
:201B90005A000F902435109517E06078A28FE18FB4F84050B4F8423006280ED1ADF81A2088
:201BB000ADF81C10ADF81E50C048ADF8203010F0E6FB012006A90AF083FCA069BA4A314686
:201BD0004FF0FF3310F0D6FE071CF6D002960DF122000DF12E0102AA0EF03EFE002840F0A4
:201BF000CB81BDF822102078102940F0C1819DF82E10884240F0BC81029D29884FF6FF724F
:201C10008A4200F0AA812B78A23B00F08D812E3B40F0AE81A978B046002900F04981891EE6
:201C300000F01881491E012940F2E880891E00F0A880491E7BD0491E5CD0083900F06481C6
:201C5000891E40F0678194F83A30A888052BADF80C0047D001208DF81600944810F08FFB75
:201C700094F83A0001281ED004281CD003280DD002280BD00298C188ADF80E100189ADF87D
:201C900010104189ADF81210818927E0A08FE58FADF80E00B4F84030ADF81050B4F84210FD
:201CB000ADF812301AE0A08FE9888842D8BF081CADF80E002989E08F8842D8BF081CADF810
:201CD00010006989B4F840008842D8BF081CADF81200A989B4F84200884200DC0846ADF811
:201CF000140001E08DF81660AF49102003AA06F025FA0FE1AD4810F042FB6B78002B40F09A
:201D10000981E88860822889A0826889E082674810F09AF9002840F0FD80656A002D00F0AE
:201D3000F9802B68608AA18AE28A9847F2E0AA88B549102006F002FA0C98414606220AF0B6
:201D500004FF6682A682E682A8792073574810F016FB964810F013FB4FF001084FF6FF70AC
:201D70002379208253B9A879082812BF84F801A005206070404610F08FF9CBE084F801900F
:201D9000C8E06B787BBB291D0C980A680260898881800623637068892082E8896082288A0E
:201DB000A082688AE082E878E07294F83A00012818BF02280BD19A4910201F2206F0BEF91E
:201DD0004FF47A7180B2414338480EF0A9F9688900909249CDF804A0EA7810202D1D2B46DD
:201DF00006F0ACF999E06878312840F08A80E67084F801A091E0C046B01100206B78002B73
:201E10007FD1A878E3896178032815D0E078257933B9012814BF2671E67008E0A920010070
:201E3000054304D07F4819460EF07AF961780729DED10620607070E0062907D0E578002D51
:201E500008BF84F8019068D00220F3E70720F1E7CF1801006B78002B53D1EB78617893B9C9
:201E700002291DD007291BD0062902D12079012816D1032914D06B4810F0E6F880B9012079
:201E900010F00AF90CE00EF081FF0246A079624900900D9843460190102006F04FF9687024
:201EB0006D78002D2DD135E007000080781200206B7833BB5C48574900900222102003467A
:201ED00006F03CF959484A46524900901020034606F034F9ED1C0E9829680160A9880123D9
:201EF0008180207863700EF051FF024601230F9D6079494900901020019506F01FF9C0B2BF
:201F100058B184F801B008E0AA8841491020052306F014F9B8F1010F2AD1256A45B32D68AC
:201F300035B36078A84723E06879132820D12889012808D1607B022805D11C4810F01FFAC7
:201F50000EF0D4FC14E036491020052206F0F6F881B216480EF0E4F80AE06888C00B07D30B
:201F7000334852462B4900901346102006F0E6F8029808B110F0C4F92579E078790830D353
:201F900055EA00032DD0204600788DB9E179257A8DF82410109A8DF8255013680DF12605D4
:201FB0002B609288AA8005E0051601109C1200208DF82490617A8DF82C10A17A8DF82D10B1
:201FD0000EF0E4FE1149024609AB102006F0B6F838B1256A84F801B01DB12D680DB1584683
:201FF000A847B80803D3134930460AF069FAF808FFF4E3AD607B401E3FF4C7AD401E7FF4E9
:20201000DCAD0EF073FCD8E501E8000059440110C11701105D98000009450110659600002E
:20203000F584011054120020F411002004120020CC110020EA1100202DE9F84F01200EF091
:20205000A3FB01280ED1DFF8F87439680020487138680DF023FB04F093FC040003D1812056
:2020700010F084FC68E201206071DFF8D854DFF8D8044178491C41703968A07981F8A0003C
:2020900040200AF029FC2060287901281CBF00200FF03CFDE8682168DFF8B05400F5B0607B
:2020B000C860286801680A79032A1CBF00200FF02DFD2868DFF898840168DFF898B401F11A
:2020D0000809062299F80000C0F3801084F82E0109F1020104F594700FF016FE042209F10B
:2020F0000E0104F124000FF00FFED8F80000A67900F10C03042209F10E0103EB46100FF03B
:2021100003FED8F80000A37900EB4310032209F1120110300FF0F8FD04F12C0699F8150051
:20213000B070022209F1160104F130000FF0ECFD022209F1180104F132000FF0E5FD0222CA
:2021500009F11A0104F134000FF0DEFD30896084022209F11C0104F136000FF0D5FDB0785B
:20217000F18872894000B0704900B08840001201B080F180728189B2638C5B1C48004343A4
:2021900092B2934200D231B99BF80000802108F0F5FB3B21FEE004F12E0120460FF084FAFD
:2021B0000520A08120460FF05DFC052209F11E0104F161000FF0A8FD99F823004009307034
:2021D00010F0D0FB60823A68E34F518A401A04F59771888104F1610199F82300DFF87C933E
:2021F00000F01F00F07320460DF064FB29680A68002010711C25A1793868694341F62102F6
:2022100042520022A17969430144001D4A80A1796943425099F80200410609D5D04908884D
:2022300041F20A4290420CBFCE48CF48C4F89C012046D4F89C1188473968A37901F10E027F
:202250006B43D054A1793868694308440021C173C648017881B1B08870B900217173012055
:20227000208160812046D4F89C1188473968A37901F10E026B43D0543868A27900F10E01D2
:202290006A43885C707394F8960108B90FF03EFCA1793868DFF8D8A26943084494F8961167
:2022B0004A1E02740023A17938686943084400214174A279396801F112006A4301F1140C06
:2022D0008352A279D8F8000000EB42136A434CF80230A2796A431144A64A8A61DAF81410DD
:2022F0000B78DA074CBF4FF0100C4FF0000C99074CBF202100215A074CBF402200221B079A
:2023100000F10803A07941EA0C014CBF4FF0800E4FF0000E0A4340014EEA020242F00F022E
:202330001A54D8F80000A17900EB41100B224272D8F80010A07901EB401104228A728E4AE8
:202350001378D8F80000A179012B00EB411002D10121C17203E0DAF828104A78C272D8F8B5
:202370000000A17900EB41101F220276D8F80010A07901EB401100224A76A07908F092FE85
:20239000A279D8F8001052018850A2795301C85820B9072120460FF004F9CDE07748016840
:2023B00001EB021010F0DAFA744AA0791368D8F8001003EB00130A1D40011350081DA279FD
:2023D00052018058F063A07940010958716404219BF8000008F0D2FA644BB2881978901C3D
:2023F00011B10AB9F088801C618A94F806B041434FF4C87205FB0BFBB1FBF2F1491CA0610B
:20241000616140F6C41C23683A68CDF800B002F1080ED3F80CB00CFB00B0411A0098A1F562
:20243000A8614EF8001002F10800A17969434058986002F10C01A07968430C32095C01F084
:20245000EF011154A0793968684301F10C020C31125C02F07F020A54A0793968684301F1DF
:202470000C020C31125C02F0F00242F002020A54A179386869430844417B01F0F00141F09A
:20249000010141733868A27900F108016A438858216808616369D8F80000A17996F802E01C
:2024B0005B0000F1140249010CFB0E3303F5F6635350A17900EB4110C27C02F0F00242F07A
:2024D0000402C274D8F80010A079DAF8303001EB4012F0880CFB00F61868301AA0F51670ED
:2024F000D061A27901EB4210C17E01F0F00141F00401C176A17938684D43216840194860E0
:2025100099F80100810614D504F59771488F1B2804BF888F1B2808D1C88FB0F5A47F04BFB6
:20253000B4F86E11B1F5A47F03D0142120460BF091F9134907200870BDE8F14F01F074BDA2
:20255000104F0020B44D0020684E0020F44B0020E02E00206E4F0020DC2E0020842E00208F
:20257000504F00208FE40000F5EA0000784E0020303A01005C4D0020734F00208C4E002044
:202590006F4F00202DE9F843040014D100200FF0BDFA10E020460CF0FFF8012808D065E0AE
:2025B0008A0740F1548101F0FD0101700020B07120460BF0E9FF04F16605687D002855D0F8
:2025D000697CDFF8A494022904F1EC0704F59E7804F5B07604F5C67035D0042949D005290E
:2025F0005CD0062900F08A800729D3D0092900F0EC800B2900F0C1800C2900F008810D29CC
:2026100000F0D0800E2900F0EA800F2900F02881102900F04281112900F05C81122900F0EA
:202630000E81142900F08781162900F05A81172900F07581FC2919D0FD2900F09581FE2935
:2026500000F09B81A2E7297C012909D199F80300002815D0162120460EF0A3FF012006E047
:2026700020460BF012FD2874E88A28830020BDE8F283297C012940F0948199F80200002818
:2026900000F0E580FC2120460DF0F2FDA07904F1B80204F1B00110F05DF98CE7297C012960
:2026B0000FD199F8020020B184F89410002038607860B87A012868D1062120460DF0D8FD23
:2026D00079E704F1E7063078012809D120460DF0D1FC0128CAD10020B87201202874C5E756
:2026F00070780028C2D004F1C70204F1A00104F1D70010F02BF9012030705CE7297C012911
:2027100040F0538199F8020000283ED0618CE18320460BF039FF0120287020460DF088F856
:202730000120A871397A787C012900F010000FD148B1002088F80500D8F8001098F806008A
:2027500049080BF08BF9A079002110F0FBF80EE040B1D8F80020C54804F5A17352082146C2
:202770000FF07EFDA0790122002110F0E7F8002038723873F872B8721DE7287C012805D1E3
:20279000F97A012908BFFC2197D060E020460BF095F80128A3D10020F87284F894000120BB
:2027B000287408E7297C012940F0038199F80200002809D0002184F8941001202870204607
:2027D0000DF036F80120A87188E0297C012940F0F48099F80200D0B3618CE183E8E6287CD0
:2027F000012840F0EE80387C022804F1FD0204D1A179002010F09EF8DAE6032840F0EA8006
:20281000A1791A2010F096F800203874D0E6287C012804F20D1140F0E8800B78012B04F523
:20283000897240F0E8804878012807D15388009300201388CA78A17910F078F8B8E6297CFC
:20285000012940F0E78099F802000028F6D1298B481E288380B200287FF408AF2221FAE6B9
:20287000287C012840F0DA8098F80910012902D130780F281BE098F80800012826D1002198
:2028900088F80810288D000900901A20AA8CEB8CA179520810F046F88AE6287C012840F03C
:2028B000C18098F80910012910D1307810281CBF00200FF02BF9002088F80900288D0009AE
:2028D0000090AA8CEB8CA1797078E2E7287F0028E2D1BCE7297C012940F0A88099F8030000
:2028F000F5E7297C012940F0A580017B4A061DD4CA0709D501F0FE0101730023A1797078D3
:20291000002208F01FFE53E68A0740F1988001F0FD0101730023A17900221A20F1E7297CE4
:20293000012940F09980027B510690D5017B01F0BF0101733CE6297C012940F08F80017891
:202950008A067FF52DAE01F0DF010A0701700AD501F0F7010170F08B0090738BB28B318BFA
:20297000A07910F00BF821E6A97E20460DF080FC15E700200FF0CAF878E6A87E0F28F8D1BD
:20299000FC2120460DF074FCB8F812000090B8F81030B8F80E20B8F80C10A0790FF0F6FF3E
:2029B00064E6204609F0B6F95DE620460BF09EFF59E620460DF0A0F855E620460BF0E4F9BB
:2029D00051E620460AF0A0FD2874E88A2883012038744BE6288B401E288380B20028F8D11D
:2029F000A17922200FF0A6FF38E70120887020460AF048FA37E6288B401E288380B20028BA
:202A1000E7D15088009022201388CA78A1790FF08DFF23E720460CF0CFF924E6204608F026
:202A3000E1FD20E6204608F02DFE1CE620460BF0CDFA18E61621204608F03AFC13E6288B7A
:202A5000401E288380B20028C3D1A17900230022222008F077FD01E71721ECE714212046D4
:202A700009F0B6FDFFE500BF5C4D002021CE00002DE9F84FDFF82844A178FF2904BF00207B
:202A90000FF044F8A0780FF023FA044604F1680604F5C9753168086804F1900710B100225B
:202AB000E28310E0B17B002904BFB07E00280AD13978002904BF2878002804D1217F012964
:202AD00004BF608CE0832189E08B4118491C618120460EF009FE01281EBFDFF8C803017893
:202AF000012904D120890022401CE2836081B07E01280CD1B28B618920890FF00FFF30B168
:202B100021896289481C82422AD0B28B1FE0387801280CD17A88618920890FF0FFFE30B18A
:202B300021896289481C82421AD07A880FE02878012815D16A88618920890FF0EFFE0028A5
:202B50001FBF2189481C6289824209D06A88824206D0501E608180B20FF0DCFE401EE0834A
:202B70002878012801BF69882089401C814207D16A792A71002028701346A17908F0E2FCAC
:202B900004F59A71087920B120890021401CE183608104F12E07B07E012801BFB08B21893E
:202BB000491C884238D1608104F1860120460EF07BFDB08C6189608400202077E083E08907
:202BD0004118A181B08B21890FF0A4FE8046B988308C728C01FB0808F08C8A4204BF39894A
:202BF000884202BFB18CFB88994207D000090090B38CA179520800200FF094FEB07F3870F4
:202C1000708CB880B08CF880F08C388120460EF029FF0220B07601E0B7F80480E28BDFF85B
:202C30008892501C00FB08F140F6C41808FB01F000902368D3F80CC06044DFF870C2D8606D
:202C5000DCF800E09A489EF800A003884FEA9A1ABAF1030F13D199F80FC05FEACC7E48BF85
:202C700000230CD45B1C9BB2012B11BFB4F812C004F59A7CBCF806C00CF2DC5C01E0B4F8B7
:202C900012C00CFB01FC4FF4C87EBCFBFEFCDFF824A20CF1010CC4F814C0038084F820209E
:202CB0004FF01C0BA379A1610BFB03F3DAF80010226801F1080001F1080CC058D368106154
:202CD000A0790BFB00FE60691B1A4CF80E3001F10800A3790BFB03F3C058906001F10C022D
:202CF000A0790BFB00F00C31125C02F0F00242F002020A54DAF80000A279811C0BFB02F20E
:202D100000208852287908B90EF000FFDAF80000A27900F1100128790BFB02F2400888549C
:202D3000A079DAF800100BFB00F00844002141742879042814D1A079DAF800100BFB00F0CD
:202D500001F110022B7A125C103142EA83020A54A179DAF800000BFB01F1084420214174D6
:202D7000DAF80000A27900F112010BFB02F200238B525149A2790968520101F11403D4F80A
:202D900014C09B5801F1140E03EB4C034EF80230B27E022A0AD1A279520101F114033E782F
:202DB0009B5808FB063301F11406B35099F80F20D30749D5A2790BFB02F200F1080300F10B
:202DD00008069B58A3F5A863B3500830A27923680BFB02F282589A600098121A1A6101F15F
:202DF0001402A079400101F11403125802F5F6621A502879042807D1A079400101F1140220
:202E1000125802F5B0621A5001F11400A27952018058C4F8340101F11C03284AB888166B44
:202E3000A57908FB00F730686D01381AA0F516705851A37901EB431021490D78012D0EBF09
:202E50000122916A4A7819E02879A37904280CBF4FF44B604FF4E66001F114025B01D258D0
:202E7000101ABA8808FB02F2A2F516729042D2D3082120460EF095FB01200FE0C272A179CE
:202E9000DAF800000F4A0BFB01F10844216848600720107020460CF0CFFE0020BDE8F28F66
:202EB000684E0020784F00205C4D0020084F0020002F0020DC2E0020E02E0020303A0100F3
:202ED000734F00206F4F00202DE9F04FB94C04F10C012046ADF11C0D0BF07EFE04F1240009
:202EF0000FF031F943F698220123B349206104F148000CF00FFA00250DF1170040F20D4208
:202F100001238DF81750AD490090102005F016F9AB4910204FF0FF3205F010F9A949102023
:202F30004FF0FF3205F00AF91020BF4E0090C04ABE48132331460190102005F0FFF8BD48DD
:202F5000007880000FF009FA0146BB48416169B14FF6FF700DF014FBB74AB8491020062346
:202F7000009018320191314605F0E8F8B448B2498860B4494FF47A722B4604F190000CF08C
:202F9000C9F94FF00108AB46E068AF4A29464FF0FF330FF0EFFC5FEA000AF5D058460490D1
:202FB0000DF1160104AA05A80DF056FCA8B9BDF8140010280DD120789DF81610884208D10C
:202FD00004990878B02804D101F1080009790FF09DFC049808B10FF093F95FEADA70C0F0E0
:202FF00015810DE120690EF0E4FD071C00F008813888401E00F08680401E72D0801E5AD0BD
:20301000001F40F0FA807868BE780078002E40D0012E31D0022E3ED100283CD184F8028069
:203030000CF092FAB3484FF47A710DF079F8A9496089896881460EF0BEFF40082BD348463F
:203050001B2142462B460FF05DFC039018B3AA490988ADF80A804A46ADF8081002AB057053
:203070005846A0490090102005F068F898B102A81B210FF04BFC0EE0E570207158B984F8CE
:2030900002800CF061FA9B484FF47A710DF048F801E084F80380A06941686671052088479C
:2030B000607A217A884218D0A678B6B1E06804210FF024FC11E07868A669C28836B1B66899
:2030D00026B11146437A027AB04706E05846844900902B46102005F031F878680DF084FA87
:2030F0008BE0B9786078012906D0022940F085807F480FF044F980E006287ED17C480FF049
:203110003CF97AE07848BE780088062E5CD0607806286DD1E36923B11B6813B177480FF0C9
:203130002EF9A570714880F80080E570FF2060710CF0CCF872482946182209F006FD0EF030
:2031500063FA48B3E0690079800825D36349102006224FF4C86304F0F1FF6049102007226D
:203170004FF4C86304F0EAFF5C49102042462B4604F0E4FF8DF819B040F20D3041460DF10D
:20319000190201F085FB8DF8198040F2053041460DF1190201F07CFBA06941680520884760
:2031B000207984F80780042822D10BF0EDFC25711EE0C0460C0D0020D91F0100B54D000092
:2031D000511401001917010060818DF818B0A570414606AA40F2053001F05AFB0EF010FD16
:2031F000607A217A884203D0E06804210FF086FBA069416866700420884738460DF0F4F9DD
:2032100020690FF077FB00283FF4ECAE60785FEA9A011ED306281CD1E078B8B92E48057033
:203230000DF064FB14E0C046410D0100583901000C1B0020694F00204C2200204C39010014
:20325000B722010055130100070000C00EF0D8FC60785FEA5A010ED306280CD10CF07CFFA3
:2032700029494978814203DD2749487008F0D4FF1F480FF082F85FEADA00FFF485AEA07834
:2032900000283FF481AE1448007800283FF47CAE607A217A884215D01A4F1620491C0246CB
:2032B00091FBF0F03E465043091A2172C80000EB0110C3199A785978305CDB1C09F0AAFF1D
:2032D000607A217A88423FF45FAEE06804210FF015FB59E6C422002019270020BD840110EC
:2032F000CD08010045000110C01100203D1C0020540D00209C0D00202A230020780D0020CC
:203310003C0D0020A00F00204C2200202DE9F047BE4C04F108012046ADF1300D0BF05CFCEE
:20333000BB4910200C2204F009FF04F118000EF00AFF1F220A23B749E060102004F0FEFE3D
:20335000002501208DF829008146ADF8165008208DF82A900DF12902ADF818004946ADF816
:203370001A003220ADF81C004FF4FA70ADF81E0040F2053001F08CFA40F2063002210DF139
:20339000160201F085FA40F207300D2104F1300201F07EFA4FF44270122104F13D0201F021
:2033B00077FA4FF4447049460DF12A0201F070FA40F21130022106AA01F06AFA40F2123072
:2033D00002210DF11A0201F063FA40F21330022107AA01F05DFA4FF4457002210DF11E0288
:2033F00001F056FA04F14F002A461923AA490090102004F0A3FEA8464FF0030A8DF82B90CA
:203410000DF12B008DF82E90A44D8DF82C804FF480628DF82DA04B4600902946102004F0E3
:203430008DFE0BA840F202424B4600902946102004F084FE0DF12D0040F203424B460090CF
:203450002946102004F07AFE0DF12E0040F206424B4600902946102004F070FE904806218A
:2034700001704078062801DA08F0D6FE8D48007880000EF072FF8C4D8E4E01460029E96094
:2034900042D04FF6FF700DF07BF81020009087490191874905F16402152304F04FFED5F852
:2034B000801002200CF028FA287928762A7A85F854206F796F76EB7985F82530687AB5F8C6
:2034D0009E2185F85500A979A5F84C20B5F82E3185F8241005F110073B80B5F86E01A88354
:2034F0004A46AA7685F8262085F8562005F59A736B614046286205F15801286550460CF005
:20351000FBF977610720B071226904F1240004F11007B061F7612AB1674906F16C0002235B
:203530000BF0F8FE654D6F782878A7B920362E620DF02CFC05F15407CDF80080024605F112
:203550004400019005F11C0602975D490396AB78102004F0F3FD5B495B4A102004F0EEFD07
:2035700020780DF013FC59490246102004F0E6FD5749102004F0E2FD1B224FF4A47310203C
:2035900000925449019304F0D9FD42F20305DFF848A1A06841464FF040424FF0FF330FF0D2
:2035B000E9F9071CF5D0CDF8108005A80AA904AA0DF052F9002838D1BDF81400102830D153
:2035D00020789DF8281088422BD104990E78913E02D01F3E20D024E048780E2821D18888A3
:2035F00085421ED189680E78DEB9491C08A80A684968026008AE4160307808AA514600F025
:20361000FD003070102004F099FD0AE0F014002081B30010BD84011001F1080009790FF024
:2036300075F9049808B10EF06BFEF80FB1D3E0680FF060F90028ACD1E0680EF0BAFA071C63
:20365000F5D03888012822D1BE78B00803D30BF015FF0BF013FFF00803D30BF00FFF0BF007
:203670000DFF700807D3607828B148460DF07CFE40460DF079FE300903D30BF0FFFE0BF02A
:20369000FDFE700903D30BF0F9FE0BF0F7FE38460CF0AAFFCBE7C04649C40000B54D000004
:2036B0004C220020694F00203C1C002064390100410D01000C0D0020D91F0100B01100201C
:2036D000FFF70000ED180100A839010051880110C5AB001035B9001095B400102DE9FE43E4
:2036F000BF4C0F460646F80B80F05081B80880F03D81E07ADFF8F492B90F80F0B680607ADD
:20371000002840F096803809C0F09580A07A20B10020A07205200CF09BFF00254FF00108E0
:203730006570284684F8078007F017FEAD4904F174002A460EF00DFE207901281AD16079C9
:20375000C0B9DFF8A482D8F8000000284CD048460068006B804761694346401A000BA061EE
:203770001968E2698018B0EBC11F98BFE0613BD9E56101E084F80480DFF87482A8F115000C
:203790000068000A30D340F60900A08694F8410000F0F00040F0010084F84100E58694F8AD
:2037B000400000F0F00084F84000A5630EF0CBFD08F6FF7211686FF0020321F0020111607E
:2037D00004F13401C8F8FB3F8A4AC8F8EB1F11688908FCD3C8F8FB3FD8F8FF1F41F0020122
:2037F000C8F8FF1F0FF082F865610CF09FFA8248056002200CF02CFF112007F01FF9307CA3
:2038100010B90E2007F01AF9E5712572A07818B906F138000EF0A9FD78480EF0AFFC7849C4
:203830000878F8B10D7004F1D00004210EF0A3FD18E0380914D2B80BC0F0C98004F1240056
:203850000EF091FD061C08D0706830B17568F068B6F91C1000222023A84727F40057B6E0AD
:203870000020607227F00807B1E020B104200CF0EFFE0020E072B168088840F602054FF01A
:20389000000885420AD0B0F5C15F07D00A8B4FF61F60104040F43470088306E00A8A4FF608
:2038B0001F60104040F4347008826069E0B1D9F85400016804208847B0B1D9F80000006B4F
:2038D00080476169814226BF401A401E401A000BF060708AF168401840F6C411F060814269
:2038F0002CBFB0F5FA7FF16094F8410010F00F0F0BD1708CED1D854207D1B56930466FF4FB
:20391000807142464FF00073A8473E4904F1740042460EF01EFD607958B10220ADF8000043
:2039300068460DF0FBFB84F80580BDF80800A4F8700001206070E078401CE07004F1200002
:2039500084F806800EF00FFD002808BF47F0020702D019200EF0FBFC7569414630464FF002
:2039700080630A46A84727F0005730E004F12C0528460EF0F8FC05F0E5FF28460EF0F3FCDD
:2039900027F0020708B147F0020720E00EF0DBFC014604F128000EF0E6FC0646B569A808CB
:2039B00010D27EB125EA0500B06108460EF09EFF706850B12A46F068B6F91C10756800235C
:2039D000A84702E008460EF091FF27F4804727B104F1D00039460EF0CEFCBDE8FE83C04638
:2039F0003018002075140100D82E00208C0100101500044010100440000004604D9A0000FA
:203A1000D42E002051940000BB482DE9F84F0025BA4CB849056094F8E200002800F0658132
:203A3000012800F02F81B64E02283CD0032840F05C8151F8250CD4F8B8100029A0F5C0604F
:203A5000C4F8D400B8BF49420028B8BF4042814226DA4FF08057D7F8A4014568B4F8BC0041
:203A700030214FF47F42082300903046A847D7F8A4014568B4F8C00004214FF4F80212239D
:203A900000903046A847D7F8A401B4F8D070456820214FF440620A2330460097A84701259F
:203AB00084F8D8501CE151F8258C0EF079FB2F4600B901273946934F38680028FCD0B146A7
:203AD000012609F10409D9F82CA03E6009B10EF06DFBCAF30720C4F8BC000EF061FBAA46A7
:203AF00000B9B2463B68002BFCD0D9F800B0BAF1000F3E6001D00EF059FBCBF38440C4F831
:203B1000C0000EF04DFBAA4600B9B2463B68002BFCD0D9F81C90BAF1000F3E6001D00EF0B0
:203B300045FBC9F38120C4F8D000B8F5C061C4F8B81000F09C8094F8D80068B9C4F8D410C9
:203B5000D4F8C000C4F8C800D4F8BC70C4F8C470D4F8D030C4F8CC30D4F8D410D4F8BC3071
:203B7000002954BF02206FF0010004F1C802176801EB41014018411000EB917107EBA100E2
:203B90001060D4F8C810C4F8C43000291CDD1E293CDDD4F8CC0030B93429B4BF15391E21F1
:203BB000C4F8C81025E02A29BABFD4F8C8000B381E20C4F8C800D4F8C4003F28B4BF401C31
:203BD0003F20C4F8C4001FE0D4F8CC00032812D011F10B0FC6BFD4F8C8000B30301CC4F8DA
:203BF000C800D4F8C4000028C4BF401E051CC4F8C450032508E011F1150FC6BFD4F8C80014
:203C10001530301CC4F8C800C4F8CC504FF08057D7F8A401B4F8C43030214FF47F4245687B
:203C3000374800930823A847D7F8A40104214FF400321123456832480096A847B4F8C86086
:203C5000D7F8A40104214FF4F802122345682C480096A847D7F8A40120214FF440620A23DC
:203C7000B4F8CC60456826480096A84701E084F8D85040F2FF50404502D8801C40452FD235
:203C9000082030E051F8251C1F4F4BF2F5204843060A3868C0F3814001280CD11B48006812
:203CB000006880470CF024F80EF086FA3111C010484306EBE03694F8E50030B9144800686D
:203CD00020F07F408019460801E084F8E5501148310C0660012741600F4D8760287808B923
:203CF0000B2000E0052084F8E40004F05FF9BDE8F88FC0462D400C402C500C406C1F00207A
:203D100000A00C4000800C40B43F0050EC010010102009403C600C402A3901002DE9F04F81
:203D30000D46E80789B00BD50EF09EF928B100218160AE48006800B1804785F0010052E129
:203D5000A80710D5002006900021049000230290009005910393019101223C200EF0C2FD15
:203D700085F002003FE11E246807DFF88482A14F40F19B800020079082469F498878FF2844
:203D900004BF00200DF0C2FE386890F8A0000EF09FF806463868C07A96F82EB1022818BF82
:203DB000032806F5947906D108F10D000EF096FD08B908F1070A494658460EF08BFD88B399
:203DD0003868807A002818BF012804D1414648460CF080FF04E04A465946404609F0D8FE44
:203DF000FF283DD06043834608EB0B0406224946E01D0DF089FF18F80B0040F0020BE01D83
:203E1000079006223868817E01F0010186F82E1104F10109386800F1140106F594700DF0E3
:203E300073FF1DE0494658460EF010F8C0B14A465946404609F0ACFEFF2811D044434444F0
:203E500004F10D000EF04AFD40B904F10D000EF045FD002804BF607F012801D14BF0020BC3
:203E700006F12C005B4601780691418909090591728C079904920122C088029140080390DF
:203E9000CDF804A0CDF800900020B1790EF02AFDD6F89C0159498842B0790CBF00210121D7
:203EB00008F0FEF985F004009DE0280610D50020069000210490002302900090059103931E
:203ED000019101223B200EF00DFD85F080008AE0E8043CD508F1070108F10D000EF0F6FC67
:203EF00038684179012923D1017A012918BF04291ED1C17A022918BF032919D1817E00F15F
:203F10001402404609F044FEFF2811D04443444404F10D000EF0E2FC50B9E11D04F10D00BC
:203F30000EF0D4FC38680622E11D14300DF0ECFE334934484A6800784FF480510BF014FC71
:203F500010B18E200EF0BEFC85F480504BE0A80505D50EF025F92C4901200860FEE76905C2
:203F700004D507F02EFC85F480603CE0680405D581200EF0A7FC85F4804034E0A80431D53B
:203F9000224C206810B100200DF0C0FD4FF0FF30206009F0EBFF1E4C216851F8202F684676
:203FB00090471C48C16A026B2468009101920021029100F134014A6809781368806A039366
:203FD0008DF81010ADF812006B46D4F80080124A12491348C0471349086003F07FFD85F4B3
:203FF000005000E0002009B0BDE8F08F204F002020270020104F0020684E00208FE40000C6
:20401000784E00206E4F0020FC002043044F0020F04E0020C8230020282E0020A025002037
:2040300088490020EC4E00202DE9F04FB64D686885B0019020B905B0BDE8F04F0EF03EBCCD
:204050000178DFF8C882B24EDFF8C892DFF8C8A201291CBF0229042946F2A81741F64C5B12
:2040700005D0402918BF802900F09A8043E10EF0B5F80028FAD00198007805F02BF80090EE
:20409000446814B900200DF041FD9AF80100002860D002F06FF80DF01BFF0290016800984E
:2040B00001914F6809F066FA022827D000990A78012ADBD1994B19680A7A19F8023033706C
:2040D00018B90EF0F7FB5844A0602069C17E01F0EF01C1762069C17E41F08001C176206959
:2040F000C17E01F0F00141F00201C1768C48B96841182069C16101210098A0E001980178DF
:20411000802913D10822874832700178012903D09AF80100012803DD78690121C17213E02C
:20413000D8F828107A690878D0720DE07D49072030700A787869012A02D10123C37203E0AB
:20415000D8F828104A78C2720298817901988AF80210CBE00098002888D00199009A007821
:20417000914205D101281CBF00200DF0CFFC15E0012840F0C080694801680A7A19F802005B
:2041900030700EF097FB3918A0680EF08FFB18B90EF090FB5844A0600120A8700098A5E0B2
:2041B0009AF8010000287DD001F0E4FF0DF090FE04462068029047689AF802000DF088FE5E
:2041D00003900EF011F810F0070F3DD0A87804F081FF0190416801980091029909F0CAF9C3
:2041F000022831D001990A78012A2AD14B4B19680A7A19F80230337028B90EF05BFB8344C5
:204210000098C0F808B000990869C17E01F0EF01C17600980069C17E41F08001C176009864
:204230000069C17E01F0F00141F00201C176009AB9683B4841181069C16101210198A97073
:2042500054E000200DF062FC0398A04228D002980178802913D108223248327001780129A1
:2042700003D09AF80100012803DD78690121C17213E0D8F828107A690878D0720DE029498A
:20429000072030700A787869012A02D10123C37203E0D8F828104A78C272A0798AF802000F
:2042B000029823E00DF0A0FF10F0070F29D0A87804F010FF04462078D4F80480012820D137
:2042D00016490A68107A19F8001031700EF0F2FA3918D8F808000EF0E9FA20B90EF0EAFA02
:2042F0005844C8F808000120A870204605B0BDE8F04F06F079B805B0BDE8F04F00200DF035
:2043100005BC05B0BDE8F08FB82E0020303A01006F4F0020289A0110684E0020104F00207C
:20433000F0D8FFFF734F00202DE9FE4F0F469A4C0168E16241688068E0609848A160804702
:204350009748E16A0160A168DFF874B24160E168DFF8688281609349002FA246C16069D0E3
:204370003D68E8788DF8080028798DF8090002A80EF098FAA86808B18B490160E86808B12B
:204390008A4901608A4C2878207068786070A878BE68A0703178E170736863607269626197
:2043B000B168A160F168E160316921612E697B68A6621868A0616869E062A8692063287FCC
:2043D00084F834002A6AA263786886681EB900200DF09CFB00E026627868C06818B90020CA
:2043F0000DF094FB00E060627868406818B900200DF08CFB00E0E0612869A062F868816885
:204410000E6806B96C4E6B494FF001094E60C66881F801902EB900200DF078FBF868454658
:2044300001E045462E6000685C46FE6860617068A06106E000200DF069FB4FF001095C4616
:20445000454628685F494668621C04F110035020B04710B1286880688047DAF8080080474D
:204470005A4F0026834669467E7057483E700422E06030460CF052FA0098B0F5801F0CD0CE
:2044900020B90CF08BFD04F04DFF08E00BF094FB0DF046FD0420788001E00CF07FFD4C4FAD
:2044B000B0462868C7F8088080696660804778604848468080F8009014200DF0F5FDFF2130
:2044D0001422A0620DF061FF04F12400FF2104220DF05BFF14200DF0E7FD3F49086008680C
:2044F000142231460DF051FF3046FCF763FA48460CF064F939480188FF2906D10221018058
:204510007822001D31460DF040FF03200EF0C6F904200EF0BFF905200EF0B8F906200EF06F
:20453000B1F9072009F0F4FE2D4E0820307006F13C000EF0A3F90AF0D7F8323605200A211E
:2045500032460DF0BCF938B14046C0F10901401C06F8011B0A28F8DB2F68224909200DF153
:204570000A0201AB7D68087010204146A847A06AA2690A270A309DF80A1000F8011BDAF85B
:204590000C107F1EF7D1921E5846A261884702F08FFDBDE8FE8FC04680200020414900105A
:2045B000F8440020C42901004D0E0100891C0100C8230020342600209FEF0000EC2600205A
:2045D000CC240020BD140100E91C01007C230020AC2E00202C180020F42E0020D021002073
:2045F000F01D00200D2F00202DE9F04F0546A64CA878E169ADF11C0D801F00F03E81C01E33
:2046100000F02981401E78D0401E56D0C01E4AD0401E40F03581207A617A00283FD1607805
:2046300000283BD0A8880EF025F9071C00F02881A87A40080AD3787940B1E968890A05D24B
:20465000B91D01AA06F08AFE0A2825D0207B022802D1A87A00091FD36078AE887979C0B1FE
:20467000607CB0B90120607405F10802304603F0D3FB002840F00481E069002800F00081FA
:204690004368002B00F0FC80002130460A469847F6E00521304603E0032100E00521A88853
:2046B0000EF0E4F8ECE0002900F0EA804B68002B00F0E6806A780221CBE00DF0DDFC0028DF
:2046D00000F0DE80E7690FB1386868B9286900280CBFA069012069890EF0C4F8002800F039
:2046F000CF8068890121DBE7286900903C6869892A7B6B7BE81CA047C2E068784FF0000890
:20471000002840F09580A8794008C0F09180206A002840F08D8001A841460E220DF035FE73
:20473000A8880EF0A7F8061C00F0AA806869002859D081464146062209F111000DF053FA73
:20475000C24620B3484606220DF04DFAD8B999F8100009F1110B474605907F1C5846FFB220
:204770008BF800700CF030FC0A280BDA474B059A0101A1EB4001C9188879824202D1002F4F
:20479000EBD100E01FB947464FF0010A6F61BAF1000F09D109F1110101A806220DF0B4FAD2
:2047B00099F810008DF80A00BAF1010F1BD06F69CFB1387C07F1110106228DF80A0001A89D
:2047D0000DF0A2FA06F10C00B11D06220DF09CFAB01D07F1110106220DF096FA387C40F034
:2047F0000200707107E07079B11D06228DF80A0001A80DF089FAA9799DF81120C1F380002C
:2048100010438DF81100080905D39DF8110040F008008DF8110001A8294602F099F928B9C5
:204830002078022106F0AAF840462AE04FF015080DF0FEFCE06918B343680BB3A8886A78A3
:2048500001219847B8F1000F1AD0E069032142464368A8881BE7E878291D002206F07EFD9A
:204870000A280DDA410001EB800005F10C0225300421C0B204F0EAFF02E0A88809F0B8FFD3
:20489000012007B0BDE8F08FF01D0020DE1E00202DE9FC41A0F2013714468846022F40F21B
:2048B00032819B4E9C493F1F0F2F04D9143F4CD0BF1E1CD011E0DFE817F0CF00C9000D0151
:2048D000FA00C100B9002601AF00A700100010009D008F007F0074006600282880F21381DC
:2048F000B8F1020F40F00F818849238807E1B8F1010F40F00881F078012800F004813246DA
:2049100020781179107189B9002800F0FC805078012800F0B580042800F0B280062800F08C
:20493000AF80052800F0AC80BDE8FC812078002840F0E9805078032800F0AF80072800F043
:20495000AC80052840F0DF80A7E0B8F1010F40F0DA802078012840F0D68006F1EC000DF06E
:2049700073FB002840F0CF803446002004F13A0107F0A6FD002840F0C68004F1C8000DF056
:20499000FEFCBDE8FC81B8F1020F40F0BC8020880A28C0F2B880B0F5486F00F3B4808E1CD4
:2049B00017E0B8F1020F40F0AE802088B0F5FA7F80F2A9800E460CE0B8F1020F40F0A3802A
:2049D00020880628C0F29F80B0F5486F00F39B803E363080BDE8FC81B8F1020F40F0938073
:2049F00020880628C0F28F80B0F5486F00F38B803C36EEE7B8F1010F40F0858020780628BB
:204A100080F28180454E0EE0B8F1010F7BD12078042878DA0A3606E0B8F1010F73D12078BC
:204A3000082870DA09363070BDE8FC81B8F1010F69D12078042866DA0836F4E7B8F1010F22
:204A500061D1207804285EDCF61DECE7B8F1020F59D120880E36BCE7B8F1010F53D1307937
:204A7000012850D032462078D178D07069B9002849D05078012803D0042818BF052842D1DA
:204A900001200DF009FBBDE8FC81207800283AD15078022818BF052835D110780CF076F908
:204AB0001C490246102003F049FBBDE8FC8106F1830500211F22284608F047F8214642463B
:204AD000284606F0CDFE44463078B4710CF05EF9002311E006F1640500211F22284608F0B1
:204AF00034F821464246284606F0BAFE4446307874710CF04BF90123009409490195024630
:204B1000102003F01BFBBDE8FC81C046BD840110B011002099450110F0110020EA110020C6
:204B3000094501102DE9FC41884C894A2678894F894D8A490D2E30464FF4A0534CD8DFE81B
:204B500016F003010E000E000E000E00FB00FB006800FB00A700A700D800D800DF00804904
:204B7000176041F204464C887E4FB4421CBFB1F81AE0B6450BD0B1F83280B0451CBF41F2E8
:204B90000A46B44203D0B64518BFB04502D12E80176076E0022C744E2C8035D94FF4806703
:204BB000E41B1AD0241F012C1DD94FF47F77E41B1BD04FF44067E41B0FD0A41E012C0CD9D7
:204BD000241F0AD0641E012C0DD940F2F937E41B012C19D9241F08D0AEE0022814BF2B8042
:204BF000624E16604DE0624EFBE762480468257A012D05D141F20240488048834886F0E75A
:204C10004B804B834B86ECE700200CF07FFF832096E059488178FF291ED01C204143574885
:204C3000176040F204460068841C645A2C80A41B012C534D10D94FF47F76A41B15D00A3C68
:204C5000012C14D940F6F636A41B032C84BF641F012C0ED9A41E012C76D940F2FD36A41B9E
:204C700007D0641E012C02D905E041F20143801C4352156005E000200CF048FF85200DF0D7
:204C900075FEBDE8FC413F480078012105F076BE4A882A8040F20443D21A55D040F6FC73BA
:204CB000D21A15D0083A4FD04FF47F73D21A22D1354C364A2568364800680023CDE900232E
:204CD00055F8086F334B0222B047334908803BE0092810D131490A68508960B13049087867
:204CF00009F07EFC002100200DF0B8FD002020702AE04888288000200CF008FF85201FE045
:204D10004A882A80022A0DD940F20440121A1BD040F6FC70121A05D0083A15D04FF47F706C
:204D3000121AE8D1887B801CC0B2B528A8BF662088730020488007E000200CF0E7FE842034
:204D5000BDE8F6410DF012BEBDE8F3816F4F0020204F00201D230100504F0020682E00205E
:204D7000204A0020492000005D950000EDAD0000755B0110104F0020684E0020DC2E002044
:204D9000655D00006E4F0020F04E002002000080EC4E002049FB0000424F0020E82E0020FF
:204DB000714F00207CB59C4D144602460026A2F58062182A1AD8DFE812F024011D01150152
:204DD0000C010401FE00F600F000E600DA00D200CA00B800AC00190019008A0074006D0070
:204DF00058004F0044003B002E002400282880F28E80022940F08B8021880DF02BFD0646DB
:204E100008E1012940F00581002C00F00281294601F11203C5E0102940F0FB80002C00F0FF
:204E3000F88028465830102221460CF06DFFF1E0012940F0EE80002C00F0EB802B469B1DAA
:204E5000AFE0262940F0E580002C00F0E2802B46262203F16800E7E7012940F0DA80002C8E
:204E700000F0D7802B465B1D9BE0602900D144B9012940F0CE80002C00F0CB802B460D3360
:204E90008FE005F18E00214660220CF03DFF01206873BFE0012940F0BC8020780DF0D6FC56
:204EB000B8E0012940F0B5802078022800F3B1802B4603F10C0108702078022818BF301C06
:204ED00002D11020D87201200DF0BCFCA2E0072940F09F80611C684606220CF041FE207878
:204EF0006946324606F03AFA04460A2C0FDA0DF0A5FC38B9204604F081F90CF0D7F909F0C0
:204F1000F3FB87E02B4601202833185582E0022680E001297DD12B462178987B002899731F
:204F300078D12078012875D1E9E72B46187B01296FD1022804D02178072901DB102904DD16
:204F5000022866D12178102963D1D97262E001295FD122780A2A5CDA2B46093340E00129F8
:204F700057D12278022A54DA2B46083338E000294FD10DF063FC10B90CF07EFFBDE72B4645
:204F900001220F332CE0042943D12068234981423FD32B46183318603CE0012939D12B4691
:204FB0000A3322781CE0012933D12278022A30DA2B46DB1D14E010292BD12B4603F14800D1
:204FD00031E7012925D12278022A22DA2B461B1D06E001291DD12278042A1ADC2B46DB1CFA
:204FF0001A7017E0012914D12278022A11DA2B469B1CF5E702290CD120882B46143318805C
:2050100008E0012905D12278022ADCBF2B1C5B1CE6DD182630467CBDF01D00203F420F000C
:2050300010B50B7884074CBF43F0020303F0FD0304064CBF43F0800303F07F0304074CBF01
:2050500043F0080303F0F70384064CBF43F0200303F0DF0310F0AA0F0B7004D0107840F095
:205070000C00107010BD18B9117801F0F301117010BDF8B50F4600263878022814461D467B
:2050900067D1786801784278069801EB022189B2002818BFB1F5285F01D00B20F2BD4FF4B3
:2050B0002850091A0AD0491E1ED0491E4BD0491E22D0491E28D0C53941D04AE0F8680DF046
:2050D00066F9069B079980B2C21A8A42ACBF0846C01A80B2C118162904DA28800246F8683B
:2050F000C1180DE00D2636E0F8680088022129802070000A60702EE0062028800622F9680E
:2051100020460CF001FE26E0F868B0B108212980018821700188090A61704188A17041885B
:20513000090AE170818821718188090A6171C188A171C088000AE0710DE029800BE04A4861
:205150000178CA0705D401202880F8680178217001E02E8001263046F2BD2DE9F8460E4666
:20517000814630780024022817469A4678D17068017842783C4D01EB022189B24FF4285043
:20519000091A08D0491E30D0491E55D0491E3FD0C63960D064E0F0680DF0F9F8089980B20F
:2051B000884206D308460AEB0001162903DB0D2457E0072455E0F3685246394618440CF049
:2051D000A3FD08985044ADF8200000210898F368C0F1160218440DF0D8F8686800281CBF45
:2051F0000268002A3DD0002123E0089888BBBAF1020FDCD139787878F26801EB00211180F5
:20521000686800281CBF0268002A2AD0012110E00898F0B9BAF1060FC9D1F0680622394669
:205230000CF072FD686800281CBF0268002A18D003214846904714E0089850B9BAF1010FC3
:20525000B5D13878002813BF0128F1680870802407E00B2405E02878C10758BF032400D5FA
:2052700001242046BDE8F2866C2600202DE9F04F8246DAF800600C465FEA0208ADF11C0D09
:2052900014BF00214FF0FF3106F1480083460CF078FE002818BF0B2040F006810025657046
:2052B0008448F460B8F1010F057004D065700220F4600BF0C3FB2078012840F2AB80801EFC
:2052D000012868D9801E012833D9801E012800F2DF800DF038F806904FF0805000F5EE773D
:2052F000D0F8DC01A378466A009321782846062908BF0120019001200290A068228AE1683C
:205310006368B047814606980DF0F0FAB9F1000F40F0C080B8F1000F02D00CF0C5FC02E01D
:2053300050460BF073FF002800F0A4803868806A2AE00DF008F806904FF0805000F5EE778E
:20535000D0F8DC01012306680093A168A27860682478AC46042C08BF9C466346B0478146BA
:2053700006980DF0C3FAB9F1000F40F09380B8F1000F02D00CF098FC02E050460BF046FFF7
:20539000002877D03868406880474949C1F8B0510D6081467EE00CF0D6FF06904FF080502B
:2053B00000F5EE76D0F8DC01E38A87690093E0680190208B0290A0780390207D04900121DB
:2053D000059122782846022A08BF081CE1786268A368B847814606980DF088FAB9F1000F3E
:2053F00058D1B8F1000F02D00CF05EFC02E050460BF00CFF00283DD03068006A80475FEACF
:20541000000947D13068C569A168E28A2369E078A847BEE70CF097FF06904FF0805000F57C
:20543000EE76D0F8DC01E38AC7680093E0680190208B0290A0780390207D294604900120A2
:205450000590257805B9014608466268A368E178B847814606980DF049FAB9F1000F19D142
:20547000B8F1000F02D00CF01FFC02E050460BF0CDFE08B9142017E03068406980475FEA00
:20549000000907D1306802692169E078904780E74FF0FF39B8F1010F02D002200BF0D8F809
:2054B00058460CF062FF484607B0BDE8F08FC046504502400C2F00202DE9F04FDFF80CB256
:2054D0009BF80000002885B004D0401E032804D9801F012840F2F780EFE07D4DDFF8F4813C
:2054F0002868DFF8F49103687C4E03F10807062207F1080103A80CF007FC0622B91C01A8FF
:205510000CF002FC3878C0F380118DF800101E24C10900F00F02032A39D16879C0F38000A0
:20553000814233D12969062203A80CF01DF900282CD09DF8000001A90DF0CCF9002825D0DB
:20555000314601A80BF0C6FB0746FF2F1ED0D9F80000807A6743002818BF02280BD0012854
:2055700018BF032812D1701CF25DC11940460DF061F910280AD0F41901AAE11D404608F05E
:2055900034FC062201A9E01D0CF0BEFB90E000F00F00052840F097806879C0F3800081428D
:2055B000F4D12969062203A80CF0DEF80028EDD09DF800003F7801A90DF08CF97F0940F2C8
:2055D000024A88B3314601A80BF084FB8346BBF1FF0F6DD0D9F80000807A002804FB0BF1EC
:2055F00018BF012800910CD0022818BF03285FD10846711C325C014440460DF01BF9102855
:2056100056D050460DF012F9009806EB000A01AA0AF10701404608F0E8FB062201A90AF147
:2056300007000CF071FB1CE09BF8000002283FD19DF8001001AA304608F0AAFA8346BBF14B
:20565000FF0F35D004FB0BF03118487F012805D070BB01F10D000DF041F948B350460DF030
:20567000E5F804FB0BF4D9F80010305D88760622701C0119D9F8000014300CF045FB184953
:2056900018488A78510604D5F90758BF41F20A4101D541F204414180418341861248134A82
:2056B00001801348134908600121107805F066F929680A680020107105E000200CF026FA77
:2056D00086200DF053F905B0BDE8F08F6F4F0020F44B0020CC470020104F0020202700209C
:2056F000842E0020204A0020504F00206E4F002049200000204F00202DE9FE4F05467E4836
:20571000002400680094C0090ED37C48007858B97C497B4851F8112C104040F0817041F8AA
:20573000110C202009F0FEFF012D40F0E080DFF80092D9F8DC00012840F0D6800220C9F8A0
:20575000DC000BF081FF012009F0ECFF5FEA000805D00120C9F8DC000BF086FFC9E00CF0D4
:2057700006FEA34602906848684DC0F800B0A86A016801208847012804D1584607F030FFA0
:20579000012000906248634FC0F800B0386811200CF01EFD00B1012410200CF019FD08B1CB
:2057B00044F002040F200CF013FD08B144F004040B200CF00DFD20B12868574E016B308814
:2057D00088470A200CF004FD20B12868534E016B308888475248012606602868816944F0F9
:2057F000200088474F4806600CF0ECFC00F001010191400814D2286A81684B488847824672
:20581000BAF1040FF7D0BAF1010F04D1286A42684548032190474549086820F00300086026
:20583000584600F087F82B683868986B8047019801280CD0BAF1010F04D1286A42683A4862
:20585000314690473949086840F0030008603048066028684169204688470B200CF0B8FC35
:2058700020B128682C4BC16A188888470A200CF0AFFC20B12868294BC16A188888472848F6
:2058900006600322C9F8DC20264BC3F800B02868416B204688470128F9D13868042009F0B3
:2058B00041FF0446184806603868134800688009FBD30098012802D1304607F091FE0CF042
:2058D00075FC082009F02EFF07460298C9F8DC600CF0A8FFFBF75AFB0BF0C6FE57EA040027
:2058F00018BF4FF0FF3804E06FF0040801E06FF001084046BDE8FE8F1410094054200020FA
:20591000FFFFFCFC150009400C400940B8010010000222432C20094002360100FE3501005C
:20593000282008608001044300400340242208406C1F00202DE9F84FDFF8F4B10746ABF161
:205950003500DFF8E0910068800880F0D98071480068006880477A490831D1F80080002547
:205970004FEA28725FEA985102F101020AD2C0F13E0110F10A0F4FEAE101D8BF08218A428F
:20599000B8BF0A1C644BD3F87C11C1F304611629A8BF20391B68C3F30443162BA8BF203BB8
:2059B0009A468918162905DA11F10A0FB8BF6FF0090100E01521594B594E01F01F0242F494
:2059D000F8521A80326812F0030F18BF0125D20828BF45F002050FB145F004054A4692F912
:2059F0000730C31A052B04DA9379AB4208BF918866D0DFF834E10F28A0F10F0C25DB0CEBA0
:205A10000013A3F1F00C4FEA2C26072E88BF07263446062C88BF06245EF82470042303EB83
:205A300084037446E358DB1B03F0FF04EF0824BFC3F307273C44AF0824BFC3F307473C4492
:205A50006F0828BF04EB136401E0002426465EF826E0EF080EF0FF0324BFCEF307273B445D
:205A7000AF0824BFCEF307473B446F0828BF03EB1E63A4B2ACEB0626AAEB01017443002991
:205A900004F1800403EB1423D8BF0121342408F0FF074C43A1B27943B1FBF3F14FF6FF7364
:205AB0008B4238BF191C802889B2918005DA10F1800FB8BF6FF07F0000E07F20D07195715F
:205AD0001A4800681F2910604FF0000008D340F2FF128A4206D24908401C8A42FBD301E00B
:205AF0001F219180134F0F39090940EAC10047EA0001CBF8FB1F0026CBF8FF6FBDE8F88F0C
:205B10000D490E4F4A4608200F60921D1070BDE8F88FC046EC0100103C1100506E62084088
:205B300024220840CC2E00209C130050082009403500094000E7A48030100940FDFDA4008D
:205B5000AC3F00502DE9F84F0024774D774EDFF8E0B1DFF8E0A1DFF8E081DFF8E091D9F8DF
:205B700000104A7A01231820A34060431A420AEB000709D0087A38F810203A8000201BF85F
:205B90000420BA73F87302E040F6010038800020788007F118007860387B00F0EF0040F0A6
:205BB00080003873097A01290ED141F28830B860387B00F0F00040F005003873787B00F0C5
:205BD000F00040F0020019E0002C0CBF0221002100F0F000084338733CB90CF06BFE00F53A
:205BF000C870CAF80800022004E00020022CB860F9D10120797B01F0F00108437873641CB0
:205C10003E61022C7D61AADDD9F80000017A01290EBFCAF834A00020CAF834000BF024F93B
:205C30003060474880690078C1074CBF1021002182074CBF2022002243074CBF40230023DC
:205C500000074CBF8020002011431943014341F00F01317100207071D9F80010887A00F0B7
:205C700003007071CA7A920002F00402104370718A7ED20002F0080242F0100210437071E0
:205C9000087A012818BF042806D10020B071F071B06001F1140216E0487FB07101F15D0286
:205CB0005078F071487F20B10B7FC3EB4313C8181E30B060507828B11278C2EB42128B1878
:205CD00003F15F001F4AF060726101F10C0030611D4BF07E727900F0E00040F08600F07699
:205CF0001A48F061187828B1307900F0FE0042F040023071164B987843064CBF42F02002B3
:205D100002F0DF02727100202880A870E87028716871E8802881A872E872E8600868C0F81E
:205D300004A0BDE8F18F00BFB44D0020F44B0020409A0110204A0020109A0110104F00209C
:205D5000303A0100D0470020784E002000204E00842E00207E488078FF2800D170472DE9E8
:205D7000F84F0CF0B5F8054605F217100178012908BF417800F0A28005F17400817B0229F4
:205D900003D105F174020020907305F59276F18911B1307B04F0F2FD68896E4F288105F573
:205DB0008D78B87AFB793A7BF97A7C7BB8F800C000EB030E96448E4474441FFA84FEB8F8EE
:205DD0000440641CA8F80440F444B8F80240A8F800C00419A8F802404FF01C0C3468FCB1D2
:205DF000DFF8749195F806A0D9F8009009F10E0B0CFB0AFA09F10E091BF80AA034F81AB041
:205E1000F34424F81AB095F806A00CFB0AFA19F80A9004EB4904B4F84AE08644A4F84AE0CA
:205E3000002B08BF002904D1002A04BF797B002923D02A89E889821800202874AA81287F19
:205E5000012804BF698CE983787868B10121297705F174018878002804BF887B002803D1C5
:205E7000087F08B9698CE983307D80B3022804BFF87A002827D1002128E0E98338B100206C
:205E90002874287F012807D1698CE98304E0B8F80600401CA8F80600A8892989814206D035
:205EB0008842D1D2081A41F2AB029042CCDA287C08B1052901D0082100E03E212846BDE814
:205ED000F44F0BF06EBB787A08B1022131752348FA7B01682868D30708D53A69C26001F190
:205EF0001400A97949010022425011E001F11402A97949015258184932610A68A97902F1D4
:205F100008030CFB01F29958C1600020E8832877134841690A7890074CBFB87B812085F8B6
:205F300074002846FCF72EFB01280ED00121284606F080FE28460BF0CDF9FCF799FD012867
:205F500003D0BDE8F14FFEF76FB8BDE8F18F00BF684E00205C4D0020DC2E0020E02E002082
:205F7000303A01002DE9F0410C4684B00746207A0026C10690461D460BD540460CF04EFC20
:205F9000030000F0F0800A22214638469847060050D1207802281AD160680178427801EBE3
:205FB000022189B24FF42050091A012910D9891E41D0491E16D0FD3905D0491E00F08B8018
:205FD000491E74D0491E7BD0491E00F0A180B8E00B98002831D1E0680A9A01781180027807
:205FF000416891E00B98002827D10A9801210180E0680178297000216089401C80B20CF081
:2060100009FC0A99098868B102780A9B921C51181980418969704189090AA9700278416893
:20603000E81C72E00A98091D018004220021681C0CF0ABF998E00B9800286BD1E0680788F0
:206050000A98042101802F70380A68700DF1020138460CF0DFFB04001FD0E768BDF80220C1
:206070004FF6FF786B4641460CF0D0FB40B9237862683F4802210CF0C5FB08B9ADF80080AB
:20609000387802280BD179680222281D0BF03CFE0A980188891C018001E0ADF80070BDF8BF
:2060B0000000A870BDF80000000AE8705CE00B9800282FD1E068016838460BF07CFF03E012
:2060D0000B9838BBE06800880A9A022111802870000A687048E0E0680CF059F90B9B80B2E2
:2060F0009842B8BF07263FDB834208BF002006D00C99C9188142B2BF0C98C01A80B20A9969
:2061100008800246E068C11828460BF0FDFD2BE00B9808B10B2627E00A9AE06807211180D7
:2061300002782A70417869704188A9704188090AE97001792971C1886971C088000AA871F0
:2061500012E040460CF05AFB06000CD00D980C990A9B029001912A460B98009021463846E9
:20617000B047064600E00E26304604B0BDE8F0813A3701002DE9FE4F7D4C617811B9002017
:206190000BF0C4FC0CF096FB8146002709F6C4190026784DDFF8E0810EE030460BF098FEC5
:2061B000417939B129688279CA5549467F1C00F0E7F8FFB2761CF6B298F800008642ECDB7D
:2061D000009761788F4205D000200BF09FFC82200CF0CCFB6078012840F0A380002601E023
:2061F000761CF6B298F80000864280F2948030460BF06EFE074678790028F1D02868B979B1
:20621000027891421CBF00200BF080FCB87980E0286810F809000BF05BFE00684268DAF845
:2062300008109068814204BFB84609F1010900F088808BE0296891F800B04FF0010910E050
:20625000626811F8093002F5B17208FB03F708FB0BFED75B32F80E20974238BF9B4609F1CA
:206270000109C0B28145EBDB4FF6FF7006F09AFF074658460BF02CFE40F6C419006841688F
:2062900000967808029109FB00FA0026019715E058460BF01DFE01680A78802A04BF7B69A4
:2062B000C3F814A00978402907D1344A8079136803EB40110AF5A062CA61761C009886424E
:2062D00053DA2868805D8345F7D0636808FB00F2991803F5B173C9899A5A4B08934203D2B5
:2062F000009B891A8B42E8DA0BF0F2FD00684768029A0198B968936800EBD0704010A1F65D
:20631000C41109FB00300CF0D1FA0028C0D02868805DBDE8FE8F00200BF0F8FB82200CF09A
:2063300025FB6178286807F000FC286800780BF0CFFD0168009ED1F804A04FF000084FF008
:206350000109B14508F10107FFF662AF4046C0B200281EBF3846C1B200294FF4D0787FF411
:2063700069AF286890F800B07EE75846D1E700BF684E0020004F00207B4F0020E02E002056
:206390002DE9F24F054682B02868D0F804B0DBF808000CF08BFA002840F0E48029680298CA
:2063B00009690CF027FA05F1820480462078002805F12E0740F6C4196BD0298960880CF02D
:2063D000A9FA82462078022806BF05F59A710E8EBE8806FB0AF609FB06F00090286801694F
:2063F0000098411802980CF061FA00284BD000982189A8EB000009FB01F2B0FBF2F302FB0F
:20641000130000B15B1C288982449A44A5F80AA05943E088861920788E1901284BD105F178
:20643000860128460BF040F960896989688400202877E883E8894118A9812289B988A08929
:206450008A4204BF3989884202BF6189FB88994207D0000900906389A979520800200CF014
:2064700061FAB88805F59A710886207938702089B8806089F880A089388128460BF0F2FA24
:206490000220207017E0207801281CBF00200BF03DFBB88809FB00F0B8FBF0F100FB1188F8
:2064B0008EB2B8F1000F28891CBF761CB6B230186881B88846432968314A086909FB0600CD
:2064D000CBF808000B78802B0DD1C860D2F83080BB88D8F8000009FB03F31B1ADBF814000A
:2064F000A3F5167343610878402833D1AE614FF4C873688A4643B6FBF3F0401C6861DBF847
:206510000830181ACBF808006B69D5F8340100EB4300DBF8143058611A4823780068022BD0
:206530000CD1AB795B0100F1140454F803803C7809FB048800F1140444F80380AB79126B69
:2065500000EB4313B88809FB00F41068201AA0F51670D861DBF808208A60F87AB8722846BD
:2065700009F06AFB6989A8890CF0D4F9E989814205F59A7138BF0120C885BDE8F78F00BF38
:20659000303A0100E02E0020F8B57E4F04463868C16E0025002940F0F18010200BF084FD24
:2065B00039680028C86600F0E7808E6E102221460BF0AAFB39680878002840F08E80CA6E89
:2065D000D6F8980012F80CCF00F001030CF0010C634518BF0023400843EA4000C6F89800B6
:2065F000C0F34003D2F800C0CCF3400C634506BF430803F00103002320F0020040EA4300AF
:20661000C6F89800C0F38003D2F800C0CCF3800C634506BF830803F00103002320F00400E3
:2066300040EA8300C6F89800C0F3C003D2F800C0CCF3C00C634506BFC30803F0010300236A
:2066500020F0080040EAC300C6F89800C0F30023D2F800C0CCF3002C634506BF030A03F017
:206670000103002320F4807040EA0320C6F89800C0F34023D2F800C0CCF3402C634506BF04
:20669000430A03F00103002320F4007040EA4320C6F89800C0F38023D2F800C0CCF3802CD1
:2066B000634506BF830A03F00103002320F4806040EA8320C6F89800C0F3C0231268C2F3DA
:2066D000C022934206BFC20A02F00102002220F4006040EAC220C6F898008A6E92F895005E
:2066F000030718D5C86E4368C3F3C00098B1C87840F00800C870D6F8981023480140C6F863
:2067100098103868C06EC16821F48071C16049084900C16003E092F8330001282AD060784D
:2067300000281CBF7178002908D13968CA78130708D5002804BF7078002803D03A680521EB
:2067500011711CE06068C0F3800040B996F8950010F0040002D10120087110E00AD00878D9
:20677000002819BF30782178317820780CF03EF8054604E0182502E0132500E0112528464B
:20679000F2BD00BF304F0020FEFEFFFF2DE9F0411C4615468C4208BF854282BF00230022FC
