:2000000000400020050E010001C9011001C9011001C9011001C9011001C9011001C901104A
:1C00200001C9011001C9011001C9011001C9011001C9011001C901103FC9011089
:20003C0080B54FF4FC720FF278011A480CF04CFA012119484174002202210270C17601BDBC
:20005C002DE9F0410FF2502214493820136854689568D6681769D2F814C0D2F818E0D2F8F9
:20007C001C800B604C608D60CE600F61C1F814C0C1F818E0C1F81C8020322031401EE5D1DC
:20009C0050689368D46812680A6048608B60CC60BDE8F081480400215903002100C00021D1
:2000BC00410500217D0500212D06002170B51D46004C204787B2000010B5014800470000FD
:2000DC00D509000070B5614C6148254650358047022809D14034E1885E4A914204D1E97C5E
:2000FC00890601D4911DE18070BD70B557495A4A084650300378002B10D08379012B0DD181
:20011C00037C5B09DB0709D0097D544DC1746C7F20202043687790476C7770BDFF21C17420
:20013C00904770BD10B54E48484C804702280ED121464031CA88474B9A4208D1CA7C5209CE
:20015C00D20704D0227D920601D49A1DCA8010BD70B53E4843494030C07C4009C00707D032
:20017C003E4D41482C8B2043288388472C8370BD884770BD10B53B48344CAC388047214609
:20019C0053310A789309DB0705D04034A2730A7803231A430A7010BD2C4940310871182876
:2001BC0012D004DC0A280BD00B2804D10AE025280CD02A280CD02D4980004018C0687047DE
:2001DC002B4870472B4870472B4870472B4870472B48704770B504461C484E252D5CAE09AB
:2001FC00F60716D0067D3007000F052803D00120054202D00DE00220FAE7E80905D07006D1
:20021C0003D54868800F012803D05B085B0052085200062B03D01020022B11D011E0FB20F7
:20023C00024002232046FFF741FF002807DAC100611A2039497E1422114200D1002070BD93
:20025C00024303432046FFF731FF70BD4401002137CB000004140000EBC80000A800002142
:20027C00F5B4000053AD00002020000080DF00001D050021F9040021CD040021930400210F
:20029C006D04002110B5034CFFF716FF20680028FAD110BD0011044068610000F825F965B0
:2002BC00F9754500450045002600260057A3520052004C00401F401F401F3F000000000053
:2002DC00304000400140034007400F404F40CF40CF41CF43CF47CF4FCF3FCF2FCF1FCF0F6C
:2002FC00000000000000000000000F00080000003F00000040003F000000040068000E0093
:20031C00DC00060043001A00050000000000020000000000000000000400C00000000400B3
:20033C00C000000007000000000000000000000000000000000000003040004001400340A6
:20035C0007400F404F40CF40CF7FCF6FCF5FCF4FCF3FCF2FCF1FCF0F00000000000000009D
:20037C0050C00091007070C00091007082312100319110B10070018101B100A1823132910D
:20039C0010B101911110418141227740F106007051C0019130181039833108D01831416FD1
:2003BC003100319110B18314141683680070251050C00091F4C340C12014036F3110410497
:2003DC005082F0229840512622C082312100319110B163393110410482C08231210031919B
:2003FC0010B163393110A2C082312100319110B150101531051405920070676452C03110A6
:20041C0031066131C1026A6412C13110213971065131E1026A64007051C0019101CCE2C0CC
:20043C006A64676411C1C2C06A6450B054B0007140804022D6440022C94060B08180111EC9
:20045C00C944007054A064B0F0800022C9404012B09032B070C1DF6811C122C16A6470C1C0
:20047C00E46851C00191E2C0823160820200329110B130C2EE68538253395339B16460C347
:20049C00F4688012B09032B00070676401C122C16A6401C1C2C06A645382B164C012B09074
:2004BC0032B00070676472C281C06A6422C111C16A6402C011C16A6462C031C36A6462C3D2
:2004DC0011C16A6402C311C16A6453825339B164E2C36F6411221C4142C281C86A6452C24E
:2004FC0011C16A6472C2E1CE6A6402C281C86A6402C201C86A64B0C030690070676442C211
:20051C0001C86A6452C211C06A6472C2E1C06A6402C001C16A6462C001C36A6422C101C127
:20053C006A6462C301C16A6402C301C16A645382B16400708180111E5C4150B054B000712B
:20055C00408040225D4154A064B0F1800122514500700022514160B04E61000000000000AA
:20057C000000000000000000067305720B720E7250B00071818060B050A09280F0EFF1928C
:20059C0002936A6741228C458080F1C11004301601110114016CB561B661B761B861B9618D
:2005BC00BA61BB61BD61BF61C161C36126632D63F0C002043231412A121432160111211412
:2005DC00016CDA61C561E061C761CB61B561B561B561F461C561FA61C761CB61B561B56104
:2005FC00B561F461C561FA61C761CB61B561B561B561E761C561ED61C761CB61B561B56121
:20061C00B561CF61CF61CF61CF61CF61CF61C064CF61F964CF610665CF613265CF6174676A
:20063C00CF611166CF61C0644E65F964CF61066511663265CF618280E0DFF2926A67B0B044
:20065C00D661B1B00673057230B06C61D0CF6A6784C203C0C0C37C64207851788278E378B7
:20067C001579B6780062C0CF6A6784C203C0C0C37C64307861789278F3781579C678006250
:20069C00B0CF6A6784C203C0C0C37C6440787178A27803791579D678109221923292439281
:2006BC005492659256911FC0FF914039F00601101031101400927067CF61E3B054A0F08076
:2006DC0050221A4640800022BE461262E3A000C86091598150B0918041228E46A0CF6A6734
:2006FC0012828231823942398B641282F2062F101F312F141682D622334640C1346200C5AF
:20071C0020140D6F6D39DE10F4C34E0482C082312E006D39A2C082312D001A828A39FA0606
:20073C002082803180390BC00B18BC10AC18038239149B141082F0060110103110145181C2
:20075C0010140C14C622C94631D0C1266462021011C0013010C00118021882312100C126C2
:20077C00919103B013B063B053B041800122BE46B481C491D581B51C774E95186591F0803E
:20079C00102269428C623D9110B13E9110B1E08000228146E6228142E0B0951865910F926B
:2007BC005981F914F0805022114210228C464D6390CF6A6763B052A03082F2C0200402107E
:2007DC0011C0013010C00118021882312100C1269191919113B003B063B053B064B054B055
:2007FC00007141800122BE4663B064B0F08050221142B181C191D1819118619131B0A462D0
:20081C002967E0A059810582591480C0007163B0BA6A6962E3A0018262818231823D80EF61
:20083C00F19202936A6703A0007037824739873930828039F006021011C0013010C0011849
:20085C00021882312100C126819102B012B030824039F006021011C0013010C001180218E9
:20087C0082312100C126919103B013B063B053B0007153A062B052B041800122BE46A4816E
:20089C00C491D581B51CFE4E95186591F0801022F0428C62B481C491D4814518751C084FEB
:2008BC00F0801022F0428C623D9110B13E9110B1E08000221247E6221243E0B065910F92DC
:2008DC005981F914F0805022114210228C4630632967E0A0598105825914F0C0007162B038
:2008FC00226BF062A2808B64CF6112824239F2068B6050B00071CF6170CF6A674082418096
:20091C000122BE46A481C491D58195186591F18011228C46336B41800122BE46A481C491AB
:20093C00D581C51C1C4B95186591F08010223F438C6260CF6A67408241800122BE46B48169
:20095C00C491D58195186591F18011228C46506B41800122BE46B481C491D581C51CB44A55
:20097C0095186591F08010225C438C62E092D08200226B47C0B20070A080F022874330B033
:20099C0002C1623101C0A080001E8043F022814380F86031603981632010101A136F236E5A
:2009BC0011161216826B00702DE9F84FDFF81885DFF8181588F80000002008600921DFF891
:2009DC00100501700D2141804FF408718180DFF80405DFF8041501608A7EDFF80005027042
:2009FC00FF2ACB7E437008BFFF2B0D7F85704E7FC6708F7F0771C97F417115D1FF2D08BFE8
:200A1C00FF2E11D1FF2F08BFFF290DD1DFF8D0140A7802704A7842708A788270CA78C27025
:200A3C000A79027149794171DFF8B81402780A70FF2542784A7082788A70C278CA7002791E
:200A5C000A714079DFF8A02448710021DFF89C04057045708570C570057145711180DFF872
:200A7C009004DFF89014466BDFF88C247078087031781170B078DFF884140870716908791F
:200A9C00DFF87C14421E0A70F078DFF878140870B069DFF87414086008B912F05DFEF0695F
:200ABC00DFF86844206008B912F056FE2068DFF8607401688847216851F8042F384690473B
:200ADC00DFF85004DFF850143862DFF850047862306A086008B912F03FFE706ADFF84014EE
:200AFC00086008B912F038FEDFF838B4DFF838649BF8040013F084F9306008B900F045B9ED
:200B1C009BF80500DFF8247413F07AF9386008B9306837E19BF80600DFF8144413F070F9FF
:200B3C00206020B9306813F073F938682AE19BF80700DFF8009413F063F9C9F8000038B978
:200B5C00306813F065F9386813F062F9206819E1DFF8A4130A789BF80000DFF8DCA3921C59
:200B7C00504380B213F04CF9CAF8080058B9306813F04EF9386813F04BF9206813F048F9DC
:200B9C00D9F80000FEE0DC480078002800F00281BBF80210DFF8A4B3484380B213F030F977
:200BBC00CBF8040078B9306813F032F9386813F02FF9206813F02CF9D9F8000013F028F9EB
:200BDC00DAF80800DEE0CC48007813F019F9DC49086080B9306813F01BF9386813F018F997
:200BFC00D9F8000013F014F9DAF8080013F010F9DBF80400C6E0C04800781C21484313F04A
:200C1C00FFF8D04A1060B0B9306813F001F9386813F0FEF8206813F0FBF8D9F8000013F04E
:200C3C00F7F8DAF8080013F0F3F8DBF8040013F0EFF8C348A5E0B0480078400113F0E0F804
:200C5C00C1490860D8B9306813F0E2F8386813F0DFF8206813F0DCF8D9F8000013F0D8F883
:200C7C00DAF8080013F0D4F8DBF8040013F0D0F8B348006813F0CCF8B249086882E09E4830
:200C9C000078000113F0BCF8B0490860F0B9306813F0BEF8386813F0BBF8206813F0B8F81C
:200CBC00D9F8000013F0B4F8DAF8080013F0B0F8DBF8040013F0ACF8A148006813F0A8F8A1
:200CDC00A049086813F0A4F89F485AE08A480078000113F095F89E49086018BB306813F047
:200CFC0097F8386813F094F8206813F091F8D9F8000013F08DF8DAF8080013F089F8DBF87C
:200D1C00040013F085F88E48006813F081F88D49086813F07DF88C48006813F079F88B4937
:200D3C0008682FE0744800783021484313F068F8884A106070BB306813F06AF8386813F098
:200D5C0067F8206813F064F8D9F8000013F060F8DAF8080013F05CF8DBF8040013F058F8AA
:200D7C007748006813F054F87649086813F050F87548006813F04CF87449086813F048F88B
:200D9C007348006813F044F8002012F0E5FC4FF4804192E031680120087130680573316880
:200DBC004D73306885733168CD7330680574002031684D743268D072A0223168487103214F
:200DDC003068C28001720720316848720020326890722821306841820121C17600203168BE
:200DFC004877326882F85E00012031680877326882F85D00396808713868057339684D7369
:200E1C00386885733968CD7338680574002039684D743A68D072396848713A6890724FF47D
:200E3C00207039680022C88008818A7401213A68D17421680D732268557321688D732268FD
:200E5C00D57321680D740021226855742368D9720121226811710021236859712168C88065
:200E7C000881002088722168887405202268D0743948016888472A490A6805461068804713
:200E9C0027490A6852F8043F0020984718481D4BC16818780A88314902430A802846304985
:200EBC000A6890470C212F4800F05EF80F4800F05FF800F061F84FF4005198F80000BDE833
:200EDC00F44F0AF043BA00BF6E4F0020044F0020604E0020084F0020B63F00502C4E002089
:200EFC00E81200503C4E00200C4F0020344E0020B45701006D4F00207B4F00206B4F002019
:200F1C00724F00206C4F0020F04E0020F44E00207C4B00201D3E0100F84E00202D3E010024
:200F3C00FC4E0020DC220020104F0020882C0020184F00208C2C00205C2C0020684E0020DD
:200F5C00004F0020802C0020842C0020884E00208C4E0020904E0020941C0020544F0020E9
:200F7C00981C0020F84D0020DFF800F0E5710110DFF800F01D6E0110DFF800F04D710110F5
:200F9C00B0B5174C241D20680004070C23D01248006800688047114991F90720824205DDF8
:200FBC0010F1800FB8BF6FF07F00C8718D88BD4210D80A68D4F8D40F801A801C1F2888BF16
:200FDC001F207F1B4008C7404FF6FF70EF19B84238BF071C8F80B0BDEC010010782C0020C0
:040FFC003010094068
:20100000B41200001810000015AB0110FDB301106DC00110FDAE011099B5011000000000F7
:08102000000000002D0000009B
:20102800B01200003C100000B1C00110A9BF011067C0011069B80110000000000000000035
:041048003000000074
:20104C00B012000060100000BDC00110CDB30110D9BD01106DB3011000000000000000005B
:04106C00310000004F
:2010700000000000FC22002004000000000000000000000020000000E8C90110300000000C
:2010900028100000042300200400000000000000000000000C000000D8CA011018000000E6
:2010B0004C1000000C23002004000000000000000000000024000000F0CA0110180000006A
:2010D00000000000142300200400000000000000000000001000000018CA01102C00000076
:2010F0000010000024230020040000000000000000000000200000006CCA011024000000DA
:20111000FFFFFFFF2C2300200400000000000000000000002800000090CA01102400000099
:20113000FFFFFFFF342300200400000000000000000000001400000008CB01101800000018
:20115000FFFFFFFF3C23002004000000000000000000000058000000B4C9011034000000E6
:20117000FFFFFFFF442300200400000000000000000000001000000020CB011018000000B4
:20119000FFFFFFFF4C2300200400000000000000000000001C000000B4CA011024000000E1
:2011B000FFFFFFFF542300200400000000000000000000003800000044CA01102800000009
:2011D000FFFFFFFF5C2300200400000000000000000000005400000078C901103C0000007E
:0811F000010000008857010016
:0411F80001000000F2
:0411FC0000000E00E1
:0412000000000F00DB
:0412040032000000B4
:0412080001000000E1
:04120C00F0210020AD
:0412100000020000D8
:0412140000000000D6
:0412180001C90110F7
:04121C0000000000CE
:0412200000000000CA
:0412240008000000BE
:0412280000002200A0
:04122C00642000201A
:0412300000000000BA
:0412340000000000B6
:0412380008000000AA
:04123C00B0210020BD
:0412400000000000AA
:0412440000000000A6
:04124800080000009A
:04124C00000000009E
:04125000000000009A
:041254000000000096
:041258000000000092
:04125C00010000008D
:041260000021002049
:041264000600000080
:041268000100000081
:04126C00481F0020F7
:04127000000000007A
:041274000000000076
:041278000002000070
:04127C00000000006E
:02128000290043
:02128200010069
:02128400250043
:02128600300036
:02128800310033
:02128A002D0035
:02128C0001005F
:01128E00015E
:081290000300000004570100F7
:0812980000000000000000004E
:0412A0000000010049
:0412A4000000030043
:0412A80013C401105A
:0412AC00E93B010019
:0412B000B812000070
:0412B400B81200006C
:0412B8000000000032
:0412BC008C22002060
:0412C0003B3D0100B1
:0412C4002000000006
:0412C8007456010057
:0412CC0020550100A8
:0412D00029C101101F
:0412D400230A0100E8
:0412D800F30C010012
:0412DC00A1C7011095
:0412E000A3C701108F
:0412E4000000000006
:0412E8006F5501003D
:0412EC002C5301007E
:0412F0004453010062
:0412F400145301008E
:0212F8000200F2
:0212FA000900E9
:0212FC000100EF
:0212FE000000EE
:0113000001EB
:04130400C93C0100DF
:04130800291F010098
:04130C001931010092
:04131000A522010011
:041314000B230100A6
:04131800650C01005F
:04131C00F5E30000F5
:04132000033F010086
:0413240015F90000B7
:0413280015C70110D4
:04132C0025C70110C0
:201330002DE9F04F0C4685B0834614F8010BDFF870278DF8000018280BF1FD010BF1E708C8
:201350000BF166090BF20D1A0BF5B0760BF59C750BF5C67700F29183DFE810F019006F0025
:201370005F0191008F038F03FA00690311012301FE000D0133018F038F037C018F036101D7
:2013900055017503D602D60227028F03740214F8010B8BF88600022221460BF1880013F05B
:2013B00059FA014602220BF18A0013F053FA014602220BF18C0013F04DFA014602220BF1E5
:2013D0008E0013F047FA04469BF8860040008BF886000BF1860102224888400048800BF104
:2013F00086008188490081800BF1860108890001088121460BF1840013F02CFAB9F81E1077
:20141000BBF80800091A89B247F6FF7291422ADA0BF18601C8888A88401C520050430A8965
:20143000904203D33B208AF80B0039E2012089F81C000020ABF81E001EE0052221460BF1CA
:20145000610013F007FA014602220BF1920013F001FA0BF1860047F6FF728189BBF808002B
:20147000091A89B2914280F218820BF18600012181720021ABF81E10012028700CE398F85E
:201490001600C1070AD41A2198F80D0088F80E10012808BF0D213FD00D21CDE1002089F860
:2014B000000089F806000822012088F8110021460BF1B00013F0CEF9014602220BF1B800BD
:2014D00013F0C8F90BF1A80601460822304613F0C1F904460821304613F0B8F90BF19C06AF
:2014F00004222146304613F0B5F90421304613F0ADF90BF1A00013F0A5F90BF1980013F010
:201510009DF9DFF8A005018841F08001018098F80D00012806D10421584605B0BDE8F04FF4
:2015300010F0AABB99F81000012804BF99F811100F290BD158460EF01DFB042158460DF06F
:20155000F5FB0F2089F81A00FD2175E1042173E1012088F80F009FE2002089F8000089F881
:20157000060088F800000B21012088F80D00002088F8010060E1012088F810008CE20020DA
:2015900002F10906235C365C33432354561C365C33400B54401C0828F2DB58460DF060FE13
:2015B00070E2002002F10905235C2D5C2B432354551C2D5C2B400B54401C0828F2DB02207C
:2015D00048E299F8060008B93D2167E19AF800000128D3D014F8011B8AF80310022221462D
:2015F0000BF5897013F036F9014602220BF58A7013F030F901208AF800009AF802000028C0
:201610001BD10C2118E198F81600C10601D41221D1E058460EF06EFF34E221783EE1207813
:2016300030706078707099F8100001280CD199F811100F2902D0162902D02DE268732BE2D7
:20165000387B40F0010016E205B0BDE8F04F002012F088B898F81600810707D410F0110F7A
:2016700008BF0F2000F009821A2252E02078617800EB01202882E178A07800EB01206882ED
:201690006179207900EB0120A882E179A07900EB0120E882207A2876A17A607A00EB01206F
:2016B0006883217BE07A00EB0120A883A17B607B00EB0120E883217CE07B00EB01202884E4
:2016D000A17C607C00EB01206884217DE07C00EB0120A884A17D607D00EB0120E8840BF564
:2016F000AA700490688B0390287E0290BBF808000190E88A0090AB8A6A8A298A58460CF0AA
:20171000C3FD68B198F81600410701D40F2152E01E22584605B0BDE8F04F0F2110F0C8BA92
:20173000688A0BF186018880A88AC880E88A088102208BF8860000204880BBF83400C01DD0
:20175000A9F81E008888BBF83210884201BF0BF18600C188BBF83400814206D10BF186005D
:201770000189BBF8360081421DD099F81000012804BF99F811100F2907D099F8150020B171
:201790000F2189F81A10FE2156E0FC2158460DF0CDFAE88A0090AB8A6A8A298A9BF8060013
:2017B00013F048F878E1102146E098F8170010F0090F03D116218AF80C1060E1607821780C
:2017D00000F00700014021702078797B0140F97211D0481E01420CD0490704D5B87B10B175
:2017F0000421F97205E0F97A022001421AD14008FBD1F87A08B9B97AF972F87A042803D14A
:2018100058460EF016FFB083F87A13F00FF83871B28BB97B01230FF031FB0146308B884223
:2018300002D207E0F872E4E7B28BB97B387901230FF024FB78801721584605B0BDE8F04FDD
:201850000DF074BA60782178814207D100F007000840207033D0421E10420FD01E22182165
:20187000584610F025FA9BF80610002300221E200AF054FC387B40F04000FCE0F87247F67F
:20189000FF72A078E17800EB012038813989BBF80800091A89B2914206DB28218AF80B101C
:2018B00001208AF80A00F7E00120B871F87A042803D158460EF0BDFEB083F87A0BE099F860
:2018D0001100162806D1BA7A9BF80610134600200AF024FCB87A3871B28BB97B3879012341
:2018F0000FF0CCFA0146308B884205D3B28BB97B387901230FF0C2FA78800121387B40F071
:20191000400038732970C7E02078617800EB01207082E178A07800EB0120F08261792079BB
:2019300000EB01203082E179A07900EB0120B082B18AF089884288BF0846B97A042905D1DF
:2019500040F691229042B8BF4FF42960F28BF0839042B87A14BF01240024042803D15846CB
:201970000EF067FE04E0B089F18A884288BF0846B28BB083904214BF012100210C4330899D
:20199000718A328B884288BF0846904214BF012100210C433083B28BB97B387901230FF0F1
:2019B0006DFA0146308B884205D3B28BB97B387901230FF063FA78807189308A728B8142FE
:2019D00088BF0146718391429BF8063014BF0120002004438A4234490A6802EB4311728B85
:2019F0008041121DC00F0A7610B1584610F09CFB9DF80000142810D144B1F08B0090738BF2
:201A1000B28B318B9BF8060012F00CFF584605B0BDE8F04F15210BF0A3BE1CB1387840F0A1
:201A300008003870397841F02001397034E020780E280ED00F2809D0122804D014280CD044
:201A5000162812D028E00020287225E00120287322E0032088F815001EE0387840F0020039
:201A7000387040F01000387016E0387B40F00200387340F0100038730EE08AF80C0058463B
:201A90000EF0ACF940B905B0BDE8F04F074800784FF4804109F060BC05B0BDE8F08F00BF89
:201AB000282C0020524F0020842C00206E4F00202DE9F04FD04C04F118012046ADF1440D60
:201AD0000EF000FCD54D00264FF6FF700123667032462082294604F1A4000FF02BF802239D
:201AF000324604F1C80029460FF024F80423324604F1EC0029460FF01DF84FF0040A04F1D2
:201B1000440810224046314684F802A00CF0E5F904F154091022484631460CF0DEF904F1F1
:201B30001C073E6004F10A052E70E671267207206072CDF80080DFF81883022210200346F6
:201B5000414606F0DFFB102003224146CDF80090034606F0D7FB102052464146009713469D
:201B700006F0D0FB4FF0080B4FF0030905F12A000C9005F179000D9005F11E000E9005F187
:201B90005A000F902435109517E06078A28FE18FB4F84050B4F8423006280ED1ADF81A2088
:201BB000ADF81C10ADF81E50C048ADF8203012F0EEFA012006A90BF04BFDA069BA4A3146B3
:201BD0004FF0FF3312F02AFE071CF6D002960DF122000DF12E0102AA10F076FB002840F017
:201BF000CB81BDF822102078102940F0C1819DF82E10884240F0BC81029D29884FF6FF724F
:201C10008A4200F0AA812B78A23B00F08D812E3B40F0AE81A978B046002900F04981891EE6
:201C300000F01881491E012940F2E880891E00F0A880491E7BD0491E5CD0083900F06481C6
:201C5000891E40F0678194F83A30A888052BADF80C0047D001208DF81600944812F097FA6C
:201C700094F83A0001281ED004281CD003280DD002280BD00298C188ADF80E100189ADF87D
:201C900010104189ADF81210818927E0A08FE58FADF80E00B4F84030ADF81050B4F84210FD
:201CB000ADF812301AE0A08FE9888842D8BF081CADF80E002989E08F8842D8BF081CADF810
:201CD00010006989B4F840008842D8BF081CADF81200A989B4F84200884200DC0846ADF811
:201CF000140001E08DF81660AF49102003AA06F009FB0FE1AD4812F04AFA6B78002B40F0AC
:201D10000981E88860822889A0826889E082674812F044F8002840F0FD80656A002D00F003
:201D3000F9802B68608AA18AE28A9847F2E0AA88B549102006F0E6FA0C98414606220CF0D0
:201D5000CCF86682A682E682A8792073574812F01EFA964812F01BFA4FF001084FF6FF70D9
:201D70002379208253B9A879082812BF84F801A005206070404612F041F8CBE084F801905C
:201D9000C8E06B787BBB291D0C980A680260898881800623637068892082E8896082288A0E
:201DB000A082688AE082E878E07294F83A00012818BF02280BD19A4910201F2206F0A2FA39
:201DD0004FF47A7180B2414338480FF0ADFE688900909249CDF804A0EA7810202D1D2B46D3
:201DF00006F090FA99E06878312840F08A80E67084F801A091E0C046B00D00206B78002B92
:201E10007FD1A878E3896178032815D0E078257933B9012814BF2671E67008E00D3E0100EE
:201E3000054304D07F4819460FF07EFE61780729DED10620607070E0062907D0E578002D47
:201E500008BF84F8019068D00220F3E70720F1E75F3501006B78002B53D1EB78617893B91C
:201E700002291DD007291BD0062902D12079012816D1032914D06B4811F090FF80B90120C7
:201E900011F0BCFF0CE010F017FD0246A079624900900D9843460190102006F033FA6870F0
:201EB0006D78002D2DD135E007000080780E00206B7833BB5C48574900900222102003467E
:201ED00006F020FA59484A46524900901020034606F018FAED1C0E9829680160A98801230F
:201EF00081802078637010F0E7FC024601230F9D6079494900901020019506F003FAC0B245
:201F100058B184F801B008E0AA8841491020052306F0F8F9B8F1010F2AD1256A45B32D68C8
:201F300035B36078A84723E06879132820D12889012808D1607B022805D11C4812F027F9BE
:201F500010F00CFA14E036491020052206F0DAF981B216480FF0E8FD0AE06888C00B07D3E4
:201F7000334852462B4900901346102006F0CAF9029808B112F0BAF82579E078790830D377
:201F900055EA00032DD0204600788DB9E179257A8DF82410109A8DF8255013680DF12605D4
:201FB0002B609288AA8005E0051601109C0E00208DF82490617A8DF82C10A17A8DF82D10B5
:201FD00010F07AFC1149024609AB102006F09AF938B1256A84F801B01DB12D680DB1584608
:201FF000A847B80803D3134930460BF031FBF808FFF4E3AD607B401E3FF4C7AD401E7FF41F
:20201000DCAD10F0ABF9D8E545FE000059440110C117011055A1000009450110599F00009F
:20203000F5840110540E0020F40D0020040E0020CC0D0020EA0D00202DE9F84F012010F0A3
:20205000C1F801280ED1DFF8F87439680020487138680EF035FF05F011F8040003D18120A9
:2020700012F0D8FB68E201206071DFF8D854DFF8D8044178491C41703968A07981F8A000E7
:2020900040200BF0B3FD2060287901281CBF002011F068FBE8682168DFF8B05400F5B060C3
:2020B000C860286801680A79032A1CBF002011F059FB2868DFF898840168DFF898B401F1EE
:2020D0000809062299F80000C0F3801084F82E0109F1020104F5947011F0B0FC042209F171
:2020F0000E0104F1240011F0A9FCD8F80000A67900F10C03042209F10E0103EB461011F09F
:202110009DFCD8F80000A37900EB4310032209F11201103011F092FC04F12C0699F815001E
:20213000B070022209F1160104F1300011F086FC022209F1180104F1320011F07FFC022294
:2021500009F11A0104F1340011F078FC30896084022209F11C0104F1360011F06FFCB07825
:20217000F18872894000B0704900B08840001201B080F180728189B2638C5B1C48004343A4
:2021900092B2934200D231B99BF80000802109F0E3F83B21FEE004F12E01204611F0CCF8C9
:2021B0000520A081204611F089FA052209F11E0104F1610011F042FC99F82300400930706D
:2021D00012F024FB60823A68E34F518A401A04F59771888104F1610199F82300DFF87C93E8
:2021F00000F01F00F07320460EF098FF29680A68002010711C25A1793868694341F62102BD
:2022100042520022A17969430144001D4A80A1796943425099F80200410609D5D04908884D
:2022300041F20A4290420CBFCE48CF48C4F89C012046D4F89C1188473968A37901F10E027F
:202250006B43D054A1793868694308440021C173C648017881B1B08870B900217173012055
:20227000208160812046D4F89C1188473968A37901F10E026B43D0543868A27900F10E01D2
:202290006A43885C707394F8960108B911F06AFAA1793868DFF8D8A26943084494F896113B
:2022B0004A1E02740023A17938686943084400214174A279396801F112006A4301F1140C06
:2022D0008352A279D8F8000000EB42136A434CF80230A2796A431144A64A8A61DAF81410DD
:2022F0000B78DA074CBF4FF0100C4FF0000C99074CBF202100215A074CBF402200221B079A
:2023100000F10803A07941EA0C014CBF4FF0800E4FF0000E0A4340014EEA020242F00F022E
:202330001A54D8F80000A17900EB41100B224272D8F80010A07901EB401104228A728E4AE8
:202350001378D8F80000A179012B00EB411002D10121C17203E0DAF828104A78C272D8F8B5
:202370000000A17900EB41101F220276D8F80010A07901EB401100224A76A07909F0D8FB41
:20239000A279D8F8001052018850A2795301C85820B90721204610F00DFFCDE07748016830
:2023B00001EB021012F02EFA744AA0791368D8F8001003EB00130A1D40011350081DA279A7
:2023D00052018058F063A07940010958716404219BF8000008F0C0FF644BB2881978901C4A
:2023F00011B10AB9F088801C618A94F806B041434FF4C87205FB0BFBB1FBF2F1491CA0610B
:20241000616140F6C41C23683A68CDF800B002F1080ED3F80CB00CFB00B0411A0098A1F562
:20243000A8614EF8001002F10800A17969434058986002F10C01A07968430C32095C01F084
:20245000EF011154A0793968684301F10C020C31125C02F07F020A54A0793968684301F1DF
:202470000C020C31125C02F0F00242F002020A54A179386869430844417B01F0F00141F09A
:20249000010141733868A27900F108016A438858216808616369D8F80000A17996F802E01C
:2024B0005B0000F1140249010CFB0E3303F5F6635350A17900EB4110C27C02F0F00242F07A
:2024D0000402C274D8F80010A079DAF8303001EB4012F0880CFB00F61868301AA0F51670ED
:2024F000D061A27901EB4210C17E01F0F00141F00401C176A17938684D43216840194860E0
:2025100099F80100810614D504F59771488F1B2804BF888F1B2808D1C88FB0F5A47F04BFB6
:20253000B4F86E11B1F5A47F03D0142120460CF0FDFB134907200870BDE8F14F01F0A0BD07
:20255000104F0020B44D0020684E0020F44B0020842C00206E4F0020802C0020282C0020A9
:20257000504F002071F90000E1010100784E0020B45701005C4D0020734F00208C4E0020A8
:202590006F4F00202DE9F843040014D1002011F0E9F810E020460DF021FC012808D065E05B
:2025B0008A0740F1548101F0FD0101700020B07120460DF0DFFA04F16605687D002855D005
:2025D000697CDFF8A494022904F1EC0704F59E7804F5B07604F5C67035D0042949D005290E
:2025F0005CD0062900F08A800729D3D0092900F0EC800B2900F0C1800C2900F008810D29CC
:2026100000F0D0800E2900F0EA800F2900F02881102900F04281112900F05C81122900F0EA
:202630000E81142900F08781162900F05A81172900F07581FC2919D0FD2900F09581FE2935
:2026500000F09B81A2E7297C012909D199F80300002815D01621204610F0ACFD012006E03E
:2026700020460CF0AEFF2874E88A28830020BDE8F283297C012940F0948199F80200002879
:2026900000F0E580FC2120460FF0F6FAA07904F1B80204F1B00112F0B1F88CE7297C012908
:2026B0000FD199F8020020B184F89410002038607860B87A012868D1062120460FF0DCFA20
:2026D00079E704F1E7063078012809D120460FF063F90128CAD10020B87201202874C5E7C5
:2026F00070780028C2D004F1C70204F1A00104F1D70012F07FF8012030705CE7297C0129BC
:2027100040F0538199F8020000283ED0618CE18320460DF02FFA0120287020460EF0BCFC2A
:202730000120A871397A787C012900F010000FD148B1002088F80500D8F8001098F806008A
:2027500049080CF0F7FBA079002112F04FF80EE040B1D8F80020C54804F5A17352082146FD
:2027700011F05EFCA0790122002112F03BF8002038723873F872B8721DE7287C012805D1AC
:20279000F97A012908BFFC2197D060E020460CF001FB0128A3D10020F87284F8940001204B
:2027B000287408E7297C012940F0038199F80200002809D0002184F8941001202870204607
:2027D0000EF06AFC0120A87188E0297C012940F0F48099F80200D0B3618CE183E8E6287C97
:2027F000012840F0EE80387C022804F1FD0204D1A179002011F0F2FFDAE6032840F0EA80AA
:20281000A1791A2011F0EAFF00203874D0E6287C012804F20D1140F0E8800B78012B04F5C7
:20283000897240F0E8804878012807D15388009300201388CA78A17911F0CCFFB8E6297CA0
:20285000012940F0E78099F802000028F6D1298B481E288380B200287FF408AF2221FAE6B9
:20287000287C012840F0DA8098F80910012902D130780F281BE098F80800012826D1002198
:2028900088F80810288D000900901A20AA8CEB8CA179520811F09AFF8AE6287C012840F0E0
:2028B000C18098F80910012910D1307810281CBF002010F057FF002088F80900288D00097B
:2028D0000090AA8CEB8CA1797078E2E7287F0028E2D1BCE7297C012940F0A88099F8030000
:2028F000F5E7297C012940F0A580017B4A061DD4CA0709D501F0FE0101730023A1797078D3
:20291000002209F00BFC53E68A0740F1988001F0FD0101730023A17900221A20F1E7297CF9
:20293000012940F09980027B510690D5017B01F0BF0101733CE6297C012940F08F80017891
:202950008A067FF52DAE01F0DF010A0701700AD501F0F7010170F08B0090738BB28B318BFA
:20297000A07911F05FFF21E6A97E20460FF084F915E7002010F0F6FE78E6A87E0F28F8D12B
:20299000FC2120460FF078F9B8F812000090B8F81030B8F80E20B8F80C10A07911F04AFFE5
:2029B00064E620460AF01EF95DE620460DF0EAFA59E620460EF014FD55E620460CF050FC1F
:2029D00051E620460BF0A2FF2874E88A2883012038744BE6288B401E288380B20028F8D118
:2029F000A179222011F0FAFE38E70120887020460BF010FC37E6288B401E288380B200289A
:202A1000E7D15088009022201388CA78A17911F0E1FE23E720460DF045FD24E6204609F055
:202A3000CDFB20E6204609F019FC1CE620460CF069FD18E61621204609F080F913E6288BC1
:202A5000401E288380B20028C3D1A17900230022222009F063FB01E71721ECE714212046E9
:202A70000AF07EFEFFE500BF5C4D0020B1E100002DE9F84FDFF82844A178FF2904BF00200E
:202A900010F070FEA07811F0DBF8044604F1680604F5C9753168086804F1900710B1002270
:202AB000E28310E0B17B002904BFB07E00280AD13978002904BF2878002804D1217F012964
:202AD00004BF608CE0832189E08B4118491C6181204610F051FC01281EBFDFF8C80301784B
:202AF000012904D120890022401CE2836081B07E01280CD1B28B6189208911F063FE30B113
:202B100021896289481C82422AD0B28B1FE0387801280CD17A886189208911F053FE30B134
:202B300021896289481C82421AD07A880FE02878012815D16A886189208911F043FE00284F
:202B50001FBF2189481C6289824209D06A88824206D0501E608180B211F030FE401EE083F4
:202B70002878012801BF69882089401C814207D16A792A71002028701346A17909F0CEFAC1
:202B900004F59A71087920B120890021401CE183608104F12E07B07E012801BFB08B21893E
:202BB000491C884238D1608104F18601204610F0C3FBB08C6189608400202077E083E089BF
:202BD0004118A181B08B218911F0F8FD8046B988308C728C01FB0808F08C8A4204BF3989F5
:202BF000884202BFB18CFB88994207D000090090B38CA1795208002011F0E8FDB07F38709F
:202C1000708CB880B08CF880F08C3881204610F055FD0220B07601E0B7F80480E28BDFF82F
:202C30008892501C00FB08F140F6C41808FB01F000902368D3F80CC06044DFF870C2D8606D
:202C5000DCF800E09A489EF800A003884FEA9A1ABAF1030F13D199F80FC05FEACC7E48BF85
:202C700000230CD45B1C9BB2012B11BFB4F812C004F59A7CBCF806C00CF2DC5C01E0B4F8B7
:202C900012C00CFB01FC4FF4C87EBCFBFEFCDFF824A20CF1010CC4F814C0038084F820209E
:202CB0004FF01C0BA379A1610BFB03F3DAF80010226801F1080001F1080CC058D368106154
:202CD000A0790BFB00FE60691B1A4CF80E3001F10800A3790BFB03F3C058906001F10C022D
:202CF000A0790BFB00F00C31125C02F0F00242F002020A54DAF80000A279811C0BFB02F20E
:202D100000208852287908B910F02CFDDAF80000A27900F1100128790BFB02F24008885470
:202D3000A079DAF800100BFB00F00844002141742879042814D1A079DAF800100BFB00F0CD
:202D500001F110022B7A125C103142EA83020A54A179DAF800000BFB01F1084420214174D6
:202D7000DAF80000A27900F112010BFB02F200238B525149A2790968520101F11403D4F80A
:202D900014C09B5801F1140E03EB4C034EF80230B27E022A0AD1A279520101F114033E782F
:202DB0009B5808FB063301F11406B35099F80F20D30749D5A2790BFB02F200F1080300F10B
:202DD00008069B58A3F5A863B3500830A27923680BFB02F282589A600098121A1A6101F15F
:202DF0001402A079400101F11403125802F5F6621A502879042807D1A079400101F1140220
:202E1000125802F5B0621A5001F11400A27952018058C4F8340101F11C03284AB888166B44
:202E3000A57908FB00F730686D01381AA0F516705851A37901EB431021490D78012D0EBF09
:202E50000122916A4A7819E02879A37904280CBF4FF44B604FF4E66001F114025B01D258D0
:202E7000101ABA8808FB02F2A2F516729042D2D30821204610F09EF901200FE0C272A179C5
:202E9000DAF800000F4A0BFB01F10844216848600720107020460EF042FB0020BDE8F28FF4
:202EB000684E0020784F00205C4D0020084F0020AC2C0020802C0020842C0020B457010065
:202ED000734F00206F4F00202DE9F04FB54C04F10C012046ADF11C0D0DF0F4F904F124009A
:202EF00010F0F9FF43F698220123AF49206104F148000DF01FFE00250DF1170040F20D4228
:202F100001238DF81750A9490090102005F0FAF9BF4910204FF0FF3205F0F4F9BD49102037
:202F30004FF0FF3205F0EEF91020BB4E0090BC4ABA48132331460190102005F0E3F9B94824
:202F50000078800011F009F90146B748416169B14FF6FF700FF018F8B34AB449102006234E
:202F7000009018320191314605F0CCF9B048AE498860B0494FF47A722B4604F190000DF0B2
:202F9000D9FD4FF00108AB46E068AB4A29464FF0FF3311F043FC5FEA000AF5D0584604906B
:202FB0000DF1160104AA05A80FF08EF9A8B9BDF8140010280DD120789DF81610884208D1D5
:202FD00004990878B02804D101F10800097911F0F1FB049808B111F089F85FEADA70C0F094
:202FF000098101E1206910F010FC071C00F0FC803888401E00F08180401E6ED0801E56D0C2
:20301000001F40F0EE807868BE780078002E3CD0012E2FD0022E3AD1002838D1B14884F80C
:2030300002804FF47A710EF07FFDA64960898968814610F08BFE400829D348461B214246A7
:203050002B4611F0B3FB039008B3A7490988ADF80A804A46ADF8081002AB057058469D494F
:203070000090102005F04EF988B102A81B2111F0A1FB0CE0E570207148B99A4884F80280D5
:203090004FF47A710EF050FD01E084F80380A0694168667105208847607A217A884218D023
:2030B000A678B6B1E068042111F07CFB11E07868A669C28836B1B66826B11146437A027A00
:2030D000B04706E05846824900902B46102005F019F978680EF072FF83E0B978607801297D
:2030F00005D002297DD17E4811F051F879E0062877D17B4811F049F873E07748BE780088BE
:20311000062E55D06078062866D1E36923B11B6813B1764811F03BF8704880F80080744844
:20313000A570FF23E5702946182263710AF0D5FE10F072F848B3E0690079800825D3634956
:20315000102006224FF4C86305F0DCF85F49102007224FF4C86305F0D5F85C491020424642
:203170002B4605F0CFF88DF819B040F20D3041460DF1190201F004FD8DF8198040F205303E
:2031900041460DF1190201F0FBFCA069416805208847207984F8078004281DD10DF06AF8DC
:2031B000257119E0080200206D3D0100F548000060818DF818B0A570414606AA40F205307D
:2031D00001F0DEFC10F062FB607A217A884203D0E068042111F0E6FAA069416866700420AB
:2031F000884738460EF0EAFE206911F0D7FA00283FF4F8AE60785FEA9A0122D3062820D160
:20321000E078D8B9304805700FF0A8F818E0C04641300100A93301000F280100E05601006D
:2032300000160020694F0020641E0020D456010077400100D92E0100070000C010F026FBFB
:2032500060785FEA5A010ED306280CD10EF088FC29494978814203DD274948700AF0A4F8E0
:203270001F4810F092FF5FEADA00FFF48DAEA07800283FF489AE1448007800283FF484AEEA
:20329000607A217A884215D01A4F1620491C024691FBF0F03E465043091A2172C80000EBC2
:2032B0000110C3199A785978305CDB1C0BF0B4F9607A217A88423FF467AEE068042111F00E
:2032D00071FA61E6DC1E00208F230020BD8401103D23010045000110C00D002031170020E2
:2032F0005002002098020020421F002074020020380200209C040020641E00202DE9F04F6A
:20331000D44C04F108012046ADF1340D0CF0DAFF04F1180010F0DFFD1F220A23CE49E060B7
:20333000102004F0EFFF002501208DF82D008146ADF81A5008208DF82E900DF12D02ADF860
:203350001C004946ADF81E003220ADF820004FF4FA70ADF8220040F2053001F011FC40F2CD
:20337000063002210DF11A0201F00AFC40F207300D2104F1300201F003FC4FF442701A21F5
:2033900004F1560201F0FCFB4FF4447049460DF12E0201F0F5FB40F21130022107AA01F01B
:2033B000EFFB40F2123002210DF11E0201F0E8FB40F21330022108AA01F0E2FB4FF445707A
:2033D00002210DF1220201F0DBFBB849102004F099FFB7491020042204F094FF04F13D0005
:2033F0002A461923B3490090102004F08BFFA8464FF0020BCDF814804FF0030A8DF83290B1
:2034100005A88DF82FB0AC4D8DF830804FF481628DF831A0042300902946102004F072FF26
:203430000DF12F004FF480624B4600902946102004F068FF0CA840F202424B460090294655
:20345000102004F05FFF0DF1310040F203424B4600902946102004F055FF0DF1320040F2CA
:2034700006424B4600902946102004F04BFF9348062101704078062801DA09F095FF90485D
:203490000078800010F069FE8E4D914E01460029E96043D04FF6FF700EF076FD1020009052
:2034B00089490191894905F16402152304F02AFFD5F8801058460DF053FE287928766F79A5
:2034D0006F76EB7985F825302A7A85F85420687AB5F82E3185F8550005F110073B80B5F8F7
:2034F0009E21A5F84C20A97985F82410B5F86E01A88305F59A736B614A46AA7685F8262094
:2035100085F856204046286205F158032865194650460DF025FE77610720B071226904F105
:20353000240004F11007B061F7612AB1694906F16C005B460DF0FEFA674D6F782878A7B9C1
:2035500020362E620FF0B8F905F15407CDF80080024605F14400019005F11C0602975F49C3
:203570000396AB78102004F0CDFE5D495D4A102004F0C8FE5C4D05F1180005F10C0109F0A6
:2035900043F85A49A86010F0EBFC594EA8684FF4E0213246521E0EF05FFDA8684FF4E021BD
:2035B00032460EF059FD5349C822434605F124000DF0C0FA5048686020780FF07DF94F494A
:2035D0000246102004F09EFE4D49102004F09AFE42F20305DFF82CA1A06841464FF0404251
:2035F0004FF0FF3311F01AF9071CF5D0CDF8108006A80BA904AA0EF067FE002837D1BDF8A1
:20361000180010282FD120789DF82C1088422AD104990E78913E02D01F3E1FD023E0487849
:203630000E2820D1888885421DD189680E78D6B9491C09A80A684968026009AE41603078ED
:2036500009AA514600F0FD003070102004F05AFE09E0C046680A0020BD84011001F108003A
:20367000097911F0A7F8049808B110F03FFDF80FB2D3E06811F092F80028ADD1E06810F03A
:20369000C4F8061CF5D0308801280AD1B078400807D3607828B1484606F04CFE404606F076
:2036B00049FE30460EF08AFCE3E7C046A9CD0000BD390100D9D50000F5480000641E0020EF
:2036D000694F002030170020EC5601000F280100080200206D3D0100B00D002067100100F6
:2036F0007D35010038570100941F0020591A01000E000580153C0100FD2E01005188011035
:20371000C5AB001095B400102DE9FF47C94C0F460646F80B80F06481B80880F05181E07AFA
:20373000DFF81C93B90F80F0CA80607A002840F0AA803809C0F0A980A07A20B10020A072DE
:2037500005200EF0A3FC00254FF00108BA49657004F174002A4684F8078010F0FAFC2079E7
:2037700001281AD16079C0B9DFF8D0A2DAF8000000284DD048460068006B804752466169E9
:203790001368401A010BA161E0694018B0EBC31F98BFE0613CD9E56101E084F80480DFF86D
:2037B000A492A9F115000068000A31D340F60900A08694F8410000F0F00040F0010084F8DF
:2037D0004100E58694F8400000F0F00084F84000A56310F0B8FC4B4603F6FF7211686FF036
:2037F000020C21F00201116004F13401C3F8FBCF954AC3F8EB1F11688908FCD3C3F8FBCF75
:20381000D3F8FF1F41F00201C3F8FF1F10F0C2FF8E4A10688E4920F00200656140F400703E
:203830001060032341F8043C41F230038B604046086050238B6008604FF4CA638B600860A1
:2038500041F80C0C022015600EF020FC112007F0E3FD307C10B90E2007F0DEFDE5712572EC
:20387000A07818B906F1380010F083FC794810F04DFB79490878F8B10D7004F1D000042146
:2038900010F07FFC18E0380914D2B80BC0F0C98004F1240010F069FC061C08D0706830B191
:2038B0007568F068B6F91C1000222023A84727F40057B6E00020607227F00807B1E020B112
:2038D00004200EF0E3FB0020E072B168088840F602054FF0000885420AD0B0F5C15F07D0FC
:2038F0000A8B4FF61F60104040F43470088306E00A8A4FF61F60104040F4347008826069F3
:20391000E0B1D9F85400016804208847B0B1D9F80000006B80476169814226BF401A401EF7
:20393000401A000BF060F068718A401840F6C411F06081422CBFB0F5FA7FF16094F84100D2
:2039500010F00F0F0BD1708CED1D854207D1B56930466FF4807142464FF00073A8473F491F
:2039700004F17400424610F0F4FB607958B10220ADF8000068460EF0E1FF84F80580BDF86C
:203990000800A4F8700001206070E078401CE07004F1200084F8068010F0E7FB002808BF26
:2039B00047F0020702D0192010F0D1FB7569414630464FF080630A46A84727F0005730E026
:2039D00004F12C05284610F0D0FB06F037FC284610F0CBFB27F0020708B147F0020720E002
:2039F00010F0B1FB014604F1280010F0BEFB0646B569A80810D27EB125EA0500B061084650
:203A100010F0C8FE706850B12A46F068B6F91C1075680023A84702E0084610F0BBFE27F461
:203A3000804727B104F1D000394610F0AAFB0090BDE8FF87F010002065300100742C0020BD
:203A50008C0100101500044010100440000004600C41044039A40000702C0020399B00009A
:203A7000BB482DE9F84F0025BA4CB849056094F8E200002800F06581012800F02F81B64E0C
:203A900002283CD0032840F05C8151F8250CD4F8B8100029A0F5C060C4F8D400B8BF49422A
:203AB0000028B8BF4042814226DA4FF08057D7F8A4014568B4F8BC0030214FF47F420823F3
:203AD00000903046A847D7F8A4014568B4F8C00004214FF4F802122300903046A847D7F8F9
:203AF000A401B4F8D070456820214FF440620A2330460097A847012584F8D8501CE151F819
:203B1000258C10F015FA2F4600B901273946934F38680028FCD0B146012609F10409D9F894
:203B30002CA03E6009B110F009FACAF30720C4F8BC0010F0FDF9AA4600B9B2463B68002B8D
:203B5000FCD0D9F800B0BAF1000F3E6001D010F0F5F9CBF38440C4F8C00010F0E9F9AA4621
:203B700000B9B2463B68002BFCD0D9F81C90BAF1000F3E6001D010F0E1F9C9F38120C4F851
:203B9000D000B8F5C061C4F8B81000F09C8094F8D80068B9C4F8D410D4F8C000C4F8C800B2
:203BB000D4F8BC70C4F8C470D4F8D030C4F8CC30D4F8D410D4F8BC30002954BF02206FF064
:203BD000010004F1C802176801EB41014018411000EB917107EBA1001060D4F8C810C4F86F
:203BF000C43000291CDD1E293CDDD4F8CC0030B93429B4BF15391E21C4F8C81025E02A2975
:203C1000BABFD4F8C8000B381E20C4F8C800D4F8C4003F28B4BF401C3F20C4F8C4001FE0DE
:203C3000D4F8CC00032812D011F10B0FC6BFD4F8C8000B30301CC4F8C800D4F8C4000028D7
:203C5000C4BF401E051CC4F8C450032508E011F1150FC6BFD4F8C8001530301CC4F8C8001E
:203C7000C4F8CC504FF08057D7F8A401B4F8C43030214FF47F424568374800930823A84704
:203C9000D7F8A40104214FF400321123456832480096A847B4F8C860D7F8A40104214FF476
:203CB000F802122345682C480096A847D7F8A40120214FF440620A23B4F8CC604568264865
:203CD0000096A84701E084F8D85040F2FF50404502D8801C40452FD2082030E051F8251C06
:203CF0001F4F4BF2F5204843060A3868C0F3814001280CD11B480068006880470DF08AFCC2
:203D100010F022F93111C010484306EBE03694F8E50030B91448006820F07F408019460800
:203D300001E084F8E5501148310C0660012741600F4D8760287808B90B2000E0052084F8CC
:203D5000E40004F017FABDE8F88FC0462D400C402C500C40781B002000A00C4000800C404C
:203D7000B43F0050EC010010102009403C600C40965601002DE9F04F0D46E80789B00BD5F5
:203D900010F01CF828B100218160AE48006800B1804785F0010052E1A80710D5002006905B
:203DB0000021049000230290009005910393019101223C2010F0EAFC85F002003FE11E24FD
:203DD0006807DFF88482A14F40F19B800020079082469F498878FF2804BF00200FF0C2FC1D
:203DF000386890F8A0000FF02BFF06463868C07A96F82EB1022818BF032806F5947906D124
:203E100008F10D0010F0BEFC08B908F1070A4946584610F0B3FC88B33868807A002818BF57
:203E3000012804D1414648460EF0A4FC04E04A46594640460BF018F9FF283DD0604383467C
:203E500008EB0B0406224946E01D0FF0F7FD18F80B0040F0020BE01D079006223868817EF6
:203E700001F0010186F82E1104F10109386800F1140106F594700FF0E1FD1DE049465846D7
:203E90000FF089FEC0B14A46594640460BF0ECF8FF2811D04443444404F10D0010F072FC00
:203EB00040B904F10D0010F06DFC002804BF607F012801D14BF0020B06F12C005B46017844
:203ED0000691418909090591728C079904920122C088029140080390CDF804A0CDF80090FE
:203EF0000020B17910F052FCD6F89C0159498842B0790CBF0021012109F09AFA85F0040006
:203F10009DE0280610D5002006900021049000230290009005910393019101223B2010F015
:203F300035FC85F080008AE0E8043CD508F1070108F10D0010F01EFC38684179012923D14B
:203F5000017A012918BF04291ED1C17A022918BF032919D1817E00F1140240460BF084F863
:203F7000FF2811D04443444404F10D0010F00AFC50B9E11D04F10D0010F0FCFB386806224A
:203F9000E11D14300FF05AFD334934484A6800784FF480510DF01CF810B18E2010F0E6FBE2
:203FB00085F480504BE0A80505D50FF0C1FF2C4901200860FEE7690504D507F0CCF985F4D8
:203FD00080603CE0680405D5812010F0CFFB85F4804034E0A80431D5224C206810B100204E
:203FF0000FF0C0FB4FF0FF3020600BF05BFA1E4C216851F8202F684690471C48C16A026BAD
:204010002468009101920021029100F134014A6809781368806A03938DF81010ADF812007C
:204030006B46D4F80080124A12491348C0471349086003F037FE85F4005000E0002009B0EC
:20405000BDE8F08F204F002098230020104F0020684E002071F90000784E00206E4F002040
:20407000FC002043044F0020F04E002028200020CC2B00201822002088490020EC4E0020DC
:204090002DE9F04FB64D686885B0019020B905B0BDE8F04F10F066BB0178DFF8C882B24EF5
:2040B000DFF8C892DFF8C8A201291CBF0229042946F2A81741F64C5B05D0402918BF80298E
:2040D00000F09A8043E10FF05DFF0028FAD00198007805F057FA0090446814B900200FF0D6
:2040F00041FB9AF80100002860D002F0D3FA0FF0A7FD02900168009801914F680AF03CFC19
:20411000022827D000990A78012ADBD1994B19680A7A19F80230337018B910F01FFB584426
:20413000A0602069C17E01F0EF01C1762069C17E41F08001C1762069C17E01F0F00141F003
:204150000201C1768C48B96841182069C16101210098A0E001980178802913D1082287484A
:2041700032700178012903D09AF80100012803DD78690121C17213E0D8F828107A690878E7
:20419000D0720DE07D49072030700A787869012A02D10123C37203E0D8F828104A78C272B8
:2041B0000298817901988AF80210CBE00098002888D00199009A0078914205D101281CBF12
:2041D00000200FF0CFFA15E0012840F0C080694801680A7A19F80200307010F0BFFA3918FE
:2041F000A06810F0B7FA18B910F0B8FA5844A0600120A8700098A5E09AF8010000287DD079
:2042100002F048FA0FF01CFD04462068029047689AF802000FF014FD03900FF0B9FE10F042
:20423000070F3DD0A87805F0ADF9019041680198009102990AF0A0FB022831D001990A78B5
:20425000012A2AD14B4B19680A7A19F80230337028B910F083FA83440098C0F808B00099E1
:204270000869C17E01F0EF01C17600980069C17E41F08001C17600980069C17E01F0F0011B
:2042900041F00201C176009AB9683B4841181069C16101210198A97054E000200FF062FAEE
:2042B0000398A04228D002980178802913D10822324832700178012903D09AF80100012861
:2042D00003DD78690121C17213E0D8F828107A690878D0720DE02949072030700A7878698F
:2042F000012A02D10123C37203E0D8F828104A78C272A0798AF80200029823E00FF048FEF7
:2043100010F0070F29D0A87805F03CF904462078D4F80480012820D116490A68107A19F87C
:204330000010317010F01AFA3918D8F8080010F011FA20B910F012FA5844C8F8080001200A
:20435000A870204605B0BDE8F04F06F041BD05B0BDE8F04F00200FF005BA05B0BDE8F08FF2
:204370005C2C0020B45701006F4F0020289A0110684E0020104F0020F0D8FFFF734F0020CB
:204390002DE9FE4F0F46994C0168E16241688068E0609748A16080479648E16A0160A168B9
:2043B000DFF870B24160E168DFF8648281609249002FA246C16069D03D68E8788DF808008E
:2043D00028798DF8090002A810F0C0F9A86808B18A490160E86808B189490160894C28788D
:2043F000207068786070A878BE68A0703178E1707368636072696261B168A160F168E1602D
:20441000316921612E697B68A6621868A0616869E062A8692063287F84F834002A6AA263D6
:20443000786886681EB900200FF09CF900E026627868C06818B900200FF094F900E0606284
:204450007868406818B900200FF08CF900E0E0612869A062F86881680E6806B96B4E6A49B1
:204470004FF001094E60C66881F801902EB900200FF078F9F868454601E045462E60006839
:204490005C46FE68A0617068E06106E000200FF069F94FF001095C46454628685E49466828
:2044B000621C04F114035020B04710B1286880688047DAF808008047594F00268346694614
:2044D0007E7056483E700422206130460DF05EFF0098B0F5801F0CD020B90EF021FB05F07B
:2044F00009FA08E00CF030FD0FF0DCFB0420788001E00EF015FB4B4FB0462868C7F8088050
:204510008069A660804778604748468080F8009014200FF07BFCFF211422A0620FF03DFE64
:20453000E01CFF2103220FF038FE14200FF06EFC3E4908600868142231460FF02EFE3046AB
:20455000FCF738FA48460DF071FE39480188FF2906D1022101807822001D31460FF01DFE37
:20457000032010F0EFF8042010F0E8F8052010F0E1F8062010F0DAF807200BF095F92D4EFC
:204590000820307006F1400010F0CCF80BF0CEFB363605200A2132460EF0D9FF38B140460B
:2045B000C0F10901401C06F8011B0A28F8DB2F68214909200DF10A0201AB7D680870102048
:2045D0004146A847A06AE2690A270A309DF80A1000F8011BDAF80C107F1EF7D1921E584631
:2045F000E261884702F0FEFFBDE8FE8F8C1C002041490010F84400206C480100FD290100DE
:204610005D39010028200020AC22002023FA00006423002060210020AD3001001D3A010002
:20463000DC1F0020502C0020AC0D0020A02C0020E81D0020E4180020BB2C00202DE9F04F51
:204650000546A64CA878216AADF11C0D801F00F03E81C01E00F02981401E78D0401E56D0AB
:20467000C01E4AD0401E40F03581207A617A00283FD1607800283BD0A88810F04FF8071C9C
:2046900000F02881A87A40080AD3787940B1E968890A05D2B91D01AA07F0FAFB0A2825D0F9
:2046B000207B022802D1A87A00091FD36078AE887979C0B1607CB0B90120607405F108028A
:2046D000304603F08DFC002840F00481206A002800F000814368002B00F0FC8000213046FF
:2046F0000A469847F6E00521304603E0032100E00521A88810F00EF8ECE0002900F0EA8077
:204710004B68002B00F0E6806A780221CBE00FF05DFB002800F0DE80276A0FB1386868B9C6
:20473000286900280CBFE069012069890FF0EEFF002800F0CF8068890121DBE72869009040
:204750003C6869892A7B6B7BE81CA047C2E068784FF00008002840F09580A8794008C0F0EE
:204770009180606A002840F08D8001A841460E220FF013FDA8880FF0D1FF061C00F0AA803F
:204790006869002859D081464146062209F111000FF06FF8C24620B3484606220FF069F80F
:2047B000D8B999F8100009F1110B474605907F1C5846FFB28BF800700EF0C8F90A280BDACC
:2047D000474B059A0101A1EB4001C9188879824202D1002FEBD100E01FB947464FF0010AD6
:2047F0006F61BAF1000F09D109F1110101A806220FF024F999F810008DF80A00BAF1010F61
:204810001BD06F69CFB1387C07F1110106228DF80A0001A80FF012F906F10C00B11D062224
:204830000FF00CF9B01D07F1110106220FF006F9387C40F00200707107E07079B11D0622DA
:204850008DF80A0001A80FF0F9F8A9799DF81120C1F3800010438DF81100080905D39DF89D
:20487000110040F008008DF8110001A8294602F0EDFC28B92078022106F06EFD40462AE0C9
:204890004FF015080FF0B4FB206A18B343680BB3A8886A7801219847B8F1000F1AD0206A01
:2048B000032142464368A8881BE7E878291D002207F0EEFA0A280DDA410001EB800005F1FC
:2048D0000C0225300421C0B205F03CFC02E0A8880BF0B0FA012007B0BDE8F08FE4180020D2
:2048F000D61900207CB5A34D144602460026A2F58062192A1BD8DFE812F031012A012201B8
:20491000190111010C010401FD00F300E700DF00D700C500B9001A001A00970081007A0078
:2049300065005C00520047003A0030002500282880F29A80022940F0978021880FF0E2FEA8
:20495000064614E1012940F011812178284601750121C1740FF07EF909E1012940F0068105
:20497000002C00F0038128461230024614E0102940F0FC80002C00F0F98028465C301022F5
:2049900021460FF05BF8F2E0012940F0EF80002C00F0EC802A46921D21781046E4E026290A
:2049B00040F0E480002C00F0E180284626226C30E6E7012940F0DA80002C00F0D780284622
:2049D000401D9CE0602900D144B9012940F0CE80002C00F0CB8028460D3090E005F19200E5
:2049F000214660220FF02AF801206873BFE0012940F0BC8020780FF081FEB8E0012940F064
:204A1000B5802178022900F3B180284600F10C0211702178022918BF301C02D11021C1725D
:204A300001200FF067FEA2E0072940F09F80611C684606220EF0C0FE20786946324607F01B
:204A500027FA04460A2C0FDA0FF050FE38B9204604F02CFE0EF0D8F90BF068F987E02846FA
:204A700001212C30015582E0022680E001297DD12A462178907B0028917378D120780128A6
:204A900075D1E9E72846027B01296FD1022A04D02178072901DB102904DD022A66D12178E0
:204AB000102963D1C17262E001295FD121780A295CDA2846093057E0012957D121780229B4
:204AD00054DA284608304FE000294FD10FF00EFE10B90FF076F8BDE7284601210F3043E0A3
:204AF000042943D12168244888423FD328461C3001603CE0012939D12B4603F10A00217821
:204B100032E0012932D1217802292FDA2846C01D2AE010292AD128464C3030E7012925D1CF
:204B30002178022922DA2846001D1DE001291DD1217804291ADC2846C01C02462DE7012979
:204B500014D12178022911DA2846821C25E702290CD1218828461630018008E0012905D1CB
:204B70002178022902DC0548017000E0182630467CBDC046E41800203F420F00E518002029
:204B90002DE9FC41A0F2013714468846022F40F232819B4E9C493F1F0F2F04D9143F4CD0F4
:204BB000BF1E1CD011E0DFE817F0CF00C9000D01FA00C100B9002601AF00A70010001000A6
:204BD0009D008F007F0074006600282880F21381B8F1020F40F00F818849238807E1B8F163
:204BF000010F40F00881F078012800F00481324620781179107189B9002800F0FC8050781D
:204C1000012800F0B580042800F0B280062800F0AF80052800F0AC80BDE8FC812078002870
:204C300040F0E9805078032800F0AF80072800F0AC80052840F0DF80A7E0B8F1010F40F042
:204C5000DA802078012840F0D68006F1EC000FF0A5F8002840F0CF803446002004F13A01B3
:204C700008F0F6FC002840F0C68004F1C8000FF08EFABDE8FC81B8F1020F40F0BC80208868
:204C90000A28C0F2B880B0F5486F00F3B4808E1C17E0B8F1020F40F0AE802088B0F5FA7FE6
:204CB00080F2A9800E460CE0B8F1020F40F0A38020880628C0F29F80B0F5486F00F39B80EB
:204CD0003E363080BDE8FC81B8F1020F40F0938020880628C0F28F80B0F5486F00F38B8090
:204CF0003C36EEE7B8F1010F40F085802078062880F28180454E0EE0B8F1010F7BD1207818
:204D1000042878DA0A3606E0B8F1010F73D12078082870DA09363070BDE8FC81B8F1010F16
:204D300069D12078042866DA0836F4E7B8F1010F61D1207804285EDCF61DECE7B8F1020F83
:204D500059D120880E36BCE7B8F1010F53D13079012850D032462078D178D07069B90028D8
:204D700049D05078012803D0042818BF052842D101200FF043F8BDE8FC81207800283AD1BB
:204D90005078022818BF052835D110780DF094FD1C490246102003F0B5FABDE8FC8106F159
:204DB000830500211F22284609F097F821464246284607F08FFB44463078B4710DF07CFD58
:204DD000002311E006F1640500211F22284609F084F821464246284607F07CFB444630780D
:204DF00074710DF069FD01230094094901950246102003F087FABDE8FC81C046BD84011055
:204E1000B00D002099450110F00D0020EA0D0020094501102DE9F04F9E4C20780E46F10BFC
:204E3000ADF11C0DC9036ED1B0085ED2606AA16A720807D2F00828BF86F0040680F025810B
:204E5000002023E1858861B904F11800924A00904FF6FF71022301200FF044FC0146A162FA
:204E700021B304A800900027019702230293FF220392228B28460DF1120301F003FB58B9B5
:204E90009DF813009DF81220A16A12EB002204D0498928460CF0BEF8A16A228B08463B461C
:204EB0004FF6FF710FF01AFC0146A162206A00291CBF012186F001061FD168B14368616A22
:204ED0005BB18888002201219847206A676A4368B888032100229847616A88880EF0C4FE7D
:204EF0000EF024FC86F00106CFE00020014602F0ADF930B1012186F00206207806F02CFA24
:204F1000C3E00221F7E707F08FFD5FEA000800F0BA80054628784FF0010AB03812D0401E82
:204F300003D01F3800F0A580A7E02879002840F0A480B8F80200B8F80610B8F808200CF032
:204F500069F89DE02879401E41D0083803D0743800F0828087E068781A2879D06888814619
:204F70000FF040F8801E18D0401E7CD1288901280AD16889032807D1E9688A78484604210A
:204F90000BF0E0FA024600E01822206A00286AD04368002B67D0042116E02989688852467C
:204FB0000129814609D16989032906D1E9688F781FB910210BF0C6FA0246206A002852D0E9
:204FD0004368002B4FD00521484698474BE02B7A688805F10807082B814639D10FF002F877
:204FF000801E12D0401E33D1287B0A2818BF122205D16889042100220BF0A4FA0246206A66
:2050100030B3436823B3042120E07888102100220BF098FA237D834693B148460FF07EFB64
:2050300070B11E490B784BB94179831D524601F00101084619460EF0F5FB01E05046E07406
:20505000206A28B143681BB105215A467888984768880EF009FE06E06A880EF0C3FF0146ED
:2050700010460BF019FC297905F108000FF0A2FB03E04046FFF7E2FA8246BAF1000F02D0EF
:2050900028460EF0C9F986F40046B0B207B0BDE8F08FC046E4180020545401005A4F002041
:2050B0002DE9FC41884C894A2678894F894D8A490D2E30464FF4A0534CD8DFE816F00301EB
:2050D0000E000E000E000E00FB00FB006800FB00A700A700D800D800DF008049176041F2DF
:2050F00004464C887E4FB4421CBFB1F81AE0B6450BD0B1F83280B0451CBF41F20A46B442C7
:2051100003D0B64518BFB04502D12E80176076E0022C744E2C8035D94FF48067E41B1AD0DA
:20513000241F012C1DD94FF47F77E41B1BD04FF44067E41B0FD0A41E012C0CD9241F0AD01D
:20515000641E012C0DD940F2F937E41B012C19D9241F08D0AEE0022814BF2B80624E1660B3
:205170004DE0624EFBE762480468257A012D05D141F20240488048834886F0E74B804B8361
:205190004B86ECE700200EF0EDFA832096E059488178FF291ED01C2041435748176040F285
:2051B00004460068841C645A2C80A41B012C534D10D94FF47F76A41B15D00A3C012C14D972
:2051D00040F6F636A41B032C84BF641F012C0ED9A41E012C76D940F2FD36A41B07D0641EDA
:2051F000012C02D905E041F20143801C4352156005E000200EF0B6FA85200FF00BFBBDE893
:20521000FC413F480078012106F0A6B84A882A8040F20443D21A55D040F6FC73D21A15D050
:20523000083A4FD04FF47F73D21A22D1354C364A2568364800680023CDE9002355F8086FB5
:20525000334B0222B047334908803BE0092810D131490A68508960B1304908780AF0B6FCF9
:20527000002100200FF036FA002020702AE04888288000200EF076FA85201FE04A882A80CE
:20529000022A0DD940F20440121A1BD040F6FC70121A05D0083A15D04FF47F70121AE8D17E
:2052B000887B801CC0B2B528A8BF662088730020488007E000200EF055FA8420BDE8F6414C
:2052D0000FF0A8BABDE8F3816F4F0020204F002015410100504F00200C2C0020204A0020DF
:2052F00049200000519D0000C9B70000755B0110104F0020684E0020802C002085620000DE
:205310006E4F0020F04E002002000080EC4E002031140100424F00208C2C0020714F0020B7
:2053300010B50B7884074CBF43F0020303F0FD0304064CBF43F0800303F07F0304074CBFFE
:2053500043F0080303F0F70384064CBF43F0200303F0DF0310F0AA0F0B7004D0107840F092
:205370000C00107010BD18B9117801F0F301117010BDF8B50F4600263878022814461D4678
:2053900067D1786801784278069801EB022189B2002818BFB1F5285F01D00B20F2BD4FF4B0
:2053B0002850091A0AD0491E1ED0491E4BD0491E22D0491E28D0C53941D04AE0F8680EF042
:2053D000EEFE069B079980B2C21A8A42ACBF0846C01A80B2C118162904DA28800246F868AB
:2053F000C1180DE00D2636E0F8680088022129802070000A60702EE0062028800622F9680B
:2054100020460EF01BFB26E0F868B0B108212980018821700188090A61704188A17041883F
:20543000090AE170818821718188090A6171C188A171C088000AE0710DE029800BE04A485E
:205450000178CA0705D401202880F8680178217001E02E8001263046F2BD2DE9F8460E4663
:20547000814630780024022817469A4678D17068017842783C4D01EB022189B24FF4285040
:20549000091A08D0491E30D0491E55D0491E3FD0C63960D064E0F0680EF081FE089980B27D
:2054B000884206D308460AEB0001162903DB0D2457E0072455E0F3685246394618440EF044
:2054D000BDFA08985044ADF8200000210898F368C0F1160218440EF060FE686800281CBF9C
:2054F0000268002A3DD0002123E0089888BBBAF1020FDCD139787878F26801EB00211180F2
:20551000686800281CBF0268002A2AD0012110E00898F0B9BAF1060FC9D1F0680622394666
:205530000EF08CFA686800281CBF0268002A18D003214846904714E0089850B9BAF1010FA7
:20555000B5D13878002813BF0128F1680870802407E00B2405E02878C10758BF032400D5F7
:2055700001242046BDE8F286E42200202DE9F04F8246DAF800600C465FEA0208ADF11C0D92
:2055900014BF00214FF0FF3106F1480083460EF0C3FB002818BF0B2040F0068100256570F9
:2055B0008448F460B8F1010F057004D065700220F4600CF093FF2078012840F2AB80801E24
:2055D000012868D9801E012833D9801E012800F2DF800EF0B8FD06904FF0805000F5EE77B4
:2055F000D0F8DC01A378466A009321782846062908BF0120019001200290A068228AE16839
:205610006368B047814606980FF0C4F8B9F1000F40F0C080B8F1000F02D00EF0DFF902E02D
:2056300050460DF0A1FB002800F0A4803868806A2AE00EF088FD06904FF0805000F5EE77D9
:20565000D0F8DC01012306680093A168A27860682478AC46042C08BF9C466346B0478146B7
:2056700006980FF097F8B9F1000F40F09380B8F1000F02D00EF0B2F902E050460DF074FBDB
:20569000002877D03868406880474949C1F8B0510D6081467EE00EF056FD06904FF08050A8
:2056B00000F5EE76D0F8DC01E38A87690093E0680190208B0290A0780390207D04900121D8
:2056D000059122782846022A08BF081CE1786268A368B847814606980FF05CF8B9F1000F67
:2056F00058D1B8F1000F02D00EF078F902E050460DF03AFB00283DD03068006A80475FEA87
:20571000000947D13068C569A168E28A2369E078A847BEE70EF017FD06904FF0805000F5F9
:20573000EE76D0F8DC01E38AC7680093E0680190208B0290A0780390207D2946049001209F
:205750000590257805B9014608466268A368E178B847814606980FF01DF8B9F1000F19D16B
:20577000B8F1000F02D00EF039F902E050460DF0FBFA08B9142017E03068406980475FEAB8
:20579000000907D1306802692169E078904780E74FF0FF39B8F1010F02D002200CF076FC63
:2057B00058460EF0E6FC484607B0BDE8F08FC04650450240BA2C00202DE9F04FDFF80CB225
:2057D0009BF80000002885B004D0401E032804D9801F012840F2F780EFE07D4DDFF8F48139
:2057F0002868DFF8F49103687C4E03F10807062207F1080103A80EF021F90622B91C01A8E3
:205810000EF01CF93878C0F380118DF800101E24C10900F00F02032A39D16879C0F3800084
:20583000814233D12969062203A80DF0E5FD00282CD09DF8000001A90EF0A0FF002825D030
:20585000314601A80CF096FF0746FF2F1ED0D9F80000807A6743002818BF02280BD001287C
:2058700018BF032812D1701CF25DC11940460EF02DFF10280AD0F41901AAE11D404609F087
:2058900020FD062201A9E01D0EF0D8F890E000F00F00052840F097806879C0F38000814284
:2058B000F4D12969062203A80DF0A6FD0028EDD09DF800003F7801A90EF060FF7F0940F21C
:2058D000024A88B3314601A80CF054FF8346BBF1FF0F6DD0D9F80000807A002804FB0BF114
:2058F00018BF012800910CD0022818BF03285FD10846711C325C014440460EF0E7FE102880
:2059100056D050460EF0DEFE009806EB000A01AA0AF10701404609F0D4FC062201A90AF184
:2059300007000EF08BF81CE09BF8000002283FD19DF8001001AA304609F096FB8346BBF141
:20595000FF0F35D004FB0BF03118487F012805D070BB01F10D000EF015FF48B350460EF051
:20597000B1FE04FB0BF4D9F80010305D88760622701C0119D9F8000014300EF05FF8184965
:2059900018488A78510604D5F90758BF41F20A4101D541F204414180418341861248134A7F
:2059B00001801348134908600121107805F0D4FC29680A680020107105E000200DF0D2FE52
:2059D00086200EF027FF05B0BDE8F08F6F4F0020F44B0020CC470020104F0020982300204A
:2059F000282C0020204A0020504F00206E4F002049200000204F00202DE9FE4F05467E4891
:205A1000002400680094C0090ED37C48007858B97C497B4851F8112C104040F0817041F8A7
:205A3000110C20200BF0B2FA012D40F0E080DFF80092D9F8DC00012840F0D6800220C9F8EC
:205A5000DC000DF039FC01200BF0A0FA5FEA000805D00120C9F8DC000DF03EFCC9E00EF0B0
:205A70008CFBA34602906848684DC0F800B0A86A016801208847012804D1584608F0E8FF61
:205A9000012000906248634FC0F800B0386811200EF072FA00B1012410200EF06DFA08B122
:205AB00044F002040F200EF067FA08B144F004040B200EF061FA20B12868574E016B30886B
:205AD00088470A200EF058FA20B12868534E016B308888475248012606602868816944F0A3
:205AF000200088474F4806600EF040FA00F001010191400814D2286A81684B48884782461B
:205B1000BAF1040FF7D0BAF1010F04D1286A42684548032190474549086820F00300086023
:205B3000584600F097F92B683868986B8047019801280CD0BAF1010F04D1286A42683A484E
:205B5000314690473949086840F0030008603048066028684169204688470B200EF00CFADE
:205B700020B128682C4BC16A188888470A200EF003FA20B12868294BC16A1888884728489F
:205B900006600322C9F8DC20264BC3F800B02868416B204688470128F9D1386804200BF0AE
:205BB000F5F90446184806603868134800688009FBD30098012802D1304608F049FF0EF0D5
:205BD000BDF908200BF0E2F907460298C9F8DC600EF074FDFBF7DAF90DF07EFB57EA04002E
:205BF00018BF4FF0FF3804E06FF0040801E06FF001084046BDE8FE8F14100940601C0020EF
:205C1000FFFFFCFC150009400C400940B8010010000222432C200940AA520100A6520100D0
:205C300028200860800104430040034024220840781B00202DE9F04F94460E1C04461F4610
:205C5000ADF1440D4DD07448357801684FF0010B0BFA05F0014244D0BCF1000F666040D028
:205C7000BCF80000B0F5C15F2FD1DCF81400DCF818606A4BDCF81C50DFF8A4910E904FF089
:205C9000030E0DF134080F9618681095C0F3036A58F8046FB6B10021331F05200A4653F862
:205CB000045FA94506D0401E01F1040102F10102F5D107E0052A05DA705820F4702040EA11
:205CD0000A407050BEF1010EE2D1C4F808C00EF03AFA82465E48801C007820B150460EF09C
:205CF00059FD002094E003F0B7F84E49086840F0020008600AA80EF049F84B4E4FF0050891
:205D10000AAA4A49CDF8308006F1D0000BF018FD0AA80EF02BF800254FF0FF0919210AABB2
:205D30008DF83050424ACDF82C9006F174000BF077FA0AA80EF02AF80AAA3E49CDF83080E8
:205D500006F582700BF0FCFC0AA80EF00FF88DF830B0394ACDF82C9006F190001A210AABBC
:205D70000BF05EFA35492A4606F1AC0013460AF051FE33480EF0CAF8324A2B46042106F149
:205D900048000CF079FF4FF6FF70A6F8700086F805B086F873503571B571F5713572757241
:205DB0007561B572B378F572581CB07050460EF0F1FC1FB903AF38460DF038FF38682060D3
:205DD0007868E060387C84F811B02074788A60821D4EA6616661F86800B1A061B86800B10E
:205DF00060612946782204F1200008F076F804F1380029460CF0E4FD68460EF06EF9134966
:205E1000029404F170002A466B460AF003FE204611B0BDE8F08FC046D42108405413005016
:205E30000200F84400200940F0100020953A010065300100EDDD0000E5000100FD3D01003A
:205E500039A400007907010087CC00001B410100F01000202DE9F84FDFF8F4B10746ABF142
:205E70003500DFF8E0910068800880F0D98071480068006880477A490831D1F80080002522
:205E90004FEA28725FEA985102F101020AD2C0F13E0110F10A0F4FEAE101D8BF08218A426A
:205EB000B8BF0A1C644BD3F87C11C1F304611629A8BF20391B68C3F30443162BA8BF203B93
:205ED0009A468918162905DA11F10A0FB8BF6FF0090100E01521594B594E01F01F0242F46F
:205EF000F8521A80326812F0030F18BF0125D20828BF45F002050FB145F004054A4692F9ED
:205F10000730C31A052B04DA9379AB4208BF918866D0DFF834E10F28A0F10F0C25DB0CEB7A
:205F30000013A3F1F00C4FEA2C26072E88BF07263446062C88BF06245EF82470042303EB5E
:205F500084037446E358DB1B03F0FF04EF0824BFC3F307273C44AF0824BFC3F307473C446D
:205F70006F0828BF04EB136401E0002426465EF826E0EF080EF0FF0324BFCEF307273B4438
:205F9000AF0824BFCEF307473B446F0828BF03EB1E63A4B2ACEB0626AAEB0101744300296C
:205FB00004F1800403EB1423D8BF0121342408F0FF074C43A1B27943B1FBF3F14FF6FF733F
:205FD0008B4238BF191C802889B2918005DA10F1800FB8BF6FF07F0000E07F20D07195713A
:205FF0001A4800681F2910604FF0000008D340F2FF128A4206D24908401C8A42FBD301E0E6
:206010001F219180134F0F39090940EAC10047EA0001CBF8FB1F0026CBF8FF6FBDE8F88FE6
:206030000D490E4F4A4608200F60921D1070BDE8F88FC046EC0100103C1100506E62084063
:2060500024220840782C00209C130050082009403500094000E7A48030100940FDFDA400BE
:20607000AC3F00502DE9F84F0024774D774EDFF8E0B1DFF8E0A1DFF8E081DFF8E091D9F8BA
:2060900000104A7A01231820A34060431A420AEB000709D0087A38F810203A8000201BF83A
:2060B0000420BA73F87302E040F6010038800020788007F118007860387B00F0EF0040F081
:2060D00080003873097A01290ED141F28830B860387B00F0F00040F005003873787B00F0A0
:2060F000F00040F0020019E0002C0CBF0221002100F0F000084338733CB90EF02FFB00F552
:20611000C870CAF80800022004E00020022CB860F9D10120797B01F0F00108437873641C8A
:206130003E61022C7D61AADDD9F80000017A01290EBFCAF834A00020CAF834000CF06CFCCA
:206150003060474880690078C1074CBF1021002182074CBF2022002243074CBF40230023B7
:2061700000074CBF8020002011431943014341F00F01317100207071D9F80010887A00F092
:2061900003007071CA7A920002F00402104370718A7ED20002F0080242F0100210437071BB
:2061B000087A012818BF042806D10020B071F071B06001F1140216E0487FB07101F15D0261
:2061D0005078F071487F20B10B7FC3EB4313C8181E30B060507828B11278C2EB42128B1853
:2061F00003F15F001F4AF060726101F10C0030611D4BF07E727900F0E00040F08600F07674
:206210001A48F061187828B1307900F0FE0042F040023071164B987843064CBF42F020028D
:2062300002F0DF02727100202880A870E87028716871E8802881A872E872E8600868C0F8F9
:2062500004A0BDE8F18F00BFB44D0020F44B0020409A0110204A0020109A0110104F002077
:20627000B4570100D0470020784E002000204E00282C00207E488078FF2800D170472DE980
:20629000F84F0DF0DDFC054605F217100178012908BF417800F0A28005F17400817B0229A2
:2062B00003D105F174020020907305F59276F18911B1307B05F050F868896E4F288105F5F4
:2062D0008D78B87AFB793A7BF97A7C7BB8F800C000EB030E96448E4474441FFA84FEB8F8C9
:2062F0000440641CA8F80440F444B8F80240A8F800C00419A8F802404FF01C0C3468FCB1AD
:20631000DFF8749195F806A0D9F8009009F10E0B0CFB0AFA09F10E091BF80AA034F81AB01B
:20633000F34424F81AB095F806A00CFB0AFA19F80A9004EB4904B4F84AE08644A4F84AE0A5
:20635000002B08BF002904D1002A04BF797B002923D02A89E889821800202874AA81287FF4
:20637000012804BF698CE983787868B10121297705F174018878002804BF887B002803D1A0
:20639000087F08B9698CE983307D80B3022804BFF87A002827D1002128E0E98338B1002047
:2063B0002874287F012807D1698CE98304E0B8F80600401CA8F80600A8892989814206D010
:2063D0008842D1D2081A41F2AB029042CCDA287C08B1052901D0082100E03E212846BDE8EF
:2063F000F44F0CF0E7BE787A08B1022131752348FA7B01682868D30708D53A69C26001F1EE
:206410001400A97949010022425011E001F11402A97949015258184932610A68A97902F1AE
:2064300008030CFB01F29958C1600020E8832877134841690A7890074CBFB87B812085F891
:2064500074002846FCF79EF801280ED00121284607F07CFD28460CF0FFFCFCF709FB012835
:2064700003D0BDE8F14FFDF70BBEBDE8F18F00BF684E00205C4D0020802C0020842C002078
:20649000B45701002DE9F0410C4684B00746207A0026C10690461D460BD540460EF00AF99F
:2064B000030000F0F0800A22214638469847060050D1207802281AD160680178427801EBBE
:2064D000022189B24FF42050091A012910D9891E41D0491E16D0FD3905D0491E00F08B80F3
:2064F000491E74D0491E7BD0491E00F0A180B8E00B98002831D1E0680A9A017811800278E2
:20651000416891E00B98002827D10A9801210180E0680178297000216089401C80B20EF059
:20653000C5F80A99098868B102780A9B921C51181980418969704189090AA97002784168B6
:20655000E81C72E00A98091D018004220021681C0DF023FE98E00B9800286BD1E06807884D
:206570000A98042101802F70380A68700DF1020138460EF09BF804001FD0E768BDF80220E1
:206590004FF6FF786B4641460EF0A8F840B9237862683F4802210EF085F808B9ADF80080F0
:2065B000387802280BD179680222281D0DF046FA0A980188891C018001E0ADF80070BDF892
:2065D0000000A870BDF80000000AE8705CE00B9800282FD1E068016838460DF0B7FB03E0B4
:2065F0000B9838BBE06800880A9A022111802870000A687048E0E0680DF0D1FD0B9B80B240
:206610009842B8BF07263FDB834208BF002006D00C99C9188142B2BF0C98C01A80B20A9943
:2066300008800246E068C11828460DF007FA2BE00B9808B10B2627E00A9AE06807211180A9
:2066500002782A70417869704188A9704188090AE97001792971C1886971C088000AA871CB
:2066700012E040460EF01AF806000CD00D980C990A9B029001912A460B9800902146384605
:20669000B047064600E00E26304604B0BDE8F0815E5401002DE9FE4F7D4C617811B90020B1
:2066B0000DF060F80EF05AF88146002709F6C4190026784DDFF8E0810EE030460DF0C0FA1D
:2066D000417939B129688279CA5549467F1C00F0E7F8FFB2761CF6B298F800008642ECDB58
:2066F000009761788F4205D000200DF03BF882200EF090F86078012840F0A380002601E0A1
:20671000761CF6B298F80000864280F2948030460DF096FA074678790028F1D02868B97965
:20673000027891421CBF00200DF01CF8B87980E0286810F809000DF083FA00684268DAF860
:2067500008109068814204BFB84609F1010900F088808BE0296891F800B04FF0010910E02B
:20677000626811F8093002F5B17208FB03F708FB0BFED75B32F80E20974238BF9B4609F1A5
:206790000109C0B28145EBDB4FF6FF7007F00CFF074658460DF054FA40F6C41900684168D1
