:20000000004000200D0D010001C9011001C9011001C9011001C9011001C9011001C9011043
:1C00200001C9011001C9011001C9011001C9011001C9011001C901103FC9011089
:20003C0080B54FF4FC720FF278011A480CF0C2F9012119484174002202210270C17601BD47
:20005C002DE9F0410FF2502214493820136854689568D6681769D2F814C0D2F818E0D2F8F9
:20007C001C800B604C608D60CE600F61C1F814C0C1F818E0C1F81C8020322031401EE5D1DC
:20009C0050689368D46812680A6048608B60CC60BDE8F081480400215903002100C00021D1
:2000BC00410500217D0500212D06002170B51D46004C204787B2000010B5014800470000FD
:2000DC00D509000070B5614C6148254650358047022809D14034E1885E4A914204D1E97C5E
:2000FC00890601D4911DE18070BD70B557495A4A084650300378002B10D08379012B0DD181
:20011C00037C5B09DB0709D0097D544DC1746C7F20202043687790476C7770BDFF21C17420
:20013C00904770BD10B54E48484C804702280ED121464031CA88474B9A4208D1CA7C5209CE
:20015C00D20704D0227D920601D49A1DCA8010BD70B53E4843494030C07C4009C00707D032
:20017C003E4D41482C8B2043288388472C8370BD884770BD10B53B48344CAC388047214609
:20019C0053310A789309DB0705D04034A2730A7803231A430A7010BD2C4940310871182876
:2001BC0012D004DC0A280BD00B2804D10AE025280CD02A280CD02D4980004018C0687047DE
:2001DC002B4870472B4870472B4870472B4870472B48704770B504461C484E252D5CAE09AB
:2001FC00F60716D0067D3007000F052803D00120054202D00DE00220FAE7E80905D07006D1
:20021C0003D54868800F012803D05B085B0052085200062B03D01020022B11D011E0FB20F7
:20023C00024002232046FFF741FF002807DAC100611A2039497E1422114200D1002070BD93
:20025C00024303432046FFF731FF70BD4401002137CB000004140000EBC80000A800002142
:20027C00F5B4000053AD00002020000080DF00001D050021F9040021CD040021930400210F
:20029C006D04002110B5034CFFF716FF20680028FAD110BD0011044068610000F825F965B0
:2002BC00F9754500450045002600260057A3520052004C00401F401F401F3F000000000053
:2002DC00304000400140034007400F404F40CF40CF41CF43CF47CF4FCF3FCF2FCF1FCF0F6C
:2002FC00000000000000000000000F00080000003F00000040003F000000040068000E0093
:20031C00DC00060043001A00050000000000020000000000000000000400C00000000400B3
:20033C00C000000007000000000000000000000000000000000000003040004001400340A6
:20035C0007400F404F40CF40CF7FCF6FCF5FCF4FCF3FCF2FCF1FCF0F00000000000000009D
:20037C0050C00091007070C00091007082312100319110B10070018101B100A1823132910D
:20039C0010B101911110418141227740F106007051C0019130181039833108D01831416FD1
:2003BC003100319110B18314141683680070251050C00091F4C340C12014036F3110410497
:2003DC005082F0229840512622C082312100319110B163393110410482C08231210031919B
:2003FC0010B163393110A2C082312100319110B150101531051405920070676452C03110A6
:20041C0031066131C1026A6412C13110213971065131E1026A64007051C0019101CCE2C0CC
:20043C006A64676411C1C2C06A6450B054B0007140804022D6440022C94060B08180111EC9
:20045C00C944007054A064B0F0800022C9404012B09032B070C1DF6811C122C16A6470C1C0
:20047C00E46851C00191E2C0823160820200329110B130C2EE68538253395339B16460C347
:20049C00F4688012B09032B00070676401C122C16A6401C1C2C06A645382B164C012B09074
:2004BC0032B00070676472C281C06A6422C111C16A6402C011C16A6462C031C36A6462C3D2
:2004DC0011C16A6402C311C16A6453825339B164E2C36F6411221C4142C281C86A6452C24E
:2004FC0011C16A6472C2E1CE6A6402C281C86A6402C201C86A64B0C030690070676442C211
:20051C0001C86A6452C211C06A6472C2E1C06A6402C001C16A6462C001C36A6422C101C127
:20053C006A6462C301C16A6402C301C16A645382B16400708180111E5C4150B054B000712B
:20055C00408040225D4154A064B0F1800122514500700022514160B04E61000000000000AA
:20057C000000000000000000067305720B720E7250B00071818060B050A09280F0EFF1928C
:20059C0002936A6741228C458080F1C11004301601110114016CB561B661B761B861B9618D
:2005BC00BA61BB61BD61BF61C161C36126632D63F0C002043231412A121432160111211412
:2005DC00016CDA61C561E061C761CB61B561B561B561F461C561FA61C761CB61B561B56104
:2005FC00B561F461C561FA61C761CB61B561B561B561E761C561ED61C761CB61B561B56121
:20061C00B561CF61CF61CF61CF61CF61CF61C064CF61F964CF610665CF613265CF6174676A
:20063C00CF611166CF61C0644E65F964CF61066511663265CF618280E0DFF2926A67B0B044
:20065C00D661B1B00673057230B06C61D0CF6A6784C203C0C0C37C64207851788278E378B7
:20067C001579B6780062C0CF6A6784C203C0C0C37C64307861789278F3781579C678006250
:20069C00B0CF6A6784C203C0C0C37C6440787178A27803791579D678109221923292439281
:2006BC005492659256911FC0FF914039F00601101031101400927067CF61E3B054A0F08076
:2006DC0050221A4640800022BE461262E3A000C86091598150B0918041228E46A0CF6A6734
:2006FC0012828231823942398B641282F2062F101F312F141682D622334640C1346200C5AF
:20071C0020140D6F6D39DE10F4C34E0482C082312E006D39A2C082312D001A828A39FA0606
:20073C002082803180390BC00B18BC10AC18038239149B141082F0060110103110145181C2
:20075C0010140C14C622C94631D0C1266462021011C0013010C00118021882312100C126C2
:20077C00919103B013B063B053B041800122BE46B481C491D581B51C774E95186591F0803E
:20079C00102269428C623D9110B13E9110B1E08000228146E6228142E0B0951865910F926B
:2007BC005981F914F0805022114210228C464D6390CF6A6763B052A03082F2C0200402107E
:2007DC0011C0013010C00118021882312100C1269191919113B003B063B053B064B054B055
:2007FC00007141800122BE4663B064B0F08050221142B181C191D1819118619131B0A462D0
:20081C002967E0A059810582591480C0007163B0BA6A6962E3A0018262818231823D80EF61
:20083C00F19202936A6703A0007037824739873930828039F006021011C0013010C0011849
:20085C00021882312100C126819102B012B030824039F006021011C0013010C001180218E9
:20087C0082312100C126919103B013B063B053B0007153A062B052B041800122BE46A4816E
:20089C00C491D581B51CFE4E95186591F0801022F0428C62B481C491D4814518751C084FEB
:2008BC00F0801022F0428C623D9110B13E9110B1E08000221247E6221243E0B065910F92DC
:2008DC005981F914F0805022114210228C4630632967E0A0598105825914F0C0007162B038
:2008FC00226BF062A2808B64CF6112824239F2068B6050B00071CF6170CF6A674082418096
:20091C000122BE46A481C491D58195186591F18011228C46336B41800122BE46A481C491AB
:20093C00D581C51C1C4B95186591F08010223F438C6260CF6A67408241800122BE46B48169
:20095C00C491D58195186591F18011228C46506B41800122BE46B481C491D581C51CB44A55
:20097C0095186591F08010225C438C62E092D08200226B47C0B20070A080F022874330B033
:20099C0002C1623101C0A080001E8043F022814380F86031603981632010101A136F236E5A
:2009BC0011161216826B00702DE9F84FDFF81885DFF8181588F80000002008600921DFF891
:2009DC00100501700D2141804FF408718180DFF80405DFF8041501608A7EDFF80005027042
:2009FC00FF2ACB7E437008BFFF2B0D7F85704E7FC6708F7F0771C97F417115D1FF2D08BFE8
:200A1C00FF2E11D1FF2F08BFFF290DD1DFF8D0140A7802704A7842708A788270CA78C27025
:200A3C000A79027149794171DFF8B81402780A70FF2542784A7082788A70C278CA7002791E
:200A5C000A714079DFF8A02448710021DFF89C04057045708570C570057145711180DFF872
:200A7C009004DFF89014466BDFF88C247078087031781170B078DFF884140870716908791F
:200A9C00DFF87C14421E0A70F078DFF878140870B069DFF87414086008B912F093FDF0692A
:200ABC00DFF86844206008B912F08CFD2068DFF8607401688847216851F8042F3846904706
:200ADC00DFF85004DFF850143862DFF850047862306A086008B912F075FD706ADFF84014B9
:200AFC00086008B912F06EFDDFF838B4DFF838649BF8040013F0C2F8306008B900F045B97B
:200B1C009BF80500DFF8247413F0B8F8386008B9306837E19BF80600DFF8144413F0AEF885
:200B3C00206020B9306813F0B1F838682AE19BF80700DFF8009413F0A1F8C9F8000038B9FE
:200B5C00306813F0A3F8386813F0A0F8206819E1DFF8A4130A789BF80000DFF8DCA3921CDF
:200B7C00504380B213F08AF8CAF8080058B9306813F08CF8386813F089F8206813F086F8E8
:200B9C00D9F80000FEE0DC480078002800F00281BBF80210DFF8A4B3484380B213F06EF83A
:200BBC00CBF8040078B9306813F070F8386813F06DF8206813F06AF8D9F8000013F066F8F7
:200BDC00DAF80800DEE0CC48007813F057F8DC49086080B9306813F059F8386813F056F8E0
:200BFC00D9F8000013F052F8DAF8080013F04EF8DBF80400C6E0C04800781C21484313F0D0
:200C1C003DF8D04A1060B0B9306813F03FF8386813F03CF8206813F039F8D9F8000013F057
:200C3C0035F8DAF8080013F031F8DBF8040013F02DF8C348A5E0B0480078400113F01EF80C
:200C5C00C1490860D8B9306813F020F8386813F01DF8206813F01AF8D9F8000013F016F88B
:200C7C00DAF8080013F012F8DBF8040013F00EF8B348006813F00AF8B249086882E09E4876
:200C9C000078000112F0FAFFB0490860F0B9306812F0FCFF386812F0F9FF206812F0F6FF0C
:200CBC00D9F8000012F0F2FFDAF8080012F0EEFFDBF8040012F0EAFFA148006812F0E6FF91
:200CDC00A049086812F0E2FF9F485AE08A480078000112F0D3FF9E49086018BB306812F0C0
:200CFC00D5FF386812F0D2FF206812F0CFFFD9F8000012F0CBFFDAF8080012F0C7FFDBF827
:200D1C00040012F0C3FF8E48006812F0BFFF8D49086812F0BBFF8C48006812F0B7FF8B4927
:200D3C0008682FE0744800783021484312F0A6FF884A106070BB306812F0A8FF386812F011
:200D5C00A5FF206812F0A2FFD9F8000012F09EFFDAF8080012F09AFFDBF8040012F096FF55
:200D7C007748006812F092FF7649086812F08EFF7548006812F08AFF7449086812F086FF7B
:200D9C007348006812F082FF002012F01BFC4FF4804192E031680120087130680573316806
:200DBC004D73306885733168CD7330680574002031684D743268D072A0223168487103214F
:200DDC003068C28001720720316848720020326890722821306841820121C17600203168BE
:200DFC004877326882F85E00012031680877326882F85D00396808713868057339684D7369
:200E1C00386885733968CD7338680574002039684D743A68D072396848713A6890724FF47D
:200E3C00207039680022C88008818A7401213A68D17421680D732268557321688D732268FD
:200E5C00D57321680D740021226855742368D9720121226811710021236859712168C88065
:200E7C000881002088722168887405202268D0743948016888472A490A6805461068804713
:200E9C0027490A6852F8043F0020984718481D4BC16818780A88314902430A802846304985
:200EBC000A6890470C212F4800F05EF80F4800F05FF800F061F84FF4005198F80000BDE833
:200EDC00F44F0AF059BA00BF6E4F0020044F0020604E0020084F0020B63F00502C4E002073
:200EFC00E81200503C4E00200C4F0020344E00203C5601006D4F00207B4F00206B4F002092
:200F1C00724F00206C4F0020F04E0020F44E00207C4B0020993C0100F84E0020A93C010030
:200F3C00FC4E0020A8220020104F0020502C0020184F0020542C0020242C0020684E0020B9
:200F5C00004F0020482C00204C2C0020884E00208C4E0020904E0020981C0020544F002055
:200F7C009C1C0020F84D0020DFF800F0E5710110DFF800F01D6E0110DFF800F04D710110F1
:200F9C00B0B5174C241D20680004070C23D01248006800688047114991F90720824205DDF8
:200FBC0010F1800FB8BF6FF07F00C8718D88BD4210D80A68D4F8D40F801A801C1F2888BF16
:200FDC001F207F1B4008C7404FF6FF70EF19B84238BF071C8F80B0BDEC010010402C0020F8
:040FFC003010094068
:20100000B41200001810000015AB0110FDB301106DC00110FDAE011099B5011000000000F7
:08102000000000002D0000009B
:20102800B01200003C100000B1C00110A9BF011067C0011069B80110000000000000000035
:041048003000000074
:20104C00B012000060100000BDC00110CDB30110D9BD01106DB3011000000000000000005B
:04106C00310000004F
:2010700000000000C822002004000000000000000000000020000000E8C901103000000040
:2010900028100000D02200200400000000000000000000000C000000D8CA0110180000001B
:2010B0004C100000D822002004000000000000000000000024000000F0CA0110180000009F
:2010D00000000000E02200200400000000000000000000001000000018CA01102C000000AB
:2010F00000100000F0220020040000000000000000000000200000006CCA0110240000000F
:20111000FFFFFFFFF82200200400000000000000000000002800000090CA011024000000CE
:20113000FFFFFFFF002300200400000000000000000000001400000008CB0110180000004C
:20115000FFFFFFFF0823002004000000000000000000000058000000B4C90110340000001A
:20117000FFFFFFFF102300200400000000000000000000001000000020CB011018000000E8
:20119000FFFFFFFF182300200400000000000000000000001C000000B4CA01102400000015
:2011B000FFFFFFFF202300200400000000000000000000003800000044CA0110280000003D
:2011D000FFFFFFFF282300200400000000000000000000005400000078C901103C000000B2
:0811F000010000000856010097
:0411F80001000000F2
:0411FC0000000E00E1
:0412000000000F00DB
:0412040032000000B4
:0412080001000000E1
:04120C00B8210020E5
:0412100000020000D8
:0412140000000000D6
:0412180001C90110F7
:04121C0000000000CE
:0412200000000000CA
:0412240008000000BE
:0412280000002200A0
:04122C00442000203A
:0412300000000000BA
:0412340000000000B6
:0412380008000000AA
:04123C005C21002011
:0412400000000000AA
:0412440000000000A6
:04124800080000009A
:04124C00000000009E
:04125000000000009A
:041254000000000096
:041258000000000092
:04125C00010000008D
:04126000AC2000209E
:041264000600000080
:041268000100000081
:04126C00281F002017
:04127000000000007A
:041274000000000076
:041278000002000070
:04127C00000000006E
:02128000290043
:02128200010069
:02128400250043
:02128600300036
:02128800310033
:02128A002D0035
:02128C0001005F
:01128E00015E
:08129000030000008455010079
:0812980000000000000000004E
:0412A0000000010049
:0412A4000000030043
:0412A80013C401105A
:0412AC00553A0100AE
:0412B000B812000070
:0412B400B81200006C
:0412B8000000000032
:0412BC00602200208C
:0412C000A73B010047
:0412C4002000000006
:0412C800F8540100D5
:0412CC008853010042
:0412D00029C101101F
:0412D400771001008E
:0412D800B31401004A
:0412DC00A1C7011095
:0412E000A3C701108F
:0412E4000000000006
:0412E8007B52010034
:0412EC008851010024
:0412F000A051010008
:0412F4007051010034
:0212F8000200F2
:0212FA000900E9
:0212FC000100EF
:0212FE000000EE
:0113000001EB
:04130400353B010074
:04130800F51D0100CE
:04130C00A92F010004
:041310003D2101007A
:04131400A321010010
:04131800290B01009C
:04131C0071E200007A
:041320007F3D01000C
:0413240031F700009D
:0413280015C70110D4
:04132C0025C70110C0
:201330002DE9F04F0C4685B0834614F8010BDFF870278DF8000018280BF1FD010BF1E708C8
:201350000BF166090BF20D1A0BF5B0760BF59C750BF5C67700F29183DFE810F019006F0025
:201370005F0191008F038F03FA00690311012301FE000D0133018F038F037C018F036101D7
:2013900055017503D602D60227028F03740214F8010B8BF88600022221460BF1880013F05B
:2013B00087F9014602220BF18A0013F081F9014602220BF18C0013F07BF9014602220BF15E
:2013D0008E0013F075F904469BF8860040008BF886000BF1860102224888400048800BF1D7
:2013F00086008188490081800BF1860108890001088121460BF1840013F05AF9B9F81E104A
:20141000BBF80800091A89B247F6FF7291422ADA0BF18601C8888A88401C520050430A8965
:20143000904203D33B208AF80B0039E2012089F81C000020ABF81E001EE0052221460BF1CA
:20145000610013F035F9014602220BF1920013F02FF90BF1860047F6FF728189BBF80800D1
:20147000091A89B2914280F218820BF18600012181720021ABF81E10012028700CE398F85E
:201490001600C1070AD41A2198F80D0088F80E10012808BF0D213FD00D21CDE1002089F860
:2014B000000089F806000822012088F8110021460BF1B00013F0FCF8014602220BF1B80090
:2014D00013F0F6F80BF1A80601460822304613F0EFF804460821304613F0E6F80BF19C0628
:2014F00004222146304613F0E3F80421304613F0DBF80BF1A00013F0D3F80BF1980013F089
:20151000CBF8DFF8A005018841F08001018098F80D00012806D10421584605B0BDE8F04FC7
:2015300010F010BB99F81000012804BF99F811100F290BD158460EF057FA042158460DF0D0
:2015500033FB0F2089F81A00FD2175E1042173E1012088F80F009FE2002089F8000089F843
:20157000060088F800000B21012088F80D00002088F8010060E1012088F810008CE20020DA
:2015900002F10906235C365C33432354561C365C33400B54401C0828F2DB58460DF09EFDD6
:2015B00070E2002002F10905235C2D5C2B432354551C2D5C2B400B54401C0828F2DB02207C
:2015D00048E299F8060008B93D2167E19AF800000128D3D014F8011B8AF80310022221462D
:2015F0000BF5897013F064F8014602220BF58A7013F05EF801208AF800009AF80200002866
:201610001BD10C2118E198F81600C10601D41221D1E058460EF0A8FE34E221783EE12078DA
:2016300030706078707099F8100001280CD199F811100F2902D0162902D02DE268732BE2D7
:20165000387B40F0010016E205B0BDE8F04F002011F0BEBF98F81600810707D410F0110F3E
:2016700008BF0F2000F009821A2252E02078617800EB01202882E178A07800EB01206882ED
:201690006179207900EB0120A882E179A07900EB0120E882207A2876A17A607A00EB01206F
:2016B0006883217BE07A00EB0120A883A17B607B00EB0120E883217CE07B00EB01202884E4
:2016D000A17C607C00EB01206884217DE07C00EB0120A884A17D607D00EB0120E8840BF564
:2016F000AA700490688B0390287E0290BBF808000190E88A0090AB8A6A8A298A58460CF0AA
:2017100001FD68B198F81600410701D40F2152E01E22584605B0BDE8F04F0F2110F02EBAEE
:20173000688A0BF186018880A88AC880E88A088102208BF8860000204880BBF83400C01DD0
:20175000A9F81E008888BBF83210884201BF0BF18600C188BBF83400814206D10BF186005D
:201770000189BBF8360081421DD099F81000012804BF99F811100F2907D099F8150020B171
:201790000F2189F81A10FE2156E0FC2158460DF00BFAE88A0090AB8A6A8A298A9BF80600D5
:2017B00012F076FF78E1102146E098F8170010F0090F03D116218AF80C1060E160782178D8
:2017D00000F00700014021702078797B0140F97211D0481E01420CD0490704D5B87B10B175
:2017F0000421F97205E0F97A022001421AD14008FBD1F87A08B9B97AF972F87A042803D14A
:2018100058460EF078FEB083F87A12F03DFF3871B28BB97B01230FF0B5FA0146308B88420B
:2018300002D207E0F872E4E7B28BB97B387901230FF0A8FA78801721584605B0BDE8F04F5A
:201850000DF0B2B960782178814207D100F007000840207033D0421E10420FD01E22182128
:20187000584610F08BF99BF80610002300221E200AF018FC387B40F04000FCE0F87247F656
:20189000FF72A078E17800EB012038813989BBF80800091A89B2914206DB28218AF80B101C
:2018B00001208AF80A00F7E00120B871F87A042803D158460EF01FFEB083F87A0BE099F8FE
:2018D0001100162806D1BA7A9BF80610134600200AF0E8FBB87A3871B28BB97B387901237E
:2018F0000FF050FA0146308B884205D3B28BB97B387901230FF046FA78800121387B40F069
:20191000400038732970C7E02078617800EB01207082E178A07800EB0120F08261792079BB
:2019300000EB01203082E179A07900EB0120B082B18AF089884288BF0846B97A042905D1DF
:2019500040F691229042B8BF4FF42960F28BF0839042B87A14BF01240024042803D15846CB
:201970000EF0C9FD04E0B089F18A884288BF0846B28BB083904214BF012100210C4330893C
:20199000718A328B884288BF0846904214BF012100210C433083B28BB97B387901230FF0F1
:2019B000F1F90146308B884205D3B28BB97B387901230FF0E7F978807189308A728B8142F8
:2019D00088BF0146718391429BF8063014BF0120002004438A4234490A6802EB4311728B85
:2019F0008041121DC00F0A7610B1584610F0E8FA9DF80000142810D144B1F08B0090738BA7
:201A1000B28B318B9BF8060012F03AFE584605B0BDE8F04F15210BF01DBE1CB1387840F0FA
:201A300008003870397841F02001397034E020780E280ED00F2809D0122804D014280CD044
:201A5000162812D028E00020287225E00120287322E0032088F815001EE0387840F0020039
:201A7000387040F01000387016E0387B40F00200387340F0100038730EE08AF80C0058463B
:201A90000EF0E6F840B905B0BDE8F04F074800784FF4804109F076BC05B0BDE8F08F00BF3A
:201AB000F02B0020524F00204C2C00206E4F00202DE9F04FD04C04F118012046ADF1440DD1
:201AD0000EF03AFBD54D00264FF6FF700123667032462082294604F1A4000EF08DFF0223FC
:201AF000324604F1C80029460EF086FF0423324604F1EC0029460EF07FFF4FF0040A04F102
:201B1000440810224046314684F802A00CF05DF904F154091022484631460CF056F904F101
:201B30001C073E6004F10A052E70E671267207206072CDF80080DFF81883022210200346F6
:201B5000414606F081FC102003224146CDF80090034606F079FC1020524641460097134657
:201B700006F072FC4FF0080B4FF0030905F12A000C9005F179000D9005F11E000E9005F1E4
:201B90005A000F902435109517E06078A28FE18FB4F84050B4F8423006280ED1ADF81A2088
:201BB000ADF81C10ADF81E50C048ADF8203012F026FA012006A90BF0C5FCA069BA4A314602
:201BD0004FF0FF3312F058FD071CF6D002960DF122000DF12E0102AA10F0C2FA002840F09F
:201BF000CB81BDF822102078102940F0C1819DF82E10884240F0BC81029D29884FF6FF724F
:201C10008A4200F0AA812B78A23B00F08D812E3B40F0AE81A978B046002900F04981891EE6
:201C300000F01881491E012940F2E880891E00F0A880491E7BD0491E5CD0083900F06481C6
:201C5000891E40F0678194F83A30A888052BADF80C0047D001208DF81600944812F0CFF935
:201C700094F83A0001281ED004281CD003280DD002280BD00298C188ADF80E100189ADF87D
:201C900010104189ADF81210818927E0A08FE58FADF80E00B4F84030ADF81050B4F84210FD
:201CB000ADF812301AE0A08FE9888842D8BF081CADF80E002989E08F8842D8BF081CADF810
:201CD00010006989B4F840008842D8BF081CADF81200A989B4F84200884200DC0846ADF811
:201CF000140001E08DF81660AF49102003AA06F0ABFB0FE1AD4812F082F96B78002B40F0D3
:201D10000981E88860822889A0826889E082674811F082FF002840F0FD80656A002D00F0BF
:201D3000F9802B68608AA18AE28A9847F2E0AA88B549102006F088FB0C98414606220CF02D
:201D500044F86682A682E682A8792073574812F056F9964812F053F94FF001084FF6FF70F3
:201D70002379208253B9A879082812BF84F801A005206070404611F07FFFCBE084F8019018
:201D9000C8E06B787BBB291D0C980A680260898881800623637068892082E8896082288A0E
:201DB000A082688AE082E878E07294F83A00012818BF02280BD19A4910201F2206F044FB96
:201DD0004FF47A7180B2414338480FF013FE688900909249CDF804A0EA7810202D1D2B466D
:201DF00006F032FB99E06878312840F08A80E67084F801A091E0C046680D00206B78002B37
:201E10007FD1A878E3896178032815D0E078257933B9012814BF2671E67008E0893C010074
:201E3000054304D07F4819460FF0E4FD61780729DED10620607070E0062907D0E578002DE2
:201E500008BF84F8019068D00220F3E70720F1E7AD3301006B78002B53D1EB78617893B9D0
:201E700002291DD007291BD0062902D12079012816D1032914D06B4811F0CEFE80B901208A
:201E900011F0FAFE0CE010F063FC0246A079624900900D9843460190102006F0D5FA6870C6
:201EB0006D78002D2DD135E007000080300E00206B7833BB5C4857490090022210200346C6
:201ED00006F0C2FA59484A46524900901020034606F0BAFAED1C0E9829680160A9880123CB
:201EF00081802078637010F033FC024601230F9D6079494900901020019506F0A5FAC0B257
:201F100058B184F801B008E0AA8841491020052306F09AFAB8F1010F2AD1256A45B32D6825
:201F300035B36078A84723E06879132820D12889012808D1607B022805D11C4812F05FF887
:201F500010F058F914E036491020052206F07CFA81B216480FF04EFD0AE06888C00B07D390
:201F7000334852462B4900901346102006F06CFA029808B111F0F2FF2579E078790830D396
:201F900055EA00032DD0204600788DB9E179257A8DF82410109A8DF8255013680DF12605D4
:201FB0002B609288AA8005E005160110540E00208DF82490617A8DF82C10A17A8DF82D10FD
:201FD00010F0C6FB1149024609AB102006F03CFA38B1256A84F801B01DB12D680DB158461A
:201FF000A847B80803D3134930460BF0ABFAF808FFF4E3AD607B401E3FF4C7AD401E7FF4A6
:20201000DCAD10F0F7F8D8E5B9FC000059440110C117011079A10000094501107D9F00009A
:20203000F58401100C0E0020AC0D0020BC0D0020840D0020A20D00202DE9F84F012010F00C
:202050000DF801280ED1DFF8F87439680020487138680EF0B9FE05F0B3F8040003D1812038
:2020700012F006FB68E201206071DFF8D854DFF8D8044178491C41703968A07981F8A000B9
:2020900040200BF02BFD2060287901281CBF002011F09EFAE8682168DFF8B05400F5B06016
:2020B000C860286801680A79032A1CBF002011F08FFA2868DFF898840168DFF898B401F1B9
:2020D0000809062299F80000C0F3801084F82E0109F1020104F5947011F0E6FB042209F13C
:2020F0000E0104F1240011F0DFFBD8F80000A67900F10C03042209F10E0103EB461011F06A
:20211000D3FBD8F80000A37900EB4310032209F11201103011F0C8FB04F12C0699F81500B4
:20213000B070022209F1160104F1300011F0BCFB022209F1180104F1320011F0B5FB02222A
:2021500009F11A0104F1340011F0AEFB30896084022209F11C0104F1360011F0A5FBB078BB
:20217000F18872894000B0704900B08840001201B080F180728189B2638C5B1C48004343A4
:2021900092B2934200D231B99BF80000802109F0F9F83B21FEE004F12E01204610F0E4FF95
:2021B0000520A081204611F0BFF9052209F11E0104F1610011F078FB99F823004009307003
:2021D00012F052FA60823A68E34F518A401A04F59771888104F1610199F82300DFF87C93BB
:2021F00000F01F00F07320460EF01CFF29680A68002010711C25A1793868694341F6210239
:2022100042520022A17969430144001D4A80A1796943425099F80200410609D5D04908884D
:2022300041F20A4290420CBFCE48CF48C4F89C012046D4F89C1188473968A37901F10E027F
:202250006B43D054A1793868694308440021C173C648017881B1B08870B900217173012055
:20227000208160812046D4F89C1188473968A37901F10E026B43D0543868A27900F10E01D2
:202290006A43885C707394F8960108B911F0A0F9A1793868DFF8D8A26943084494F8961106
:2022B0004A1E02740023A17938686943084400214174A279396801F112006A4301F1140C06
:2022D0008352A279D8F8000000EB42136A434CF80230A2796A431144A64A8A61DAF81410DD
:2022F0000B78DA074CBF4FF0100C4FF0000C99074CBF202100215A074CBF402200221B079A
:2023100000F10803A07941EA0C014CBF4FF0800E4FF0000E0A4340014EEA020242F00F022E
:202330001A54D8F80000A17900EB41100B224272D8F80010A07901EB401104228A728E4AE8
:202350001378D8F80000A179012B00EB411002D10121C17203E0DAF828104A78C272D8F8B5
:202370000000A17900EB41101F220276D8F80010A07901EB401100224A76A07909F0EEFB2B
:20239000A279D8F8001052018850A2795301C85820B90721204610F055FECDE077480168E9
:2023B00001EB021012F05CF9744AA0791368D8F8001003EB00130A1D40011350081DA2797A
:2023D00052018058F063A07940010958716404219BF8000008F0D6FF644BB2881978901C34
:2023F00011B10AB9F088801C618A94F806B041434FF4C87205FB0BFBB1FBF2F1491CA0610B
:20241000616140F6C41C23683A68CDF800B002F1080ED3F80CB00CFB00B0411A0098A1F562
:20243000A8614EF8001002F10800A17969434058986002F10C01A07968430C32095C01F084
:20245000EF011154A0793968684301F10C020C31125C02F07F020A54A0793968684301F1DF
:202470000C020C31125C02F0F00242F002020A54A179386869430844417B01F0F00141F09A
:20249000010141733868A27900F108016A438858216808616369D8F80000A17996F802E01C
:2024B0005B0000F1140249010CFB0E3303F5F6635350A17900EB4110C27C02F0F00242F07A
:2024D0000402C274D8F80010A079DAF8303001EB4012F0880CFB00F61868301AA0F51670ED
:2024F000D061A27901EB4210C17E01F0F00141F00401C176A17938684D43216840194860E0
:2025100099F80100810614D504F59771488F1B2804BF888F1B2808D1C88FB0F5A47F04BFB6
:20253000B4F86E11B1F5A47F03D0142120460CF03BFB134907200870BDE8F14F01F042BE26
:20255000104F0020B44D0020684E0020F44B00204C2C00206E4F0020482C0020F02B002052
:20257000504F0020E7F7000055000100784E00203C5601005C4D0020734F00208C4E00203A
:202590006F4F00202DE9F04FAA4D05F10C012846ADF1340D0DF0D0FD05F1200011F0D9FBFC
:2025B0001F220A23A4492861102005F04DFF002401208DF82D008246ADF81A4008208DF84B
:2025D0002EA00DF12D02ADF81C005146ADF81E003220ADF820004FF4FA70ADF8220040F218
:2025F000053002F06FFB40F2063002210DF11A0202F068FB40F207300D2105F1380202F087
:2026100061FB4FF442700E2105F1450202F05AFB4FF4447051460DF12E0202F053FB40F278
:202630001130022107AA02F04DFB40F2123002210DF11E0202F046FB40F21330022108AA09
:2026500002F040FB4FF4457002210DF1220202F039FBD349102005F0F7FED2491020042233
:2026700005F0F2FED04822461923D0490090102005F0EAFEA0464FF0030B05AFCDF81480B3
:2026900002208DF832A0CA4C8DF82F004FF481628DF8308004238DF831B0214610200097D1
:2026B00005F0D2FE0DF12F004FF48062534600902146102005F0C8FE0CA840F202425346B5
:2026D00000902146102005F0BFFE0DF1310040F20342534600902146102005F0B5FE0DF105
:2026F000320040F20642534600902146102005F0ABFED448062101704078062801DA0AF051
:20271000CDFDD14E3078800011F061FCCF4CDFF848930028E06000F094803078800011F0D8
:2027300056FC04F10C0700283968206100F086803078800011F04BFC606120B938680FF046
:20275000A3FB20697BE0E1684FF6FF700FF082FB21694FF6FF700FF07DFB61694FF6FF703B
:202770000FF078FB10200090B9490191B94904F16C021D2305F068FED4F8881002200EF0FF
:2027900073FC6079A17984F82000B4F8362184F8211004F118073A8004F59E76E661E279FE
:2027B00084F82C20D44684F822C0237A84F82D30B4F87661A6844646A66284F8380084F8E2
:2027D0002EC084F83910B4F8A611218604F5D671616384F8442084F83A6084F84530B4F895
:2027F000D611A187266484F850C084F8466084F851C0B4F8F621A4F8482004F5FE73E3647D
:20281000617A84F85C1084F85260A27A84F85D20B4F82632A4F854305846A66504F160017F
:2028300084F85EC00EF020FC4C4667610720A07107E0C04608020020BD84011008460FF08C
:2028500023FBAA694E4605F12C0005F11807B061F7612AB1814906F1600002230EF0CCF820
:202870007F4C67782078A7B9203626620FF070FF04F15407CDF80080024604F144000190B3
:2028900004F11C06029777490396A378102005F0DBFD7549754A102005F0D6FD744C04F1DD
:2028B000180004F10C0109F025FE7249A06011F08FFA714EA0684FF4E0213246521E0FF09B
:2028D00017FBA0684FF4E02132460FF011FB6B4EA0684FF0C0513246521E0FF009FBA06803
:2028F0004FF0C05132460FF003FB654904F12400C82243460EF080F8624860600BF0B0F846
:2029100028780FF025FF60490246102005F09CFD5E49102005F098FD42F20304DFF87091C1
:20293000E86841464FF040424FF0FF3311F0A4FE07460EF0C1F9002FF2D0CDF8108006A8E2
:202950000BA904AA0FF00CFC00283CD1BDF81800102834D128789DF82C1088422FD10499E7
:202970000E78913E02D01F3E24D028E048780E2825D18888844222D189680E78FEB9491C7F
:2029900009A80A684968026009AE4160307809AA494600F0FD003070102005F055FD0EE0BD
:2029B00029CD00002938010098540100CDD40000394A000001F10800097911F04DFE04983A
:2029D00008B111F0CBFAF80FAAD3286911F040FE0028A5D1286910F04EFE071CF5D03888F1
:2029F00001282AD1BE78B00805D352200FF04AFC40460FF047FCF00805D351200FF042FCE0
:202A100040460FF03FFC700807D3687828B1504610F0B4F9404610F0B1F9300905D35020E7
:202A30000FF030FC40460FF02DFC700905D34F200FF028FC40460FF025FC38460FF024FA89
:202A5000C3E7C046441E0020694F0020B413002060550100A7260100A8100020D93B010004
:202A7000680D00206F0F0100CD330100B8550100741F0020251901000E0005800E00001080
:202A9000813A0100692D010051880110C5AB001095B400102DE9F843040014D1002010F0B6
:202AB00097FD10E020460DF0D3F8012808D065E08A0740F1548101F0FD0101700020B071D6
:202AD00020460CF091FF04F16605687D002855D0697CDFF8A494022904F1EC0704F59E784C
:202AF00004F5B07604F5C67035D0042949D005295CD0062900F08A800729D3D0092900F0B5
:202B1000EC800B2900F0C1800C2900F008810D2900F0D0800E2900F0EA800F2900F028814E
:202B3000102900F04281112900F05C81122900F00E81142900F08781162900F05A81172959
:202B500000F07581FC2919D0FD2900F09581FE2900F09B81A2E7297C012909D199F803004C
:202B7000002815D01621204610F06CFA012006E020460CF034FC2874E88A28830020BDE81E
:202B9000F283297C012940F0948199F80200002800F0E580FC2120460EF0D4FFA07904F12A
:202BB000B80204F1B00111F04FFD8CE7297C01290FD199F8020020B184F8941000203860FA
:202BD0007860B87A012868D1062120460EF0BAFF79E704F1E7063078012809D120460EF0E4
:202BF00041FE0128CAD10020B87201202874C5E770780028C2D004F1C70204F1A00104F124
:202C1000D70011F01DFD012030705CE7297C012940F0538199F8020000283ED0618CE183C1
:202C300020460CF0E1FE0120287020460EF0B8F90120A871397A787C012900F010000FD18A
:202C500048B1002088F80500D8F8001098F8060049080CF0ADF8A079002111F0EDFC0EE04C
:202C700040B1D8F80020C54804F5A1735208214611F00EF9A0790122002111F0D9FC00202D
:202C900038723873F872B8721DE7287C012805D1F97A012908BFFC2197D060E020460BF00B
:202CB000B7FF0128A3D10020F87284F894000120287408E7297C012940F0038199F8020055
:202CD000002809D0002184F894100120287020460EF066F90120A87188E0297C012940F085
:202CF000F48099F80200D0B3618CE183E8E6287C012840F0EE80387C022804F1FD0204D109
:202D1000A179002011F090FCDAE6032840F0EA80A1791A2011F088FC00203874D0E6287C58
:202D3000012804F20D1140F0E8800B78012B04F5897240F0E8804878012807D15388009344
:202D500000201388CA78A17911F06AFCB8E6297C012940F0E78099F802000028F6D1298BAB
:202D7000481E288380B200287FF408AF2221FAE6287C012840F0DA8098F80910012902D18E
:202D900030780F281BE098F80800012826D1002188F80810288D000900901A20AA8CEB8CA3
:202DB000A179520811F038FC8AE6287C012840F0C18098F80910012910D1307810281CBF3D
:202DD000002010F005FC002088F80900288D00090090AA8CEB8CA1797078E2E7287F002884
:202DF000E2D1BCE7297C012940F0A88099F80300F5E7297C012940F0A580017B4A061DD4F5
:202E1000CA0709D501F0FE0101730023A1797078002209F047F953E68A0740F1988001F00B
:202E3000FD0101730023A17900221A20F1E7297C012940F09980027B510690D5017B01F0E1
:202E5000BF0101733CE6297C012940F08F8001788A067FF52DAE01F0DF010A0701700AD574
:202E700001F0F7010170F08B0090738BB28B318BA07911F005FC21E6A97E20460EF062FED9
:202E900015E7002010F0A4FB78E6A87E0F28F8D1FC2120460EF056FEB8F812000090B8F80C
:202EB0001030B8F80E20B8F80C10A07911F0F0FB64E6204609F056FE5DE620460CF072FF00
:202ED00059E620460EF010FA55E620460CF006F951E620460BF058FC2874E88A28830120D3
:202EF00038744BE6288B401E288380B20028F8D1A179222011F098FB38E701208870204678
:202F10000BF0C6F837E6288B401E288380B20028E7D15088009022201388CA78A17911F05B
:202F30007FFB23E720460DF0F7F924E6204609F009F920E6204609F055F91CE620460CF028
:202F5000EFF918E61621204608F00EFF13E6288B401E288380B20028C3D1A17900230022D7
:202F7000222009F09FF801E71721ECE7142120460AF070FBFFE500BF5C4D00202DE0000003
:202F90002DE9F04F984C04F10C012046ADF11C0D0DF0D2F804F1240010F0DBFE43F698220D
:202FB0000123BD49206104F13C000DF025FD00250DF1170040F20D4201238DF81750B7493B
:202FD0000090102005F040FAB54910204FF0FF3205F03AFAB34910204FF0FF3205F034FA6C
:202FF0001020B14F0090B24AB048132339460190102005F029FAAF4E3078800010F0E7FF74
:203010000146AD48416169B14FF6FF700EF022FFA94AC24910200623009018320191394693
:2030300005F012FA3078800010F0D1FF0146BC48816069B14FF6FF700EF00CFFB84AB94980
:203050001020062300900C320191394605F0FCF9B5489949B54FB24E4FF47A722B468860D3
:20307000B349376004F184000DF0C6FC4FF00108AB46E068AF4A29464FF0FF3311F0FCFA24
:203090005FEA000AF5D0584604900DF1160104AA05A80FF065F8A8B9BDF8140010280DD1CA
:2030B00020789DF81610884208D104990878B02804D101F10800097911F0CEFA049808B1A6
:2030D00010F04CFF5FEADA70C0F01A8112E1206910F0D1FA071C00F00D813888401E00F0C1
:2030F0008580401E6ED0801E56D0001F40F0FF807868BE780078002E3CD0012E2FD0022E67
:203110003AD1002838D1B54884F802804FF47A710EF070FC824960898968814610F04CFD1B
:20313000400829D348461B2142462B4611F070FA039008B3AA490988ADF80A804A46ADF8D7
:20315000081002AB05705846A0490090102005F07BF988B102A81B2111F07EFA0CE0E5709C
:20317000207148B99D4884F802804FF47A710EF041FC01E084F80380A069416866710520D3
:203190008847607A217A884218D0A678B6B1E068042111F039FA11E07868A669C28836B1F2
:2031B000B66826B11146437A027AB04706E05846854900902B46102005F046F978680EF0EE
:2031D00063FE94E0B9786078012906D0022940F08E80814810F013FF89E0062840F08780EF
:2031F0007D4810F00AFF82E0A81000207848BE780088062E62D06078062873D1E36923B169
:203210001B6813B1774810F0FAFE724880F800807548A570FF23E57029460C2263710AF03A
:20323000D4FD0FF041FF48B3E0690079800825D36449102006224FF4C86305F005F9614921
:20325000102007224FF4C86305F0FEF85D49102042462B4605F0F8F88DF819B040F20D303B
:2032700041460DF1190201F02DFD8DF8198040F2053041460DF1190201F024FDA06941689A
:2032900005208847207984F8078004282AD10CF02BFF257126E0C046D93B0100394A000007
:2032B000D12E0100D9310100A726010054550100CC180020694F0020441E002060818DF8B7
:2032D00018B0A570414606AA40F2053001F0FAFC10F012FA607A217A884203D0E0680421F1
:2032F00011F092F9A069416866700420884738460EF0CAFD206911F0ABF900283FF4E7AE56
:2033100060785FEA9A011AD3062818D1E07898B92B4805700EF06EFF10E0C046485501004D
:20333000BC1E00206C550100E73E010073B00000452D0100070000C010F0DEF960785FEA46
:203350005A010ED306280CD10EF070FB28494978814203DD2649487009F0A0FF1E4810F0B3
:203370004CFE5FEADA00FFF484AEA07800283FF480AE1348007800283FF47BAE607A217A3E
:20339000884215D0194F0B20491C024691FBF0F03E465043091A2172880000EBC100C319E5
:2033B0009A785978305CDB1C0BF074F8607A217A88423FF45EAEE068042111F025F958E6E8
:2033D0005A230020BD840110D521010045000110780D0020B5130020E41000202C110020A3
:2033F000221F002008110020D8100020A0110020441E00202DE9F84FDFF82844A178FF29E7
:2034100004BF002010F0E4F8A07810F04FFB044604F1680604F5C9753168086804F1900702
:2034300010B10022E28310E0B17B002904BFB07E00280AD13978002904BF2878002804D1C1
:20345000217F012904BF608CE0832189E08B4118491C618120460FF0A7FE01281EBFDFF8E4
:20347000C8030178012904D120890022401CE2836081B07E01280CD1B28B6189208911F087
:20349000BFF830B121896289481C82422AD0B28B1FE0387801280CD17A886189208911F045
:2034B000AFF830B121896289481C82421AD07A880FE02878012815D16A886189208911F0A7
:2034D0009FF800281FBF2189481C6289824209D06A88824206D0501E608180B211F08CF817
:2034F000401EE0832878012801BF69882089401C814207D16A792A71002028701346A17938
:2035100008F0D0FD04F59A71087920B120890021401CE183608104F12E07B07E012801BFD4
:20353000B08B2189491C884238D1608104F1860120460FF019FEB08C6189608400202077C4
:20355000E083E0894118A181B08B218911F054F88046B988308C728C01FB0808F08C8A42CD
:2035700004BF3989884202BFB18CFB88994207D000090090B38CA1795208002011F04CF808
:20359000B07F3870708CB880B08CF880F08C388120460FF0C9FF0220B07601E0B7F804809E
:2035B000E28BDFF88892501C00FB08F140F6C41808FB01F000902368D3F80CC06044DFF80A
:2035D00070C2D860DCF800E09A489EF800A003884FEA9A1ABAF1030F13D199F80FC05FEAE3
:2035F000CC7E48BF00230CD45B1C9BB2012B11BFB4F812C004F59A7CBCF806C00CF2DC5C6A
:2036100001E0B4F812C00CFB01FC4FF4C87EBCFBFEFCDFF824A20CF1010CC4F814C0038043
:2036300084F820204FF01C0BA379A1610BFB03F3DAF80010226801F1080001F1080CC058BA
:20365000D3681061A0790BFB00FE60691B1A4CF80E3001F10800A3790BFB03F3C0589060F7
:2036700001F10C02A0790BFB00F00C31125C02F0F00242F002020A54DAF80000A279811C7E
:203690000BFB02F200208852287908B90FF0A0FFDAF80000A27900F1100128790BFB02F29C
:2036B00040088854A079DAF800100BFB00F00844002141742879042814D1A079DAF8001016
:2036D0000BFB00F001F110022B7A125C103142EA83020A54A179DAF800000BFB01F108444D
:2036F00020214174DAF80000A27900F112010BFB02F200238B525149A2790968520101F16E
:203710001403D4F814C09B5801F1140E03EB4C034EF80230B27E022A0AD1A279520101F18F
:2037300014033E789B5808FB063301F11406B35099F80F20D30749D5A2790BFB02F200F1B0
:20375000080300F108069B58A3F5A863B3500830A27923680BFB02F282589A600098121A46
:203770001A6101F11402A079400101F11403125802F5F6621A502879042807D1A079400131
:2037900001F11402125802F5B0621A5001F11400A27952018058C4F8340101F11C03284A74
:2037B000B888166BA57908FB00F730686D01381AA0F516705851A37901EB431021490D78BA
:2037D000012D0EBF0122916A4A7819E02879A37904280CBF4FF44B604FF4E66001F11402D2
:2037F0005B01D258101ABA8808FB02F2A2F516729042D2D3082120460FF024FC01200FE07C
:20381000C272A179DAF800000F4A0BFB01F10844216848600720107020460DF004FE00207E
:20383000BDE8F28F684E0020784F00205C4D0020084F0020782C0020482C00204C2C002065
:203850003C560100734F00206F4F00202DE9FF47C94C0F460646F80B80F06481B80880F06B
:203870005181E07ADFF81C93B90F80F0CA80607A002840F0AA803809C0F0A980A07A20B1A3
:203890000020A07205200EF04DFB00254FF00108BA49657004F174002A4684F8078010F05A
:2038B00092FB207901281AD16079C0B9DFF8D0A2DAF8000000284DD048460068006B8047E4
:2038D000524661691368401A010BA161E0694018B0EBC31F98BFE0613CD9E56101E084F825
:2038F0000480DFF8A492A9F115000068000A31D340F60900A08694F8410000F0F00040F0C0
:20391000010084F84100E58694F8400000F0F00084F84000A56310F050FB4B4603F6FF72B8
:2039300011686FF0020C21F00201116004F13401C3F8FBCF954AC3F8EB1F11688908FCD3E0
:20395000C3F8FBCFD3F8FF1F41F00201C3F8FF1F10F04EFE8E4A10688E4920F00200656191
:2039700040F400701060032341F8043C41F230038B604046086050238B6008604FF4CA630F
:203990008B60086041F80C0C022015600EF0CAFA112007F057FD307C10B90E2007F052FDB5
:2039B000E5712572A07818B906F1380010F019FB794810F0E9F979490878F8B10D7004F1DE
:2039D000D000042110F015FB18E0380914D2B80BC0F0C98004F1240010F0FFFA061C08D0EB
:2039F000706830B17568F068B6F91C1000222023A84727F40057B6E00020607227F008077A
:203A1000B1E020B104200EF08DFA0020E072B168088840F602054FF0000885420AD0B0F5A6
:203A3000C15F07D00A8B4FF61F60104040F43470088306E00A8A4FF61F60104040F434700D
:203A500008826069E0B1D9F85400016804208847B0B1D9F80000006B80476169814226BF1B
:203A7000401A401E401A000BF060F068718A401840F6C411F06081422CBFB0F5FA7FF160A6
:203A900094F8410010F00F0F0BD1708CED1D854207D1B56930466FF4807142464FF0007388
:203AB000A8473F4904F17400424610F08CFA607958B10220ADF8000068460EF08BFE84F8AE
:203AD0000580BDF80800A4F8700001206070E078401CE07004F1200084F8068010F07DFA05
:203AF000002808BF47F0020702D0192010F069FA7569414630464FF080630A46A84727F0C6
:203B1000005730E004F12C05284610F066FA06F0A7FB284610F061FA27F0020708B147F0C9
:203B3000020720E010F049FA014604F1280010F054FA0646B569A80810D27EB125EA050038
:203B5000B061084610F054FD706850B12A46F068B6F91C1075680023A84702E0084610F00A
:203B700047FD27F4804727B104F1D000394610F040FA0090BDE8FF87F0150020F52E0100B5
:203B90003C2C00208C0100101500044010100440000004600C41044069A30000382C0020AE
:203BB0005D9B0000BB482DE9F84F0025BA4CB849056094F8E200002800F06581012800F087
:203BD0002F81B64E02283CD0032840F05C8151F8250CD4F8B8100029A0F5C060C4F8D40037
:203BF000B8BF49420028B8BF4042814226DA4FF08057D7F8A4014568B4F8BC0030214FF49C
:203C10007F42082300903046A847D7F8A4014568B4F8C00004214FF4F80212230090304689
:203C3000A847D7F8A401B4F8D070456820214FF440620A2330460097A847012584F8D8505F
:203C50001CE151F8258C10F0B1F82F4600B901273946934F38680028FCD0B146012609F151
:203C70000409D9F82CA03E6009B110F0A5F8CAF30720C4F8BC0010F099F8AA4600B9B24607
:203C90003B68002BFCD0D9F800B0BAF1000F3E6001D010F091F8CBF38440C4F8C00010F049
:203CB00085F8AA4600B9B2463B68002BFCD0D9F81C90BAF1000F3E6001D010F07DF8C9F365
:203CD0008120C4F8D000B8F5C061C4F8B81000F09C8094F8D80068B9C4F8D410D4F8C00098
:203CF000C4F8C800D4F8BC70C4F8C470D4F8D030C4F8CC30D4F8D410D4F8BC30002954BF20
:203D100002206FF0010004F1C802176801EB41014018411000EB917107EBA1001060D4F840
:203D3000C810C4F8C43000291CDD1E293CDDD4F8CC0030B93429B4BF15391E21C4F8C810F7
:203D500025E02A29BABFD4F8C8000B381E20C4F8C800D4F8C4003F28B4BF401C3F20C4F808
:203D7000C4001FE0D4F8CC00032812D011F10B0FC6BFD4F8C8000B30301CC4F8C800D4F8BF
:203D9000C4000028C4BF401E051CC4F8C450032508E011F1150FC6BFD4F8C8001530301C75
:203DB000C4F8C800C4F8CC504FF08057D7F8A401B4F8C43030214FF47F4245683748009359
:203DD0000823A847D7F8A40104214FF400321123456832480096A847B4F8C860D7F8A40183
:203DF00004214FF4F802122345682C480096A847D7F8A40120214FF440620A23B4F8CC60D7
:203E1000456826480096A84701E084F8D85040F2FF50404502D8801C40452FD2082030E033
:203E300051F8251C1F4F4BF2F5204843060A3868C0F3814001280CD11B4800680068804779
:203E50000DF06CFB0FF0BEFF3111C010484306EBE03694F8E50030B91448006820F07F40A1
:203E70008019460801E084F8E5501148310C0660012741600F4D8760287808B90B2000E045
:203E9000052084F8E40004F017FABDE8F88FC0462D400C402C500C407C1B002000A00C4032
:203EB00000800C40B43F0050EC010010102009403C600C401A5501002DE9F04F0D46E8077E
:203ED00089B00BD50FF0B8FE28B100218160AE48006800B1804785F0010052E1A80710D516
:203EF000002006900021049000230290009005910393019101223C2010F076FB85F00200DD
:203F10003FE11E246807DFF88482A14F40F19B800020079082469F498878FF2804BF002036
:203F30000FF056FB386890F8A0000FF0BFFD06463868C07A96F82EB1022818BF032806F5E4
:203F5000947906D108F10D0010F04AFB08B908F1070A4946584610F03FFB88B33868807A1B
:203F7000002818BF012804D1414648460EF04EFB04E04A46594640460AF0B4FFFF283DD05E
:203F90006043834608EB0B0406224946E01D0FF08BFC18F80B0040F0020BE01D0790062255
:203FB0003868817E01F0010186F82E1104F10109386800F1140106F594700FF075FC1DE091
:203FD000494658460FF01DFDC0B14A46594640460AF088FFFF2811D04443444404F10D00CB
:203FF00010F0FEFA40B904F10D0010F0F9FA002804BF607F012801D14BF0020B06F12C009B
:204010005B4601780691418909090591728C079904920122C088029140080390CDF804A0F7
:20403000CDF800900020B17910F0DEFAD6F89C0159498842B0790CBF0021012109F072F987
:2040500085F004009DE0280610D500200690002104900023029000900591039301910122B6
:204070003B2010F0C1FA85F080008AE0E8043CD508F1070108F10D0010F0AAFA38684179B9
:20409000012923D1017A012918BF04291ED1C17A022918BF032919D1817E00F1140240467B
:2040B0000AF020FFFF2811D04443444404F10D0010F096FA50B9E11D04F10D0010F088FAA3
:2040D00038680622E11D14300FF0EEFB334934484A6800784FF480510CF0FEFE10B18E2041
:2040F00010F072FA85F480504BE0A80505D50FF05DFE2C4901200860FEE7690504D507F0CE
:2041100088FE85F480603CE0680405D5812010F05BFA85F4804034E0A80431D5224C206863
:2041300010B100200FF054FA4FF0FF3020600BF0C7F81E4C216851F8202F684690471C4825
:20415000C16A026B2468009101920021029100F134014A6809781368806A03938DF810105A
:20417000ADF812006B46D4F80080124A12491348C0471349086003F037FE85F4005000E0CD
:20419000002009B0BDE8F08F204F002060230020104F0020684E0020E7F70000784E0020C7
:2041B0006E4F0020FC002043044F0020F04E002008200020942B0020E021002088490020A9
:2041D000EC4E00202DE9F04FB64D686885B0019020B905B0BDE8F04F10F0F2B90178DFF81A
:2041F000C882B24EDFF8C892DFF8C8A201291CBF0229042946F2A81741F64C5B05D0402983
:2042100018BF802900F09A8043E10FF0F3FD0028FAD00198007805F057FA0090446814B99F
:2042300000200FF0D5F99AF80100002860D002F0D3FA0FF03BFC02900168009801914F68C5
:204250000AF0D8FA022827D000990A78012ADBD1994B19680A7A19F80230337018B910F0CF
:20427000ABF95844A0602069C17E01F0EF01C1762069C17E41F08001C1762069C17E01F0A4
:20429000F00141F00201C1768C48B96841182069C16101210098A0E001980178802913D1E0
:2042B0000822874832700178012903D09AF80100012803DD78690121C17213E0D8F8281010
:2042D0007A690878D0720DE07D49072030700A787869012A02D10123C37203E0D8F828100A
:2042F0004A78C2720298817901988AF80210CBE00098002888D00199009A0078914205D1DF
:2043100001281CBF00200FF063F915E0012840F0C080694801680A7A19F80200307010F02F
:204330004BF93918A06810F043F918B910F044F95844A0600120A8700098A5E09AF8010001
:2043500000287DD002F048FA0FF0B0FB04462068029047689AF802000FF0A8FB03900FF01F
:204370004FFD10F0070F3DD0A87805F0ADF9019041680198009102990AF03CFA022831D0A9
:2043900001990A78012A2AD14B4B19680A7A19F80230337028B910F00FF983440098C0F84A
:2043B00008B000990869C17E01F0EF01C17600980069C17E41F08001C17600980069C17E6B
:2043D00001F0F00141F00201C176009AB9683B4841181069C16101210198A97054E0002026
:2043F0000FF0F6F80398A04228D002980178802913D10822324832700178012903D09AF85D
:204410000100012803DD78690121C17213E0D8F828107A690878D0720DE029490720307086
:204430000A787869012A02D10123C37203E0D8F828104A78C272A0798AF80200029823E097
:204450000FF0DEFC10F0070F29D0A87805F03CF904462078D4F80480012820D116490A68FD
:20447000107A19F80010317010F0A6F83918D8F8080010F09DF820B910F09EF85844C8F8B9
:2044900008000120A870204605B0BDE8F04F06F017BD05B0BDE8F04F00200FF099B805B044
:2044B000BDE8F08F242C00203C5601006F4F0020289A0110684E0020104F0020F0D8FFFFF9
:2044D000734F00202DE9FE4F0F46994C0168E16241688068E0609748A16080479648E16A00
:2044F0000160A168DFF870B24160E168DFF8648281609249002FA246C16069D03D68E87870
:204510008DF8080028798DF8090002A810F04CF8A86808B18A490160E86808B189490160A8
:20453000894C2878207068786070A878BE68A0703178E1707368636072696261B168A16010
:20455000F168E160316921612E697B68A6621868A0616869E062A8692063287F84F8340094
:204570002A6AA263786886681EB900200FF030F800E026627868C06818B900200FF028F826
:2045900000E060627868406818B900200FF020F800E0E0612869A062F86881680E6806B9A7
:2045B0006B4E6A494FF001094E60C66881F801902EB900200FF00CF8F868454601E04546EF
:2045D0002E6000685C46FE68A0617068E06106E000200EF0FDFF4FF001095C4645462868AD
:2045F0005E494668621C04F114035020B04710B1286880688047DAF808008047594F0026F6
:20461000834669467E7056483E700422206130460DF008FE0098B0F5801F0CD020B90EF029
:20463000B5F905F079F908E00CF012FC0FF070FA0420788001E00EF0A9F94B4FB04628683D
:20465000C7F808808069A660804778604748468080F8009014200FF017FBFF211422A0627B
:204670000FF0D3FCE01CFF2103220FF0CEFC14200FF00AFB3E4908600868142231460FF00F
:20469000C4FC3046FCF796F948460DF01BFD39480188FF2906D1022101807822001D3146D4
:2046B0000FF0B3FC03200FF07BFF04200FF074FF05200FF06DFF06200FF066FF07200BF0CE
:2046D00001F82D4E0820307006F140000FF058FF0BF066FA363605200A2132460EF05EFE18
:2046F00038B14046C0F10901401C06F8011B0A28F8DB2F68214909200DF10A0201AB7D6840
:20471000087010204146A847A06AE2690A270A309DF80A1000F8011BDAF80C107F1EF7D195
:20473000921E5846E261884702F0FEFFBDE8FE8F901C002041490010F8440020C846010017
:2047500069280100C93701000820002078220020A7000100302300200C2100203D2F0100DF
:2047700089380100BC1F0020182C0020640D00206C2C0020C81D0020FC190020852C0020B4
:204790002DE9F04F0546A64CA878216AADF11C0D801F00F03E81C01E00F02981401E78D099
:2047B000401E56D0C01E4AD0401E40F03581207A617A00283FD1607800283BD0A8880FF042
:2047D000DBFE071C00F02881A87A40080AD3787940B1E968890A05D2B91D01AA07F06EFB6F
:2047F0000A2825D0207B022802D1A87A00091FD36078AE887979C0B1607CB0B90120607422
:2048100005F10802304603F08DFC002840F00481206A002800F000814368002B00F0FC8054
:20483000002130460A469847F6E00521304603E0032100E00521A8880FF09AFEECE0002967
:2048500000F0EA804B68002B00F0E6806A780221CBE00FF0F9F9002800F0DE80276A0FB152
:20487000386868B9286900280CBFE069012069890FF07AFE002800F0CF8068890121DBE7D4
:20489000286900903C6869892A7B6B7BE81CA047C2E068784FF00008002840F09580A87984
:2048B0004008C0F09180606A002840F08D8001A841460E220FF0A9FBA8880FF05DFE061C01
:2048D00000F0AA806869002859D081464146062209F111000EF003FFC24620B3484606227A
:2048F0000EF0FDFED8B999F8100009F1110B474605907F1C5846FFB28BF800700EF05CF816
:204910000A280BDA474B059A0101A1EB4001C9188879824202D1002FEBD100E01FB94746C7
:204930004FF0010A6F61BAF1000F09D109F1110101A806220EF0B8FF99F810008DF80A00F7
:20495000BAF1010F1BD06F69CFB1387C07F1110106228DF80A0001A80EF0A6FF06F10C0085
:20497000B11D06220EF0A0FFB01D07F1110106220EF09AFF387C40F00200707107E0707967
:20499000B11D06228DF80A0001A80EF08DFFA9799DF81120C1F3800010438DF81100080939
:2049B00005D39DF8110040F008008DF8110001A8294602F0EDFC28B92078022106F0E2FC38
:2049D00040462AE04FF015080FF04AFA206A18B343680BB3A8886A7801219847B8F1000F0F
:2049F0001AD0206A032142464368A8881BE7E878291D002207F062FA0A280DDA410001EB49
:204A1000800005F10C0225300421C0B205F0ACFB02E0A8880BF048F9012007B0BDE8F08F30
:204A3000FC190020EE1A00207CB5A34D144602460026A2F58062192A1BD8DFE812F0310176
:204A50002A012201190111010C010401FD00F300E700DF00D700C500B9001A001A009700E4
:204A700081007A0065005C00520047003A0030002500282880F29A80022940F0978021884B
:204A90000FF06EFD064614E1012940F011812178284601750121C1740FF012F809E101297E
:204AB00040F00681002C00F0038128461230024614E0102940F0FC80002C00F0F9802846BB
:204AD0005C30102221460EF0EFFEF2E0012940F0EF80002C00F0EC802A46921D2178104685
:204AF000E4E0262940F0E480002C00F0E180284626226C30E6E7012940F0DA80002C00F093
:204B1000D7802846401D9CE0602900D144B9012940F0CE80002C00F0CB8028460D3090E066
:204B300005F19200214660220EF0BEFE01206873BFE0012940F0BC8020780FF00DFDB8E0D0
:204B5000012940F0B5802178022900F3B180284600F10C0211702178022918BF301C02D126
:204B70001021C17201200FF0F3FCA2E0072940F09F80611C684606220EF054FD20786946C8
:204B9000324607F09BF904460A2C0FDA0FF0DCFC38B9204604F02CFE0EF06CF80BF000F8F8
:204BB00087E0284601212C30015582E0022680E001297DD12A462178907B0028917378D151
:204BD0002078012875D1E9E72846027B01296FD1022A04D02178072901DB102904DD022AAE
:204BF00066D12178102963D1C17262E001295FD121780A295CDA2846093057E0012957D167
:204C10002178022954DA284608304FE000294FD10FF09AFC10B90EF00AFFBDE728460121DB
:204C30000F3043E0042943D12168244888423FD328461C3001603CE0012939D12B4603F120
:204C50000A00217832E0012932D1217802292FDA2846C01D2AE010292AD128464C3030E70B
:204C7000012925D12178022922DA2846001D1DE001291DD1217804291ADC2846C01C024656
:204C90002DE7012914D12178022911DA2846821C25E702290CD1218828461630018008E04C
:204CB000012905D12178022902DC0548017000E0182630467CBDC046FC1900203F420F00EC
:204CD000FD1900202DE9FC41A0F2013714468846022F40F232819B4E9C493F1F0F2F04D9EC
:204CF000143F4CD0BF1E1CD011E0DFE817F0CF00C9000D01FA00C100B9002601AF00A70016
:204D1000100010009D008F007F0074006600282880F21381B8F1020F40F00F818849238892
:204D300007E1B8F1010F40F00881F078012800F00481324620781179107189B9002800F08E
:204D5000FC805078012800F0B580042800F0B280062800F0AF80052800F0AC80BDE8FC81AB
:204D70002078002840F0E9805078032800F0AF80072800F0AC80052840F0DF80A7E0B8F181
:204D9000010F40F0DA802078012840F0D68006F1EC000EF041FF002840F0CF8034460020C0
:204DB00004F13A0108F0CEFB002840F0C68004F1C8000FF024F9BDE8FC81B8F1020F40F06F
:204DD000BC8020880A28C0F2B880B0F5486F00F3B4808E1C17E0B8F1020F40F0AE802088DF
:204DF000B0F5FA7F80F2A9800E460CE0B8F1020F40F0A38020880628C0F29F80B0F5486F9A
:204E100000F39B803E363080BDE8FC81B8F1020F40F0938020880628C0F28F80B0F5486F3E
:204E300000F38B803C36EEE7B8F1010F40F085802078062880F28180454E0EE0B8F1010FBC
:204E50007BD12078042878DA0A3606E0B8F1010F73D12078082870DA09363070BDE8FC81AA
:204E7000B8F1010F69D12078042866DA0836F4E7B8F1010F61D1207804285EDCF61DECE743
:204E9000B8F1020F59D120880E36BCE7B8F1010F53D13079012850D032462078D178D07027
:204EB00069B9002849D05078012803D0042818BF052842D101200EF0DFFEBDE8FC812078C2
:204ED00000283AD15078022818BF052835D110780DF03EFC1C490246102003F0B5FABDE8B0
:204EF000FC8106F1830500211F22284608F06DFF21464246284607F063FA44463078B4716A
:204F10000DF026FC002311E006F1640500211F22284608F05AFF21464246284607F050FA2F
:204F30004446307874710DF013FC01230094094901950246102003F087FABDE8FC81C0468A
:204F5000BD840110680D002099450110A80D0020A20D0020094501102DE9F04F9E4C207891
:204F70000E46F10BADF11C0DC9036ED1B0085ED2606AA16A720807D2F00828BF86F0040690
:204F900080F02581002023E1858861B904F11800924A00904FF6FF71022301200FF0D0FA63
:204FB0000146A16221B304A800900027019702230293FF220392228B28460DF1120301F039
:204FD00003FB58B99DF813009DF81220A16A12EB002204D0498928460BF0A0FFA16A228BB3
:204FF00008463B464FF6FF710FF0A6FA0146A162206A00291CBF012186F001061FD168B1FE
:205010004368616A5BB18888002201219847206A676A4368B888032100229847616A888885
:205030000EF058FD0EF0B8FA86F00106CFE00020014602F0ADF930B1012186F00206207819
:2050500006F0A0F9C3E00221F7E707F0ADFC5FEA000800F0BA80054628784FF0010AB038D5
:2050700012D0401E03D01F3800F0A580A7E02879002840F0A480B8F80200B8F80610B8F8D5
:2050900008200BF04BFF9DE02879401E41D0083803D0743800F0828087E068781A2879D083
:2050B000688881460EF0D6FE801E18D0401E7CD1288901280AD16889032807D1E9688A782A
:2050D000484604210BF078F9024600E01822206A00286AD04368002B67D0042116E0298979
:2050F000688852460129814609D16989032906D1E9688F781FB910210BF05EF90246206AD3
:20511000002852D04368002B4FD00521484698474BE02B7A688805F10807082B814639D1E4
:205130000EF098FE801E12D0401E33D1287B0A2818BF122205D16889042100220BF03CF9CB
:205150000246206A30B3436823B3042120E07888102100220BF030F9237D834693B1484632
:205170000FF00AFA70B11E490B784BB94179831D524601F00101084619460EF089FA01E019
:205190005046E074206A28B143681BB105215A467888984768880EF09DFC06E06A880EF039
:2051B00059FE014610460BF0D9FA297905F108000FF052FA03E04046FFF7E2FA8246BAF184
:2051D000000F02D028460EF03FF886F40046B0B207B0BDE8F08FC046FC190020BC520100F4
:2051F0005A4F00202DE9FC41884C894A2678894F894D8A490D2E30464FF4A0534CD8DFE8EB
:2052100016F003010E000E000E000E00FB00FB006800FB00A700A700D800D800DF0080493D
:20523000176041F204464C887E4FB4421CBFB1F81AE0B6450BD0B1F83280B0451CBF41F221
:205250000A46B44203D0B64518BFB04502D12E80176076E0022C744E2C8035D94FF480673C
:20527000E41B1AD0241F012C1DD94FF47F77E41B1BD04FF44067E41B0FD0A41E012C0CD910
:20529000241F0AD0641E012C0DD940F2F937E41B012C19D9241F08D0AEE0022814BF2B807B
:2052B000624E16604DE0624EFBE762480468257A012D05D141F20240488048834886F0E793
:2052D0004B804B834B86ECE700200EF081F9832096E059488178FF291ED01C2041435748C1
:2052F000176040F204460068841C645A2C80A41B012C534D10D94FF47F76A41B15D00A3CA2
:20531000012C14D940F6F636A41B032C84BF641F012C0ED9A41E012C76D940F2FD36A41BD7
:2053300007D0641E012C02D905E041F20143801C4352156005E000200EF04AF985200FF010
:2053500097F9BDE8FC413F480078012106F01AB84A882A8040F20443D21A55D040F6FC7337
:20537000D21A15D0083A4FD04FF47F73D21A22D1354C364A2568364800680023CDE9002367
:2053900055F8086F334B0222B047334908803BE0092810D131490A68508960B130490878A0
:2053B0000AF04EFB002100200FF0C2F8002020702AE04888288000200EF00AF985201FE0A9
:2053D0004A882A80022A0DD940F20440121A1BD040F6FC70121A05D0083A15D04FF47F70A6
:2053F000121AE8D1887B801CC0B2B528A8BF662088730020488007E000200EF0E9F8842070
:20541000BDE8F6410FF034B9BDE8F3816F4F0020204F0020853F0100504F0020D42B00208B
:20543000204A002049200000759D0000F5B70000755B0110104F0020684E0020482C0020E1
:20545000C96300006E4F0020F04E002002000080EC4E002039130100424F0020542C00205B
:20547000714F002010B50B7884074CBF43F0020303F0FD0304064CBF43F0800303F07F03F3
:2054900004074CBF43F0080303F0F70384064CBF43F0200303F0DF0310F0AA0F0B7004D0F3
:2054B000107840F00C00107010BD18B9117801F0F301117010BDF8B50F460026387802283C
:2054D00014461D4667D1786801784278069801EB022189B2002818BFB1F5285F01D00B20A4
:2054F000F2BD4FF42850091A0AD0491E1ED0491E4BD0491E22D0491E28D0C53941D04AE06D
:20551000F8680EF084FD069B079980B2C21A8A42ACBF0846C01A80B2C118162904DA28801E
:205530000246F868C1180DE00D2636E0F8680088022129802070000A60702EE006202880AA
:205550000622F96820460EF0AFF926E0F868B0B108212980018821700188090A61704188BD
:20557000A1704188090AE170818821718188090A6171C188A171C088000AE0710DE02980C0
:205590000BE04A480178CA0705D401202880F8680178217001E02E8001263046F2BD2DE937
:2055B000F8460E46814630780024022817469A4678D17068017842783C4D01EB022189B228
:2055D0004FF42850091A08D0491E30D0491E55D0491E3FD0C63960D064E0F0680EF017FDBF
:2055F000089980B2884206D308460AEB0001162903DB0D2457E0072455E0F368524639468A
:2056100018440EF051F908985044ADF8200000210898F368C0F1160218440EF0F6FC6868DC
:2056300000281CBF0268002A3DD0002123E0089888BBBAF1020FDCD139787878F26801EB5F
:2056500000211180686800281CBF0268002A2AD0012110E00898F0B9BAF1060FC9D1F0681A
:20567000062239460EF020F9686800281CBF0268002A18D003214846904714E0089850B9E7
:20569000BAF1010FB5D13878002813BF0128F1680870802407E00B2405E02878C10758BFF7
:2056B000032400D501242046BDE8F286B02200202DE9F04F8246DAF800600C465FEA020850
:2056D000ADF11C0D14BF00214FF0FF3106F1480083460EF057FA002818BF0B2040F0068158
:2056F000002565708448F460B8F1010F057004D065700220F4600CF03DFE2078012840F209
:20571000AB80801E012868D9801E012833D9801E012800F2DF800EF050FC06904FF080506C
:2057300000F5EE77D0F8DC01A378466A009321782846062908BF0120019001200290A06892
:20575000228AE1686368B047814606980EF050FFB9F1000F40F0C080B8F1000F02D00EF01F
:2057700073F802E050460DF035FA002800F0A4803868806A2AE00EF020FC06904FF080507B
:2057900000F5EE77D0F8DC01012306680093A168A27860682478AC46042C08BF9C466346DA
:2057B000B047814606980EF023FFB9F1000F40F09380B8F1000F02D00EF046F802E0504623
:2057D0000DF008FA002877D03868406880474949C1F8B0510D6081467EE00EF0EEFB0690E1
:2057F0004FF0805000F5EE76D0F8DC01E38A87690093E0680190208B0290A0780390207D3E
:2058100004900121059122782846022A08BF081CE1786268A368B847814606980EF0E8FE97
:20583000B9F1000F58D1B8F1000F02D00EF00CF802E050460DF0CEF900283DD03068006A77
:2058500080475FEA000947D13068C569A168E28A2369E078A847BEE70EF0AFFB06904FF0D7
:20587000805000F5EE76D0F8DC01E38AC7680093E0680190208B0290A0780390207D29464E
:20589000049001200590257805B9014608466268A368E178B847814606980EF0A9FEB9F1DD
:2058B000000F19D1B8F1000F02D00DF0CDFF02E050460DF08FF908B9142017E03068406962
:2058D00080475FEA000907D1306802692169E078904780E74FF0FF39B8F1010F02D0022080
:2058F0000CF020FB58460EF07CFB484607B0BDE8F08FC04650450240842C00202DE9F04F03
:20591000DFF80CB29BF80000002885B004D0401E032804D9801F012840F2F780EFE07D4DAE
:20593000DFF8F4812868DFF8F49103687C4E03F10807062207F1080103A80DF0B5FF06223A
:20595000B91C01A80DF0B0FF3878C0F380118DF800101E24C10900F00F02032A39D168795F
:20597000C0F38000814233D12969062203A80DF05BFC00282CD09DF8000001A90EF02CFED9
:20599000002825D0314601A80CF040FE0746FF2F1ED0D9F80000807A6743002818BF022879
:2059B0000BD0012818BF032812D1701CF25DC11940460EF0B9FD10280AD0F41901AAE11D37
:2059D000404609F0BCFB062201A9E01D0DF06CFF90E000F00F00052840F097806879C0F3D3
:2059F00080008142F4D12969062203A80DF01CFC0028EDD09DF800003F7801A90EF0ECFD53
:205A10007F0940F2024A88B3314601A80CF0FEFD8346BBF1FF0F6DD0D9F80000807A00286B
:205A300004FB0BF118BF012800910CD0022818BF03285FD10846711C325C014440460EF060
:205A500073FD102856D050460EF06AFD009806EB000A01AA0AF10701404609F070FB06221A
:205A700001A90AF107000DF01FFF1CE09BF8000002283FD19DF8001001AA304609F032FA9B
:205A90008346BBF1FF0F35D004FB0BF03118487F012805D070BB01F10D000EF0A1FD48B3A5
:205AB00050460EF03DFD04FB0BF4D9F80010305D88760622701C0119D9F8000014300DF0BE
:205AD000F3FE184918488A78510604D5F90758BF41F20A4101D541F20441418041834186A3
:205AF0001248134A01801348134908600121107805F048FC29680A680020107105E00020B3
:205B10000DF066FD86200EF0B3FD05B0BDE8F08F6F4F0020F44B0020CC470020104F0020F9
:205B300060230020F02B0020204A0020504F00206E4F002049200000204F00202DE9FE4FF6
:205B500005467E48002400680094C0090ED37C48007858B97C497B4851F8112C104040F07F
:205B7000817041F8110C20200BF094F9012D40F0E080DFF80092D9F8DC00012840F0D68083
:205B90000220C9F8DC000DF0AFFA01200BF082F95FEA000805D00120C9F8DC000DF0B4FA6A
:205BB000C9E00EF022FAA34602906848684DC0F800B0A86A016801208847012804D15846C3
:205BD00008F084FE012000906248634FC0F800B0386811200EF008F900B1012410200EF0F2
:205BF00003F908B144F002040F200EF0FDF808B144F004040B200EF0F7F820B12868574E71
:205C1000016B308888470A200EF0EEF820B12868534E016B308888475248012606602868C7
:205C3000816944F0200088474F4806600EF0D6F800F001010191400814D2286A81684B48BE
:205C500088478246BAF1040FF7D0BAF1010F04D1286A42684548032190474549086820F0B6
:205C700003000860584600F097F92B683868986B8047019801280CD0BAF1010F04D1286ACE
:205C900042683A48314690473949086840F0030008603048066028684169204688470B2075
:205CB0000EF0A2F820B128682C4BC16A188888470A200EF099F820B12868294BC16A188871
:205CD0008847284806600322C9F8DC20264BC3F800B02868416B204688470128F9D138684D
:205CF00004200BF0D7F80446184806603868134800688009FBD30098012802D1304608F0DA
:205D1000E5FD0EF059F808200BF0C4F807460298C9F8DC600EF000FCFBF738F90DF0F4F978
:205D300057EA040018BF4FF0FF3804E06FF0040801E06FF001084046BDE8FE8F1410094004
:205D5000641C0020FFFFFCFC150009400C400940B8010010000222432C200940065101008D
:205D700002510100282008608001044300400340242208407C1B00202DE9F04F94460E1C26
:205D900004461F46ADF1440D4DD07448357801684FF0010B0BFA05F0014244D0BCF1000F0E
:205DB000666040D0BCF80000B0F5C15F2FD1DCF81400DCF818606A4BDCF81C50DFF8A4914F
:205DD0000E904FF0030E0DF134080F9618681095C0F3036A58F8046FB6B10021331F0520DF
:205DF0000A4653F8045FA94506D0401E01F1040102F10102F5D107E0052A05DA705820F4EF
:205E1000702040EA0A407050BEF1010EE2D1C4F808C00EF0D2F882465E48801C007820B19E
:205E300050460EF0E5FB002094E003F0B7F84E49086840F0020008600AA80DF0E5FE4B4EDC
:205E50004FF005080AAA4A49CDF8308006F1D0000BF0DCFB0AA80DF0BFFE00254FF0FF09B9
:205E700019210AAB8DF83050424ACDF82C9006F174000BF059F90AA80DF0C6FE0AAA3E49AB
:205E9000CDF8308006F582700BF0C0FB0AA80DF0A3FE8DF830B0394ACDF82C9006F190009A
:205EB0001A210AAB0BF040F935492A4606F1AC0013460AF011FD33480DF066FF324A2B46F2
:205ED000042106F148000CF00DFE4FF6FF70A6F8700086F805B086F873503571B571F571DF
:205EF000357275727561B572B378F572581CB07050460EF07DFB1FB903AF38460DF0CCFD07
:205F1000386820607868E060387C84F811B02074788A60821D4EA6616661F86800B1A0617D
:205F3000B86800B160612946782204F1200007F04CFF04F1380029460CF078FC68460EF0A7
:205F500004F81349029404F170002A466B460AF0C3FC204611B0BDE8F08FC046D421084076
:205F7000541300500200F84400200940F015002001390100F52E0100DDDC000005FF000072
:205F9000793C010069A300003D0601002BE000008B3F0100F01500202DE9F84FDFF8F4B117
:205FB0000746ABF13500DFF8E0910068800880F0D98071480068006880477A490831D1F89D
:205FD000008000254FEA28725FEA985102F101020AD2C0F13E0110F10A0F4FEAE101D8BF79
:205FF00008218A42B8BF0A1C644BD3F87C11C1F304611629A8BF20391B68C3F30443162B1F
:20601000A8BF203B9A468918162905DA11F10A0FB8BF6FF0090100E01521594B594E01F0C2
:206030001F0242F4F8521A80326812F0030F18BF0125D20828BF45F002050FB145F004056F
:206050004A4692F90730C31A052B04DA9379AB4208BF918866D0DFF834E10F28A0F10F0C15
:2060700025DB0CEB0013A3F1F00C4FEA2C26072E88BF07263446062C88BF06245EF824703B
:20609000042303EB84037446E358DB1B03F0FF04EF0824BFC3F307273C44AF0824BFC3F3E5
:2060B00007473C446F0828BF04EB136401E0002426465EF826E0EF080EF0FF0324BFCEF3D6
:2060D00007273B44AF0824BFCEF307473B446F0828BF03EB1E63A4B2ACEB0626AAEB01015E
:2060F0007443002904F1800403EB1423D8BF0121342408F0FF074C43A1B27943B1FBF3F1D5
:206110004FF6FF738B4238BF191C802889B2918005DA10F1800FB8BF6FF07F0000E07F2088
:20613000D07195711A4800681F2910604FF0000008D340F2FF128A4206D24908401C8A420C
:20615000FBD301E01F219180134F0F39090940EAC10047EA0001CBF8FB1F0026CBF8FF6F22
:20617000BDE8F88F0D490E4F4A4608200F60921D1070BDE8F88FC046EC0100103C1100500E
:206190006E62084024220840402C00209C130050082009403500094000E7A480301009403B
:2061B000FDFDA400AC3F00502DE9F84F0024774D774EDFF8E0B1DFF8E0A1DFF8E081DFF81D
:2061D000E091D9F800104A7A01231820A34060431A420AEB000709D0087A38F810203A80EA
:2061F00000201BF80420BA73F87302E040F6010038800020788007F118007860387B00F02C
:20621000EF0040F080003873097A01290ED141F28830B860387B00F0F00040F00500387322
:20623000787B00F0F00040F0020019E0002C0CBF0221002100F0F000084338733CB90EF04C
:20625000BBF900F5C870CAF80800022004E00020022CB860F9D10120797B01F0F00108430B
:206270007873641C3E61022C7D61AADDD9F80000017A01290EBFCAF834A00020CAF8340082
:206290000CF000FB3060474880690078C1074CBF1021002182074CBF2022002243074CBF05
:2062B0004023002300074CBF8020002011431943014341F00F01317100207071D9F80010BD
:2062D000887A00F003007071CA7A920002F00402104370718A7ED20002F0080242F01002BC
:2062F00010437071087A012818BF042806D10020B071F071B06001F1140216E0487FB0713D
:2063100001F15D025078F071487F20B10B7FC3EB4313C8181E30B060507828B11278C2EBB7
:2063300042128B1803F15F001F4AF060726101F10C0030611D4BF07E727900F0E00040F027
:206350008600F0761A48F061187828B1307900F0FE0042F040023071164B987843064CBFB4
:2063700042F0200202F0DF02727100202880A870E87028716871E8802881A872E872E8608C
:206390000868C0F804A0BDE8F18F00BFB44D0020F44B0020409A0110204A0020109A01108D
:2063B000104F00203C560100D0470020784E002000204E00F02B00207E488078FF2800D13F
:2063D00070472DE9F84F0DF071FB054605F217100178012908BF417800F0A28005F1740028
:2063F000817B022903D105F174020020907305F59276F18911B1307B04F0C4FF68896E4FB5
:20641000288105F58D78B87AFB793A7BF97A7C7BB8F800C000EB030E96448E4474441FFA16
:2064300084FEB8F80440641CA8F80440F444B8F80240A8F800C00419A8F802404FF01C0C82
:206450003468FCB1DFF8749195F806A0D9F8009009F10E0B0CFB0AFA09F10E091BF80AA087
:2064700034F81AB0F34424F81AB095F806A00CFB0AFA19F80A9004EB4904B4F84AE0864434
:20649000A4F84AE0002B08BF002904D1002A04BF797B002923D02A89E889821800202874BF
:2064B000AA81287F012804BF698CE983787868B10121297705F174018878002804BF887B89
:2064D000002803D1087F08B9698CE983307D80B3022804BFF87A002827D1002128E0E98313
:2064F00038B100202874287F012807D1698CE98304E0B8F80600401CA8F80600A88929895F
:20651000814206D08842D1D2081A41F2AB029042CCDA287C08B1052901D0082100E03E2127
:206530002846BDE8F44F0CF08DBD787A08B1022131752348FA7B01682868D30708D53A6908
:20655000C26001F11400A97949010022425011E001F11402A97949015258184932610A686E
:20657000A97902F108030CFB01F29958C1600020E8832877134841690A7890074CBFB87B59
:20659000812085F874002846FCF784FA01280ED00121284607F052FC28460CF093FBFCF7B3
:2065B00029FF012803D0BDE8F14FFDF70BBEBDE8F18F00BF684E00205C4D0020482C0020EE
:2065D0004C2C00203C5601002DE9F0410C4684B00746207A0026C10690461D460BD5404640
:2065F0000DF096FF030000F0F0800A22214638469847060050D1207802281AD16068017891
:20661000427801EB022189B24FF42050091A012910D9891E41D0491E16D0FD3905D0491E06
:2066300000F08B80491E74D0491E7BD0491E00F0A180B8E00B98002831D1E0680A9A0178B0
:2066500011800278416891E00B98002827D10A9801210180E0680178297000216089401C3D
:2066700080B20DF051FF0A99098868B102780A9B921C51181980418969704189090AA970D6
:2066900002784168E81C72E00A98091D018004220021681C0DF0B9FC98E00B9800286BD12C
:2066B000E06807880A98042101802F70380A68700DF1020138460DF027FF04001FD0E7680E
:2066D000BDF802204FF6FF786B4641460DF034FF40B9237862683F4802210DF011FF08B9D9
:2066F000ADF80080387802280BD179680222281D0DF0DAF80A980188891C018001E0ADF8BF
:206710000070BDF80000A870BDF80000000AE8705CE00B9800282FD1E068016838460DF0E2
:206730004BFA03E00B9838BBE06800880A9A022111802870000A687048E0E0680DF067FC19
:206750000B9B80B29842B8BF07263FDB834208BF002006D00C99C9188142B2BF0C98C01AFF
:2067700080B20A9908800246E068C11828460DF09BF82BE00B9808B10B2627E00A9AE068BA
:206790000721118002782A70417869704188A9704188090AE97001792971C1886971C088F4
